{
  "contracts/Vibers.sol": {
    "Vibers": {
      "abi": [
        {
          "inputs": [
            {
              "internalType": "string",
              "name": "baseTokenURI",
              "type": "string"
            },
            {
              "internalType": "bytes32",
              "name": "allowlistMerkleRoot",
              "type": "bytes32"
            }
          ],
          "stateMutability": "nonpayable",
          "type": "constructor"
        },
        {
          "inputs": [],
          "name": "ApprovalCallerNotOwnerNorApproved",
          "type": "error"
        },
        {
          "inputs": [],
          "name": "ApprovalQueryForNonexistentToken",
          "type": "error"
        },
        {
          "inputs": [],
          "name": "ApprovalToCurrentOwner",
          "type": "error"
        },
        {
          "inputs": [],
          "name": "ApproveToCaller",
          "type": "error"
        },
        {
          "inputs": [],
          "name": "BalanceQueryForZeroAddress",
          "type": "error"
        },
        {
          "inputs": [],
          "name": "MintToZeroAddress",
          "type": "error"
        },
        {
          "inputs": [],
          "name": "MintZeroQuantity",
          "type": "error"
        },
        {
          "inputs": [],
          "name": "OwnerQueryForNonexistentToken",
          "type": "error"
        },
        {
          "inputs": [],
          "name": "TransferCallerNotOwnerNorApproved",
          "type": "error"
        },
        {
          "inputs": [],
          "name": "TransferFromIncorrectOwner",
          "type": "error"
        },
        {
          "inputs": [],
          "name": "TransferToNonERC721ReceiverImplementer",
          "type": "error"
        },
        {
          "inputs": [],
          "name": "TransferToZeroAddress",
          "type": "error"
        },
        {
          "inputs": [],
          "name": "URIQueryForNonexistentToken",
          "type": "error"
        },
        {
          "anonymous": false,
          "inputs": [
            {
              "indexed": true,
              "internalType": "address",
              "name": "owner",
              "type": "address"
            },
            {
              "indexed": true,
              "internalType": "address",
              "name": "approved",
              "type": "address"
            },
            {
              "indexed": true,
              "internalType": "uint256",
              "name": "tokenId",
              "type": "uint256"
            }
          ],
          "name": "Approval",
          "type": "event"
        },
        {
          "anonymous": false,
          "inputs": [
            {
              "indexed": true,
              "internalType": "address",
              "name": "owner",
              "type": "address"
            },
            {
              "indexed": true,
              "internalType": "address",
              "name": "operator",
              "type": "address"
            },
            {
              "indexed": false,
              "internalType": "bool",
              "name": "approved",
              "type": "bool"
            }
          ],
          "name": "ApprovalForAll",
          "type": "event"
        },
        {
          "anonymous": false,
          "inputs": [
            {
              "indexed": true,
              "internalType": "address",
              "name": "previousOwner",
              "type": "address"
            },
            {
              "indexed": true,
              "internalType": "address",
              "name": "newOwner",
              "type": "address"
            }
          ],
          "name": "OwnershipTransferred",
          "type": "event"
        },
        {
          "anonymous": false,
          "inputs": [
            {
              "indexed": true,
              "internalType": "address",
              "name": "from",
              "type": "address"
            },
            {
              "indexed": true,
              "internalType": "address",
              "name": "to",
              "type": "address"
            },
            {
              "indexed": true,
              "internalType": "uint256",
              "name": "tokenId",
              "type": "uint256"
            }
          ],
          "name": "Transfer",
          "type": "event"
        },
        {
          "anonymous": false,
          "inputs": [],
          "name": "allowlistMintOpened",
          "type": "event"
        },
        {
          "anonymous": false,
          "inputs": [],
          "name": "publicMintOpened",
          "type": "event"
        },
        {
          "inputs": [
            {
              "internalType": "uint256",
              "name": "quantity",
              "type": "uint256"
            },
            {
              "internalType": "bytes32[]",
              "name": "allowlistProof",
              "type": "bytes32[]"
            }
          ],
          "name": "allowlistMint",
          "outputs": [],
          "stateMutability": "payable",
          "type": "function"
        },
        {
          "inputs": [
            {
              "internalType": "address",
              "name": "",
              "type": "address"
            }
          ],
          "name": "allowlistMintedCounts",
          "outputs": [
            {
              "internalType": "uint256",
              "name": "",
              "type": "uint256"
            }
          ],
          "stateMutability": "view",
          "type": "function"
        },
        {
          "inputs": [
            {
              "internalType": "address",
              "name": "to",
              "type": "address"
            },
            {
              "internalType": "uint256",
              "name": "tokenId",
              "type": "uint256"
            }
          ],
          "name": "approve",
          "outputs": [],
          "stateMutability": "nonpayable",
          "type": "function"
        },
        {
          "inputs": [
            {
              "internalType": "bytes32[]",
              "name": "allowlistProof",
              "type": "bytes32[]"
            }
          ],
          "name": "availableAllowlistMint",
          "outputs": [
            {
              "internalType": "uint256",
              "name": "",
              "type": "uint256"
            }
          ],
          "stateMutability": "view",
          "type": "function"
        },
        {
          "inputs": [
            {
              "internalType": "address",
              "name": "owner",
              "type": "address"
            }
          ],
          "name": "balanceOf",
          "outputs": [
            {
              "internalType": "uint256",
              "name": "",
              "type": "uint256"
            }
          ],
          "stateMutability": "view",
          "type": "function"
        },
        {
          "inputs": [
            {
              "internalType": "uint256",
              "name": "tokenId",
              "type": "uint256"
            }
          ],
          "name": "getApproved",
          "outputs": [
            {
              "internalType": "address",
              "name": "",
              "type": "address"
            }
          ],
          "stateMutability": "view",
          "type": "function"
        },
        {
          "inputs": [],
          "name": "getMaxSupply",
          "outputs": [
            {
              "internalType": "uint256",
              "name": "",
              "type": "uint256"
            }
          ],
          "stateMutability": "pure",
          "type": "function"
        },
        {
          "inputs": [],
          "name": "getMintPrice",
          "outputs": [
            {
              "internalType": "uint256",
              "name": "",
              "type": "uint256"
            }
          ],
          "stateMutability": "view",
          "type": "function"
        },
        {
          "inputs": [],
          "name": "getQuantityMinted",
          "outputs": [
            {
              "internalType": "uint256",
              "name": "",
              "type": "uint256"
            }
          ],
          "stateMutability": "view",
          "type": "function"
        },
        {
          "inputs": [],
          "name": "give32TokensToDevs",
          "outputs": [],
          "stateMutability": "nonpayable",
          "type": "function"
        },
        {
          "inputs": [],
          "name": "hasMetadataFroze",
          "outputs": [
            {
              "internalType": "bool",
              "name": "",
              "type": "bool"
            }
          ],
          "stateMutability": "view",
          "type": "function"
        },
        {
          "inputs": [],
          "name": "hasPublicSaleStarted",
          "outputs": [
            {
              "internalType": "bool",
              "name": "",
              "type": "bool"
            }
          ],
          "stateMutability": "view",
          "type": "function"
        },
        {
          "inputs": [],
          "name": "hasSaleStarted",
          "outputs": [
            {
              "internalType": "bool",
              "name": "",
              "type": "bool"
            }
          ],
          "stateMutability": "view",
          "type": "function"
        },
        {
          "inputs": [
            {
              "internalType": "address",
              "name": "owner",
              "type": "address"
            },
            {
              "internalType": "address",
              "name": "operator",
              "type": "address"
            }
          ],
          "name": "isApprovedForAll",
          "outputs": [
            {
              "internalType": "bool",
              "name": "",
              "type": "bool"
            }
          ],
          "stateMutability": "view",
          "type": "function"
        },
        {
          "inputs": [],
          "name": "lockMetadata",
          "outputs": [],
          "stateMutability": "nonpayable",
          "type": "function"
        },
        {
          "inputs": [
            {
              "internalType": "uint256",
              "name": "quantity",
              "type": "uint256"
            }
          ],
          "name": "mint",
          "outputs": [],
          "stateMutability": "payable",
          "type": "function"
        },
        {
          "inputs": [],
          "name": "name",
          "outputs": [
            {
              "internalType": "string",
              "name": "",
              "type": "string"
            }
          ],
          "stateMutability": "view",
          "type": "function"
        },
        {
          "inputs": [],
          "name": "owner",
          "outputs": [
            {
              "internalType": "address",
              "name": "",
              "type": "address"
            }
          ],
          "stateMutability": "view",
          "type": "function"
        },
        {
          "inputs": [
            {
              "internalType": "uint256",
              "name": "tokenId",
              "type": "uint256"
            }
          ],
          "name": "ownerOf",
          "outputs": [
            {
              "internalType": "address",
              "name": "",
              "type": "address"
            }
          ],
          "stateMutability": "view",
          "type": "function"
        },
        {
          "inputs": [
            {
              "internalType": "address",
              "name": "",
              "type": "address"
            }
          ],
          "name": "publicMintedCounts",
          "outputs": [
            {
              "internalType": "uint256",
              "name": "",
              "type": "uint256"
            }
          ],
          "stateMutability": "view",
          "type": "function"
        },
        {
          "inputs": [],
          "name": "renounceOwnership",
          "outputs": [],
          "stateMutability": "nonpayable",
          "type": "function"
        },
        {
          "inputs": [
            {
              "internalType": "address",
              "name": "from",
              "type": "address"
            },
            {
              "internalType": "address",
              "name": "to",
              "type": "address"
            },
            {
              "internalType": "uint256",
              "name": "tokenId",
              "type": "uint256"
            }
          ],
          "name": "safeTransferFrom",
          "outputs": [],
          "stateMutability": "nonpayable",
          "type": "function"
        },
        {
          "inputs": [
            {
              "internalType": "address",
              "name": "from",
              "type": "address"
            },
            {
              "internalType": "address",
              "name": "to",
              "type": "address"
            },
            {
              "internalType": "uint256",
              "name": "tokenId",
              "type": "uint256"
            },
            {
              "internalType": "bytes",
              "name": "_data",
              "type": "bytes"
            }
          ],
          "name": "safeTransferFrom",
          "outputs": [],
          "stateMutability": "nonpayable",
          "type": "function"
        },
        {
          "inputs": [
            {
              "internalType": "bytes32",
              "name": "allowlistMerkleRoot",
              "type": "bytes32"
            }
          ],
          "name": "setAllowlistMerkleRoot",
          "outputs": [],
          "stateMutability": "nonpayable",
          "type": "function"
        },
        {
          "inputs": [
            {
              "internalType": "uint256",
              "name": "_PRICE",
              "type": "uint256"
            }
          ],
          "name": "setAllowlistMintOpen",
          "outputs": [],
          "stateMutability": "nonpayable",
          "type": "function"
        },
        {
          "inputs": [
            {
              "internalType": "address",
              "name": "operator",
              "type": "address"
            },
            {
              "internalType": "bool",
              "name": "approved",
              "type": "bool"
            }
          ],
          "name": "setApprovalForAll",
          "outputs": [],
          "stateMutability": "nonpayable",
          "type": "function"
        },
        {
          "inputs": [
            {
              "internalType": "string",
              "name": "baseTokenURI",
              "type": "string"
            }
          ],
          "name": "setBaseURI",
          "outputs": [],
          "stateMutability": "nonpayable",
          "type": "function"
        },
        {
          "inputs": [
            {
              "internalType": "uint256",
              "name": "_PRICE",
              "type": "uint256"
            }
          ],
          "name": "setMintPrice",
          "outputs": [],
          "stateMutability": "nonpayable",
          "type": "function"
        },
        {
          "inputs": [
            {
              "internalType": "uint256",
              "name": "_PRICE",
              "type": "uint256"
            }
          ],
          "name": "setPublicMintOpen",
          "outputs": [],
          "stateMutability": "nonpayable",
          "type": "function"
        },
        {
          "inputs": [
            {
              "internalType": "bytes4",
              "name": "interfaceId",
              "type": "bytes4"
            }
          ],
          "name": "supportsInterface",
          "outputs": [
            {
              "internalType": "bool",
              "name": "",
              "type": "bool"
            }
          ],
          "stateMutability": "view",
          "type": "function"
        },
        {
          "inputs": [],
          "name": "symbol",
          "outputs": [
            {
              "internalType": "string",
              "name": "",
              "type": "string"
            }
          ],
          "stateMutability": "view",
          "type": "function"
        },
        {
          "inputs": [
            {
              "internalType": "uint256",
              "name": "tokenId",
              "type": "uint256"
            }
          ],
          "name": "tokenURI",
          "outputs": [
            {
              "internalType": "string",
              "name": "",
              "type": "string"
            }
          ],
          "stateMutability": "view",
          "type": "function"
        },
        {
          "inputs": [],
          "name": "totalSupply",
          "outputs": [
            {
              "internalType": "uint256",
              "name": "",
              "type": "uint256"
            }
          ],
          "stateMutability": "view",
          "type": "function"
        },
        {
          "inputs": [
            {
              "internalType": "address",
              "name": "from",
              "type": "address"
            },
            {
              "internalType": "address",
              "name": "to",
              "type": "address"
            },
            {
              "internalType": "uint256",
              "name": "tokenId",
              "type": "uint256"
            }
          ],
          "name": "transferFrom",
          "outputs": [],
          "stateMutability": "nonpayable",
          "type": "function"
        },
        {
          "inputs": [
            {
              "internalType": "address",
              "name": "newOwner",
              "type": "address"
            }
          ],
          "name": "transferOwnership",
          "outputs": [],
          "stateMutability": "nonpayable",
          "type": "function"
        },
        {
          "inputs": [],
          "name": "withdrawFunds",
          "outputs": [],
          "stateMutability": "nonpayable",
          "type": "function"
        }
      ],
      "devdoc": {
        "kind": "dev",
        "methods": {
          "approve(address,uint256)": {
            "details": "See {IERC721-approve}."
          },
          "balanceOf(address)": {
            "details": "See {IERC721-balanceOf}."
          },
          "getApproved(uint256)": {
            "details": "See {IERC721-getApproved}."
          },
          "isApprovedForAll(address,address)": {
            "details": "See {IERC721-isApprovedForAll}."
          },
          "mint(uint256)": {
            "details": "Creates a new token. Its token ID will be automatically assigned (and available on the emitted {IERC721-Transfer} event), and the token URI autogenerated based on the base URI passed at construction. See {ERC721-_mint}."
          },
          "name()": {
            "details": "See {IERC721Metadata-name}."
          },
          "owner()": {
            "details": "Returns the address of the current owner."
          },
          "ownerOf(uint256)": {
            "details": "See {IERC721-ownerOf}."
          },
          "renounceOwnership()": {
            "details": "Leaves the contract without owner. It will not be possible to call `onlyOwner` functions anymore. Can only be called by the current owner. NOTE: Renouncing ownership will leave the contract without an owner, thereby removing any functionality that is only available to the owner."
          },
          "safeTransferFrom(address,address,uint256)": {
            "details": "See {IERC721-safeTransferFrom}."
          },
          "safeTransferFrom(address,address,uint256,bytes)": {
            "details": "See {IERC721-safeTransferFrom}."
          },
          "setApprovalForAll(address,bool)": {
            "details": "See {IERC721-setApprovalForAll}."
          },
          "supportsInterface(bytes4)": {
            "details": "See {IERC165-supportsInterface}."
          },
          "symbol()": {
            "details": "See {IERC721Metadata-symbol}."
          },
          "tokenURI(uint256)": {
            "details": "See {IERC721Metadata-tokenURI}."
          },
          "totalSupply()": {
            "details": "Burned tokens are calculated here, use _totalMinted() if you want to count just minted tokens."
          },
          "transferFrom(address,address,uint256)": {
            "details": "See {IERC721-transferFrom}."
          },
          "transferOwnership(address)": {
            "details": "Transfers ownership of the contract to a new account (`newOwner`). Can only be called by the current owner."
          },
          "withdrawFunds()": {
            "details": "Withdraws funds to dev and art teams"
          }
        },
        "version": 1
      },
      "evm": {
        "bytecode": {
          "linkReferences": {},
          "object": "60806040526000603c819055610425819055610426819055610427805461ffff1916905561042c805460ff1916905561042d5561042e80546001600160a01b03191673f8e807027c4f6d0968c8c4742508d136d926a9811790553480156200006657600080fd5b5060405162002c2038038062002c2083398101604081905262000089916200022e565b6040518060400160405280600681526020016556696265727360d01b815250604051806040016040528060048152602001635649424560e01b815250620000df620000d96200013460201b60201c565b62000138565b8151620000f490600390602085019062000188565b5080516200010a90600490602084019062000188565b50600060015550508151620001289061042b90602085019062000188565b5061042a555062000360565b3390565b600080546001600160a01b038381166001600160a01b0319831681178455604051919092169283917f8be0079c531659141344cd1fd0a4f28419497f9722a3daafe3b4186f6b6457e09190a35050565b82805462000196906200030d565b90600052602060002090601f016020900481019282620001ba576000855562000205565b82601f10620001d557805160ff191683800117855562000205565b8280016001018555821562000205579182015b8281111562000205578251825591602001919060010190620001e8565b506200021392915062000217565b5090565b5b8082111562000213576000815560010162000218565b6000806040838503121562000241578182fd5b82516001600160401b038082111562000258578384fd5b818501915085601f8301126200026c578384fd5b8151818111156200028157620002816200034a565b604051601f8201601f19908116603f01168101908382118183101715620002ac57620002ac6200034a565b81604052828152602093508884848701011115620002c8578687fd5b8691505b82821015620002eb5784820184015181830185015290830190620002cc565b82821115620002fc57868484830101525b969092015195979596505050505050565b600181811c908216806200032257607f821691505b602082108114156200034457634e487b7160e01b600052602260045260246000fd5b50919050565b634e487b7160e01b600052604160045260246000fd5b6128b080620003706000396000f3fe60806040526004361061020f5760003560e01c80636701cff711610118578063a7f93ebd116100a0578063e985e9c51161006f578063e985e9c5146105c7578063f2fde38b14610610578063f4a0a52814610630578063f95df41414610650578063fdd4b0f01461067057600080fd5b8063a7f93ebd14610559578063b61c1a6f1461056e578063b88d4fde14610587578063c87b56dd146105a757600080fd5b80638da5cb5b116100e75780638da5cb5b146104de57806395d89b41146104fc578063989bdbb614610511578063a0712d6814610526578063a22cb4651461053957600080fd5b80636701cff71461046857806370a0823114610496578063715018a6146104b65780637bc9200e146104cb57600080fd5b806323b872dd1161019b5780634c0f38c21161016a5780634c0f38c2146103d3578063539715d8146103e857806353a541821461040857806355f804b3146104285780636352211e1461044857600080fd5b806323b872dd1461036957806324600fc31461038957806326c3f3da1461039e57806342842e0e146103b357600080fd5b80630a3ed96e116101e25780630a3ed96e146102c55780630ffb0288146102e557806318160ddd146103215780631c8b232d1461033a578063216a08d41461035357600080fd5b806301ffc9a71461021457806306fdde0314610249578063081812fc1461026b578063095ea7b3146102a3575b600080fd5b34801561022057600080fd5b5061023461022f366004612450565b61068e565b60405190151581526020015b60405180910390f35b34801561025557600080fd5b5061025e6106e0565b60405161024091906125de565b34801561027757600080fd5b5061028b610286366004612438565b610772565b6040516001600160a01b039091168152602001610240565b3480156102af57600080fd5b506102c36102be366004612368565b6107b6565b005b3480156102d157600080fd5b506102c36102e0366004612438565b61083d565b3480156102f157600080fd5b5061031361030036600461222f565b6104286020526000908152604090205481565b604051908152602001610240565b34801561032d57600080fd5b5060025460015403610313565b34801561034657600080fd5b506104275460ff16610234565b34801561035f57600080fd5b5061042654610313565b34801561037557600080fd5b506102c361038436600461227b565b610969565b34801561039557600080fd5b506102c3610974565b3480156103aa57600080fd5b506102c36109b3565b3480156103bf57600080fd5b506102c36103ce36600461227b565b610b00565b3480156103df57600080fd5b506103e8610313565b3480156103f457600080fd5b506102c3610403366004612438565b610b1b565b34801561041457600080fd5b50610313610423366004612391565b610be3565b34801561043457600080fd5b506102c3610443366004612488565b610c1c565b34801561045457600080fd5b5061028b610463366004612438565b610cca565b34801561047457600080fd5b5061031361048336600461222f565b6104296020526000908152604090205481565b3480156104a257600080fd5b506103136104b136600461222f565b610cdc565b3480156104c257600080fd5b506102c3610d2a565b6102c36104d93660046124cd565b610d60565b3480156104ea57600080fd5b506000546001600160a01b031661028b565b34801561050857600080fd5b5061025e611006565b34801561051d57600080fd5b506102c3611015565b6102c3610534366004612438565b611105565b34801561054557600080fd5b506102c361055436600461232e565b6112e5565b34801561056557600080fd5b50603c54610313565b34801561057a57600080fd5b5061042c5460ff16610234565b34801561059357600080fd5b506102c36105a23660046122b6565b61137b565b3480156105b357600080fd5b5061025e6105c2366004612438565b6113c5565b3480156105d357600080fd5b506102346105e2366004612249565b6001600160a01b03918216600090815260086020908152604080832093909416825291909152205460ff1690565b34801561061c57600080fd5b506102c361062b36600461222f565b61144a565b34801561063c57600080fd5b506102c361064b366004612438565b6114e5565b34801561065c57600080fd5b506102c361066b366004612438565b61158b565b34801561067c57600080fd5b5061042754610100900460ff16610234565b60006001600160e01b031982166380ac58cd60e01b14806106bf57506001600160e01b03198216635b5e139f60e01b145b806106da57506301ffc9a760e01b6001600160e01b03198316145b92915050565b6060600380546106ef90612798565b80601f016020809104026020016040519081016040528092919081815260200182805461071b90612798565b80156107685780601f1061073d57610100808354040283529160200191610768565b820191906000526020600020905b81548152906001019060200180831161074b57829003601f168201915b5050505050905090565b600061077d826115bb565b61079a576040516333d1c03960e21b815260040160405180910390fd5b506000908152600760205260409020546001600160a01b031690565b60006107c182610cca565b9050806001600160a01b0316836001600160a01b031614156107f65760405163250fdee360e21b815260040160405180910390fd5b336001600160a01b0382161461082d5761081081336105e2565b61082d576040516367d9dca160e11b815260040160405180910390fd5b6108388383836115e7565b505050565b6000546001600160a01b031633146108705760405162461bcd60e51b8152600401610867906126a5565b60405180910390fd5b61042754610100900460ff16156108c95760405162461bcd60e51b815260206004820152601f60248201527f5075626c6963206d696e742068617320616c72656164792073746172746564006044820152606401610867565b6104275460ff166109285760405162461bcd60e51b8152602060048201526024808201527f416c6c6f776c697374206d696e74206d757374206265207374617274656420666044820152631a5c9cdd60e21b6064820152608401610867565b603c819055610427805461ff0019166101001790556040517fd027ba160f7e3111418d8cac41dc57dd841a8248c1d30fae2612f8499979dbb290600090a150565b610838838383611643565b61042e5460405147916001600160a01b03169082156108fc029083906000818181858888f193505050501580156109af573d6000803e3d6000fd5b5050565b6000546001600160a01b031633146109dd5760405162461bcd60e51b8152600401610867906126a5565b61042754610100900460ff1615610a365760405162461bcd60e51b815260206004820152601860248201527f53616c652068617320616c7265616479207374617274656400000000000000006044820152606401610867565b604061042d5410610a955760405162461bcd60e51b815260206004820152602360248201527f44657620737570706c792068617320616c7265616479206265656e206177617260448201526219195960ea1b6064820152608401610867565b6000805b6020821015610ae957610aaa61181e565b61042e54909150610ac4906001600160a01b0316826119d1565b61042654610ad390600161270a565b6104265581610ae1816127d3565b925050610a99565b61042d54610af890600161270a565b61042d555050565b6108388383836040518060200160405280600081525061137b565b6000546001600160a01b03163314610b455760405162461bcd60e51b8152600401610867906126a5565b6104275460ff1615610ba45760405162461bcd60e51b815260206004820152602260248201527f416c6c6f776c697374206d696e742068617320616c7265616479207374617274604482015261195960f21b6064820152608401610867565b603c819055610427805460ff191660011790556040517fef4e7e9fe740cbdbe62d9b3c0b0cd0c03ad3f5217218ca1c1cb6eb2275f1efec90600090a150565b6000610bee82611ae0565b15610c0f5733600090815261042860205260409020546106da906002612755565b506000919050565b919050565b6000546001600160a01b03163314610c465760405162461bcd60e51b8152600401610867906126a5565b61042c5460ff1615610cb65760405162461bcd60e51b815260206004820152603360248201527f43616e6e6f74206368616e6765206d6574616461746120616674657220746865604482015272081b595d1859185d18481a5cc81b1bd8dad959606a1b6064820152608401610867565b80516109af9061042b906020840190612128565b6000610cd582611af0565b5192915050565b60006001600160a01b038216610d05576040516323d3ad8160e21b815260040160405180910390fd5b506001600160a01b03166000908152600660205260409020546001600160401b031690565b6000546001600160a01b03163314610d545760405162461bcd60e51b8152600401610867906126a5565b610d5e6000611c0a565b565b33328114610d805760405162461bcd60e51b815260040161086790612677565b803b8015610da05760405162461bcd60e51b815260040161086790612677565b838380806020026020016040519081016040528093929190818152602001838360200280828437600092019190915250610ddf9250839150611ae09050565b610e2b5760405162461bcd60e51b815260206004820152601960248201527f43616c6c6572206973206e6f7420616c6c6f776c6973746564000000000000006044820152606401610867565b336000908152610428602052604081205490610e47888361270a565b6104275490915060ff16610e9d5760405162461bcd60e51b815260206004820152601860248201527f416c6c6f776c697374206d696e74696e6720636c6f73656400000000000000006044820152606401610867565b6103e86104265410610ec15760405162461bcd60e51b815260040161086790612635565b60008811610f0b5760405162461bcd60e51b815260206004820152601760248201527626bab9ba1036b4b73a1030ba103632b0b9ba1037b7329760491b6044820152606401610867565b6002811115610f5c5760405162461bcd60e51b815260206004820152601c60248201527f4d696e742065786365656473206c696d6974207065722063616c6c2e000000006044820152606401610867565b61042654610f6c906103e8612755565b881115610f8b5760405162461bcd60e51b8152600401610867906125f1565b87603c54610f999190612736565b3414610fdf5760405162461bcd60e51b81526020600482015260156024820152740acd2c4cae4e640e0e4d2c6ca40dad2e6dac2e8c6d605b1b6044820152606401610867565b33600081815261042860205260409020829055610ffc9089611c5a565b5050505050505050565b6060600480546106ef90612798565b6000546001600160a01b0316331461103f5760405162461bcd60e51b8152600401610867906126a5565b61042754610100900460ff166110a15760405162461bcd60e51b815260206004820152602160248201527f5075626c6963206d696e74206d757374206265207374617274656420666972736044820152601d60fa1b6064820152608401610867565b61042c5460ff16156110f55760405162461bcd60e51b815260206004820152601a60248201527f4d6574616461746120697320616c7265616479206c6f636b65640000000000006044820152606401610867565b61042c805460ff19166001179055565b333281146111255760405162461bcd60e51b815260040161086790612677565b803b80156111455760405162461bcd60e51b815260040161086790612677565b61042754610100900460ff1661119d5760405162461bcd60e51b815260206004820152601960248201527f53616c6520686173206e6f742073746172746564207965742e000000000000006044820152606401610867565b6103e861042654106111c15760405162461bcd60e51b815260040161086790612635565b6000831161120b5760405162461bcd60e51b815260206004820152601760248201527626bab9ba1036b4b73a1030ba103632b0b9ba1037b7329760491b6044820152606401610867565b600483111561125c5760405162461bcd60e51b815260206004820152601c60248201527f4d696e742065786365656473206c696d6974207065722063616c6c2e000000006044820152606401610867565b6104265461126c906103e8612755565b83111561128b5760405162461bcd60e51b8152600401610867906125f1565b82603c546112999190612736565b34146112db5760405162461bcd60e51b81526020600482015260116024820152701b5cd9cb9d985b1d59481a5b9d985b1a59607a1b6044820152606401610867565b6108383384611c5a565b6001600160a01b03821633141561130f5760405163b06307db60e01b815260040160405180910390fd5b3360008181526008602090815260408083206001600160a01b03871680855290835292819020805460ff191686151590811790915590519081529192917f17307eab39ab6107e8899845ad3d59bd9653f200f220920489ca2b5937696c31910160405180910390a35050565b611386848484611643565b6001600160a01b0383163b156113bf576113a284848484611c74565b6113bf576040516368d2bf6b60e11b815260040160405180910390fd5b50505050565b60606113d0826115bb565b6113ed57604051630a14c4b560e41b815260040160405180910390fd5b60006113f7611d6c565b90508051600014156114185760405180602001604052806000815250611443565b8061142284611d7c565b604051602001611433929190612572565b6040516020818303038152906040525b9392505050565b6000546001600160a01b031633146114745760405162461bcd60e51b8152600401610867906126a5565b6001600160a01b0381166114d95760405162461bcd60e51b815260206004820152602660248201527f4f776e61626c653a206e6577206f776e657220697320746865207a65726f206160448201526564647265737360d01b6064820152608401610867565b6114e281611c0a565b50565b6000546001600160a01b0316331461150f5760405162461bcd60e51b8152600401610867906126a5565b6104275460ff1615156001146115865760405162461bcd60e51b815260206004820152603660248201527f5468652073616c65206d757374206265207374617274656420746f206368616e60448201527533b2903a34329032bc34b9ba34b73390383934b1b29760511b6064820152608401610867565b603c55565b6000546001600160a01b031633146115b55760405162461bcd60e51b8152600401610867906126a5565b61042a55565b6000600154821080156106da575050600090815260056020526040902054600160e01b900460ff161590565b60008281526007602052604080822080546001600160a01b0319166001600160a01b0387811691821790925591518593918516917f8c5be1e5ebec7d5bd14f71427d1e84f3dd0314c0f7b2291e5b200ac8c7c3b92591a4505050565b600061164e82611af0565b9050836001600160a01b031681600001516001600160a01b0316146116855760405162a1148160e81b815260040160405180910390fd5b6000336001600160a01b03861614806116a357506116a385336105e2565b806116be5750336116b384610772565b6001600160a01b0316145b9050806116de57604051632ce44b5f60e11b815260040160405180910390fd5b6001600160a01b03841661170557604051633a954ecd60e21b815260040160405180910390fd5b611711600084876115e7565b6001600160a01b038581166000908152600660209081526040808320805467ffffffffffffffff198082166001600160401b0392831660001901831617909255898616808652838620805493841693831660019081018416949094179055898652600590945282852080546001600160e01b031916909417600160a01b429092169190910217835587018084529220805491939091166117e55760015482146117e557805460208601516001600160401b0316600160a01b026001600160e01b03199091166001600160a01b038a16171781555b50505082846001600160a01b0316866001600160a01b031660008051602061285b83398151915260405160405180910390a45050505050565b600080610426546103e86118329190612755565b610425546040805160208101929092526bffffffffffffffffffffffff193360601b169082015244605482015242607482015290915060009082906094016040516020818303038152906040528051906020012060001c61189391906127ee565b90506000603d826103e881106118b957634e487b7160e01b600052603260045260246000fd5b0154156118eb57603d826103e881106118e257634e487b7160e01b600052603260045260246000fd5b015490506118ee565b50805b603d6118fb600185612755565b6103e8811061191a57634e487b7160e01b600052603260045260246000fd5b01546119545761192b600184612755565b603d836103e8811061194d57634e487b7160e01b600052603260045260246000fd5b01556119a7565b603d611961600185612755565b6103e8811061198057634e487b7160e01b600052603260045260246000fd5b0154603d836103e881106119a457634e487b7160e01b600052603260045260246000fd5b01555b61042580549060006119b8836127d3565b909155506119c9905081600161270a565b935050505090565b6001546001600160a01b0383166119fa57604051622e076360e81b815260040160405180910390fd5b81611a185760405163b562e8dd60e01b815260040160405180910390fd5b6001600160a01b038316600081815260066020908152604080832080546001600160801b031981166001600160401b038083168a018116918217600160401b67ffffffffffffffff1990941690921783900481168a01811690920217909155858452600590925290912080546001600160e01b031916909217600160a01b4290921691909102179055808083015b6040516001830192906001600160a01b0387169060009060008051602061285b833981519152908290a4808210611aa65750600155505050565b60006106da8261042a5433611e95565b604080516060810182526000808252602082018190529181019190915281600154811015611bf157600081815260056020908152604091829020825160608101845290546001600160a01b0381168252600160a01b81046001600160401b031692820192909252600160e01b90910460ff16151591810182905290611bef5780516001600160a01b031615611b86579392505050565b5060001901600081815260056020908152604091829020825160608101845290546001600160a01b038116808352600160a01b82046001600160401b031693830193909352600160e01b900460ff1615159281019290925215611bea579392505050565b611b86565b505b604051636f96cda160e11b815260040160405180910390fd5b600080546001600160a01b038381166001600160a01b0319831681178455604051919092169283917f8be0079c531659141344cd1fd0a4f28419497f9722a3daafe3b4186f6b6457e09190a35050565b6109af828260405180602001604052806000815250611eda565b604051630a85bd0160e11b81526000906001600160a01b0385169063150b7a0290611ca99033908990889088906004016125a1565b602060405180830381600087803b158015611cc357600080fd5b505af1925050508015611cf3575060408051601f3d908101601f19168201909252611cf09181019061246c565b60015b611d4e573d808015611d21576040519150601f19603f3d011682016040523d82523d6000602084013e611d26565b606091505b508051611d46576040516368d2bf6b60e11b815260040160405180910390fd5b805181602001fd5b6001600160e01b031916630a85bd0160e11b1490505b949350505050565b606061042b80546106ef90612798565b606081611da05750506040805180820190915260018152600360fc1b602082015290565b8160005b8115611dca5780611db4816127d3565b9150611dc39050600a83612722565b9150611da4565b6000816001600160401b03811115611df257634e487b7160e01b600052604160045260246000fd5b6040519080825280601f01601f191660200182016040528015611e1c576020820181803683370190505b5090505b8415611d6457611e31600183612755565b9150611e3e600a866127ee565b611e4990603061270a565b60f81b818381518110611e6c57634e487b7160e01b600052603260045260246000fd5b60200101906001600160f81b031916908160001a905350611e8e600a86612722565b9450611e20565b6040516bffffffffffffffffffffffff19606083901b166020820152600090611d6490859085906034016040516020818303038152906040528051906020012061206b565b6001546001600160a01b038416611f0357604051622e076360e81b815260040160405180910390fd5b82611f215760405163b562e8dd60e01b815260040160405180910390fd5b6001600160a01b038416600081815260066020908152604080832080546001600160801b031981166001600160401b038083168b018116918217600160401b67ffffffffffffffff1990941690921783900481168b01811690920217909155858452600590925290912080546001600160e01b0319168317600160a01b42909316929092029190911790558190818501903b15612029575b60405182906001600160a01b0388169060009060008051602061285b833981519152908290a4611ff26000878480600101955087611c74565b61200f576040516368d2bf6b60e11b815260040160405180910390fd5b808210611fb957826001541461202457600080fd5b61205c565b5b6040516001830192906001600160a01b0388169060009060008051602061285b833981519152908290a480821061202a575b506001556113bf600085838684565b600081815b855181101561211d57600086828151811061209b57634e487b7160e01b600052603260045260246000fd5b602002602001015190508083116120dd57604080516020810185905290810182905260600160405160208183030381529060405280519060200120925061210a565b60408051602081018390529081018490526060016040516020818303038152906040528051906020012092505b5080612115816127d3565b915050612070565b509092149392505050565b82805461213490612798565b90600052602060002090601f016020900481019282612156576000855561219c565b82601f1061216f57805160ff191683800117855561219c565b8280016001018555821561219c579182015b8281111561219c578251825591602001919060010190612181565b506121a89291506121ac565b5090565b5b808211156121a857600081556001016121ad565b60006001600160401b038311156121da576121da61282e565b6121ed601f8401601f19166020016126da565b905082815283838301111561220157600080fd5b828260208301376000602084830101529392505050565b80356001600160a01b0381168114610c1757600080fd5b600060208284031215612240578081fd5b61144382612218565b6000806040838503121561225b578081fd5b61226483612218565b915061227260208401612218565b90509250929050565b60008060006060848603121561228f578081fd5b61229884612218565b92506122a660208501612218565b9150604084013590509250925092565b600080600080608085870312156122cb578081fd5b6122d485612218565b93506122e260208601612218565b92506040850135915060608501356001600160401b03811115612303578182fd5b8501601f81018713612313578182fd5b612322878235602084016121c1565b91505092959194509250565b60008060408385031215612340578182fd5b61234983612218565b91506020830135801515811461235d578182fd5b809150509250929050565b6000806040838503121561237a578182fd5b61238383612218565b946020939093013593505050565b600060208083850312156123a3578182fd5b82356001600160401b03808211156123b9578384fd5b818501915085601f8301126123cc578384fd5b8135818111156123de576123de61282e565b8060051b91506123ef8483016126da565b8181528481019084860184860187018a1015612409578788fd5b8795505b8386101561242b57803583526001959095019491860191860161240d565b5098975050505050505050565b600060208284031215612449578081fd5b5035919050565b600060208284031215612461578081fd5b813561144381612844565b60006020828403121561247d578081fd5b815161144381612844565b600060208284031215612499578081fd5b81356001600160401b038111156124ae578182fd5b8201601f810184136124be578182fd5b611d64848235602084016121c1565b6000806000604084860312156124e1578081fd5b8335925060208401356001600160401b03808211156124fe578283fd5b818601915086601f830112612511578283fd5b81358181111561251f578384fd5b8760208260051b8501011115612533578384fd5b6020830194508093505050509250925092565b6000815180845261255e81602086016020860161276c565b601f01601f19169290920160200192915050565b6000835161258481846020880161276c565b83519083019061259881836020880161276c565b01949350505050565b6001600160a01b03858116825284166020820152604081018390526080606082018190526000906125d490830184612546565b9695505050505050565b6020815260006114436020830184612546565b60208082526024908201527f4d696e74207265717565737420657863656564732063757272656e7420737570604082015263706c792160e01b606082015260800190565b60208082526022908201527f4d696e742072657175657374206578636565647320746f74616c20737570706c604082015261792160f01b606082015260800190565b60208082526014908201527310d85b1b195c881a5cc8184818dbdb9d1c9858dd60621b604082015260600190565b6020808252818101527f4f776e61626c653a2063616c6c6572206973206e6f7420746865206f776e6572604082015260600190565b604051601f8201601f191681016001600160401b03811182821017156127025761270261282e565b604052919050565b6000821982111561271d5761271d612802565b500190565b60008261273157612731612818565b500490565b600081600019048311821515161561275057612750612802565b500290565b60008282101561276757612767612802565b500390565b60005b8381101561278757818101518382015260200161276f565b838111156113bf5750506000910152565b600181811c908216806127ac57607f821691505b602082108114156127cd57634e487b7160e01b600052602260045260246000fd5b50919050565b60006000198214156127e7576127e7612802565b5060010190565b6000826127fd576127fd612818565b500690565b634e487b7160e01b600052601160045260246000fd5b634e487b7160e01b600052601260045260246000fd5b634e487b7160e01b600052604160045260246000fd5b6001600160e01b0319811681146114e257600080fdfeddf252ad1be2c89b69c2b068fc378daa952ba7f163c4a11628f55a4df523b3efa26469706673582212203702497ccaf9cd6a9066dac82267e2a1dce45a571c6eaad25d516757dda0346764736f6c63430008040033",
          "opcodes": "PUSH1 0x80 PUSH1 0x40 MSTORE PUSH1 0x0 PUSH1 0x3C DUP2 SWAP1 SSTORE PUSH2 0x425 DUP2 SWAP1 SSTORE PUSH2 0x426 DUP2 SWAP1 SSTORE PUSH2 0x427 DUP1 SLOAD PUSH2 0xFFFF NOT AND SWAP1 SSTORE PUSH2 0x42C DUP1 SLOAD PUSH1 0xFF NOT AND SWAP1 SSTORE PUSH2 0x42D SSTORE PUSH2 0x42E DUP1 SLOAD PUSH1 0x1 PUSH1 0x1 PUSH1 0xA0 SHL SUB NOT AND PUSH20 0xF8E807027C4F6D0968C8C4742508D136D926A981 OR SWAP1 SSTORE CALLVALUE DUP1 ISZERO PUSH3 0x66 JUMPI PUSH1 0x0 DUP1 REVERT JUMPDEST POP PUSH1 0x40 MLOAD PUSH3 0x2C20 CODESIZE SUB DUP1 PUSH3 0x2C20 DUP4 CODECOPY DUP2 ADD PUSH1 0x40 DUP2 SWAP1 MSTORE PUSH3 0x89 SWAP2 PUSH3 0x22E JUMP JUMPDEST PUSH1 0x40 MLOAD DUP1 PUSH1 0x40 ADD PUSH1 0x40 MSTORE DUP1 PUSH1 0x6 DUP2 MSTORE PUSH1 0x20 ADD PUSH6 0x566962657273 PUSH1 0xD0 SHL DUP2 MSTORE POP PUSH1 0x40 MLOAD DUP1 PUSH1 0x40 ADD PUSH1 0x40 MSTORE DUP1 PUSH1 0x4 DUP2 MSTORE PUSH1 0x20 ADD PUSH4 0x56494245 PUSH1 0xE0 SHL DUP2 MSTORE POP PUSH3 0xDF PUSH3 0xD9 PUSH3 0x134 PUSH1 0x20 SHL PUSH1 0x20 SHR JUMP JUMPDEST PUSH3 0x138 JUMP JUMPDEST DUP2 MLOAD PUSH3 0xF4 SWAP1 PUSH1 0x3 SWAP1 PUSH1 0x20 DUP6 ADD SWAP1 PUSH3 0x188 JUMP JUMPDEST POP DUP1 MLOAD PUSH3 0x10A SWAP1 PUSH1 0x4 SWAP1 PUSH1 0x20 DUP5 ADD SWAP1 PUSH3 0x188 JUMP JUMPDEST POP PUSH1 0x0 PUSH1 0x1 SSTORE POP POP DUP2 MLOAD PUSH3 0x128 SWAP1 PUSH2 0x42B SWAP1 PUSH1 0x20 DUP6 ADD SWAP1 PUSH3 0x188 JUMP JUMPDEST POP PUSH2 0x42A SSTORE POP PUSH3 0x360 JUMP JUMPDEST CALLER SWAP1 JUMP JUMPDEST PUSH1 0x0 DUP1 SLOAD PUSH1 0x1 PUSH1 0x1 PUSH1 0xA0 SHL SUB DUP4 DUP2 AND PUSH1 0x1 PUSH1 0x1 PUSH1 0xA0 SHL SUB NOT DUP4 AND DUP2 OR DUP5 SSTORE PUSH1 0x40 MLOAD SWAP2 SWAP1 SWAP3 AND SWAP3 DUP4 SWAP2 PUSH32 0x8BE0079C531659141344CD1FD0A4F28419497F9722A3DAAFE3B4186F6B6457E0 SWAP2 SWAP1 LOG3 POP POP JUMP JUMPDEST DUP3 DUP1 SLOAD PUSH3 0x196 SWAP1 PUSH3 0x30D JUMP JUMPDEST SWAP1 PUSH1 0x0 MSTORE PUSH1 0x20 PUSH1 0x0 KECCAK256 SWAP1 PUSH1 0x1F ADD PUSH1 0x20 SWAP1 DIV DUP2 ADD SWAP3 DUP3 PUSH3 0x1BA JUMPI PUSH1 0x0 DUP6 SSTORE PUSH3 0x205 JUMP JUMPDEST DUP3 PUSH1 0x1F LT PUSH3 0x1D5 JUMPI DUP1 MLOAD PUSH1 0xFF NOT AND DUP4 DUP1 ADD OR DUP6 SSTORE PUSH3 0x205 JUMP JUMPDEST DUP3 DUP1 ADD PUSH1 0x1 ADD DUP6 SSTORE DUP3 ISZERO PUSH3 0x205 JUMPI SWAP2 DUP3 ADD JUMPDEST DUP3 DUP2 GT ISZERO PUSH3 0x205 JUMPI DUP3 MLOAD DUP3 SSTORE SWAP2 PUSH1 0x20 ADD SWAP2 SWAP1 PUSH1 0x1 ADD SWAP1 PUSH3 0x1E8 JUMP JUMPDEST POP PUSH3 0x213 SWAP3 SWAP2 POP PUSH3 0x217 JUMP JUMPDEST POP SWAP1 JUMP JUMPDEST JUMPDEST DUP1 DUP3 GT ISZERO PUSH3 0x213 JUMPI PUSH1 0x0 DUP2 SSTORE PUSH1 0x1 ADD PUSH3 0x218 JUMP JUMPDEST PUSH1 0x0 DUP1 PUSH1 0x40 DUP4 DUP6 SUB SLT ISZERO PUSH3 0x241 JUMPI DUP2 DUP3 REVERT JUMPDEST DUP3 MLOAD PUSH1 0x1 PUSH1 0x1 PUSH1 0x40 SHL SUB DUP1 DUP3 GT ISZERO PUSH3 0x258 JUMPI DUP4 DUP5 REVERT JUMPDEST DUP2 DUP6 ADD SWAP2 POP DUP6 PUSH1 0x1F DUP4 ADD SLT PUSH3 0x26C JUMPI DUP4 DUP5 REVERT JUMPDEST DUP2 MLOAD DUP2 DUP2 GT ISZERO PUSH3 0x281 JUMPI PUSH3 0x281 PUSH3 0x34A JUMP JUMPDEST PUSH1 0x40 MLOAD PUSH1 0x1F DUP3 ADD PUSH1 0x1F NOT SWAP1 DUP2 AND PUSH1 0x3F ADD AND DUP2 ADD SWAP1 DUP4 DUP3 GT DUP2 DUP4 LT OR ISZERO PUSH3 0x2AC JUMPI PUSH3 0x2AC PUSH3 0x34A JUMP JUMPDEST DUP2 PUSH1 0x40 MSTORE DUP3 DUP2 MSTORE PUSH1 0x20 SWAP4 POP DUP9 DUP5 DUP5 DUP8 ADD ADD GT ISZERO PUSH3 0x2C8 JUMPI DUP7 DUP8 REVERT JUMPDEST DUP7 SWAP2 POP JUMPDEST DUP3 DUP3 LT ISZERO PUSH3 0x2EB JUMPI DUP5 DUP3 ADD DUP5 ADD MLOAD DUP2 DUP4 ADD DUP6 ADD MSTORE SWAP1 DUP4 ADD SWAP1 PUSH3 0x2CC JUMP JUMPDEST DUP3 DUP3 GT ISZERO PUSH3 0x2FC JUMPI DUP7 DUP5 DUP5 DUP4 ADD ADD MSTORE JUMPDEST SWAP7 SWAP1 SWAP3 ADD MLOAD SWAP6 SWAP8 SWAP6 SWAP7 POP POP POP POP POP POP JUMP JUMPDEST PUSH1 0x1 DUP2 DUP2 SHR SWAP1 DUP3 AND DUP1 PUSH3 0x322 JUMPI PUSH1 0x7F DUP3 AND SWAP2 POP JUMPDEST PUSH1 0x20 DUP3 LT DUP2 EQ ISZERO PUSH3 0x344 JUMPI PUSH4 0x4E487B71 PUSH1 0xE0 SHL PUSH1 0x0 MSTORE PUSH1 0x22 PUSH1 0x4 MSTORE PUSH1 0x24 PUSH1 0x0 REVERT JUMPDEST POP SWAP2 SWAP1 POP JUMP JUMPDEST PUSH4 0x4E487B71 PUSH1 0xE0 SHL PUSH1 0x0 MSTORE PUSH1 0x41 PUSH1 0x4 MSTORE PUSH1 0x24 PUSH1 0x0 REVERT JUMPDEST PUSH2 0x28B0 DUP1 PUSH3 0x370 PUSH1 0x0 CODECOPY PUSH1 0x0 RETURN INVALID PUSH1 0x80 PUSH1 0x40 MSTORE PUSH1 0x4 CALLDATASIZE LT PUSH2 0x20F JUMPI PUSH1 0x0 CALLDATALOAD PUSH1 0xE0 SHR DUP1 PUSH4 0x6701CFF7 GT PUSH2 0x118 JUMPI DUP1 PUSH4 0xA7F93EBD GT PUSH2 0xA0 JUMPI DUP1 PUSH4 0xE985E9C5 GT PUSH2 0x6F JUMPI DUP1 PUSH4 0xE985E9C5 EQ PUSH2 0x5C7 JUMPI DUP1 PUSH4 0xF2FDE38B EQ PUSH2 0x610 JUMPI DUP1 PUSH4 0xF4A0A528 EQ PUSH2 0x630 JUMPI DUP1 PUSH4 0xF95DF414 EQ PUSH2 0x650 JUMPI DUP1 PUSH4 0xFDD4B0F0 EQ PUSH2 0x670 JUMPI PUSH1 0x0 DUP1 REVERT JUMPDEST DUP1 PUSH4 0xA7F93EBD EQ PUSH2 0x559 JUMPI DUP1 PUSH4 0xB61C1A6F EQ PUSH2 0x56E JUMPI DUP1 PUSH4 0xB88D4FDE EQ PUSH2 0x587 JUMPI DUP1 PUSH4 0xC87B56DD EQ PUSH2 0x5A7 JUMPI PUSH1 0x0 DUP1 REVERT JUMPDEST DUP1 PUSH4 0x8DA5CB5B GT PUSH2 0xE7 JUMPI DUP1 PUSH4 0x8DA5CB5B EQ PUSH2 0x4DE JUMPI DUP1 PUSH4 0x95D89B41 EQ PUSH2 0x4FC JUMPI DUP1 PUSH4 0x989BDBB6 EQ PUSH2 0x511 JUMPI DUP1 PUSH4 0xA0712D68 EQ PUSH2 0x526 JUMPI DUP1 PUSH4 0xA22CB465 EQ PUSH2 0x539 JUMPI PUSH1 0x0 DUP1 REVERT JUMPDEST DUP1 PUSH4 0x6701CFF7 EQ PUSH2 0x468 JUMPI DUP1 PUSH4 0x70A08231 EQ PUSH2 0x496 JUMPI DUP1 PUSH4 0x715018A6 EQ PUSH2 0x4B6 JUMPI DUP1 PUSH4 0x7BC9200E EQ PUSH2 0x4CB JUMPI PUSH1 0x0 DUP1 REVERT JUMPDEST DUP1 PUSH4 0x23B872DD GT PUSH2 0x19B JUMPI DUP1 PUSH4 0x4C0F38C2 GT PUSH2 0x16A JUMPI DUP1 PUSH4 0x4C0F38C2 EQ PUSH2 0x3D3 JUMPI DUP1 PUSH4 0x539715D8 EQ PUSH2 0x3E8 JUMPI DUP1 PUSH4 0x53A54182 EQ PUSH2 0x408 JUMPI DUP1 PUSH4 0x55F804B3 EQ PUSH2 0x428 JUMPI DUP1 PUSH4 0x6352211E EQ PUSH2 0x448 JUMPI PUSH1 0x0 DUP1 REVERT JUMPDEST DUP1 PUSH4 0x23B872DD EQ PUSH2 0x369 JUMPI DUP1 PUSH4 0x24600FC3 EQ PUSH2 0x389 JUMPI DUP1 PUSH4 0x26C3F3DA EQ PUSH2 0x39E JUMPI DUP1 PUSH4 0x42842E0E EQ PUSH2 0x3B3 JUMPI PUSH1 0x0 DUP1 REVERT JUMPDEST DUP1 PUSH4 0xA3ED96E GT PUSH2 0x1E2 JUMPI DUP1 PUSH4 0xA3ED96E EQ PUSH2 0x2C5 JUMPI DUP1 PUSH4 0xFFB0288 EQ PUSH2 0x2E5 JUMPI DUP1 PUSH4 0x18160DDD EQ PUSH2 0x321 JUMPI DUP1 PUSH4 0x1C8B232D EQ PUSH2 0x33A JUMPI DUP1 PUSH4 0x216A08D4 EQ PUSH2 0x353 JUMPI PUSH1 0x0 DUP1 REVERT JUMPDEST DUP1 PUSH4 0x1FFC9A7 EQ PUSH2 0x214 JUMPI DUP1 PUSH4 0x6FDDE03 EQ PUSH2 0x249 JUMPI DUP1 PUSH4 0x81812FC EQ PUSH2 0x26B JUMPI DUP1 PUSH4 0x95EA7B3 EQ PUSH2 0x2A3 JUMPI JUMPDEST PUSH1 0x0 DUP1 REVERT JUMPDEST CALLVALUE DUP1 ISZERO PUSH2 0x220 JUMPI PUSH1 0x0 DUP1 REVERT JUMPDEST POP PUSH2 0x234 PUSH2 0x22F CALLDATASIZE PUSH1 0x4 PUSH2 0x2450 JUMP JUMPDEST PUSH2 0x68E JUMP JUMPDEST PUSH1 0x40 MLOAD SWAP1 ISZERO ISZERO DUP2 MSTORE PUSH1 0x20 ADD JUMPDEST PUSH1 0x40 MLOAD DUP1 SWAP2 SUB SWAP1 RETURN JUMPDEST CALLVALUE DUP1 ISZERO PUSH2 0x255 JUMPI PUSH1 0x0 DUP1 REVERT JUMPDEST POP PUSH2 0x25E PUSH2 0x6E0 JUMP JUMPDEST PUSH1 0x40 MLOAD PUSH2 0x240 SWAP2 SWAP1 PUSH2 0x25DE JUMP JUMPDEST CALLVALUE DUP1 ISZERO PUSH2 0x277 JUMPI PUSH1 0x0 DUP1 REVERT JUMPDEST POP PUSH2 0x28B PUSH2 0x286 CALLDATASIZE PUSH1 0x4 PUSH2 0x2438 JUMP JUMPDEST PUSH2 0x772 JUMP JUMPDEST PUSH1 0x40 MLOAD PUSH1 0x1 PUSH1 0x1 PUSH1 0xA0 SHL SUB SWAP1 SWAP2 AND DUP2 MSTORE PUSH1 0x20 ADD PUSH2 0x240 JUMP JUMPDEST CALLVALUE DUP1 ISZERO PUSH2 0x2AF JUMPI PUSH1 0x0 DUP1 REVERT JUMPDEST POP PUSH2 0x2C3 PUSH2 0x2BE CALLDATASIZE PUSH1 0x4 PUSH2 0x2368 JUMP JUMPDEST PUSH2 0x7B6 JUMP JUMPDEST STOP JUMPDEST CALLVALUE DUP1 ISZERO PUSH2 0x2D1 JUMPI PUSH1 0x0 DUP1 REVERT JUMPDEST POP PUSH2 0x2C3 PUSH2 0x2E0 CALLDATASIZE PUSH1 0x4 PUSH2 0x2438 JUMP JUMPDEST PUSH2 0x83D JUMP JUMPDEST CALLVALUE DUP1 ISZERO PUSH2 0x2F1 JUMPI PUSH1 0x0 DUP1 REVERT JUMPDEST POP PUSH2 0x313 PUSH2 0x300 CALLDATASIZE PUSH1 0x4 PUSH2 0x222F JUMP JUMPDEST PUSH2 0x428 PUSH1 0x20 MSTORE PUSH1 0x0 SWAP1 DUP2 MSTORE PUSH1 0x40 SWAP1 KECCAK256 SLOAD DUP2 JUMP JUMPDEST PUSH1 0x40 MLOAD SWAP1 DUP2 MSTORE PUSH1 0x20 ADD PUSH2 0x240 JUMP JUMPDEST CALLVALUE DUP1 ISZERO PUSH2 0x32D JUMPI PUSH1 0x0 DUP1 REVERT JUMPDEST POP PUSH1 0x2 SLOAD PUSH1 0x1 SLOAD SUB PUSH2 0x313 JUMP JUMPDEST CALLVALUE DUP1 ISZERO PUSH2 0x346 JUMPI PUSH1 0x0 DUP1 REVERT JUMPDEST POP PUSH2 0x427 SLOAD PUSH1 0xFF AND PUSH2 0x234 JUMP JUMPDEST CALLVALUE DUP1 ISZERO PUSH2 0x35F JUMPI PUSH1 0x0 DUP1 REVERT JUMPDEST POP PUSH2 0x426 SLOAD PUSH2 0x313 JUMP JUMPDEST CALLVALUE DUP1 ISZERO PUSH2 0x375 JUMPI PUSH1 0x0 DUP1 REVERT JUMPDEST POP PUSH2 0x2C3 PUSH2 0x384 CALLDATASIZE PUSH1 0x4 PUSH2 0x227B JUMP JUMPDEST PUSH2 0x969 JUMP JUMPDEST CALLVALUE DUP1 ISZERO PUSH2 0x395 JUMPI PUSH1 0x0 DUP1 REVERT JUMPDEST POP PUSH2 0x2C3 PUSH2 0x974 JUMP JUMPDEST CALLVALUE DUP1 ISZERO PUSH2 0x3AA JUMPI PUSH1 0x0 DUP1 REVERT JUMPDEST POP PUSH2 0x2C3 PUSH2 0x9B3 JUMP JUMPDEST CALLVALUE DUP1 ISZERO PUSH2 0x3BF JUMPI PUSH1 0x0 DUP1 REVERT JUMPDEST POP PUSH2 0x2C3 PUSH2 0x3CE CALLDATASIZE PUSH1 0x4 PUSH2 0x227B JUMP JUMPDEST PUSH2 0xB00 JUMP JUMPDEST CALLVALUE DUP1 ISZERO PUSH2 0x3DF JUMPI PUSH1 0x0 DUP1 REVERT JUMPDEST POP PUSH2 0x3E8 PUSH2 0x313 JUMP JUMPDEST CALLVALUE DUP1 ISZERO PUSH2 0x3F4 JUMPI PUSH1 0x0 DUP1 REVERT JUMPDEST POP PUSH2 0x2C3 PUSH2 0x403 CALLDATASIZE PUSH1 0x4 PUSH2 0x2438 JUMP JUMPDEST PUSH2 0xB1B JUMP JUMPDEST CALLVALUE DUP1 ISZERO PUSH2 0x414 JUMPI PUSH1 0x0 DUP1 REVERT JUMPDEST POP PUSH2 0x313 PUSH2 0x423 CALLDATASIZE PUSH1 0x4 PUSH2 0x2391 JUMP JUMPDEST PUSH2 0xBE3 JUMP JUMPDEST CALLVALUE DUP1 ISZERO PUSH2 0x434 JUMPI PUSH1 0x0 DUP1 REVERT JUMPDEST POP PUSH2 0x2C3 PUSH2 0x443 CALLDATASIZE PUSH1 0x4 PUSH2 0x2488 JUMP JUMPDEST PUSH2 0xC1C JUMP JUMPDEST CALLVALUE DUP1 ISZERO PUSH2 0x454 JUMPI PUSH1 0x0 DUP1 REVERT JUMPDEST POP PUSH2 0x28B PUSH2 0x463 CALLDATASIZE PUSH1 0x4 PUSH2 0x2438 JUMP JUMPDEST PUSH2 0xCCA JUMP JUMPDEST CALLVALUE DUP1 ISZERO PUSH2 0x474 JUMPI PUSH1 0x0 DUP1 REVERT JUMPDEST POP PUSH2 0x313 PUSH2 0x483 CALLDATASIZE PUSH1 0x4 PUSH2 0x222F JUMP JUMPDEST PUSH2 0x429 PUSH1 0x20 MSTORE PUSH1 0x0 SWAP1 DUP2 MSTORE PUSH1 0x40 SWAP1 KECCAK256 SLOAD DUP2 JUMP JUMPDEST CALLVALUE DUP1 ISZERO PUSH2 0x4A2 JUMPI PUSH1 0x0 DUP1 REVERT JUMPDEST POP PUSH2 0x313 PUSH2 0x4B1 CALLDATASIZE PUSH1 0x4 PUSH2 0x222F JUMP JUMPDEST PUSH2 0xCDC JUMP JUMPDEST CALLVALUE DUP1 ISZERO PUSH2 0x4C2 JUMPI PUSH1 0x0 DUP1 REVERT JUMPDEST POP PUSH2 0x2C3 PUSH2 0xD2A JUMP JUMPDEST PUSH2 0x2C3 PUSH2 0x4D9 CALLDATASIZE PUSH1 0x4 PUSH2 0x24CD JUMP JUMPDEST PUSH2 0xD60 JUMP JUMPDEST CALLVALUE DUP1 ISZERO PUSH2 0x4EA JUMPI PUSH1 0x0 DUP1 REVERT JUMPDEST POP PUSH1 0x0 SLOAD PUSH1 0x1 PUSH1 0x1 PUSH1 0xA0 SHL SUB AND PUSH2 0x28B JUMP JUMPDEST CALLVALUE DUP1 ISZERO PUSH2 0x508 JUMPI PUSH1 0x0 DUP1 REVERT JUMPDEST POP PUSH2 0x25E PUSH2 0x1006 JUMP JUMPDEST CALLVALUE DUP1 ISZERO PUSH2 0x51D JUMPI PUSH1 0x0 DUP1 REVERT JUMPDEST POP PUSH2 0x2C3 PUSH2 0x1015 JUMP JUMPDEST PUSH2 0x2C3 PUSH2 0x534 CALLDATASIZE PUSH1 0x4 PUSH2 0x2438 JUMP JUMPDEST PUSH2 0x1105 JUMP JUMPDEST CALLVALUE DUP1 ISZERO PUSH2 0x545 JUMPI PUSH1 0x0 DUP1 REVERT JUMPDEST POP PUSH2 0x2C3 PUSH2 0x554 CALLDATASIZE PUSH1 0x4 PUSH2 0x232E JUMP JUMPDEST PUSH2 0x12E5 JUMP JUMPDEST CALLVALUE DUP1 ISZERO PUSH2 0x565 JUMPI PUSH1 0x0 DUP1 REVERT JUMPDEST POP PUSH1 0x3C SLOAD PUSH2 0x313 JUMP JUMPDEST CALLVALUE DUP1 ISZERO PUSH2 0x57A JUMPI PUSH1 0x0 DUP1 REVERT JUMPDEST POP PUSH2 0x42C SLOAD PUSH1 0xFF AND PUSH2 0x234 JUMP JUMPDEST CALLVALUE DUP1 ISZERO PUSH2 0x593 JUMPI PUSH1 0x0 DUP1 REVERT JUMPDEST POP PUSH2 0x2C3 PUSH2 0x5A2 CALLDATASIZE PUSH1 0x4 PUSH2 0x22B6 JUMP JUMPDEST PUSH2 0x137B JUMP JUMPDEST CALLVALUE DUP1 ISZERO PUSH2 0x5B3 JUMPI PUSH1 0x0 DUP1 REVERT JUMPDEST POP PUSH2 0x25E PUSH2 0x5C2 CALLDATASIZE PUSH1 0x4 PUSH2 0x2438 JUMP JUMPDEST PUSH2 0x13C5 JUMP JUMPDEST CALLVALUE DUP1 ISZERO PUSH2 0x5D3 JUMPI PUSH1 0x0 DUP1 REVERT JUMPDEST POP PUSH2 0x234 PUSH2 0x5E2 CALLDATASIZE PUSH1 0x4 PUSH2 0x2249 JUMP JUMPDEST PUSH1 0x1 PUSH1 0x1 PUSH1 0xA0 SHL SUB SWAP2 DUP3 AND PUSH1 0x0 SWAP1 DUP2 MSTORE PUSH1 0x8 PUSH1 0x20 SWAP1 DUP2 MSTORE PUSH1 0x40 DUP1 DUP4 KECCAK256 SWAP4 SWAP1 SWAP5 AND DUP3 MSTORE SWAP2 SWAP1 SWAP2 MSTORE KECCAK256 SLOAD PUSH1 0xFF AND SWAP1 JUMP JUMPDEST CALLVALUE DUP1 ISZERO PUSH2 0x61C JUMPI PUSH1 0x0 DUP1 REVERT JUMPDEST POP PUSH2 0x2C3 PUSH2 0x62B CALLDATASIZE PUSH1 0x4 PUSH2 0x222F JUMP JUMPDEST PUSH2 0x144A JUMP JUMPDEST CALLVALUE DUP1 ISZERO PUSH2 0x63C JUMPI PUSH1 0x0 DUP1 REVERT JUMPDEST POP PUSH2 0x2C3 PUSH2 0x64B CALLDATASIZE PUSH1 0x4 PUSH2 0x2438 JUMP JUMPDEST PUSH2 0x14E5 JUMP JUMPDEST CALLVALUE DUP1 ISZERO PUSH2 0x65C JUMPI PUSH1 0x0 DUP1 REVERT JUMPDEST POP PUSH2 0x2C3 PUSH2 0x66B CALLDATASIZE PUSH1 0x4 PUSH2 0x2438 JUMP JUMPDEST PUSH2 0x158B JUMP JUMPDEST CALLVALUE DUP1 ISZERO PUSH2 0x67C JUMPI PUSH1 0x0 DUP1 REVERT JUMPDEST POP PUSH2 0x427 SLOAD PUSH2 0x100 SWAP1 DIV PUSH1 0xFF AND PUSH2 0x234 JUMP JUMPDEST PUSH1 0x0 PUSH1 0x1 PUSH1 0x1 PUSH1 0xE0 SHL SUB NOT DUP3 AND PUSH4 0x80AC58CD PUSH1 0xE0 SHL EQ DUP1 PUSH2 0x6BF JUMPI POP PUSH1 0x1 PUSH1 0x1 PUSH1 0xE0 SHL SUB NOT DUP3 AND PUSH4 0x5B5E139F PUSH1 0xE0 SHL EQ JUMPDEST DUP1 PUSH2 0x6DA JUMPI POP PUSH4 0x1FFC9A7 PUSH1 0xE0 SHL PUSH1 0x1 PUSH1 0x1 PUSH1 0xE0 SHL SUB NOT DUP4 AND EQ JUMPDEST SWAP3 SWAP2 POP POP JUMP JUMPDEST PUSH1 0x60 PUSH1 0x3 DUP1 SLOAD PUSH2 0x6EF SWAP1 PUSH2 0x2798 JUMP JUMPDEST DUP1 PUSH1 0x1F ADD PUSH1 0x20 DUP1 SWAP2 DIV MUL PUSH1 0x20 ADD PUSH1 0x40 MLOAD SWAP1 DUP2 ADD PUSH1 0x40 MSTORE DUP1 SWAP3 SWAP2 SWAP1 DUP2 DUP2 MSTORE PUSH1 0x20 ADD DUP3 DUP1 SLOAD PUSH2 0x71B SWAP1 PUSH2 0x2798 JUMP JUMPDEST DUP1 ISZERO PUSH2 0x768 JUMPI DUP1 PUSH1 0x1F LT PUSH2 0x73D JUMPI PUSH2 0x100 DUP1 DUP4 SLOAD DIV MUL DUP4 MSTORE SWAP2 PUSH1 0x20 ADD SWAP2 PUSH2 0x768 JUMP JUMPDEST DUP3 ADD SWAP2 SWAP1 PUSH1 0x0 MSTORE PUSH1 0x20 PUSH1 0x0 KECCAK256 SWAP1 JUMPDEST DUP2 SLOAD DUP2 MSTORE SWAP1 PUSH1 0x1 ADD SWAP1 PUSH1 0x20 ADD DUP1 DUP4 GT PUSH2 0x74B JUMPI DUP3 SWAP1 SUB PUSH1 0x1F AND DUP3 ADD SWAP2 JUMPDEST POP POP POP POP POP SWAP1 POP SWAP1 JUMP JUMPDEST PUSH1 0x0 PUSH2 0x77D DUP3 PUSH2 0x15BB JUMP JUMPDEST PUSH2 0x79A JUMPI PUSH1 0x40 MLOAD PUSH4 0x33D1C039 PUSH1 0xE2 SHL DUP2 MSTORE PUSH1 0x4 ADD PUSH1 0x40 MLOAD DUP1 SWAP2 SUB SWAP1 REVERT JUMPDEST POP PUSH1 0x0 SWAP1 DUP2 MSTORE PUSH1 0x7 PUSH1 0x20 MSTORE PUSH1 0x40 SWAP1 KECCAK256 SLOAD PUSH1 0x1 PUSH1 0x1 PUSH1 0xA0 SHL SUB AND SWAP1 JUMP JUMPDEST PUSH1 0x0 PUSH2 0x7C1 DUP3 PUSH2 0xCCA JUMP JUMPDEST SWAP1 POP DUP1 PUSH1 0x1 PUSH1 0x1 PUSH1 0xA0 SHL SUB AND DUP4 PUSH1 0x1 PUSH1 0x1 PUSH1 0xA0 SHL SUB AND EQ ISZERO PUSH2 0x7F6 JUMPI PUSH1 0x40 MLOAD PUSH4 0x250FDEE3 PUSH1 0xE2 SHL DUP2 MSTORE PUSH1 0x4 ADD PUSH1 0x40 MLOAD DUP1 SWAP2 SUB SWAP1 REVERT JUMPDEST CALLER PUSH1 0x1 PUSH1 0x1 PUSH1 0xA0 SHL SUB DUP3 AND EQ PUSH2 0x82D JUMPI PUSH2 0x810 DUP2 CALLER PUSH2 0x5E2 JUMP JUMPDEST PUSH2 0x82D JUMPI PUSH1 0x40 MLOAD PUSH4 0x67D9DCA1 PUSH1 0xE1 SHL DUP2 MSTORE PUSH1 0x4 ADD PUSH1 0x40 MLOAD DUP1 SWAP2 SUB SWAP1 REVERT JUMPDEST PUSH2 0x838 DUP4 DUP4 DUP4 PUSH2 0x15E7 JUMP JUMPDEST POP POP POP JUMP JUMPDEST PUSH1 0x0 SLOAD PUSH1 0x1 PUSH1 0x1 PUSH1 0xA0 SHL SUB AND CALLER EQ PUSH2 0x870 JUMPI PUSH1 0x40 MLOAD PUSH3 0x461BCD PUSH1 0xE5 SHL DUP2 MSTORE PUSH1 0x4 ADD PUSH2 0x867 SWAP1 PUSH2 0x26A5 JUMP JUMPDEST PUSH1 0x40 MLOAD DUP1 SWAP2 SUB SWAP1 REVERT JUMPDEST PUSH2 0x427 SLOAD PUSH2 0x100 SWAP1 DIV PUSH1 0xFF AND ISZERO PUSH2 0x8C9 JUMPI PUSH1 0x40 MLOAD PUSH3 0x461BCD PUSH1 0xE5 SHL DUP2 MSTORE PUSH1 0x20 PUSH1 0x4 DUP3 ADD MSTORE PUSH1 0x1F PUSH1 0x24 DUP3 ADD MSTORE PUSH32 0x5075626C6963206D696E742068617320616C7265616479207374617274656400 PUSH1 0x44 DUP3 ADD MSTORE PUSH1 0x64 ADD PUSH2 0x867 JUMP JUMPDEST PUSH2 0x427 SLOAD PUSH1 0xFF AND PUSH2 0x928 JUMPI PUSH1 0x40 MLOAD PUSH3 0x461BCD PUSH1 0xE5 SHL DUP2 MSTORE PUSH1 0x20 PUSH1 0x4 DUP3 ADD MSTORE PUSH1 0x24 DUP1 DUP3 ADD MSTORE PUSH32 0x416C6C6F776C697374206D696E74206D75737420626520737461727465642066 PUSH1 0x44 DUP3 ADD MSTORE PUSH4 0x1A5C9CDD PUSH1 0xE2 SHL PUSH1 0x64 DUP3 ADD MSTORE PUSH1 0x84 ADD PUSH2 0x867 JUMP JUMPDEST PUSH1 0x3C DUP2 SWAP1 SSTORE PUSH2 0x427 DUP1 SLOAD PUSH2 0xFF00 NOT AND PUSH2 0x100 OR SWAP1 SSTORE PUSH1 0x40 MLOAD PUSH32 0xD027BA160F7E3111418D8CAC41DC57DD841A8248C1D30FAE2612F8499979DBB2 SWAP1 PUSH1 0x0 SWAP1 LOG1 POP JUMP JUMPDEST PUSH2 0x838 DUP4 DUP4 DUP4 PUSH2 0x1643 JUMP JUMPDEST PUSH2 0x42E SLOAD PUSH1 0x40 MLOAD SELFBALANCE SWAP2 PUSH1 0x1 PUSH1 0x1 PUSH1 0xA0 SHL SUB AND SWAP1 DUP3 ISZERO PUSH2 0x8FC MUL SWAP1 DUP4 SWAP1 PUSH1 0x0 DUP2 DUP2 DUP2 DUP6 DUP9 DUP9 CALL SWAP4 POP POP POP POP ISZERO DUP1 ISZERO PUSH2 0x9AF JUMPI RETURNDATASIZE PUSH1 0x0 DUP1 RETURNDATACOPY RETURNDATASIZE PUSH1 0x0 REVERT JUMPDEST POP POP JUMP JUMPDEST PUSH1 0x0 SLOAD PUSH1 0x1 PUSH1 0x1 PUSH1 0xA0 SHL SUB AND CALLER EQ PUSH2 0x9DD JUMPI PUSH1 0x40 MLOAD PUSH3 0x461BCD PUSH1 0xE5 SHL DUP2 MSTORE PUSH1 0x4 ADD PUSH2 0x867 SWAP1 PUSH2 0x26A5 JUMP JUMPDEST PUSH2 0x427 SLOAD PUSH2 0x100 SWAP1 DIV PUSH1 0xFF AND ISZERO PUSH2 0xA36 JUMPI PUSH1 0x40 MLOAD PUSH3 0x461BCD PUSH1 0xE5 SHL DUP2 MSTORE PUSH1 0x20 PUSH1 0x4 DUP3 ADD MSTORE PUSH1 0x18 PUSH1 0x24 DUP3 ADD MSTORE PUSH32 0x53616C652068617320616C726561647920737461727465640000000000000000 PUSH1 0x44 DUP3 ADD MSTORE PUSH1 0x64 ADD PUSH2 0x867 JUMP JUMPDEST PUSH1 0x40 PUSH2 0x42D SLOAD LT PUSH2 0xA95 JUMPI PUSH1 0x40 MLOAD PUSH3 0x461BCD PUSH1 0xE5 SHL DUP2 MSTORE PUSH1 0x20 PUSH1 0x4 DUP3 ADD MSTORE PUSH1 0x23 PUSH1 0x24 DUP3 ADD MSTORE PUSH32 0x44657620737570706C792068617320616C7265616479206265656E2061776172 PUSH1 0x44 DUP3 ADD MSTORE PUSH3 0x191959 PUSH1 0xEA SHL PUSH1 0x64 DUP3 ADD MSTORE PUSH1 0x84 ADD PUSH2 0x867 JUMP JUMPDEST PUSH1 0x0 DUP1 JUMPDEST PUSH1 0x20 DUP3 LT ISZERO PUSH2 0xAE9 JUMPI PUSH2 0xAAA PUSH2 0x181E JUMP JUMPDEST PUSH2 0x42E SLOAD SWAP1 SWAP2 POP PUSH2 0xAC4 SWAP1 PUSH1 0x1 PUSH1 0x1 PUSH1 0xA0 SHL SUB AND DUP3 PUSH2 0x19D1 JUMP JUMPDEST PUSH2 0x426 SLOAD PUSH2 0xAD3 SWAP1 PUSH1 0x1 PUSH2 0x270A JUMP JUMPDEST PUSH2 0x426 SSTORE DUP2 PUSH2 0xAE1 DUP2 PUSH2 0x27D3 JUMP JUMPDEST SWAP3 POP POP PUSH2 0xA99 JUMP JUMPDEST PUSH2 0x42D SLOAD PUSH2 0xAF8 SWAP1 PUSH1 0x1 PUSH2 0x270A JUMP JUMPDEST PUSH2 0x42D SSTORE POP POP JUMP JUMPDEST PUSH2 0x838 DUP4 DUP4 DUP4 PUSH1 0x40 MLOAD DUP1 PUSH1 0x20 ADD PUSH1 0x40 MSTORE DUP1 PUSH1 0x0 DUP2 MSTORE POP PUSH2 0x137B JUMP JUMPDEST PUSH1 0x0 SLOAD PUSH1 0x1 PUSH1 0x1 PUSH1 0xA0 SHL SUB AND CALLER EQ PUSH2 0xB45 JUMPI PUSH1 0x40 MLOAD PUSH3 0x461BCD PUSH1 0xE5 SHL DUP2 MSTORE PUSH1 0x4 ADD PUSH2 0x867 SWAP1 PUSH2 0x26A5 JUMP JUMPDEST PUSH2 0x427 SLOAD PUSH1 0xFF AND ISZERO PUSH2 0xBA4 JUMPI PUSH1 0x40 MLOAD PUSH3 0x461BCD PUSH1 0xE5 SHL DUP2 MSTORE PUSH1 0x20 PUSH1 0x4 DUP3 ADD MSTORE PUSH1 0x22 PUSH1 0x24 DUP3 ADD MSTORE PUSH32 0x416C6C6F776C697374206D696E742068617320616C7265616479207374617274 PUSH1 0x44 DUP3 ADD MSTORE PUSH2 0x1959 PUSH1 0xF2 SHL PUSH1 0x64 DUP3 ADD MSTORE PUSH1 0x84 ADD PUSH2 0x867 JUMP JUMPDEST PUSH1 0x3C DUP2 SWAP1 SSTORE PUSH2 0x427 DUP1 SLOAD PUSH1 0xFF NOT AND PUSH1 0x1 OR SWAP1 SSTORE PUSH1 0x40 MLOAD PUSH32 0xEF4E7E9FE740CBDBE62D9B3C0B0CD0C03AD3F5217218CA1C1CB6EB2275F1EFEC SWAP1 PUSH1 0x0 SWAP1 LOG1 POP JUMP JUMPDEST PUSH1 0x0 PUSH2 0xBEE DUP3 PUSH2 0x1AE0 JUMP JUMPDEST ISZERO PUSH2 0xC0F JUMPI CALLER PUSH1 0x0 SWAP1 DUP2 MSTORE PUSH2 0x428 PUSH1 0x20 MSTORE PUSH1 0x40 SWAP1 KECCAK256 SLOAD PUSH2 0x6DA SWAP1 PUSH1 0x2 PUSH2 0x2755 JUMP JUMPDEST POP PUSH1 0x0 SWAP2 SWAP1 POP JUMP JUMPDEST SWAP2 SWAP1 POP JUMP JUMPDEST PUSH1 0x0 SLOAD PUSH1 0x1 PUSH1 0x1 PUSH1 0xA0 SHL SUB AND CALLER EQ PUSH2 0xC46 JUMPI PUSH1 0x40 MLOAD PUSH3 0x461BCD PUSH1 0xE5 SHL DUP2 MSTORE PUSH1 0x4 ADD PUSH2 0x867 SWAP1 PUSH2 0x26A5 JUMP JUMPDEST PUSH2 0x42C SLOAD PUSH1 0xFF AND ISZERO PUSH2 0xCB6 JUMPI PUSH1 0x40 MLOAD PUSH3 0x461BCD PUSH1 0xE5 SHL DUP2 MSTORE PUSH1 0x20 PUSH1 0x4 DUP3 ADD MSTORE PUSH1 0x33 PUSH1 0x24 DUP3 ADD MSTORE PUSH32 0x43616E6E6F74206368616E6765206D6574616461746120616674657220746865 PUSH1 0x44 DUP3 ADD MSTORE PUSH19 0x81B595D1859185D18481A5CC81B1BD8DAD959 PUSH1 0x6A SHL PUSH1 0x64 DUP3 ADD MSTORE PUSH1 0x84 ADD PUSH2 0x867 JUMP JUMPDEST DUP1 MLOAD PUSH2 0x9AF SWAP1 PUSH2 0x42B SWAP1 PUSH1 0x20 DUP5 ADD SWAP1 PUSH2 0x2128 JUMP JUMPDEST PUSH1 0x0 PUSH2 0xCD5 DUP3 PUSH2 0x1AF0 JUMP JUMPDEST MLOAD SWAP3 SWAP2 POP POP JUMP JUMPDEST PUSH1 0x0 PUSH1 0x1 PUSH1 0x1 PUSH1 0xA0 SHL SUB DUP3 AND PUSH2 0xD05 JUMPI PUSH1 0x40 MLOAD PUSH4 0x23D3AD81 PUSH1 0xE2 SHL DUP2 MSTORE PUSH1 0x4 ADD PUSH1 0x40 MLOAD DUP1 SWAP2 SUB SWAP1 REVERT JUMPDEST POP PUSH1 0x1 PUSH1 0x1 PUSH1 0xA0 SHL SUB AND PUSH1 0x0 SWAP1 DUP2 MSTORE PUSH1 0x6 PUSH1 0x20 MSTORE PUSH1 0x40 SWAP1 KECCAK256 SLOAD PUSH1 0x1 PUSH1 0x1 PUSH1 0x40 SHL SUB AND SWAP1 JUMP JUMPDEST PUSH1 0x0 SLOAD PUSH1 0x1 PUSH1 0x1 PUSH1 0xA0 SHL SUB AND CALLER EQ PUSH2 0xD54 JUMPI PUSH1 0x40 MLOAD PUSH3 0x461BCD PUSH1 0xE5 SHL DUP2 MSTORE PUSH1 0x4 ADD PUSH2 0x867 SWAP1 PUSH2 0x26A5 JUMP JUMPDEST PUSH2 0xD5E PUSH1 0x0 PUSH2 0x1C0A JUMP JUMPDEST JUMP JUMPDEST CALLER ORIGIN DUP2 EQ PUSH2 0xD80 JUMPI PUSH1 0x40 MLOAD PUSH3 0x461BCD PUSH1 0xE5 SHL DUP2 MSTORE PUSH1 0x4 ADD PUSH2 0x867 SWAP1 PUSH2 0x2677 JUMP JUMPDEST DUP1 EXTCODESIZE DUP1 ISZERO PUSH2 0xDA0 JUMPI PUSH1 0x40 MLOAD PUSH3 0x461BCD PUSH1 0xE5 SHL DUP2 MSTORE PUSH1 0x4 ADD PUSH2 0x867 SWAP1 PUSH2 0x2677 JUMP JUMPDEST DUP4 DUP4 DUP1 DUP1 PUSH1 0x20 MUL PUSH1 0x20 ADD PUSH1 0x40 MLOAD SWAP1 DUP2 ADD PUSH1 0x40 MSTORE DUP1 SWAP4 SWAP3 SWAP2 SWAP1 DUP2 DUP2 MSTORE PUSH1 0x20 ADD DUP4 DUP4 PUSH1 0x20 MUL DUP1 DUP3 DUP5 CALLDATACOPY PUSH1 0x0 SWAP3 ADD SWAP2 SWAP1 SWAP2 MSTORE POP PUSH2 0xDDF SWAP3 POP DUP4 SWAP2 POP PUSH2 0x1AE0 SWAP1 POP JUMP JUMPDEST PUSH2 0xE2B JUMPI PUSH1 0x40 MLOAD PUSH3 0x461BCD PUSH1 0xE5 SHL DUP2 MSTORE PUSH1 0x20 PUSH1 0x4 DUP3 ADD MSTORE PUSH1 0x19 PUSH1 0x24 DUP3 ADD MSTORE PUSH32 0x43616C6C6572206973206E6F7420616C6C6F776C697374656400000000000000 PUSH1 0x44 DUP3 ADD MSTORE PUSH1 0x64 ADD PUSH2 0x867 JUMP JUMPDEST CALLER PUSH1 0x0 SWAP1 DUP2 MSTORE PUSH2 0x428 PUSH1 0x20 MSTORE PUSH1 0x40 DUP2 KECCAK256 SLOAD SWAP1 PUSH2 0xE47 DUP9 DUP4 PUSH2 0x270A JUMP JUMPDEST PUSH2 0x427 SLOAD SWAP1 SWAP2 POP PUSH1 0xFF AND PUSH2 0xE9D JUMPI PUSH1 0x40 MLOAD PUSH3 0x461BCD PUSH1 0xE5 SHL DUP2 MSTORE PUSH1 0x20 PUSH1 0x4 DUP3 ADD MSTORE PUSH1 0x18 PUSH1 0x24 DUP3 ADD MSTORE PUSH32 0x416C6C6F776C697374206D696E74696E6720636C6F7365640000000000000000 PUSH1 0x44 DUP3 ADD MSTORE PUSH1 0x64 ADD PUSH2 0x867 JUMP JUMPDEST PUSH2 0x3E8 PUSH2 0x426 SLOAD LT PUSH2 0xEC1 JUMPI PUSH1 0x40 MLOAD PUSH3 0x461BCD PUSH1 0xE5 SHL DUP2 MSTORE PUSH1 0x4 ADD PUSH2 0x867 SWAP1 PUSH2 0x2635 JUMP JUMPDEST PUSH1 0x0 DUP9 GT PUSH2 0xF0B JUMPI PUSH1 0x40 MLOAD PUSH3 0x461BCD PUSH1 0xE5 SHL DUP2 MSTORE PUSH1 0x20 PUSH1 0x4 DUP3 ADD MSTORE PUSH1 0x17 PUSH1 0x24 DUP3 ADD MSTORE PUSH23 0x26BAB9BA1036B4B73A1030BA103632B0B9BA1037B73297 PUSH1 0x49 SHL PUSH1 0x44 DUP3 ADD MSTORE PUSH1 0x64 ADD PUSH2 0x867 JUMP JUMPDEST PUSH1 0x2 DUP2 GT ISZERO PUSH2 0xF5C JUMPI PUSH1 0x40 MLOAD PUSH3 0x461BCD PUSH1 0xE5 SHL DUP2 MSTORE PUSH1 0x20 PUSH1 0x4 DUP3 ADD MSTORE PUSH1 0x1C PUSH1 0x24 DUP3 ADD MSTORE PUSH32 0x4D696E742065786365656473206C696D6974207065722063616C6C2E00000000 PUSH1 0x44 DUP3 ADD MSTORE PUSH1 0x64 ADD PUSH2 0x867 JUMP JUMPDEST PUSH2 0x426 SLOAD PUSH2 0xF6C SWAP1 PUSH2 0x3E8 PUSH2 0x2755 JUMP JUMPDEST DUP9 GT ISZERO PUSH2 0xF8B JUMPI PUSH1 0x40 MLOAD PUSH3 0x461BCD PUSH1 0xE5 SHL DUP2 MSTORE PUSH1 0x4 ADD PUSH2 0x867 SWAP1 PUSH2 0x25F1 JUMP JUMPDEST DUP8 PUSH1 0x3C SLOAD PUSH2 0xF99 SWAP2 SWAP1 PUSH2 0x2736 JUMP JUMPDEST CALLVALUE EQ PUSH2 0xFDF JUMPI PUSH1 0x40 MLOAD PUSH3 0x461BCD PUSH1 0xE5 SHL DUP2 MSTORE PUSH1 0x20 PUSH1 0x4 DUP3 ADD MSTORE PUSH1 0x15 PUSH1 0x24 DUP3 ADD MSTORE PUSH21 0xACD2C4CAE4E640E0E4D2C6CA40DAD2E6DAC2E8C6D PUSH1 0x5B SHL PUSH1 0x44 DUP3 ADD MSTORE PUSH1 0x64 ADD PUSH2 0x867 JUMP JUMPDEST CALLER PUSH1 0x0 DUP2 DUP2 MSTORE PUSH2 0x428 PUSH1 0x20 MSTORE PUSH1 0x40 SWAP1 KECCAK256 DUP3 SWAP1 SSTORE PUSH2 0xFFC SWAP1 DUP10 PUSH2 0x1C5A JUMP JUMPDEST POP POP POP POP POP POP POP POP JUMP JUMPDEST PUSH1 0x60 PUSH1 0x4 DUP1 SLOAD PUSH2 0x6EF SWAP1 PUSH2 0x2798 JUMP JUMPDEST PUSH1 0x0 SLOAD PUSH1 0x1 PUSH1 0x1 PUSH1 0xA0 SHL SUB AND CALLER EQ PUSH2 0x103F JUMPI PUSH1 0x40 MLOAD PUSH3 0x461BCD PUSH1 0xE5 SHL DUP2 MSTORE PUSH1 0x4 ADD PUSH2 0x867 SWAP1 PUSH2 0x26A5 JUMP JUMPDEST PUSH2 0x427 SLOAD PUSH2 0x100 SWAP1 DIV PUSH1 0xFF AND PUSH2 0x10A1 JUMPI PUSH1 0x40 MLOAD PUSH3 0x461BCD PUSH1 0xE5 SHL DUP2 MSTORE PUSH1 0x20 PUSH1 0x4 DUP3 ADD MSTORE PUSH1 0x21 PUSH1 0x24 DUP3 ADD MSTORE PUSH32 0x5075626C6963206D696E74206D75737420626520737461727465642066697273 PUSH1 0x44 DUP3 ADD MSTORE PUSH1 0x1D PUSH1 0xFA SHL PUSH1 0x64 DUP3 ADD MSTORE PUSH1 0x84 ADD PUSH2 0x867 JUMP JUMPDEST PUSH2 0x42C SLOAD PUSH1 0xFF AND ISZERO PUSH2 0x10F5 JUMPI PUSH1 0x40 MLOAD PUSH3 0x461BCD PUSH1 0xE5 SHL DUP2 MSTORE PUSH1 0x20 PUSH1 0x4 DUP3 ADD MSTORE PUSH1 0x1A PUSH1 0x24 DUP3 ADD MSTORE PUSH32 0x4D6574616461746120697320616C7265616479206C6F636B6564000000000000 PUSH1 0x44 DUP3 ADD MSTORE PUSH1 0x64 ADD PUSH2 0x867 JUMP JUMPDEST PUSH2 0x42C DUP1 SLOAD PUSH1 0xFF NOT AND PUSH1 0x1 OR SWAP1 SSTORE JUMP JUMPDEST CALLER ORIGIN DUP2 EQ PUSH2 0x1125 JUMPI PUSH1 0x40 MLOAD PUSH3 0x461BCD PUSH1 0xE5 SHL DUP2 MSTORE PUSH1 0x4 ADD PUSH2 0x867 SWAP1 PUSH2 0x2677 JUMP JUMPDEST DUP1 EXTCODESIZE DUP1 ISZERO PUSH2 0x1145 JUMPI PUSH1 0x40 MLOAD PUSH3 0x461BCD PUSH1 0xE5 SHL DUP2 MSTORE PUSH1 0x4 ADD PUSH2 0x867 SWAP1 PUSH2 0x2677 JUMP JUMPDEST PUSH2 0x427 SLOAD PUSH2 0x100 SWAP1 DIV PUSH1 0xFF AND PUSH2 0x119D JUMPI PUSH1 0x40 MLOAD PUSH3 0x461BCD PUSH1 0xE5 SHL DUP2 MSTORE PUSH1 0x20 PUSH1 0x4 DUP3 ADD MSTORE PUSH1 0x19 PUSH1 0x24 DUP3 ADD MSTORE PUSH32 0x53616C6520686173206E6F742073746172746564207965742E00000000000000 PUSH1 0x44 DUP3 ADD MSTORE PUSH1 0x64 ADD PUSH2 0x867 JUMP JUMPDEST PUSH2 0x3E8 PUSH2 0x426 SLOAD LT PUSH2 0x11C1 JUMPI PUSH1 0x40 MLOAD PUSH3 0x461BCD PUSH1 0xE5 SHL DUP2 MSTORE PUSH1 0x4 ADD PUSH2 0x867 SWAP1 PUSH2 0x2635 JUMP JUMPDEST PUSH1 0x0 DUP4 GT PUSH2 0x120B JUMPI PUSH1 0x40 MLOAD PUSH3 0x461BCD PUSH1 0xE5 SHL DUP2 MSTORE PUSH1 0x20 PUSH1 0x4 DUP3 ADD MSTORE PUSH1 0x17 PUSH1 0x24 DUP3 ADD MSTORE PUSH23 0x26BAB9BA1036B4B73A1030BA103632B0B9BA1037B73297 PUSH1 0x49 SHL PUSH1 0x44 DUP3 ADD MSTORE PUSH1 0x64 ADD PUSH2 0x867 JUMP JUMPDEST PUSH1 0x4 DUP4 GT ISZERO PUSH2 0x125C JUMPI PUSH1 0x40 MLOAD PUSH3 0x461BCD PUSH1 0xE5 SHL DUP2 MSTORE PUSH1 0x20 PUSH1 0x4 DUP3 ADD MSTORE PUSH1 0x1C PUSH1 0x24 DUP3 ADD MSTORE PUSH32 0x4D696E742065786365656473206C696D6974207065722063616C6C2E00000000 PUSH1 0x44 DUP3 ADD MSTORE PUSH1 0x64 ADD PUSH2 0x867 JUMP JUMPDEST PUSH2 0x426 SLOAD PUSH2 0x126C SWAP1 PUSH2 0x3E8 PUSH2 0x2755 JUMP JUMPDEST DUP4 GT ISZERO PUSH2 0x128B JUMPI PUSH1 0x40 MLOAD PUSH3 0x461BCD PUSH1 0xE5 SHL DUP2 MSTORE PUSH1 0x4 ADD PUSH2 0x867 SWAP1 PUSH2 0x25F1 JUMP JUMPDEST DUP3 PUSH1 0x3C SLOAD PUSH2 0x1299 SWAP2 SWAP1 PUSH2 0x2736 JUMP JUMPDEST CALLVALUE EQ PUSH2 0x12DB JUMPI PUSH1 0x40 MLOAD PUSH3 0x461BCD PUSH1 0xE5 SHL DUP2 MSTORE PUSH1 0x20 PUSH1 0x4 DUP3 ADD MSTORE PUSH1 0x11 PUSH1 0x24 DUP3 ADD MSTORE PUSH17 0x1B5CD9CB9D985B1D59481A5B9D985B1A59 PUSH1 0x7A SHL PUSH1 0x44 DUP3 ADD MSTORE PUSH1 0x64 ADD PUSH2 0x867 JUMP JUMPDEST PUSH2 0x838 CALLER DUP5 PUSH2 0x1C5A JUMP JUMPDEST PUSH1 0x1 PUSH1 0x1 PUSH1 0xA0 SHL SUB DUP3 AND CALLER EQ ISZERO PUSH2 0x130F JUMPI PUSH1 0x40 MLOAD PUSH4 0xB06307DB PUSH1 0xE0 SHL DUP2 MSTORE PUSH1 0x4 ADD PUSH1 0x40 MLOAD DUP1 SWAP2 SUB SWAP1 REVERT JUMPDEST CALLER PUSH1 0x0 DUP2 DUP2 MSTORE PUSH1 0x8 PUSH1 0x20 SWAP1 DUP2 MSTORE PUSH1 0x40 DUP1 DUP4 KECCAK256 PUSH1 0x1 PUSH1 0x1 PUSH1 0xA0 SHL SUB DUP8 AND DUP1 DUP6 MSTORE SWAP1 DUP4 MSTORE SWAP3 DUP2 SWAP1 KECCAK256 DUP1 SLOAD PUSH1 0xFF NOT AND DUP7 ISZERO ISZERO SWAP1 DUP2 OR SWAP1 SWAP2 SSTORE SWAP1 MLOAD SWAP1 DUP2 MSTORE SWAP2 SWAP3 SWAP2 PUSH32 0x17307EAB39AB6107E8899845AD3D59BD9653F200F220920489CA2B5937696C31 SWAP2 ADD PUSH1 0x40 MLOAD DUP1 SWAP2 SUB SWAP1 LOG3 POP POP JUMP JUMPDEST PUSH2 0x1386 DUP5 DUP5 DUP5 PUSH2 0x1643 JUMP JUMPDEST PUSH1 0x1 PUSH1 0x1 PUSH1 0xA0 SHL SUB DUP4 AND EXTCODESIZE ISZERO PUSH2 0x13BF JUMPI PUSH2 0x13A2 DUP5 DUP5 DUP5 DUP5 PUSH2 0x1C74 JUMP JUMPDEST PUSH2 0x13BF JUMPI PUSH1 0x40 MLOAD PUSH4 0x68D2BF6B PUSH1 0xE1 SHL DUP2 MSTORE PUSH1 0x4 ADD PUSH1 0x40 MLOAD DUP1 SWAP2 SUB SWAP1 REVERT JUMPDEST POP POP POP POP JUMP JUMPDEST PUSH1 0x60 PUSH2 0x13D0 DUP3 PUSH2 0x15BB JUMP JUMPDEST PUSH2 0x13ED JUMPI PUSH1 0x40 MLOAD PUSH4 0xA14C4B5 PUSH1 0xE4 SHL DUP2 MSTORE PUSH1 0x4 ADD PUSH1 0x40 MLOAD DUP1 SWAP2 SUB SWAP1 REVERT JUMPDEST PUSH1 0x0 PUSH2 0x13F7 PUSH2 0x1D6C JUMP JUMPDEST SWAP1 POP DUP1 MLOAD PUSH1 0x0 EQ ISZERO PUSH2 0x1418 JUMPI PUSH1 0x40 MLOAD DUP1 PUSH1 0x20 ADD PUSH1 0x40 MSTORE DUP1 PUSH1 0x0 DUP2 MSTORE POP PUSH2 0x1443 JUMP JUMPDEST DUP1 PUSH2 0x1422 DUP5 PUSH2 0x1D7C JUMP JUMPDEST PUSH1 0x40 MLOAD PUSH1 0x20 ADD PUSH2 0x1433 SWAP3 SWAP2 SWAP1 PUSH2 0x2572 JUMP JUMPDEST PUSH1 0x40 MLOAD PUSH1 0x20 DUP2 DUP4 SUB SUB DUP2 MSTORE SWAP1 PUSH1 0x40 MSTORE JUMPDEST SWAP4 SWAP3 POP POP POP JUMP JUMPDEST PUSH1 0x0 SLOAD PUSH1 0x1 PUSH1 0x1 PUSH1 0xA0 SHL SUB AND CALLER EQ PUSH2 0x1474 JUMPI PUSH1 0x40 MLOAD PUSH3 0x461BCD PUSH1 0xE5 SHL DUP2 MSTORE PUSH1 0x4 ADD PUSH2 0x867 SWAP1 PUSH2 0x26A5 JUMP JUMPDEST PUSH1 0x1 PUSH1 0x1 PUSH1 0xA0 SHL SUB DUP2 AND PUSH2 0x14D9 JUMPI PUSH1 0x40 MLOAD PUSH3 0x461BCD PUSH1 0xE5 SHL DUP2 MSTORE PUSH1 0x20 PUSH1 0x4 DUP3 ADD MSTORE PUSH1 0x26 PUSH1 0x24 DUP3 ADD MSTORE PUSH32 0x4F776E61626C653A206E6577206F776E657220697320746865207A65726F2061 PUSH1 0x44 DUP3 ADD MSTORE PUSH6 0x646472657373 PUSH1 0xD0 SHL PUSH1 0x64 DUP3 ADD MSTORE PUSH1 0x84 ADD PUSH2 0x867 JUMP JUMPDEST PUSH2 0x14E2 DUP2 PUSH2 0x1C0A JUMP JUMPDEST POP JUMP JUMPDEST PUSH1 0x0 SLOAD PUSH1 0x1 PUSH1 0x1 PUSH1 0xA0 SHL SUB AND CALLER EQ PUSH2 0x150F JUMPI PUSH1 0x40 MLOAD PUSH3 0x461BCD PUSH1 0xE5 SHL DUP2 MSTORE PUSH1 0x4 ADD PUSH2 0x867 SWAP1 PUSH2 0x26A5 JUMP JUMPDEST PUSH2 0x427 SLOAD PUSH1 0xFF AND ISZERO ISZERO PUSH1 0x1 EQ PUSH2 0x1586 JUMPI PUSH1 0x40 MLOAD PUSH3 0x461BCD PUSH1 0xE5 SHL DUP2 MSTORE PUSH1 0x20 PUSH1 0x4 DUP3 ADD MSTORE PUSH1 0x36 PUSH1 0x24 DUP3 ADD MSTORE PUSH32 0x5468652073616C65206D757374206265207374617274656420746F206368616E PUSH1 0x44 DUP3 ADD MSTORE PUSH22 0x33B2903A34329032BC34B9BA34B73390383934B1B297 PUSH1 0x51 SHL PUSH1 0x64 DUP3 ADD MSTORE PUSH1 0x84 ADD PUSH2 0x867 JUMP JUMPDEST PUSH1 0x3C SSTORE JUMP JUMPDEST PUSH1 0x0 SLOAD PUSH1 0x1 PUSH1 0x1 PUSH1 0xA0 SHL SUB AND CALLER EQ PUSH2 0x15B5 JUMPI PUSH1 0x40 MLOAD PUSH3 0x461BCD PUSH1 0xE5 SHL DUP2 MSTORE PUSH1 0x4 ADD PUSH2 0x867 SWAP1 PUSH2 0x26A5 JUMP JUMPDEST PUSH2 0x42A SSTORE JUMP JUMPDEST PUSH1 0x0 PUSH1 0x1 SLOAD DUP3 LT DUP1 ISZERO PUSH2 0x6DA JUMPI POP POP PUSH1 0x0 SWAP1 DUP2 MSTORE PUSH1 0x5 PUSH1 0x20 MSTORE PUSH1 0x40 SWAP1 KECCAK256 SLOAD PUSH1 0x1 PUSH1 0xE0 SHL SWAP1 DIV PUSH1 0xFF AND ISZERO SWAP1 JUMP JUMPDEST PUSH1 0x0 DUP3 DUP2 MSTORE PUSH1 0x7 PUSH1 0x20 MSTORE PUSH1 0x40 DUP1 DUP3 KECCAK256 DUP1 SLOAD PUSH1 0x1 PUSH1 0x1 PUSH1 0xA0 SHL SUB NOT AND PUSH1 0x1 PUSH1 0x1 PUSH1 0xA0 SHL SUB DUP8 DUP2 AND SWAP2 DUP3 OR SWAP1 SWAP3 SSTORE SWAP2 MLOAD DUP6 SWAP4 SWAP2 DUP6 AND SWAP2 PUSH32 0x8C5BE1E5EBEC7D5BD14F71427D1E84F3DD0314C0F7B2291E5B200AC8C7C3B925 SWAP2 LOG4 POP POP POP JUMP JUMPDEST PUSH1 0x0 PUSH2 0x164E DUP3 PUSH2 0x1AF0 JUMP JUMPDEST SWAP1 POP DUP4 PUSH1 0x1 PUSH1 0x1 PUSH1 0xA0 SHL SUB AND DUP2 PUSH1 0x0 ADD MLOAD PUSH1 0x1 PUSH1 0x1 PUSH1 0xA0 SHL SUB AND EQ PUSH2 0x1685 JUMPI PUSH1 0x40 MLOAD PUSH3 0xA11481 PUSH1 0xE8 SHL DUP2 MSTORE PUSH1 0x4 ADD PUSH1 0x40 MLOAD DUP1 SWAP2 SUB SWAP1 REVERT JUMPDEST PUSH1 0x0 CALLER PUSH1 0x1 PUSH1 0x1 PUSH1 0xA0 SHL SUB DUP7 AND EQ DUP1 PUSH2 0x16A3 JUMPI POP PUSH2 0x16A3 DUP6 CALLER PUSH2 0x5E2 JUMP JUMPDEST DUP1 PUSH2 0x16BE JUMPI POP CALLER PUSH2 0x16B3 DUP5 PUSH2 0x772 JUMP JUMPDEST PUSH1 0x1 PUSH1 0x1 PUSH1 0xA0 SHL SUB AND EQ JUMPDEST SWAP1 POP DUP1 PUSH2 0x16DE JUMPI PUSH1 0x40 MLOAD PUSH4 0x2CE44B5F PUSH1 0xE1 SHL DUP2 MSTORE PUSH1 0x4 ADD PUSH1 0x40 MLOAD DUP1 SWAP2 SUB SWAP1 REVERT JUMPDEST PUSH1 0x1 PUSH1 0x1 PUSH1 0xA0 SHL SUB DUP5 AND PUSH2 0x1705 JUMPI PUSH1 0x40 MLOAD PUSH4 0x3A954ECD PUSH1 0xE2 SHL DUP2 MSTORE PUSH1 0x4 ADD PUSH1 0x40 MLOAD DUP1 SWAP2 SUB SWAP1 REVERT JUMPDEST PUSH2 0x1711 PUSH1 0x0 DUP5 DUP8 PUSH2 0x15E7 JUMP JUMPDEST PUSH1 0x1 PUSH1 0x1 PUSH1 0xA0 SHL SUB DUP6 DUP2 AND PUSH1 0x0 SWAP1 DUP2 MSTORE PUSH1 0x6 PUSH1 0x20 SWAP1 DUP2 MSTORE PUSH1 0x40 DUP1 DUP4 KECCAK256 DUP1 SLOAD PUSH8 0xFFFFFFFFFFFFFFFF NOT DUP1 DUP3 AND PUSH1 0x1 PUSH1 0x1 PUSH1 0x40 SHL SUB SWAP3 DUP4 AND PUSH1 0x0 NOT ADD DUP4 AND OR SWAP1 SWAP3 SSTORE DUP10 DUP7 AND DUP1 DUP7 MSTORE DUP4 DUP7 KECCAK256 DUP1 SLOAD SWAP4 DUP5 AND SWAP4 DUP4 AND PUSH1 0x1 SWAP1 DUP2 ADD DUP5 AND SWAP5 SWAP1 SWAP5 OR SWAP1 SSTORE DUP10 DUP7 MSTORE PUSH1 0x5 SWAP1 SWAP5 MSTORE DUP3 DUP6 KECCAK256 DUP1 SLOAD PUSH1 0x1 PUSH1 0x1 PUSH1 0xE0 SHL SUB NOT AND SWAP1 SWAP5 OR PUSH1 0x1 PUSH1 0xA0 SHL TIMESTAMP SWAP1 SWAP3 AND SWAP2 SWAP1 SWAP2 MUL OR DUP4 SSTORE DUP8 ADD DUP1 DUP5 MSTORE SWAP3 KECCAK256 DUP1 SLOAD SWAP2 SWAP4 SWAP1 SWAP2 AND PUSH2 0x17E5 JUMPI PUSH1 0x1 SLOAD DUP3 EQ PUSH2 0x17E5 JUMPI DUP1 SLOAD PUSH1 0x20 DUP7 ADD MLOAD PUSH1 0x1 PUSH1 0x1 PUSH1 0x40 SHL SUB AND PUSH1 0x1 PUSH1 0xA0 SHL MUL PUSH1 0x1 PUSH1 0x1 PUSH1 0xE0 SHL SUB NOT SWAP1 SWAP2 AND PUSH1 0x1 PUSH1 0x1 PUSH1 0xA0 SHL SUB DUP11 AND OR OR DUP2 SSTORE JUMPDEST POP POP POP DUP3 DUP5 PUSH1 0x1 PUSH1 0x1 PUSH1 0xA0 SHL SUB AND DUP7 PUSH1 0x1 PUSH1 0x1 PUSH1 0xA0 SHL SUB AND PUSH1 0x0 DUP1 MLOAD PUSH1 0x20 PUSH2 0x285B DUP4 CODECOPY DUP2 MLOAD SWAP2 MSTORE PUSH1 0x40 MLOAD PUSH1 0x40 MLOAD DUP1 SWAP2 SUB SWAP1 LOG4 POP POP POP POP POP JUMP JUMPDEST PUSH1 0x0 DUP1 PUSH2 0x426 SLOAD PUSH2 0x3E8 PUSH2 0x1832 SWAP2 SWAP1 PUSH2 0x2755 JUMP JUMPDEST PUSH2 0x425 SLOAD PUSH1 0x40 DUP1 MLOAD PUSH1 0x20 DUP2 ADD SWAP3 SWAP1 SWAP3 MSTORE PUSH12 0xFFFFFFFFFFFFFFFFFFFFFFFF NOT CALLER PUSH1 0x60 SHL AND SWAP1 DUP3 ADD MSTORE DIFFICULTY PUSH1 0x54 DUP3 ADD MSTORE TIMESTAMP PUSH1 0x74 DUP3 ADD MSTORE SWAP1 SWAP2 POP PUSH1 0x0 SWAP1 DUP3 SWAP1 PUSH1 0x94 ADD PUSH1 0x40 MLOAD PUSH1 0x20 DUP2 DUP4 SUB SUB DUP2 MSTORE SWAP1 PUSH1 0x40 MSTORE DUP1 MLOAD SWAP1 PUSH1 0x20 ADD KECCAK256 PUSH1 0x0 SHR PUSH2 0x1893 SWAP2 SWAP1 PUSH2 0x27EE JUMP JUMPDEST SWAP1 POP PUSH1 0x0 PUSH1 0x3D DUP3 PUSH2 0x3E8 DUP2 LT PUSH2 0x18B9 JUMPI PUSH4 0x4E487B71 PUSH1 0xE0 SHL PUSH1 0x0 MSTORE PUSH1 0x32 PUSH1 0x4 MSTORE PUSH1 0x24 PUSH1 0x0 REVERT JUMPDEST ADD SLOAD ISZERO PUSH2 0x18EB JUMPI PUSH1 0x3D DUP3 PUSH2 0x3E8 DUP2 LT PUSH2 0x18E2 JUMPI PUSH4 0x4E487B71 PUSH1 0xE0 SHL PUSH1 0x0 MSTORE PUSH1 0x32 PUSH1 0x4 MSTORE PUSH1 0x24 PUSH1 0x0 REVERT JUMPDEST ADD SLOAD SWAP1 POP PUSH2 0x18EE JUMP JUMPDEST POP DUP1 JUMPDEST PUSH1 0x3D PUSH2 0x18FB PUSH1 0x1 DUP6 PUSH2 0x2755 JUMP JUMPDEST PUSH2 0x3E8 DUP2 LT PUSH2 0x191A JUMPI PUSH4 0x4E487B71 PUSH1 0xE0 SHL PUSH1 0x0 MSTORE PUSH1 0x32 PUSH1 0x4 MSTORE PUSH1 0x24 PUSH1 0x0 REVERT JUMPDEST ADD SLOAD PUSH2 0x1954 JUMPI PUSH2 0x192B PUSH1 0x1 DUP5 PUSH2 0x2755 JUMP JUMPDEST PUSH1 0x3D DUP4 PUSH2 0x3E8 DUP2 LT PUSH2 0x194D JUMPI PUSH4 0x4E487B71 PUSH1 0xE0 SHL PUSH1 0x0 MSTORE PUSH1 0x32 PUSH1 0x4 MSTORE PUSH1 0x24 PUSH1 0x0 REVERT JUMPDEST ADD SSTORE PUSH2 0x19A7 JUMP JUMPDEST PUSH1 0x3D PUSH2 0x1961 PUSH1 0x1 DUP6 PUSH2 0x2755 JUMP JUMPDEST PUSH2 0x3E8 DUP2 LT PUSH2 0x1980 JUMPI PUSH4 0x4E487B71 PUSH1 0xE0 SHL PUSH1 0x0 MSTORE PUSH1 0x32 PUSH1 0x4 MSTORE PUSH1 0x24 PUSH1 0x0 REVERT JUMPDEST ADD SLOAD PUSH1 0x3D DUP4 PUSH2 0x3E8 DUP2 LT PUSH2 0x19A4 JUMPI PUSH4 0x4E487B71 PUSH1 0xE0 SHL PUSH1 0x0 MSTORE PUSH1 0x32 PUSH1 0x4 MSTORE PUSH1 0x24 PUSH1 0x0 REVERT JUMPDEST ADD SSTORE JUMPDEST PUSH2 0x425 DUP1 SLOAD SWAP1 PUSH1 0x0 PUSH2 0x19B8 DUP4 PUSH2 0x27D3 JUMP JUMPDEST SWAP1 SWAP2 SSTORE POP PUSH2 0x19C9 SWAP1 POP DUP2 PUSH1 0x1 PUSH2 0x270A JUMP JUMPDEST SWAP4 POP POP POP POP SWAP1 JUMP JUMPDEST PUSH1 0x1 SLOAD PUSH1 0x1 PUSH1 0x1 PUSH1 0xA0 SHL SUB DUP4 AND PUSH2 0x19FA JUMPI PUSH1 0x40 MLOAD PUSH3 0x2E0763 PUSH1 0xE8 SHL DUP2 MSTORE PUSH1 0x4 ADD PUSH1 0x40 MLOAD DUP1 SWAP2 SUB SWAP1 REVERT JUMPDEST DUP2 PUSH2 0x1A18 JUMPI PUSH1 0x40 MLOAD PUSH4 0xB562E8DD PUSH1 0xE0 SHL DUP2 MSTORE PUSH1 0x4 ADD PUSH1 0x40 MLOAD DUP1 SWAP2 SUB SWAP1 REVERT JUMPDEST PUSH1 0x1 PUSH1 0x1 PUSH1 0xA0 SHL SUB DUP4 AND PUSH1 0x0 DUP2 DUP2 MSTORE PUSH1 0x6 PUSH1 0x20 SWAP1 DUP2 MSTORE PUSH1 0x40 DUP1 DUP4 KECCAK256 DUP1 SLOAD PUSH1 0x1 PUSH1 0x1 PUSH1 0x80 SHL SUB NOT DUP2 AND PUSH1 0x1 PUSH1 0x1 PUSH1 0x40 SHL SUB DUP1 DUP4 AND DUP11 ADD DUP2 AND SWAP2 DUP3 OR PUSH1 0x1 PUSH1 0x40 SHL PUSH8 0xFFFFFFFFFFFFFFFF NOT SWAP1 SWAP5 AND SWAP1 SWAP3 OR DUP4 SWAP1 DIV DUP2 AND DUP11 ADD DUP2 AND SWAP1 SWAP3 MUL OR SWAP1 SWAP2 SSTORE DUP6 DUP5 MSTORE PUSH1 0x5 SWAP1 SWAP3 MSTORE SWAP1 SWAP2 KECCAK256 DUP1 SLOAD PUSH1 0x1 PUSH1 0x1 PUSH1 0xE0 SHL SUB NOT AND SWAP1 SWAP3 OR PUSH1 0x1 PUSH1 0xA0 SHL TIMESTAMP SWAP1 SWAP3 AND SWAP2 SWAP1 SWAP2 MUL OR SWAP1 SSTORE DUP1 DUP1 DUP4 ADD JUMPDEST PUSH1 0x40 MLOAD PUSH1 0x1 DUP4 ADD SWAP3 SWAP1 PUSH1 0x1 PUSH1 0x1 PUSH1 0xA0 SHL SUB DUP8 AND SWAP1 PUSH1 0x0 SWAP1 PUSH1 0x0 DUP1 MLOAD PUSH1 0x20 PUSH2 0x285B DUP4 CODECOPY DUP2 MLOAD SWAP2 MSTORE SWAP1 DUP3 SWAP1 LOG4 DUP1 DUP3 LT PUSH2 0x1AA6 JUMPI POP PUSH1 0x1 SSTORE POP POP POP JUMP JUMPDEST PUSH1 0x0 PUSH2 0x6DA DUP3 PUSH2 0x42A SLOAD CALLER PUSH2 0x1E95 JUMP JUMPDEST PUSH1 0x40 DUP1 MLOAD PUSH1 0x60 DUP2 ADD DUP3 MSTORE PUSH1 0x0 DUP1 DUP3 MSTORE PUSH1 0x20 DUP3 ADD DUP2 SWAP1 MSTORE SWAP2 DUP2 ADD SWAP2 SWAP1 SWAP2 MSTORE DUP2 PUSH1 0x1 SLOAD DUP2 LT ISZERO PUSH2 0x1BF1 JUMPI PUSH1 0x0 DUP2 DUP2 MSTORE PUSH1 0x5 PUSH1 0x20 SWAP1 DUP2 MSTORE PUSH1 0x40 SWAP2 DUP3 SWAP1 KECCAK256 DUP3 MLOAD PUSH1 0x60 DUP2 ADD DUP5 MSTORE SWAP1 SLOAD PUSH1 0x1 PUSH1 0x1 PUSH1 0xA0 SHL SUB DUP2 AND DUP3 MSTORE PUSH1 0x1 PUSH1 0xA0 SHL DUP2 DIV PUSH1 0x1 PUSH1 0x1 PUSH1 0x40 SHL SUB AND SWAP3 DUP3 ADD SWAP3 SWAP1 SWAP3 MSTORE PUSH1 0x1 PUSH1 0xE0 SHL SWAP1 SWAP2 DIV PUSH1 0xFF AND ISZERO ISZERO SWAP2 DUP2 ADD DUP3 SWAP1 MSTORE SWAP1 PUSH2 0x1BEF JUMPI DUP1 MLOAD PUSH1 0x1 PUSH1 0x1 PUSH1 0xA0 SHL SUB AND ISZERO PUSH2 0x1B86 JUMPI SWAP4 SWAP3 POP POP POP JUMP JUMPDEST POP PUSH1 0x0 NOT ADD PUSH1 0x0 DUP2 DUP2 MSTORE PUSH1 0x5 PUSH1 0x20 SWAP1 DUP2 MSTORE PUSH1 0x40 SWAP2 DUP3 SWAP1 KECCAK256 DUP3 MLOAD PUSH1 0x60 DUP2 ADD DUP5 MSTORE SWAP1 SLOAD PUSH1 0x1 PUSH1 0x1 PUSH1 0xA0 SHL SUB DUP2 AND DUP1 DUP4 MSTORE PUSH1 0x1 PUSH1 0xA0 SHL DUP3 DIV PUSH1 0x1 PUSH1 0x1 PUSH1 0x40 SHL SUB AND SWAP4 DUP4 ADD SWAP4 SWAP1 SWAP4 MSTORE PUSH1 0x1 PUSH1 0xE0 SHL SWAP1 DIV PUSH1 0xFF AND ISZERO ISZERO SWAP3 DUP2 ADD SWAP3 SWAP1 SWAP3 MSTORE ISZERO PUSH2 0x1BEA JUMPI SWAP4 SWAP3 POP POP POP JUMP JUMPDEST PUSH2 0x1B86 JUMP JUMPDEST POP JUMPDEST PUSH1 0x40 MLOAD PUSH4 0x6F96CDA1 PUSH1 0xE1 SHL DUP2 MSTORE PUSH1 0x4 ADD PUSH1 0x40 MLOAD DUP1 SWAP2 SUB SWAP1 REVERT JUMPDEST PUSH1 0x0 DUP1 SLOAD PUSH1 0x1 PUSH1 0x1 PUSH1 0xA0 SHL SUB DUP4 DUP2 AND PUSH1 0x1 PUSH1 0x1 PUSH1 0xA0 SHL SUB NOT DUP4 AND DUP2 OR DUP5 SSTORE PUSH1 0x40 MLOAD SWAP2 SWAP1 SWAP3 AND SWAP3 DUP4 SWAP2 PUSH32 0x8BE0079C531659141344CD1FD0A4F28419497F9722A3DAAFE3B4186F6B6457E0 SWAP2 SWAP1 LOG3 POP POP JUMP JUMPDEST PUSH2 0x9AF DUP3 DUP3 PUSH1 0x40 MLOAD DUP1 PUSH1 0x20 ADD PUSH1 0x40 MSTORE DUP1 PUSH1 0x0 DUP2 MSTORE POP PUSH2 0x1EDA JUMP JUMPDEST PUSH1 0x40 MLOAD PUSH4 0xA85BD01 PUSH1 0xE1 SHL DUP2 MSTORE PUSH1 0x0 SWAP1 PUSH1 0x1 PUSH1 0x1 PUSH1 0xA0 SHL SUB DUP6 AND SWAP1 PUSH4 0x150B7A02 SWAP1 PUSH2 0x1CA9 SWAP1 CALLER SWAP1 DUP10 SWAP1 DUP9 SWAP1 DUP9 SWAP1 PUSH1 0x4 ADD PUSH2 0x25A1 JUMP JUMPDEST PUSH1 0x20 PUSH1 0x40 MLOAD DUP1 DUP4 SUB DUP2 PUSH1 0x0 DUP8 DUP1 EXTCODESIZE ISZERO DUP1 ISZERO PUSH2 0x1CC3 JUMPI PUSH1 0x0 DUP1 REVERT JUMPDEST POP GAS CALL SWAP3 POP POP POP DUP1 ISZERO PUSH2 0x1CF3 JUMPI POP PUSH1 0x40 DUP1 MLOAD PUSH1 0x1F RETURNDATASIZE SWAP1 DUP2 ADD PUSH1 0x1F NOT AND DUP3 ADD SWAP1 SWAP3 MSTORE PUSH2 0x1CF0 SWAP2 DUP2 ADD SWAP1 PUSH2 0x246C JUMP JUMPDEST PUSH1 0x1 JUMPDEST PUSH2 0x1D4E JUMPI RETURNDATASIZE DUP1 DUP1 ISZERO PUSH2 0x1D21 JUMPI PUSH1 0x40 MLOAD SWAP2 POP PUSH1 0x1F NOT PUSH1 0x3F RETURNDATASIZE ADD AND DUP3 ADD PUSH1 0x40 MSTORE RETURNDATASIZE DUP3 MSTORE RETURNDATASIZE PUSH1 0x0 PUSH1 0x20 DUP5 ADD RETURNDATACOPY PUSH2 0x1D26 JUMP JUMPDEST PUSH1 0x60 SWAP2 POP JUMPDEST POP DUP1 MLOAD PUSH2 0x1D46 JUMPI PUSH1 0x40 MLOAD PUSH4 0x68D2BF6B PUSH1 0xE1 SHL DUP2 MSTORE PUSH1 0x4 ADD PUSH1 0x40 MLOAD DUP1 SWAP2 SUB SWAP1 REVERT JUMPDEST DUP1 MLOAD DUP2 PUSH1 0x20 ADD REVERT JUMPDEST PUSH1 0x1 PUSH1 0x1 PUSH1 0xE0 SHL SUB NOT AND PUSH4 0xA85BD01 PUSH1 0xE1 SHL EQ SWAP1 POP JUMPDEST SWAP5 SWAP4 POP POP POP POP JUMP JUMPDEST PUSH1 0x60 PUSH2 0x42B DUP1 SLOAD PUSH2 0x6EF SWAP1 PUSH2 0x2798 JUMP JUMPDEST PUSH1 0x60 DUP2 PUSH2 0x1DA0 JUMPI POP POP PUSH1 0x40 DUP1 MLOAD DUP1 DUP3 ADD SWAP1 SWAP2 MSTORE PUSH1 0x1 DUP2 MSTORE PUSH1 0x3 PUSH1 0xFC SHL PUSH1 0x20 DUP3 ADD MSTORE SWAP1 JUMP JUMPDEST DUP2 PUSH1 0x0 JUMPDEST DUP2 ISZERO PUSH2 0x1DCA JUMPI DUP1 PUSH2 0x1DB4 DUP2 PUSH2 0x27D3 JUMP JUMPDEST SWAP2 POP PUSH2 0x1DC3 SWAP1 POP PUSH1 0xA DUP4 PUSH2 0x2722 JUMP JUMPDEST SWAP2 POP PUSH2 0x1DA4 JUMP JUMPDEST PUSH1 0x0 DUP2 PUSH1 0x1 PUSH1 0x1 PUSH1 0x40 SHL SUB DUP2 GT ISZERO PUSH2 0x1DF2 JUMPI PUSH4 0x4E487B71 PUSH1 0xE0 SHL PUSH1 0x0 MSTORE PUSH1 0x41 PUSH1 0x4 MSTORE PUSH1 0x24 PUSH1 0x0 REVERT JUMPDEST PUSH1 0x40 MLOAD SWAP1 DUP1 DUP3 MSTORE DUP1 PUSH1 0x1F ADD PUSH1 0x1F NOT AND PUSH1 0x20 ADD DUP3 ADD PUSH1 0x40 MSTORE DUP1 ISZERO PUSH2 0x1E1C JUMPI PUSH1 0x20 DUP3 ADD DUP2 DUP1 CALLDATASIZE DUP4 CALLDATACOPY ADD SWAP1 POP JUMPDEST POP SWAP1 POP JUMPDEST DUP5 ISZERO PUSH2 0x1D64 JUMPI PUSH2 0x1E31 PUSH1 0x1 DUP4 PUSH2 0x2755 JUMP JUMPDEST SWAP2 POP PUSH2 0x1E3E PUSH1 0xA DUP7 PUSH2 0x27EE JUMP JUMPDEST PUSH2 0x1E49 SWAP1 PUSH1 0x30 PUSH2 0x270A JUMP JUMPDEST PUSH1 0xF8 SHL DUP2 DUP4 DUP2 MLOAD DUP2 LT PUSH2 0x1E6C JUMPI PUSH4 0x4E487B71 PUSH1 0xE0 SHL PUSH1 0x0 MSTORE PUSH1 0x32 PUSH1 0x4 MSTORE PUSH1 0x24 PUSH1 0x0 REVERT JUMPDEST PUSH1 0x20 ADD ADD SWAP1 PUSH1 0x1 PUSH1 0x1 PUSH1 0xF8 SHL SUB NOT AND SWAP1 DUP2 PUSH1 0x0 BYTE SWAP1 MSTORE8 POP PUSH2 0x1E8E PUSH1 0xA DUP7 PUSH2 0x2722 JUMP JUMPDEST SWAP5 POP PUSH2 0x1E20 JUMP JUMPDEST PUSH1 0x40 MLOAD PUSH12 0xFFFFFFFFFFFFFFFFFFFFFFFF NOT PUSH1 0x60 DUP4 SWAP1 SHL AND PUSH1 0x20 DUP3 ADD MSTORE PUSH1 0x0 SWAP1 PUSH2 0x1D64 SWAP1 DUP6 SWAP1 DUP6 SWAP1 PUSH1 0x34 ADD PUSH1 0x40 MLOAD PUSH1 0x20 DUP2 DUP4 SUB SUB DUP2 MSTORE SWAP1 PUSH1 0x40 MSTORE DUP1 MLOAD SWAP1 PUSH1 0x20 ADD KECCAK256 PUSH2 0x206B JUMP JUMPDEST PUSH1 0x1 SLOAD PUSH1 0x1 PUSH1 0x1 PUSH1 0xA0 SHL SUB DUP5 AND PUSH2 0x1F03 JUMPI PUSH1 0x40 MLOAD PUSH3 0x2E0763 PUSH1 0xE8 SHL DUP2 MSTORE PUSH1 0x4 ADD PUSH1 0x40 MLOAD DUP1 SWAP2 SUB SWAP1 REVERT JUMPDEST DUP3 PUSH2 0x1F21 JUMPI PUSH1 0x40 MLOAD PUSH4 0xB562E8DD PUSH1 0xE0 SHL DUP2 MSTORE PUSH1 0x4 ADD PUSH1 0x40 MLOAD DUP1 SWAP2 SUB SWAP1 REVERT JUMPDEST PUSH1 0x1 PUSH1 0x1 PUSH1 0xA0 SHL SUB DUP5 AND PUSH1 0x0 DUP2 DUP2 MSTORE PUSH1 0x6 PUSH1 0x20 SWAP1 DUP2 MSTORE PUSH1 0x40 DUP1 DUP4 KECCAK256 DUP1 SLOAD PUSH1 0x1 PUSH1 0x1 PUSH1 0x80 SHL SUB NOT DUP2 AND PUSH1 0x1 PUSH1 0x1 PUSH1 0x40 SHL SUB DUP1 DUP4 AND DUP12 ADD DUP2 AND SWAP2 DUP3 OR PUSH1 0x1 PUSH1 0x40 SHL PUSH8 0xFFFFFFFFFFFFFFFF NOT SWAP1 SWAP5 AND SWAP1 SWAP3 OR DUP4 SWAP1 DIV DUP2 AND DUP12 ADD DUP2 AND SWAP1 SWAP3 MUL OR SWAP1 SWAP2 SSTORE DUP6 DUP5 MSTORE PUSH1 0x5 SWAP1 SWAP3 MSTORE SWAP1 SWAP2 KECCAK256 DUP1 SLOAD PUSH1 0x1 PUSH1 0x1 PUSH1 0xE0 SHL SUB NOT AND DUP4 OR PUSH1 0x1 PUSH1 0xA0 SHL TIMESTAMP SWAP1 SWAP4 AND SWAP3 SWAP1 SWAP3 MUL SWAP2 SWAP1 SWAP2 OR SWAP1 SSTORE DUP2 SWAP1 DUP2 DUP6 ADD SWAP1 EXTCODESIZE ISZERO PUSH2 0x2029 JUMPI JUMPDEST PUSH1 0x40 MLOAD DUP3 SWAP1 PUSH1 0x1 PUSH1 0x1 PUSH1 0xA0 SHL SUB DUP9 AND SWAP1 PUSH1 0x0 SWAP1 PUSH1 0x0 DUP1 MLOAD PUSH1 0x20 PUSH2 0x285B DUP4 CODECOPY DUP2 MLOAD SWAP2 MSTORE SWAP1 DUP3 SWAP1 LOG4 PUSH2 0x1FF2 PUSH1 0x0 DUP8 DUP5 DUP1 PUSH1 0x1 ADD SWAP6 POP DUP8 PUSH2 0x1C74 JUMP JUMPDEST PUSH2 0x200F JUMPI PUSH1 0x40 MLOAD PUSH4 0x68D2BF6B PUSH1 0xE1 SHL DUP2 MSTORE PUSH1 0x4 ADD PUSH1 0x40 MLOAD DUP1 SWAP2 SUB SWAP1 REVERT JUMPDEST DUP1 DUP3 LT PUSH2 0x1FB9 JUMPI DUP3 PUSH1 0x1 SLOAD EQ PUSH2 0x2024 JUMPI PUSH1 0x0 DUP1 REVERT JUMPDEST PUSH2 0x205C JUMP JUMPDEST JUMPDEST PUSH1 0x40 MLOAD PUSH1 0x1 DUP4 ADD SWAP3 SWAP1 PUSH1 0x1 PUSH1 0x1 PUSH1 0xA0 SHL SUB DUP9 AND SWAP1 PUSH1 0x0 SWAP1 PUSH1 0x0 DUP1 MLOAD PUSH1 0x20 PUSH2 0x285B DUP4 CODECOPY DUP2 MLOAD SWAP2 MSTORE SWAP1 DUP3 SWAP1 LOG4 DUP1 DUP3 LT PUSH2 0x202A JUMPI JUMPDEST POP PUSH1 0x1 SSTORE PUSH2 0x13BF PUSH1 0x0 DUP6 DUP4 DUP7 DUP5 JUMP JUMPDEST PUSH1 0x0 DUP2 DUP2 JUMPDEST DUP6 MLOAD DUP2 LT ISZERO PUSH2 0x211D JUMPI PUSH1 0x0 DUP7 DUP3 DUP2 MLOAD DUP2 LT PUSH2 0x209B JUMPI PUSH4 0x4E487B71 PUSH1 0xE0 SHL PUSH1 0x0 MSTORE PUSH1 0x32 PUSH1 0x4 MSTORE PUSH1 0x24 PUSH1 0x0 REVERT JUMPDEST PUSH1 0x20 MUL PUSH1 0x20 ADD ADD MLOAD SWAP1 POP DUP1 DUP4 GT PUSH2 0x20DD JUMPI PUSH1 0x40 DUP1 MLOAD PUSH1 0x20 DUP2 ADD DUP6 SWAP1 MSTORE SWAP1 DUP2 ADD DUP3 SWAP1 MSTORE PUSH1 0x60 ADD PUSH1 0x40 MLOAD PUSH1 0x20 DUP2 DUP4 SUB SUB DUP2 MSTORE SWAP1 PUSH1 0x40 MSTORE DUP1 MLOAD SWAP1 PUSH1 0x20 ADD KECCAK256 SWAP3 POP PUSH2 0x210A JUMP JUMPDEST PUSH1 0x40 DUP1 MLOAD PUSH1 0x20 DUP2 ADD DUP4 SWAP1 MSTORE SWAP1 DUP2 ADD DUP5 SWAP1 MSTORE PUSH1 0x60 ADD PUSH1 0x40 MLOAD PUSH1 0x20 DUP2 DUP4 SUB SUB DUP2 MSTORE SWAP1 PUSH1 0x40 MSTORE DUP1 MLOAD SWAP1 PUSH1 0x20 ADD KECCAK256 SWAP3 POP JUMPDEST POP DUP1 PUSH2 0x2115 DUP2 PUSH2 0x27D3 JUMP JUMPDEST SWAP2 POP POP PUSH2 0x2070 JUMP JUMPDEST POP SWAP1 SWAP3 EQ SWAP4 SWAP3 POP POP POP JUMP JUMPDEST DUP3 DUP1 SLOAD PUSH2 0x2134 SWAP1 PUSH2 0x2798 JUMP JUMPDEST SWAP1 PUSH1 0x0 MSTORE PUSH1 0x20 PUSH1 0x0 KECCAK256 SWAP1 PUSH1 0x1F ADD PUSH1 0x20 SWAP1 DIV DUP2 ADD SWAP3 DUP3 PUSH2 0x2156 JUMPI PUSH1 0x0 DUP6 SSTORE PUSH2 0x219C JUMP JUMPDEST DUP3 PUSH1 0x1F LT PUSH2 0x216F JUMPI DUP1 MLOAD PUSH1 0xFF NOT AND DUP4 DUP1 ADD OR DUP6 SSTORE PUSH2 0x219C JUMP JUMPDEST DUP3 DUP1 ADD PUSH1 0x1 ADD DUP6 SSTORE DUP3 ISZERO PUSH2 0x219C JUMPI SWAP2 DUP3 ADD JUMPDEST DUP3 DUP2 GT ISZERO PUSH2 0x219C JUMPI DUP3 MLOAD DUP3 SSTORE SWAP2 PUSH1 0x20 ADD SWAP2 SWAP1 PUSH1 0x1 ADD SWAP1 PUSH2 0x2181 JUMP JUMPDEST POP PUSH2 0x21A8 SWAP3 SWAP2 POP PUSH2 0x21AC JUMP JUMPDEST POP SWAP1 JUMP JUMPDEST JUMPDEST DUP1 DUP3 GT ISZERO PUSH2 0x21A8 JUMPI PUSH1 0x0 DUP2 SSTORE PUSH1 0x1 ADD PUSH2 0x21AD JUMP JUMPDEST PUSH1 0x0 PUSH1 0x1 PUSH1 0x1 PUSH1 0x40 SHL SUB DUP4 GT ISZERO PUSH2 0x21DA JUMPI PUSH2 0x21DA PUSH2 0x282E JUMP JUMPDEST PUSH2 0x21ED PUSH1 0x1F DUP5 ADD PUSH1 0x1F NOT AND PUSH1 0x20 ADD PUSH2 0x26DA JUMP JUMPDEST SWAP1 POP DUP3 DUP2 MSTORE DUP4 DUP4 DUP4 ADD GT ISZERO PUSH2 0x2201 JUMPI PUSH1 0x0 DUP1 REVERT JUMPDEST DUP3 DUP3 PUSH1 0x20 DUP4 ADD CALLDATACOPY PUSH1 0x0 PUSH1 0x20 DUP5 DUP4 ADD ADD MSTORE SWAP4 SWAP3 POP POP POP JUMP JUMPDEST DUP1 CALLDATALOAD PUSH1 0x1 PUSH1 0x1 PUSH1 0xA0 SHL SUB DUP2 AND DUP2 EQ PUSH2 0xC17 JUMPI PUSH1 0x0 DUP1 REVERT JUMPDEST PUSH1 0x0 PUSH1 0x20 DUP3 DUP5 SUB SLT ISZERO PUSH2 0x2240 JUMPI DUP1 DUP2 REVERT JUMPDEST PUSH2 0x1443 DUP3 PUSH2 0x2218 JUMP JUMPDEST PUSH1 0x0 DUP1 PUSH1 0x40 DUP4 DUP6 SUB SLT ISZERO PUSH2 0x225B JUMPI DUP1 DUP2 REVERT JUMPDEST PUSH2 0x2264 DUP4 PUSH2 0x2218 JUMP JUMPDEST SWAP2 POP PUSH2 0x2272 PUSH1 0x20 DUP5 ADD PUSH2 0x2218 JUMP JUMPDEST SWAP1 POP SWAP3 POP SWAP3 SWAP1 POP JUMP JUMPDEST PUSH1 0x0 DUP1 PUSH1 0x0 PUSH1 0x60 DUP5 DUP7 SUB SLT ISZERO PUSH2 0x228F JUMPI DUP1 DUP2 REVERT JUMPDEST PUSH2 0x2298 DUP5 PUSH2 0x2218 JUMP JUMPDEST SWAP3 POP PUSH2 0x22A6 PUSH1 0x20 DUP6 ADD PUSH2 0x2218 JUMP JUMPDEST SWAP2 POP PUSH1 0x40 DUP5 ADD CALLDATALOAD SWAP1 POP SWAP3 POP SWAP3 POP SWAP3 JUMP JUMPDEST PUSH1 0x0 DUP1 PUSH1 0x0 DUP1 PUSH1 0x80 DUP6 DUP8 SUB SLT ISZERO PUSH2 0x22CB JUMPI DUP1 DUP2 REVERT JUMPDEST PUSH2 0x22D4 DUP6 PUSH2 0x2218 JUMP JUMPDEST SWAP4 POP PUSH2 0x22E2 PUSH1 0x20 DUP7 ADD PUSH2 0x2218 JUMP JUMPDEST SWAP3 POP PUSH1 0x40 DUP6 ADD CALLDATALOAD SWAP2 POP PUSH1 0x60 DUP6 ADD CALLDATALOAD PUSH1 0x1 PUSH1 0x1 PUSH1 0x40 SHL SUB DUP2 GT ISZERO PUSH2 0x2303 JUMPI DUP2 DUP3 REVERT JUMPDEST DUP6 ADD PUSH1 0x1F DUP2 ADD DUP8 SGT PUSH2 0x2313 JUMPI DUP2 DUP3 REVERT JUMPDEST PUSH2 0x2322 DUP8 DUP3 CALLDATALOAD PUSH1 0x20 DUP5 ADD PUSH2 0x21C1 JUMP JUMPDEST SWAP2 POP POP SWAP3 SWAP6 SWAP2 SWAP5 POP SWAP3 POP JUMP JUMPDEST PUSH1 0x0 DUP1 PUSH1 0x40 DUP4 DUP6 SUB SLT ISZERO PUSH2 0x2340 JUMPI DUP2 DUP3 REVERT JUMPDEST PUSH2 0x2349 DUP4 PUSH2 0x2218 JUMP JUMPDEST SWAP2 POP PUSH1 0x20 DUP4 ADD CALLDATALOAD DUP1 ISZERO ISZERO DUP2 EQ PUSH2 0x235D JUMPI DUP2 DUP3 REVERT JUMPDEST DUP1 SWAP2 POP POP SWAP3 POP SWAP3 SWAP1 POP JUMP JUMPDEST PUSH1 0x0 DUP1 PUSH1 0x40 DUP4 DUP6 SUB SLT ISZERO PUSH2 0x237A JUMPI DUP2 DUP3 REVERT JUMPDEST PUSH2 0x2383 DUP4 PUSH2 0x2218 JUMP JUMPDEST SWAP5 PUSH1 0x20 SWAP4 SWAP1 SWAP4 ADD CALLDATALOAD SWAP4 POP POP POP JUMP JUMPDEST PUSH1 0x0 PUSH1 0x20 DUP1 DUP4 DUP6 SUB SLT ISZERO PUSH2 0x23A3 JUMPI DUP2 DUP3 REVERT JUMPDEST DUP3 CALLDATALOAD PUSH1 0x1 PUSH1 0x1 PUSH1 0x40 SHL SUB DUP1 DUP3 GT ISZERO PUSH2 0x23B9 JUMPI DUP4 DUP5 REVERT JUMPDEST DUP2 DUP6 ADD SWAP2 POP DUP6 PUSH1 0x1F DUP4 ADD SLT PUSH2 0x23CC JUMPI DUP4 DUP5 REVERT JUMPDEST DUP2 CALLDATALOAD DUP2 DUP2 GT ISZERO PUSH2 0x23DE JUMPI PUSH2 0x23DE PUSH2 0x282E JUMP JUMPDEST DUP1 PUSH1 0x5 SHL SWAP2 POP PUSH2 0x23EF DUP5 DUP4 ADD PUSH2 0x26DA JUMP JUMPDEST DUP2 DUP2 MSTORE DUP5 DUP2 ADD SWAP1 DUP5 DUP7 ADD DUP5 DUP7 ADD DUP8 ADD DUP11 LT ISZERO PUSH2 0x2409 JUMPI DUP8 DUP9 REVERT JUMPDEST DUP8 SWAP6 POP JUMPDEST DUP4 DUP7 LT ISZERO PUSH2 0x242B JUMPI DUP1 CALLDATALOAD DUP4 MSTORE PUSH1 0x1 SWAP6 SWAP1 SWAP6 ADD SWAP5 SWAP2 DUP7 ADD SWAP2 DUP7 ADD PUSH2 0x240D JUMP JUMPDEST POP SWAP9 SWAP8 POP POP POP POP POP POP POP POP JUMP JUMPDEST PUSH1 0x0 PUSH1 0x20 DUP3 DUP5 SUB SLT ISZERO PUSH2 0x2449 JUMPI DUP1 DUP2 REVERT JUMPDEST POP CALLDATALOAD SWAP2 SWAP1 POP JUMP JUMPDEST PUSH1 0x0 PUSH1 0x20 DUP3 DUP5 SUB SLT ISZERO PUSH2 0x2461 JUMPI DUP1 DUP2 REVERT JUMPDEST DUP2 CALLDATALOAD PUSH2 0x1443 DUP2 PUSH2 0x2844 JUMP JUMPDEST PUSH1 0x0 PUSH1 0x20 DUP3 DUP5 SUB SLT ISZERO PUSH2 0x247D JUMPI DUP1 DUP2 REVERT JUMPDEST DUP2 MLOAD PUSH2 0x1443 DUP2 PUSH2 0x2844 JUMP JUMPDEST PUSH1 0x0 PUSH1 0x20 DUP3 DUP5 SUB SLT ISZERO PUSH2 0x2499 JUMPI DUP1 DUP2 REVERT JUMPDEST DUP2 CALLDATALOAD PUSH1 0x1 PUSH1 0x1 PUSH1 0x40 SHL SUB DUP2 GT ISZERO PUSH2 0x24AE JUMPI DUP2 DUP3 REVERT JUMPDEST DUP3 ADD PUSH1 0x1F DUP2 ADD DUP5 SGT PUSH2 0x24BE JUMPI DUP2 DUP3 REVERT JUMPDEST PUSH2 0x1D64 DUP5 DUP3 CALLDATALOAD PUSH1 0x20 DUP5 ADD PUSH2 0x21C1 JUMP JUMPDEST PUSH1 0x0 DUP1 PUSH1 0x0 PUSH1 0x40 DUP5 DUP7 SUB SLT ISZERO PUSH2 0x24E1 JUMPI DUP1 DUP2 REVERT JUMPDEST DUP4 CALLDATALOAD SWAP3 POP PUSH1 0x20 DUP5 ADD CALLDATALOAD PUSH1 0x1 PUSH1 0x1 PUSH1 0x40 SHL SUB DUP1 DUP3 GT ISZERO PUSH2 0x24FE JUMPI DUP3 DUP4 REVERT JUMPDEST DUP2 DUP7 ADD SWAP2 POP DUP7 PUSH1 0x1F DUP4 ADD SLT PUSH2 0x2511 JUMPI DUP3 DUP4 REVERT JUMPDEST DUP2 CALLDATALOAD DUP2 DUP2 GT ISZERO PUSH2 0x251F JUMPI DUP4 DUP5 REVERT JUMPDEST DUP8 PUSH1 0x20 DUP3 PUSH1 0x5 SHL DUP6 ADD ADD GT ISZERO PUSH2 0x2533 JUMPI DUP4 DUP5 REVERT JUMPDEST PUSH1 0x20 DUP4 ADD SWAP5 POP DUP1 SWAP4 POP POP POP POP SWAP3 POP SWAP3 POP SWAP3 JUMP JUMPDEST PUSH1 0x0 DUP2 MLOAD DUP1 DUP5 MSTORE PUSH2 0x255E DUP2 PUSH1 0x20 DUP7 ADD PUSH1 0x20 DUP7 ADD PUSH2 0x276C JUMP JUMPDEST PUSH1 0x1F ADD PUSH1 0x1F NOT AND SWAP3 SWAP1 SWAP3 ADD PUSH1 0x20 ADD SWAP3 SWAP2 POP POP JUMP JUMPDEST PUSH1 0x0 DUP4 MLOAD PUSH2 0x2584 DUP2 DUP5 PUSH1 0x20 DUP9 ADD PUSH2 0x276C JUMP JUMPDEST DUP4 MLOAD SWAP1 DUP4 ADD SWAP1 PUSH2 0x2598 DUP2 DUP4 PUSH1 0x20 DUP9 ADD PUSH2 0x276C JUMP JUMPDEST ADD SWAP5 SWAP4 POP POP POP POP JUMP JUMPDEST PUSH1 0x1 PUSH1 0x1 PUSH1 0xA0 SHL SUB DUP6 DUP2 AND DUP3 MSTORE DUP5 AND PUSH1 0x20 DUP3 ADD MSTORE PUSH1 0x40 DUP2 ADD DUP4 SWAP1 MSTORE PUSH1 0x80 PUSH1 0x60 DUP3 ADD DUP2 SWAP1 MSTORE PUSH1 0x0 SWAP1 PUSH2 0x25D4 SWAP1 DUP4 ADD DUP5 PUSH2 0x2546 JUMP JUMPDEST SWAP7 SWAP6 POP POP POP POP POP POP JUMP JUMPDEST PUSH1 0x20 DUP2 MSTORE PUSH1 0x0 PUSH2 0x1443 PUSH1 0x20 DUP4 ADD DUP5 PUSH2 0x2546 JUMP JUMPDEST PUSH1 0x20 DUP1 DUP3 MSTORE PUSH1 0x24 SWAP1 DUP3 ADD MSTORE PUSH32 0x4D696E74207265717565737420657863656564732063757272656E7420737570 PUSH1 0x40 DUP3 ADD MSTORE PUSH4 0x706C7921 PUSH1 0xE0 SHL PUSH1 0x60 DUP3 ADD MSTORE PUSH1 0x80 ADD SWAP1 JUMP JUMPDEST PUSH1 0x20 DUP1 DUP3 MSTORE PUSH1 0x22 SWAP1 DUP3 ADD MSTORE PUSH32 0x4D696E742072657175657374206578636565647320746F74616C20737570706C PUSH1 0x40 DUP3 ADD MSTORE PUSH2 0x7921 PUSH1 0xF0 SHL PUSH1 0x60 DUP3 ADD MSTORE PUSH1 0x80 ADD SWAP1 JUMP JUMPDEST PUSH1 0x20 DUP1 DUP3 MSTORE PUSH1 0x14 SWAP1 DUP3 ADD MSTORE PUSH20 0x10D85B1B195C881A5CC8184818DBDB9D1C9858DD PUSH1 0x62 SHL PUSH1 0x40 DUP3 ADD MSTORE PUSH1 0x60 ADD SWAP1 JUMP JUMPDEST PUSH1 0x20 DUP1 DUP3 MSTORE DUP2 DUP2 ADD MSTORE PUSH32 0x4F776E61626C653A2063616C6C6572206973206E6F7420746865206F776E6572 PUSH1 0x40 DUP3 ADD MSTORE PUSH1 0x60 ADD SWAP1 JUMP JUMPDEST PUSH1 0x40 MLOAD PUSH1 0x1F DUP3 ADD PUSH1 0x1F NOT AND DUP2 ADD PUSH1 0x1 PUSH1 0x1 PUSH1 0x40 SHL SUB DUP2 GT DUP3 DUP3 LT OR ISZERO PUSH2 0x2702 JUMPI PUSH2 0x2702 PUSH2 0x282E JUMP JUMPDEST PUSH1 0x40 MSTORE SWAP2 SWAP1 POP JUMP JUMPDEST PUSH1 0x0 DUP3 NOT DUP3 GT ISZERO PUSH2 0x271D JUMPI PUSH2 0x271D PUSH2 0x2802 JUMP JUMPDEST POP ADD SWAP1 JUMP JUMPDEST PUSH1 0x0 DUP3 PUSH2 0x2731 JUMPI PUSH2 0x2731 PUSH2 0x2818 JUMP JUMPDEST POP DIV SWAP1 JUMP JUMPDEST PUSH1 0x0 DUP2 PUSH1 0x0 NOT DIV DUP4 GT DUP3 ISZERO ISZERO AND ISZERO PUSH2 0x2750 JUMPI PUSH2 0x2750 PUSH2 0x2802 JUMP JUMPDEST POP MUL SWAP1 JUMP JUMPDEST PUSH1 0x0 DUP3 DUP3 LT ISZERO PUSH2 0x2767 JUMPI PUSH2 0x2767 PUSH2 0x2802 JUMP JUMPDEST POP SUB SWAP1 JUMP JUMPDEST PUSH1 0x0 JUMPDEST DUP4 DUP2 LT ISZERO PUSH2 0x2787 JUMPI DUP2 DUP2 ADD MLOAD DUP4 DUP3 ADD MSTORE PUSH1 0x20 ADD PUSH2 0x276F JUMP JUMPDEST DUP4 DUP2 GT ISZERO PUSH2 0x13BF JUMPI POP POP PUSH1 0x0 SWAP2 ADD MSTORE JUMP JUMPDEST PUSH1 0x1 DUP2 DUP2 SHR SWAP1 DUP3 AND DUP1 PUSH2 0x27AC JUMPI PUSH1 0x7F DUP3 AND SWAP2 POP JUMPDEST PUSH1 0x20 DUP3 LT DUP2 EQ ISZERO PUSH2 0x27CD JUMPI PUSH4 0x4E487B71 PUSH1 0xE0 SHL PUSH1 0x0 MSTORE PUSH1 0x22 PUSH1 0x4 MSTORE PUSH1 0x24 PUSH1 0x0 REVERT JUMPDEST POP SWAP2 SWAP1 POP JUMP JUMPDEST PUSH1 0x0 PUSH1 0x0 NOT DUP3 EQ ISZERO PUSH2 0x27E7 JUMPI PUSH2 0x27E7 PUSH2 0x2802 JUMP JUMPDEST POP PUSH1 0x1 ADD SWAP1 JUMP JUMPDEST PUSH1 0x0 DUP3 PUSH2 0x27FD JUMPI PUSH2 0x27FD PUSH2 0x2818 JUMP JUMPDEST POP MOD SWAP1 JUMP JUMPDEST PUSH4 0x4E487B71 PUSH1 0xE0 SHL PUSH1 0x0 MSTORE PUSH1 0x11 PUSH1 0x4 MSTORE PUSH1 0x24 PUSH1 0x0 REVERT JUMPDEST PUSH4 0x4E487B71 PUSH1 0xE0 SHL PUSH1 0x0 MSTORE PUSH1 0x12 PUSH1 0x4 MSTORE PUSH1 0x24 PUSH1 0x0 REVERT JUMPDEST PUSH4 0x4E487B71 PUSH1 0xE0 SHL PUSH1 0x0 MSTORE PUSH1 0x41 PUSH1 0x4 MSTORE PUSH1 0x24 PUSH1 0x0 REVERT JUMPDEST PUSH1 0x1 PUSH1 0x1 PUSH1 0xE0 SHL SUB NOT DUP2 AND DUP2 EQ PUSH2 0x14E2 JUMPI PUSH1 0x0 DUP1 REVERT INVALID 0xDD CALLCODE MSTORE 0xAD SHL 0xE2 0xC8 SWAP12 PUSH10 0xC2B068FC378DAA952BA7 CALL PUSH4 0xC4A11628 CREATE2 GAS 0x4D CREATE2 0x23 0xB3 0xEF LOG2 PUSH5 0x6970667358 0x22 SLT KECCAK256 CALLDATACOPY MUL 0x49 PUSH29 0xCAF9CD6A9066DAC82267E2A1DCE45A571C6EAAD25D516757DDA0346764 PUSH20 0x6F6C634300080400330000000000000000000000 "
        },
        "gasEstimates": {
          "creation": {
            "codeDepositCost": "2083200",
            "executionCost": "infinite",
            "totalCost": "infinite"
          },
          "external": {
            "allowlistMint(uint256,bytes32[])": "infinite",
            "allowlistMintedCounts(address)": "1287",
            "approve(address,uint256)": "infinite",
            "availableAllowlistMint(bytes32[])": "infinite",
            "balanceOf(address)": "1375",
            "getApproved(uint256)": "3059",
            "getMaxSupply()": "237",
            "getMintPrice()": "1037",
            "getQuantityMinted()": "1126",
            "give32TokensToDevs()": "infinite",
            "hasMetadataFroze()": "1060",
            "hasPublicSaleStarted()": "1136",
            "hasSaleStarted()": "1105",
            "isApprovedForAll(address,address)": "infinite",
            "lockMetadata()": "23557",
            "mint(uint256)": "infinite",
            "name()": "infinite",
            "owner()": "1076",
            "ownerOf(uint256)": "infinite",
            "publicMintedCounts(address)": "1265",
            "renounceOwnership()": "23504",
            "safeTransferFrom(address,address,uint256)": "infinite",
            "safeTransferFrom(address,address,uint256,bytes)": "infinite",
            "setAllowlistMerkleRoot(bytes32)": "21174",
            "setAllowlistMintOpen(uint256)": "43557",
            "setApprovalForAll(address,bool)": "23361",
            "setBaseURI(string)": "infinite",
            "setMintPrice(uint256)": "21987",
            "setPublicMintOpen(uint256)": "44370",
            "supportsInterface(bytes4)": "557",
            "symbol()": "infinite",
            "tokenURI(uint256)": "infinite",
            "totalSupply()": "1888",
            "transferFrom(address,address,uint256)": "infinite",
            "transferOwnership(address)": "23675",
            "withdrawFunds()": "infinite"
          },
          "internal": {
            "_baseURI()": "infinite",
            "_inAllowlist(bytes32[] memory)": "infinite",
            "_verify(bytes32[] memory,bytes32,address)": "infinite",
            "randomIndex()": "infinite"
          }
        },
        "methodIdentifiers": {
          "allowlistMint(uint256,bytes32[])": "7bc9200e",
          "allowlistMintedCounts(address)": "0ffb0288",
          "approve(address,uint256)": "095ea7b3",
          "availableAllowlistMint(bytes32[])": "53a54182",
          "balanceOf(address)": "70a08231",
          "getApproved(uint256)": "081812fc",
          "getMaxSupply()": "4c0f38c2",
          "getMintPrice()": "a7f93ebd",
          "getQuantityMinted()": "216a08d4",
          "give32TokensToDevs()": "26c3f3da",
          "hasMetadataFroze()": "b61c1a6f",
          "hasPublicSaleStarted()": "fdd4b0f0",
          "hasSaleStarted()": "1c8b232d",
          "isApprovedForAll(address,address)": "e985e9c5",
          "lockMetadata()": "989bdbb6",
          "mint(uint256)": "a0712d68",
          "name()": "06fdde03",
          "owner()": "8da5cb5b",
          "ownerOf(uint256)": "6352211e",
          "publicMintedCounts(address)": "6701cff7",
          "renounceOwnership()": "715018a6",
          "safeTransferFrom(address,address,uint256)": "42842e0e",
          "safeTransferFrom(address,address,uint256,bytes)": "b88d4fde",
          "setAllowlistMerkleRoot(bytes32)": "f95df414",
          "setAllowlistMintOpen(uint256)": "539715d8",
          "setApprovalForAll(address,bool)": "a22cb465",
          "setBaseURI(string)": "55f804b3",
          "setMintPrice(uint256)": "f4a0a528",
          "setPublicMintOpen(uint256)": "0a3ed96e",
          "supportsInterface(bytes4)": "01ffc9a7",
          "symbol()": "95d89b41",
          "tokenURI(uint256)": "c87b56dd",
          "totalSupply()": "18160ddd",
          "transferFrom(address,address,uint256)": "23b872dd",
          "transferOwnership(address)": "f2fde38b",
          "withdrawFunds()": "24600fc3"
        }
      },
      "storageLayout": {
        "storage": [
          {
            "astId": 111,
            "contract": "contracts/Vibers.sol:Vibers",
            "label": "_owner",
            "offset": 0,
            "slot": "0",
            "type": "t_address"
          },
          {
            "astId": 1925,
            "contract": "contracts/Vibers.sol:Vibers",
            "label": "_currentIndex",
            "offset": 0,
            "slot": "1",
            "type": "t_uint256"
          },
          {
            "astId": 1927,
            "contract": "contracts/Vibers.sol:Vibers",
            "label": "_burnCounter",
            "offset": 0,
            "slot": "2",
            "type": "t_uint256"
          },
          {
            "astId": 1929,
            "contract": "contracts/Vibers.sol:Vibers",
            "label": "_name",
            "offset": 0,
            "slot": "3",
            "type": "t_string_storage"
          },
          {
            "astId": 1931,
            "contract": "contracts/Vibers.sol:Vibers",
            "label": "_symbol",
            "offset": 0,
            "slot": "4",
            "type": "t_string_storage"
          },
          {
            "astId": 1936,
            "contract": "contracts/Vibers.sol:Vibers",
            "label": "_ownerships",
            "offset": 0,
            "slot": "5",
            "type": "t_mapping(t_uint256,t_struct(TokenOwnership)3331_storage)"
          },
          {
            "astId": 1941,
            "contract": "contracts/Vibers.sol:Vibers",
            "label": "_addressData",
            "offset": 0,
            "slot": "6",
            "type": "t_mapping(t_address,t_struct(AddressData)3340_storage)"
          },
          {
            "astId": 1945,
            "contract": "contracts/Vibers.sol:Vibers",
            "label": "_tokenApprovals",
            "offset": 0,
            "slot": "7",
            "type": "t_mapping(t_uint256,t_address)"
          },
          {
            "astId": 1951,
            "contract": "contracts/Vibers.sol:Vibers",
            "label": "_operatorApprovals",
            "offset": 0,
            "slot": "8",
            "type": "t_mapping(t_address,t_mapping(t_address,t_bool))"
          },
          {
            "astId": 5,
            "contract": "contracts/Vibers.sol:Vibers",
            "label": "_initialized",
            "offset": 0,
            "slot": "9",
            "type": "t_bool"
          },
          {
            "astId": 8,
            "contract": "contracts/Vibers.sol:Vibers",
            "label": "_initializing",
            "offset": 1,
            "slot": "9",
            "type": "t_bool"
          },
          {
            "astId": 59,
            "contract": "contracts/Vibers.sol:Vibers",
            "label": "_status",
            "offset": 0,
            "slot": "10",
            "type": "t_uint256"
          },
          {
            "astId": 102,
            "contract": "contracts/Vibers.sol:Vibers",
            "label": "__gap",
            "offset": 0,
            "slot": "11",
            "type": "t_array(t_uint256)49_storage"
          },
          {
            "astId": 1093,
            "contract": "contracts/Vibers.sol:Vibers",
            "label": "PRICE",
            "offset": 0,
            "slot": "60",
            "type": "t_uint256"
          },
          {
            "astId": 1106,
            "contract": "contracts/Vibers.sol:Vibers",
            "label": "indices",
            "offset": 0,
            "slot": "61",
            "type": "t_array(t_uint256)1000_storage"
          },
          {
            "astId": 1109,
            "contract": "contracts/Vibers.sol:Vibers",
            "label": "nonce",
            "offset": 0,
            "slot": "1061",
            "type": "t_uint256"
          },
          {
            "astId": 1112,
            "contract": "contracts/Vibers.sol:Vibers",
            "label": "numTokens",
            "offset": 0,
            "slot": "1062",
            "type": "t_uint256"
          },
          {
            "astId": 1115,
            "contract": "contracts/Vibers.sol:Vibers",
            "label": "allowlistMintOpen",
            "offset": 0,
            "slot": "1063",
            "type": "t_bool"
          },
          {
            "astId": 1118,
            "contract": "contracts/Vibers.sol:Vibers",
            "label": "publicMintOpen",
            "offset": 1,
            "slot": "1063",
            "type": "t_bool"
          },
          {
            "astId": 1122,
            "contract": "contracts/Vibers.sol:Vibers",
            "label": "allowlistMintedCounts",
            "offset": 0,
            "slot": "1064",
            "type": "t_mapping(t_address,t_uint256)"
          },
          {
            "astId": 1126,
            "contract": "contracts/Vibers.sol:Vibers",
            "label": "publicMintedCounts",
            "offset": 0,
            "slot": "1065",
            "type": "t_mapping(t_address,t_uint256)"
          },
          {
            "astId": 1132,
            "contract": "contracts/Vibers.sol:Vibers",
            "label": "_allowlistMerkleRoot",
            "offset": 0,
            "slot": "1066",
            "type": "t_bytes32"
          },
          {
            "astId": 1134,
            "contract": "contracts/Vibers.sol:Vibers",
            "label": "_baseTokenURI",
            "offset": 0,
            "slot": "1067",
            "type": "t_string_storage"
          },
          {
            "astId": 1137,
            "contract": "contracts/Vibers.sol:Vibers",
            "label": "metadataLocked",
            "offset": 0,
            "slot": "1068",
            "type": "t_bool"
          },
          {
            "astId": 1140,
            "contract": "contracts/Vibers.sol:Vibers",
            "label": "devSupplyAwarded",
            "offset": 0,
            "slot": "1069",
            "type": "t_uint256"
          },
          {
            "astId": 1146,
            "contract": "contracts/Vibers.sol:Vibers",
            "label": "developers",
            "offset": 0,
            "slot": "1070",
            "type": "t_address_payable"
          }
        ],
        "types": {
          "t_address": {
            "encoding": "inplace",
            "label": "address",
            "numberOfBytes": "20"
          },
          "t_address_payable": {
            "encoding": "inplace",
            "label": "address payable",
            "numberOfBytes": "20"
          },
          "t_array(t_uint256)1000_storage": {
            "base": "t_uint256",
            "encoding": "inplace",
            "label": "uint256[1000]",
            "numberOfBytes": "32000"
          },
          "t_array(t_uint256)49_storage": {
            "base": "t_uint256",
            "encoding": "inplace",
            "label": "uint256[49]",
            "numberOfBytes": "1568"
          },
          "t_bool": {
            "encoding": "inplace",
            "label": "bool",
            "numberOfBytes": "1"
          },
          "t_bytes32": {
            "encoding": "inplace",
            "label": "bytes32",
            "numberOfBytes": "32"
          },
          "t_mapping(t_address,t_bool)": {
            "encoding": "mapping",
            "key": "t_address",
            "label": "mapping(address => bool)",
            "numberOfBytes": "32",
            "value": "t_bool"
          },
          "t_mapping(t_address,t_mapping(t_address,t_bool))": {
            "encoding": "mapping",
            "key": "t_address",
            "label": "mapping(address => mapping(address => bool))",
            "numberOfBytes": "32",
            "value": "t_mapping(t_address,t_bool)"
          },
          "t_mapping(t_address,t_struct(AddressData)3340_storage)": {
            "encoding": "mapping",
            "key": "t_address",
            "label": "mapping(address => struct IERC721A.AddressData)",
            "numberOfBytes": "32",
            "value": "t_struct(AddressData)3340_storage"
          },
          "t_mapping(t_address,t_uint256)": {
            "encoding": "mapping",
            "key": "t_address",
            "label": "mapping(address => uint256)",
            "numberOfBytes": "32",
            "value": "t_uint256"
          },
          "t_mapping(t_uint256,t_address)": {
            "encoding": "mapping",
            "key": "t_uint256",
            "label": "mapping(uint256 => address)",
            "numberOfBytes": "32",
            "value": "t_address"
          },
          "t_mapping(t_uint256,t_struct(TokenOwnership)3331_storage)": {
            "encoding": "mapping",
            "key": "t_uint256",
            "label": "mapping(uint256 => struct IERC721A.TokenOwnership)",
            "numberOfBytes": "32",
            "value": "t_struct(TokenOwnership)3331_storage"
          },
          "t_string_storage": {
            "encoding": "bytes",
            "label": "string",
            "numberOfBytes": "32"
          },
          "t_struct(AddressData)3340_storage": {
            "encoding": "inplace",
            "label": "struct IERC721A.AddressData",
            "members": [
              {
                "astId": 3333,
                "contract": "contracts/Vibers.sol:Vibers",
                "label": "balance",
                "offset": 0,
                "slot": "0",
                "type": "t_uint64"
              },
              {
                "astId": 3335,
                "contract": "contracts/Vibers.sol:Vibers",
                "label": "numberMinted",
                "offset": 8,
                "slot": "0",
                "type": "t_uint64"
              },
              {
                "astId": 3337,
                "contract": "contracts/Vibers.sol:Vibers",
                "label": "numberBurned",
                "offset": 16,
                "slot": "0",
                "type": "t_uint64"
              },
              {
                "astId": 3339,
                "contract": "contracts/Vibers.sol:Vibers",
                "label": "aux",
                "offset": 24,
                "slot": "0",
                "type": "t_uint64"
              }
            ],
            "numberOfBytes": "32"
          },
          "t_struct(TokenOwnership)3331_storage": {
            "encoding": "inplace",
            "label": "struct IERC721A.TokenOwnership",
            "members": [
              {
                "astId": 3326,
                "contract": "contracts/Vibers.sol:Vibers",
                "label": "addr",
                "offset": 0,
                "slot": "0",
                "type": "t_address"
              },
              {
                "astId": 3328,
                "contract": "contracts/Vibers.sol:Vibers",
                "label": "startTimestamp",
                "offset": 20,
                "slot": "0",
                "type": "t_uint64"
              },
              {
                "astId": 3330,
                "contract": "contracts/Vibers.sol:Vibers",
                "label": "burned",
                "offset": 28,
                "slot": "0",
                "type": "t_bool"
              }
            ],
            "numberOfBytes": "32"
          },
          "t_uint256": {
            "encoding": "inplace",
            "label": "uint256",
            "numberOfBytes": "32"
          },
          "t_uint64": {
            "encoding": "inplace",
            "label": "uint64",
            "numberOfBytes": "8"
          }
        }
      },
      "userdoc": {
        "errors": {
          "ApprovalCallerNotOwnerNorApproved()": [
            {
              "notice": "The caller must own the token or be an approved operator."
            }
          ],
          "ApprovalQueryForNonexistentToken()": [
            {
              "notice": "The token does not exist."
            }
          ],
          "ApprovalToCurrentOwner()": [
            {
              "notice": "The caller cannot approve to the current owner."
            }
          ],
          "ApproveToCaller()": [
            {
              "notice": "The caller cannot approve to their own address."
            }
          ],
          "BalanceQueryForZeroAddress()": [
            {
              "notice": "Cannot query the balance for the zero address."
            }
          ],
          "MintToZeroAddress()": [
            {
              "notice": "Cannot mint to the zero address."
            }
          ],
          "MintZeroQuantity()": [
            {
              "notice": "The quantity of tokens minted must be more than zero."
            }
          ],
          "OwnerQueryForNonexistentToken()": [
            {
              "notice": "The token does not exist."
            }
          ],
          "TransferCallerNotOwnerNorApproved()": [
            {
              "notice": "The caller must own the token or be an approved operator."
            }
          ],
          "TransferFromIncorrectOwner()": [
            {
              "notice": "The token must be owned by `from`."
            }
          ],
          "TransferToNonERC721ReceiverImplementer()": [
            {
              "notice": "Cannot safely transfer to a contract that does not implement the ERC721Receiver interface."
            }
          ],
          "TransferToZeroAddress()": [
            {
              "notice": "Cannot transfer to the zero address."
            }
          ],
          "URIQueryForNonexistentToken()": [
            {
              "notice": "The token does not exist."
            }
          ]
        },
        "kind": "user",
        "methods": {
          "constructor": {
            "notice": "Token URIs will be autogenerated based on `baseURI` and their token IDs. See {ERC721-tokenURI}."
          },
          "give32TokensToDevs()": {
            "notice": "Can only be called twice. Gives 64 total Vibers to developers for marketing purposes. 28 of these will go to Treasure Chests holders."
          },
          "lockMetadata()": {
            "notice": "Freeze the metaData"
          },
          "setAllowlistMintOpen(uint256)": {
            "notice": "Start allowlist sale (can't be stopped after called)"
          },
          "setBaseURI(string)": {
            "notice": "Devs cant change URI after the sale begins"
          },
          "setPublicMintOpen(uint256)": {
            "notice": "Start public sale (can't be stopped after called)"
          }
        },
        "notice": "__     __ ______ _______  ________ _______   ______ |  \\   |  \\      \\       \\|        \\       \\ /      \\ |▓▓   | ▓▓\\▓▓▓▓▓▓ ▓▓▓▓▓▓▓\\ ▓▓▓▓▓▓▓▓ ▓▓▓▓▓▓▓\\  ▓▓▓▓▓▓\\ |▓▓   | ▓▓ | ▓▓ | ▓▓__/ ▓▓ ▓▓__   | ▓▓__| ▓▓ ▓▓___\\▓▓ \\▓▓\\ /  ▓▓ | ▓▓ | ▓▓    ▓▓ ▓▓  \\  | ▓▓    ▓▓\\▓▓    \\ \\▓▓\\  ▓▓  | ▓▓ | ▓▓▓▓▓▓▓\\ ▓▓▓▓▓  | ▓▓▓▓▓▓▓\\_\\▓▓▓▓▓▓\\ \\▓▓ ▓▓  _| ▓▓_| ▓▓__/ ▓▓ ▓▓_____| ▓▓  | ▓▓  \\__| ▓▓ \\▓▓▓  |   ▓▓ \\ ▓▓    ▓▓ ▓▓     \\ ▓▓  | ▓▓\\▓▓    ▓▓ \\▓    \\▓▓▓▓▓▓\\▓▓▓▓▓▓▓ \\▓▓▓▓▓▓▓▓\\▓▓   \\▓▓ \\▓▓▓▓▓▓ credit to DerpyBirbs, Cosmic Caps, and Critterz for their input on this contract !vibe //TODO TODO TODO TODO TODO TODO TODO TODO TODO TODO TODO TODO TODO TODO TODO TODO TODO TODO // Does ERC721A randomize mint? // Audit contract for Reentrancy attacks",
        "version": 1
      }
    }
  }
}