{
  "contracts/Vibers.sol": {
    "Vibers": {
      "abi": [
        {
          "inputs": [
            {
              "internalType": "string",
              "name": "baseTokenURI",
              "type": "string"
            },
            {
              "internalType": "bytes32",
              "name": "whitelistMerkleRoot",
              "type": "bytes32"
            }
          ],
          "stateMutability": "nonpayable",
          "type": "constructor"
        },
        {
          "inputs": [],
          "name": "ApprovalCallerNotOwnerNorApproved",
          "type": "error"
        },
        {
          "inputs": [],
          "name": "ApprovalQueryForNonexistentToken",
          "type": "error"
        },
        {
          "inputs": [],
          "name": "ApprovalToCurrentOwner",
          "type": "error"
        },
        {
          "inputs": [],
          "name": "ApproveToCaller",
          "type": "error"
        },
        {
          "inputs": [],
          "name": "BalanceQueryForZeroAddress",
          "type": "error"
        },
        {
          "inputs": [],
          "name": "MintToZeroAddress",
          "type": "error"
        },
        {
          "inputs": [],
          "name": "MintZeroQuantity",
          "type": "error"
        },
        {
          "inputs": [],
          "name": "OwnerQueryForNonexistentToken",
          "type": "error"
        },
        {
          "inputs": [],
          "name": "TransferCallerNotOwnerNorApproved",
          "type": "error"
        },
        {
          "inputs": [],
          "name": "TransferFromIncorrectOwner",
          "type": "error"
        },
        {
          "inputs": [],
          "name": "TransferToNonERC721ReceiverImplementer",
          "type": "error"
        },
        {
          "inputs": [],
          "name": "TransferToZeroAddress",
          "type": "error"
        },
        {
          "inputs": [],
          "name": "URIQueryForNonexistentToken",
          "type": "error"
        },
        {
          "anonymous": false,
          "inputs": [
            {
              "indexed": true,
              "internalType": "address",
              "name": "owner",
              "type": "address"
            },
            {
              "indexed": true,
              "internalType": "address",
              "name": "approved",
              "type": "address"
            },
            {
              "indexed": true,
              "internalType": "uint256",
              "name": "tokenId",
              "type": "uint256"
            }
          ],
          "name": "Approval",
          "type": "event"
        },
        {
          "anonymous": false,
          "inputs": [
            {
              "indexed": true,
              "internalType": "address",
              "name": "owner",
              "type": "address"
            },
            {
              "indexed": true,
              "internalType": "address",
              "name": "operator",
              "type": "address"
            },
            {
              "indexed": false,
              "internalType": "bool",
              "name": "approved",
              "type": "bool"
            }
          ],
          "name": "ApprovalForAll",
          "type": "event"
        },
        {
          "anonymous": false,
          "inputs": [
            {
              "indexed": true,
              "internalType": "address",
              "name": "previousOwner",
              "type": "address"
            },
            {
              "indexed": true,
              "internalType": "address",
              "name": "newOwner",
              "type": "address"
            }
          ],
          "name": "OwnershipTransferred",
          "type": "event"
        },
        {
          "anonymous": false,
          "inputs": [
            {
              "indexed": true,
              "internalType": "address",
              "name": "from",
              "type": "address"
            },
            {
              "indexed": true,
              "internalType": "address",
              "name": "to",
              "type": "address"
            },
            {
              "indexed": true,
              "internalType": "uint256",
              "name": "tokenId",
              "type": "uint256"
            }
          ],
          "name": "Transfer",
          "type": "event"
        },
        {
          "anonymous": false,
          "inputs": [],
          "name": "publicMintOpened",
          "type": "event"
        },
        {
          "anonymous": false,
          "inputs": [],
          "name": "whitelistMintOpened",
          "type": "event"
        },
        {
          "inputs": [
            {
              "internalType": "address",
              "name": "to",
              "type": "address"
            },
            {
              "internalType": "uint256",
              "name": "tokenId",
              "type": "uint256"
            }
          ],
          "name": "approve",
          "outputs": [],
          "stateMutability": "nonpayable",
          "type": "function"
        },
        {
          "inputs": [
            {
              "internalType": "bytes32[]",
              "name": "whitelistProof",
              "type": "bytes32[]"
            }
          ],
          "name": "availableWhitelistMint",
          "outputs": [
            {
              "internalType": "uint256",
              "name": "",
              "type": "uint256"
            }
          ],
          "stateMutability": "view",
          "type": "function"
        },
        {
          "inputs": [
            {
              "internalType": "address",
              "name": "owner",
              "type": "address"
            }
          ],
          "name": "balanceOf",
          "outputs": [
            {
              "internalType": "uint256",
              "name": "",
              "type": "uint256"
            }
          ],
          "stateMutability": "view",
          "type": "function"
        },
        {
          "inputs": [],
          "name": "freezeMetadata",
          "outputs": [],
          "stateMutability": "nonpayable",
          "type": "function"
        },
        {
          "inputs": [
            {
              "internalType": "uint256",
              "name": "tokenId",
              "type": "uint256"
            }
          ],
          "name": "getApproved",
          "outputs": [
            {
              "internalType": "address",
              "name": "",
              "type": "address"
            }
          ],
          "stateMutability": "view",
          "type": "function"
        },
        {
          "inputs": [],
          "name": "getMaxSupply",
          "outputs": [
            {
              "internalType": "uint256",
              "name": "",
              "type": "uint256"
            }
          ],
          "stateMutability": "pure",
          "type": "function"
        },
        {
          "inputs": [],
          "name": "getMintPrice",
          "outputs": [
            {
              "internalType": "uint256",
              "name": "",
              "type": "uint256"
            }
          ],
          "stateMutability": "view",
          "type": "function"
        },
        {
          "inputs": [],
          "name": "getQuantityMinted",
          "outputs": [
            {
              "internalType": "uint256",
              "name": "",
              "type": "uint256"
            }
          ],
          "stateMutability": "view",
          "type": "function"
        },
        {
          "inputs": [],
          "name": "give32TokensToDevs",
          "outputs": [],
          "stateMutability": "nonpayable",
          "type": "function"
        },
        {
          "inputs": [],
          "name": "hasMetadataFroze",
          "outputs": [
            {
              "internalType": "bool",
              "name": "",
              "type": "bool"
            }
          ],
          "stateMutability": "view",
          "type": "function"
        },
        {
          "inputs": [],
          "name": "hasPublicSaleStarted",
          "outputs": [
            {
              "internalType": "bool",
              "name": "",
              "type": "bool"
            }
          ],
          "stateMutability": "view",
          "type": "function"
        },
        {
          "inputs": [],
          "name": "hasSaleStarted",
          "outputs": [
            {
              "internalType": "bool",
              "name": "",
              "type": "bool"
            }
          ],
          "stateMutability": "view",
          "type": "function"
        },
        {
          "inputs": [
            {
              "internalType": "address",
              "name": "owner",
              "type": "address"
            },
            {
              "internalType": "address",
              "name": "operator",
              "type": "address"
            }
          ],
          "name": "isApprovedForAll",
          "outputs": [
            {
              "internalType": "bool",
              "name": "",
              "type": "bool"
            }
          ],
          "stateMutability": "view",
          "type": "function"
        },
        {
          "inputs": [
            {
              "internalType": "uint256",
              "name": "quantity",
              "type": "uint256"
            }
          ],
          "name": "mint",
          "outputs": [],
          "stateMutability": "payable",
          "type": "function"
        },
        {
          "inputs": [],
          "name": "name",
          "outputs": [
            {
              "internalType": "string",
              "name": "",
              "type": "string"
            }
          ],
          "stateMutability": "view",
          "type": "function"
        },
        {
          "inputs": [],
          "name": "owner",
          "outputs": [
            {
              "internalType": "address",
              "name": "",
              "type": "address"
            }
          ],
          "stateMutability": "view",
          "type": "function"
        },
        {
          "inputs": [
            {
              "internalType": "uint256",
              "name": "tokenId",
              "type": "uint256"
            }
          ],
          "name": "ownerOf",
          "outputs": [
            {
              "internalType": "address",
              "name": "",
              "type": "address"
            }
          ],
          "stateMutability": "view",
          "type": "function"
        },
        {
          "inputs": [
            {
              "internalType": "address",
              "name": "",
              "type": "address"
            }
          ],
          "name": "publicMintedCounts",
          "outputs": [
            {
              "internalType": "uint256",
              "name": "",
              "type": "uint256"
            }
          ],
          "stateMutability": "view",
          "type": "function"
        },
        {
          "inputs": [],
          "name": "renounceOwnership",
          "outputs": [],
          "stateMutability": "nonpayable",
          "type": "function"
        },
        {
          "inputs": [
            {
              "internalType": "address",
              "name": "from",
              "type": "address"
            },
            {
              "internalType": "address",
              "name": "to",
              "type": "address"
            },
            {
              "internalType": "uint256",
              "name": "tokenId",
              "type": "uint256"
            }
          ],
          "name": "safeTransferFrom",
          "outputs": [],
          "stateMutability": "nonpayable",
          "type": "function"
        },
        {
          "inputs": [
            {
              "internalType": "address",
              "name": "from",
              "type": "address"
            },
            {
              "internalType": "address",
              "name": "to",
              "type": "address"
            },
            {
              "internalType": "uint256",
              "name": "tokenId",
              "type": "uint256"
            },
            {
              "internalType": "bytes",
              "name": "_data",
              "type": "bytes"
            }
          ],
          "name": "safeTransferFrom",
          "outputs": [],
          "stateMutability": "nonpayable",
          "type": "function"
        },
        {
          "inputs": [
            {
              "internalType": "address",
              "name": "operator",
              "type": "address"
            },
            {
              "internalType": "bool",
              "name": "approved",
              "type": "bool"
            }
          ],
          "name": "setApprovalForAll",
          "outputs": [],
          "stateMutability": "nonpayable",
          "type": "function"
        },
        {
          "inputs": [
            {
              "internalType": "string",
              "name": "baseTokenURI",
              "type": "string"
            }
          ],
          "name": "setBaseURI",
          "outputs": [],
          "stateMutability": "nonpayable",
          "type": "function"
        },
        {
          "inputs": [
            {
              "internalType": "uint256",
              "name": "_PRICE",
              "type": "uint256"
            }
          ],
          "name": "setMintPrice",
          "outputs": [],
          "stateMutability": "nonpayable",
          "type": "function"
        },
        {
          "inputs": [
            {
              "internalType": "uint256",
              "name": "_PRICE",
              "type": "uint256"
            }
          ],
          "name": "setPublicMintOpen",
          "outputs": [],
          "stateMutability": "nonpayable",
          "type": "function"
        },
        {
          "inputs": [
            {
              "internalType": "bytes32",
              "name": "whitelistMerkleRoot",
              "type": "bytes32"
            }
          ],
          "name": "setWhitelistMerkleRoot",
          "outputs": [],
          "stateMutability": "nonpayable",
          "type": "function"
        },
        {
          "inputs": [
            {
              "internalType": "uint256",
              "name": "_PRICE",
              "type": "uint256"
            }
          ],
          "name": "setWhitelistMintOpen",
          "outputs": [],
          "stateMutability": "nonpayable",
          "type": "function"
        },
        {
          "inputs": [
            {
              "internalType": "bytes4",
              "name": "interfaceId",
              "type": "bytes4"
            }
          ],
          "name": "supportsInterface",
          "outputs": [
            {
              "internalType": "bool",
              "name": "",
              "type": "bool"
            }
          ],
          "stateMutability": "view",
          "type": "function"
        },
        {
          "inputs": [],
          "name": "symbol",
          "outputs": [
            {
              "internalType": "string",
              "name": "",
              "type": "string"
            }
          ],
          "stateMutability": "view",
          "type": "function"
        },
        {
          "inputs": [
            {
              "internalType": "uint256",
              "name": "tokenId",
              "type": "uint256"
            }
          ],
          "name": "tokenURI",
          "outputs": [
            {
              "internalType": "string",
              "name": "",
              "type": "string"
            }
          ],
          "stateMutability": "view",
          "type": "function"
        },
        {
          "inputs": [],
          "name": "totalSupply",
          "outputs": [
            {
              "internalType": "uint256",
              "name": "",
              "type": "uint256"
            }
          ],
          "stateMutability": "view",
          "type": "function"
        },
        {
          "inputs": [
            {
              "internalType": "address",
              "name": "from",
              "type": "address"
            },
            {
              "internalType": "address",
              "name": "to",
              "type": "address"
            },
            {
              "internalType": "uint256",
              "name": "tokenId",
              "type": "uint256"
            }
          ],
          "name": "transferFrom",
          "outputs": [],
          "stateMutability": "nonpayable",
          "type": "function"
        },
        {
          "inputs": [
            {
              "internalType": "address",
              "name": "newOwner",
              "type": "address"
            }
          ],
          "name": "transferOwnership",
          "outputs": [],
          "stateMutability": "nonpayable",
          "type": "function"
        },
        {
          "inputs": [
            {
              "internalType": "uint256",
              "name": "quantity",
              "type": "uint256"
            },
            {
              "internalType": "bytes32[]",
              "name": "whitelistProof",
              "type": "bytes32[]"
            }
          ],
          "name": "whitelistMint",
          "outputs": [],
          "stateMutability": "payable",
          "type": "function"
        },
        {
          "inputs": [
            {
              "internalType": "address",
              "name": "",
              "type": "address"
            }
          ],
          "name": "whitelistMintedCounts",
          "outputs": [
            {
              "internalType": "uint256",
              "name": "",
              "type": "uint256"
            }
          ],
          "stateMutability": "view",
          "type": "function"
        },
        {
          "inputs": [],
          "name": "withdrawFunds",
          "outputs": [],
          "stateMutability": "nonpayable",
          "type": "function"
        }
      ],
      "devdoc": {
        "kind": "dev",
        "methods": {
          "approve(address,uint256)": {
            "details": "See {IERC721-approve}."
          },
          "balanceOf(address)": {
            "details": "See {IERC721-balanceOf}."
          },
          "getApproved(uint256)": {
            "details": "See {IERC721-getApproved}."
          },
          "isApprovedForAll(address,address)": {
            "details": "See {IERC721-isApprovedForAll}."
          },
          "mint(uint256)": {
            "details": "Creates a new token. Its token ID will be automatically assigned (and available on the emitted {IERC721-Transfer} event), and the token URI autogenerated based on the base URI passed at construction. See {ERC721-_mint}."
          },
          "name()": {
            "details": "See {IERC721Metadata-name}."
          },
          "owner()": {
            "details": "Returns the address of the current owner."
          },
          "ownerOf(uint256)": {
            "details": "See {IERC721-ownerOf}."
          },
          "renounceOwnership()": {
            "details": "Leaves the contract without owner. It will not be possible to call `onlyOwner` functions anymore. Can only be called by the current owner. NOTE: Renouncing ownership will leave the contract without an owner, thereby removing any functionality that is only available to the owner."
          },
          "safeTransferFrom(address,address,uint256)": {
            "details": "See {IERC721-safeTransferFrom}."
          },
          "safeTransferFrom(address,address,uint256,bytes)": {
            "details": "See {IERC721-safeTransferFrom}."
          },
          "setApprovalForAll(address,bool)": {
            "details": "See {IERC721-setApprovalForAll}."
          },
          "supportsInterface(bytes4)": {
            "details": "See {IERC165-supportsInterface}."
          },
          "symbol()": {
            "details": "See {IERC721Metadata-symbol}."
          },
          "tokenURI(uint256)": {
            "details": "See {IERC721Metadata-tokenURI}."
          },
          "totalSupply()": {
            "details": "Burned tokens are calculated here, use _totalMinted() if you want to count just minted tokens."
          },
          "transferFrom(address,address,uint256)": {
            "details": "See {IERC721-transferFrom}."
          },
          "transferOwnership(address)": {
            "details": "Transfers ownership of the contract to a new account (`newOwner`). Can only be called by the current owner."
          },
          "withdrawFunds()": {
            "details": "Withdraws funds to dev and art teams"
          }
        },
        "version": 1
      },
      "evm": {
        "bytecode": {
          "linkReferences": {},
          "object": "60806040526000603c819055610425819055610426819055610427805461ffff1916905561042c805460ff1916905561042d5561042e80546001600160a01b03191673f8e807027c4f6d0968c8c4742508d136d926a9811790553480156200006657600080fd5b5060405162002bc938038062002bc983398101604081905262000089916200022e565b6040518060400160405280600681526020016556696265727360d01b815250604051806040016040528060048152602001635649424560e01b815250620000df620000d96200013460201b60201c565b62000138565b8151620000f490600390602085019062000188565b5080516200010a90600490602084019062000188565b50600060015550508151620001289061042b90602085019062000188565b5061042a555062000360565b3390565b600080546001600160a01b038381166001600160a01b0319831681178455604051919092169283917f8be0079c531659141344cd1fd0a4f28419497f9722a3daafe3b4186f6b6457e09190a35050565b82805462000196906200030d565b90600052602060002090601f016020900481019282620001ba576000855562000205565b82601f10620001d557805160ff191683800117855562000205565b8280016001018555821562000205579182015b8281111562000205578251825591602001919060010190620001e8565b506200021392915062000217565b5090565b5b8082111562000213576000815560010162000218565b6000806040838503121562000241578182fd5b82516001600160401b038082111562000258578384fd5b818501915085601f8301126200026c578384fd5b8151818111156200028157620002816200034a565b604051601f8201601f19908116603f01168101908382118183101715620002ac57620002ac6200034a565b81604052828152602093508884848701011115620002c8578687fd5b8691505b82821015620002eb5784820184015181830185015290830190620002cc565b82821115620002fc57868484830101525b969092015195979596505050505050565b600181811c908216806200032257607f821691505b602082108114156200034457634e487b7160e01b600052602260045260246000fd5b50919050565b634e487b7160e01b600052604160045260246000fd5b61285980620003706000396000f3fe60806040526004361061020f5760003560e01c8063715018a611610118578063bd32fb66116100a0578063e985e9c51161006f578063e985e9c5146105c7578063f2fde38b14610610578063f4a0a52814610630578063f6651cdd14610650578063fdd4b0f01461067057600080fd5b8063bd32fb661461055f578063c87b56dd1461057f578063d111515d1461059f578063d2cab056146105b457600080fd5b8063a0712d68116100e7578063a0712d68146104de578063a22cb465146104f1578063a7f93ebd14610511578063b61c1a6f14610526578063b88d4fde1461053f57600080fd5b8063715018a6146104685780637630a55a1461047d5780638da5cb5b146104ab57806395d89b41146104c957600080fd5b806323b872dd1161019b5780634c0f38c21161016a5780634c0f38c2146103c557806355f804b3146103da5780636352211e146103fa5780636701cff71461041a57806370a082311461044857600080fd5b806323b872dd1461035b57806324600fc31461037b57806326c3f3da1461039057806342842e0e146103a557600080fd5b8063095ea7b3116101e2578063095ea7b3146102d15780630a3ed96e146102f357806318160ddd146103135780631c8b232d1461032c578063216a08d41461034557600080fd5b806301ffc9a714610214578063064a36001461024957806306fdde0314610277578063081812fc14610299575b600080fd5b34801561022057600080fd5b5061023461022f3660046123f9565b61068e565b60405190151581526020015b60405180910390f35b34801561025557600080fd5b5061026961026436600461233a565b6106e0565b604051908152602001610240565b34801561028357600080fd5b5061028c610719565b6040516102409190612587565b3480156102a557600080fd5b506102b96102b43660046123e1565b6107ab565b6040516001600160a01b039091168152602001610240565b3480156102dd57600080fd5b506102f16102ec366004612311565b6107ef565b005b3480156102ff57600080fd5b506102f161030e3660046123e1565b610876565b34801561031f57600080fd5b5060025460015403610269565b34801561033857600080fd5b506104275460ff16610234565b34801561035157600080fd5b5061042654610269565b34801561036757600080fd5b506102f1610376366004612224565b6109a2565b34801561038757600080fd5b506102f16109ad565b34801561039c57600080fd5b506102f16109ec565b3480156103b157600080fd5b506102f16103c0366004612224565b610b39565b3480156103d157600080fd5b506103e8610269565b3480156103e657600080fd5b506102f16103f5366004612431565b610b54565b34801561040657600080fd5b506102b96104153660046123e1565b610bff565b34801561042657600080fd5b506102696104353660046121d8565b6104296020526000908152604090205481565b34801561045457600080fd5b506102696104633660046121d8565b610c11565b34801561047457600080fd5b506102f1610c5f565b34801561048957600080fd5b506102696104983660046121d8565b6104286020526000908152604090205481565b3480156104b757600080fd5b506000546001600160a01b03166102b9565b3480156104d557600080fd5b5061028c610c95565b6102f16104ec3660046123e1565b610ca4565b3480156104fd57600080fd5b506102f161050c3660046122d7565b610e84565b34801561051d57600080fd5b50603c54610269565b34801561053257600080fd5b5061042c5460ff16610234565b34801561054b57600080fd5b506102f161055a36600461225f565b610f1a565b34801561056b57600080fd5b506102f161057a3660046123e1565b610f64565b34801561058b57600080fd5b5061028c61059a3660046123e1565b610f94565b3480156105ab57600080fd5b506102f1611019565b6102f16105c2366004612476565b6110b5565b3480156105d357600080fd5b506102346105e23660046121f2565b6001600160a01b03918216600090815260086020908152604080832093909416825291909152205460ff1690565b34801561061c57600080fd5b506102f161062b3660046121d8565b61135b565b34801561063c57600080fd5b506102f161064b3660046123e1565b6113f6565b34801561065c57600080fd5b506102f161066b3660046123e1565b61149c565b34801561067c57600080fd5b5061042754610100900460ff16610234565b60006001600160e01b031982166380ac58cd60e01b14806106bf57506001600160e01b03198216635b5e139f60e01b145b806106da57506301ffc9a760e01b6001600160e01b03198316145b92915050565b60006106eb82611564565b1561070c5733600090815261042860205260409020546106da9060026126fe565b506000919050565b919050565b60606003805461072890612741565b80601f016020809104026020016040519081016040528092919081815260200182805461075490612741565b80156107a15780601f10610776576101008083540402835291602001916107a1565b820191906000526020600020905b81548152906001019060200180831161078457829003601f168201915b5050505050905090565b60006107b682611574565b6107d3576040516333d1c03960e21b815260040160405180910390fd5b506000908152600760205260409020546001600160a01b031690565b60006107fa82610bff565b9050806001600160a01b0316836001600160a01b0316141561082f5760405163250fdee360e21b815260040160405180910390fd5b336001600160a01b038216146108665761084981336105e2565b610866576040516367d9dca160e11b815260040160405180910390fd5b6108718383836115a0565b505050565b6000546001600160a01b031633146108a95760405162461bcd60e51b81526004016108a09061264e565b60405180910390fd5b61042754610100900460ff16156109025760405162461bcd60e51b815260206004820152601f60248201527f5075626c6963206d696e742068617320616c726561647920737461727465640060448201526064016108a0565b6104275460ff166109615760405162461bcd60e51b8152602060048201526024808201527f57686974656c697374206d696e74206d757374206265207374617274656420666044820152631a5c9cdd60e21b60648201526084016108a0565b603c819055610427805461ff0019166101001790556040517fd027ba160f7e3111418d8cac41dc57dd841a8248c1d30fae2612f8499979dbb290600090a150565b6108718383836115fc565b61042e5460405147916001600160a01b03169082156108fc029083906000818181858888f193505050501580156109e8573d6000803e3d6000fd5b5050565b6000546001600160a01b03163314610a165760405162461bcd60e51b81526004016108a09061264e565b61042754610100900460ff1615610a6f5760405162461bcd60e51b815260206004820152601860248201527f53616c652068617320616c72656164792073746172746564000000000000000060448201526064016108a0565b604061042d5410610ace5760405162461bcd60e51b815260206004820152602360248201527f44657620737570706c792068617320616c7265616479206265656e206177617260448201526219195960ea1b60648201526084016108a0565b6000805b6020821015610b2257610ae36117d7565b61042e54909150610afd906001600160a01b03168261198a565b61042654610b0c9060016126b3565b6104265581610b1a8161277c565b925050610ad2565b61042d54610b319060016126b3565b61042d555050565b61087183838360405180602001604052806000815250610f1a565b6000546001600160a01b03163314610b7e5760405162461bcd60e51b81526004016108a09061264e565b61042c5460ff1615610beb5760405162461bcd60e51b815260206004820152603060248201527f43616e6e6f74206368616e6765206d657461646174612061667465722074686560448201526f206d6574616461746120667265657a6560801b60648201526084016108a0565b80516109e89061042b9060208401906120d1565b6000610c0a82611a99565b5192915050565b60006001600160a01b038216610c3a576040516323d3ad8160e21b815260040160405180910390fd5b506001600160a01b03166000908152600660205260409020546001600160401b031690565b6000546001600160a01b03163314610c895760405162461bcd60e51b81526004016108a09061264e565b610c936000611bb3565b565b60606004805461072890612741565b33328114610cc45760405162461bcd60e51b81526004016108a090612620565b803b8015610ce45760405162461bcd60e51b81526004016108a090612620565b61042754610100900460ff16610d3c5760405162461bcd60e51b815260206004820152601960248201527f53616c6520686173206e6f742073746172746564207965742e0000000000000060448201526064016108a0565b6103e86104265410610d605760405162461bcd60e51b81526004016108a0906125de565b60008311610daa5760405162461bcd60e51b815260206004820152601760248201527626bab9ba1036b4b73a1030ba103632b0b9ba1037b7329760491b60448201526064016108a0565b6004831115610dfb5760405162461bcd60e51b815260206004820152601c60248201527f4d696e742065786365656473206c696d6974207065722063616c6c2e0000000060448201526064016108a0565b61042654610e0b906103e86126fe565b831115610e2a5760405162461bcd60e51b81526004016108a09061259a565b82603c54610e3891906126df565b3414610e7a5760405162461bcd60e51b81526020600482015260116024820152701b5cd9cb9d985b1d59481a5b9d985b1a59607a1b60448201526064016108a0565b6108713384611c03565b6001600160a01b038216331415610eae5760405163b06307db60e01b815260040160405180910390fd5b3360008181526008602090815260408083206001600160a01b03871680855290835292819020805460ff191686151590811790915590519081529192917f17307eab39ab6107e8899845ad3d59bd9653f200f220920489ca2b5937696c31910160405180910390a35050565b610f258484846115fc565b6001600160a01b0383163b15610f5e57610f4184848484611c1d565b610f5e576040516368d2bf6b60e11b815260040160405180910390fd5b50505050565b6000546001600160a01b03163314610f8e5760405162461bcd60e51b81526004016108a09061264e565b61042a55565b6060610f9f82611574565b610fbc57604051630a14c4b560e41b815260040160405180910390fd5b6000610fc6611d15565b9050805160001415610fe75760405180602001604052806000815250611012565b80610ff184611d25565b60405160200161100292919061251b565b6040516020818303038152906040525b9392505050565b6000546001600160a01b031633146110435760405162461bcd60e51b81526004016108a09061264e565b61042754610100900460ff166110a55760405162461bcd60e51b815260206004820152602160248201527f7075626c6963206d696e74206d757374206265207374617274656420666972736044820152601d60fa1b60648201526084016108a0565b61042c805460ff19166001179055565b333281146110d55760405162461bcd60e51b81526004016108a090612620565b803b80156110f55760405162461bcd60e51b81526004016108a090612620565b83838080602002602001604051908101604052809392919081815260200183836020028082843760009201919091525061113492508391506115649050565b6111805760405162461bcd60e51b815260206004820152601960248201527f43616c6c6572206973206e6f742077686974656c69737465640000000000000060448201526064016108a0565b33600090815261042860205260408120549061119c88836126b3565b6104275490915060ff166111f25760405162461bcd60e51b815260206004820152601860248201527f57686974656c697374206d696e74696e6720636c6f736564000000000000000060448201526064016108a0565b6103e861042654106112165760405162461bcd60e51b81526004016108a0906125de565b600088116112605760405162461bcd60e51b815260206004820152601760248201527626bab9ba1036b4b73a1030ba103632b0b9ba1037b7329760491b60448201526064016108a0565b60028111156112b15760405162461bcd60e51b815260206004820152601c60248201527f4d696e742065786365656473206c696d6974207065722063616c6c2e0000000060448201526064016108a0565b610426546112c1906103e86126fe565b8811156112e05760405162461bcd60e51b81526004016108a09061259a565b87603c546112ee91906126df565b34146113345760405162461bcd60e51b81526020600482015260156024820152740acd2c4cae4e640e0e4d2c6ca40dad2e6dac2e8c6d605b1b60448201526064016108a0565b336000818152610428602052604090208290556113519089611c03565b5050505050505050565b6000546001600160a01b031633146113855760405162461bcd60e51b81526004016108a09061264e565b6001600160a01b0381166113ea5760405162461bcd60e51b815260206004820152602660248201527f4f776e61626c653a206e6577206f776e657220697320746865207a65726f206160448201526564647265737360d01b60648201526084016108a0565b6113f381611bb3565b50565b6000546001600160a01b031633146114205760405162461bcd60e51b81526004016108a09061264e565b6104275460ff1615156001146114975760405162461bcd60e51b815260206004820152603660248201527f5468652073616c65206d757374206265207374617274656420746f206368616e60448201527533b2903a34329032bc34b9ba34b73390383934b1b29760511b60648201526084016108a0565b603c55565b6000546001600160a01b031633146114c65760405162461bcd60e51b81526004016108a09061264e565b6104275460ff16156115255760405162461bcd60e51b815260206004820152602260248201527f57686974656c697374206d696e742068617320616c7265616479207374617274604482015261195960f21b60648201526084016108a0565b603c819055610427805460ff191660011790556040517f010b9a8a97646803866f101014ff4637aa691ed9c0fe2260cd669f86d3fd600890600090a150565b60006106da8261042a5433611e3e565b6000600154821080156106da575050600090815260056020526040902054600160e01b900460ff161590565b60008281526007602052604080822080546001600160a01b0319166001600160a01b0387811691821790925591518593918516917f8c5be1e5ebec7d5bd14f71427d1e84f3dd0314c0f7b2291e5b200ac8c7c3b92591a4505050565b600061160782611a99565b9050836001600160a01b031681600001516001600160a01b03161461163e5760405162a1148160e81b815260040160405180910390fd5b6000336001600160a01b038616148061165c575061165c85336105e2565b8061167757503361166c846107ab565b6001600160a01b0316145b90508061169757604051632ce44b5f60e11b815260040160405180910390fd5b6001600160a01b0384166116be57604051633a954ecd60e21b815260040160405180910390fd5b6116ca600084876115a0565b6001600160a01b038581166000908152600660209081526040808320805467ffffffffffffffff198082166001600160401b0392831660001901831617909255898616808652838620805493841693831660019081018416949094179055898652600590945282852080546001600160e01b031916909417600160a01b4290921691909102178355870180845292208054919390911661179e57600154821461179e57805460208601516001600160401b0316600160a01b026001600160e01b03199091166001600160a01b038a16171781555b50505082846001600160a01b0316866001600160a01b031660008051602061280483398151915260405160405180910390a45050505050565b600080610426546103e86117eb91906126fe565b610425546040805160208101929092526bffffffffffffffffffffffff193360601b169082015244605482015242607482015290915060009082906094016040516020818303038152906040528051906020012060001c61184c9190612797565b90506000603d826103e8811061187257634e487b7160e01b600052603260045260246000fd5b0154156118a457603d826103e8811061189b57634e487b7160e01b600052603260045260246000fd5b015490506118a7565b50805b603d6118b46001856126fe565b6103e881106118d357634e487b7160e01b600052603260045260246000fd5b015461190d576118e46001846126fe565b603d836103e8811061190657634e487b7160e01b600052603260045260246000fd5b0155611960565b603d61191a6001856126fe565b6103e8811061193957634e487b7160e01b600052603260045260246000fd5b0154603d836103e8811061195d57634e487b7160e01b600052603260045260246000fd5b01555b61042580549060006119718361277c565b9091555061198290508160016126b3565b935050505090565b6001546001600160a01b0383166119b357604051622e076360e81b815260040160405180910390fd5b816119d15760405163b562e8dd60e01b815260040160405180910390fd5b6001600160a01b038316600081815260066020908152604080832080546001600160801b031981166001600160401b038083168a018116918217600160401b67ffffffffffffffff1990941690921783900481168a01811690920217909155858452600590925290912080546001600160e01b031916909217600160a01b4290921691909102179055808083015b6040516001830192906001600160a01b03871690600090600080516020612804833981519152908290a4808210611a5f5750600155505050565b604080516060810182526000808252602082018190529181019190915281600154811015611b9a57600081815260056020908152604091829020825160608101845290546001600160a01b0381168252600160a01b81046001600160401b031692820192909252600160e01b90910460ff16151591810182905290611b985780516001600160a01b031615611b2f579392505050565b5060001901600081815260056020908152604091829020825160608101845290546001600160a01b038116808352600160a01b82046001600160401b031693830193909352600160e01b900460ff1615159281019290925215611b93579392505050565b611b2f565b505b604051636f96cda160e11b815260040160405180910390fd5b600080546001600160a01b038381166001600160a01b0319831681178455604051919092169283917f8be0079c531659141344cd1fd0a4f28419497f9722a3daafe3b4186f6b6457e09190a35050565b6109e8828260405180602001604052806000815250611e83565b604051630a85bd0160e11b81526000906001600160a01b0385169063150b7a0290611c5290339089908890889060040161254a565b602060405180830381600087803b158015611c6c57600080fd5b505af1925050508015611c9c575060408051601f3d908101601f19168201909252611c9991810190612415565b60015b611cf7573d808015611cca576040519150601f19603f3d011682016040523d82523d6000602084013e611ccf565b606091505b508051611cef576040516368d2bf6b60e11b815260040160405180910390fd5b805181602001fd5b6001600160e01b031916630a85bd0160e11b1490505b949350505050565b606061042b805461072890612741565b606081611d495750506040805180820190915260018152600360fc1b602082015290565b8160005b8115611d735780611d5d8161277c565b9150611d6c9050600a836126cb565b9150611d4d565b6000816001600160401b03811115611d9b57634e487b7160e01b600052604160045260246000fd5b6040519080825280601f01601f191660200182016040528015611dc5576020820181803683370190505b5090505b8415611d0d57611dda6001836126fe565b9150611de7600a86612797565b611df29060306126b3565b60f81b818381518110611e1557634e487b7160e01b600052603260045260246000fd5b60200101906001600160f81b031916908160001a905350611e37600a866126cb565b9450611dc9565b6040516bffffffffffffffffffffffff19606083901b166020820152600090611d0d908590859060340160405160208183030381529060405280519060200120612014565b6001546001600160a01b038416611eac57604051622e076360e81b815260040160405180910390fd5b82611eca5760405163b562e8dd60e01b815260040160405180910390fd5b6001600160a01b038416600081815260066020908152604080832080546001600160801b031981166001600160401b038083168b018116918217600160401b67ffffffffffffffff1990941690921783900481168b01811690920217909155858452600590925290912080546001600160e01b0319168317600160a01b42909316929092029190911790558190818501903b15611fd2575b60405182906001600160a01b03881690600090600080516020612804833981519152908290a4611f9b6000878480600101955087611c1d565b611fb8576040516368d2bf6b60e11b815260040160405180910390fd5b808210611f62578260015414611fcd57600080fd5b612005565b5b6040516001830192906001600160a01b03881690600090600080516020612804833981519152908290a4808210611fd3575b50600155610f5e600085838684565b600081815b85518110156120c657600086828151811061204457634e487b7160e01b600052603260045260246000fd5b602002602001015190508083116120865760408051602081018590529081018290526060016040516020818303038152906040528051906020012092506120b3565b60408051602081018390529081018490526060016040516020818303038152906040528051906020012092505b50806120be8161277c565b915050612019565b509092149392505050565b8280546120dd90612741565b90600052602060002090601f0160209004810192826120ff5760008555612145565b82601f1061211857805160ff1916838001178555612145565b82800160010185558215612145579182015b8281111561214557825182559160200191906001019061212a565b50612151929150612155565b5090565b5b808211156121515760008155600101612156565b60006001600160401b03831115612183576121836127d7565b612196601f8401601f1916602001612683565b90508281528383830111156121aa57600080fd5b828260208301376000602084830101529392505050565b80356001600160a01b038116811461071457600080fd5b6000602082840312156121e9578081fd5b611012826121c1565b60008060408385031215612204578081fd5b61220d836121c1565b915061221b602084016121c1565b90509250929050565b600080600060608486031215612238578081fd5b612241846121c1565b925061224f602085016121c1565b9150604084013590509250925092565b60008060008060808587031215612274578081fd5b61227d856121c1565b935061228b602086016121c1565b92506040850135915060608501356001600160401b038111156122ac578182fd5b8501601f810187136122bc578182fd5b6122cb8782356020840161216a565b91505092959194509250565b600080604083850312156122e9578182fd5b6122f2836121c1565b915060208301358015158114612306578182fd5b809150509250929050565b60008060408385031215612323578182fd5b61232c836121c1565b946020939093013593505050565b6000602080838503121561234c578182fd5b82356001600160401b0380821115612362578384fd5b818501915085601f830112612375578384fd5b813581811115612387576123876127d7565b8060051b9150612398848301612683565b8181528481019084860184860187018a10156123b2578788fd5b8795505b838610156123d45780358352600195909501949186019186016123b6565b5098975050505050505050565b6000602082840312156123f2578081fd5b5035919050565b60006020828403121561240a578081fd5b8135611012816127ed565b600060208284031215612426578081fd5b8151611012816127ed565b600060208284031215612442578081fd5b81356001600160401b03811115612457578182fd5b8201601f81018413612467578182fd5b611d0d8482356020840161216a565b60008060006040848603121561248a578081fd5b8335925060208401356001600160401b03808211156124a7578283fd5b818601915086601f8301126124ba578283fd5b8135818111156124c8578384fd5b8760208260051b85010111156124dc578384fd5b6020830194508093505050509250925092565b60008151808452612507816020860160208601612715565b601f01601f19169290920160200192915050565b6000835161252d818460208801612715565b835190830190612541818360208801612715565b01949350505050565b6001600160a01b038581168252841660208201526040810183905260806060820181905260009061257d908301846124ef565b9695505050505050565b60208152600061101260208301846124ef565b60208082526024908201527f4d696e74207265717565737420657863656564732063757272656e7420737570604082015263706c792160e01b606082015260800190565b60208082526022908201527f4d696e742072657175657374206578636565647320746f74616c20737570706c604082015261792160f01b606082015260800190565b60208082526014908201527310d85b1b195c881a5cc8184818dbdb9d1c9858dd60621b604082015260600190565b6020808252818101527f4f776e61626c653a2063616c6c6572206973206e6f7420746865206f776e6572604082015260600190565b604051601f8201601f191681016001600160401b03811182821017156126ab576126ab6127d7565b604052919050565b600082198211156126c6576126c66127ab565b500190565b6000826126da576126da6127c1565b500490565b60008160001904831182151516156126f9576126f96127ab565b500290565b600082821015612710576127106127ab565b500390565b60005b83811015612730578181015183820152602001612718565b83811115610f5e5750506000910152565b600181811c9082168061275557607f821691505b6020821081141561277657634e487b7160e01b600052602260045260246000fd5b50919050565b6000600019821415612790576127906127ab565b5060010190565b6000826127a6576127a66127c1565b500690565b634e487b7160e01b600052601160045260246000fd5b634e487b7160e01b600052601260045260246000fd5b634e487b7160e01b600052604160045260246000fd5b6001600160e01b0319811681146113f357600080fdfeddf252ad1be2c89b69c2b068fc378daa952ba7f163c4a11628f55a4df523b3efa2646970667358221220fce70dd1b8c12d5519ddfc6e1796a71bb11353209e234cee37327e475c13bf9564736f6c63430008040033",
          "opcodes": "PUSH1 0x80 PUSH1 0x40 MSTORE PUSH1 0x0 PUSH1 0x3C DUP2 SWAP1 SSTORE PUSH2 0x425 DUP2 SWAP1 SSTORE PUSH2 0x426 DUP2 SWAP1 SSTORE PUSH2 0x427 DUP1 SLOAD PUSH2 0xFFFF NOT AND SWAP1 SSTORE PUSH2 0x42C DUP1 SLOAD PUSH1 0xFF NOT AND SWAP1 SSTORE PUSH2 0x42D SSTORE PUSH2 0x42E DUP1 SLOAD PUSH1 0x1 PUSH1 0x1 PUSH1 0xA0 SHL SUB NOT AND PUSH20 0xF8E807027C4F6D0968C8C4742508D136D926A981 OR SWAP1 SSTORE CALLVALUE DUP1 ISZERO PUSH3 0x66 JUMPI PUSH1 0x0 DUP1 REVERT JUMPDEST POP PUSH1 0x40 MLOAD PUSH3 0x2BC9 CODESIZE SUB DUP1 PUSH3 0x2BC9 DUP4 CODECOPY DUP2 ADD PUSH1 0x40 DUP2 SWAP1 MSTORE PUSH3 0x89 SWAP2 PUSH3 0x22E JUMP JUMPDEST PUSH1 0x40 MLOAD DUP1 PUSH1 0x40 ADD PUSH1 0x40 MSTORE DUP1 PUSH1 0x6 DUP2 MSTORE PUSH1 0x20 ADD PUSH6 0x566962657273 PUSH1 0xD0 SHL DUP2 MSTORE POP PUSH1 0x40 MLOAD DUP1 PUSH1 0x40 ADD PUSH1 0x40 MSTORE DUP1 PUSH1 0x4 DUP2 MSTORE PUSH1 0x20 ADD PUSH4 0x56494245 PUSH1 0xE0 SHL DUP2 MSTORE POP PUSH3 0xDF PUSH3 0xD9 PUSH3 0x134 PUSH1 0x20 SHL PUSH1 0x20 SHR JUMP JUMPDEST PUSH3 0x138 JUMP JUMPDEST DUP2 MLOAD PUSH3 0xF4 SWAP1 PUSH1 0x3 SWAP1 PUSH1 0x20 DUP6 ADD SWAP1 PUSH3 0x188 JUMP JUMPDEST POP DUP1 MLOAD PUSH3 0x10A SWAP1 PUSH1 0x4 SWAP1 PUSH1 0x20 DUP5 ADD SWAP1 PUSH3 0x188 JUMP JUMPDEST POP PUSH1 0x0 PUSH1 0x1 SSTORE POP POP DUP2 MLOAD PUSH3 0x128 SWAP1 PUSH2 0x42B SWAP1 PUSH1 0x20 DUP6 ADD SWAP1 PUSH3 0x188 JUMP JUMPDEST POP PUSH2 0x42A SSTORE POP PUSH3 0x360 JUMP JUMPDEST CALLER SWAP1 JUMP JUMPDEST PUSH1 0x0 DUP1 SLOAD PUSH1 0x1 PUSH1 0x1 PUSH1 0xA0 SHL SUB DUP4 DUP2 AND PUSH1 0x1 PUSH1 0x1 PUSH1 0xA0 SHL SUB NOT DUP4 AND DUP2 OR DUP5 SSTORE PUSH1 0x40 MLOAD SWAP2 SWAP1 SWAP3 AND SWAP3 DUP4 SWAP2 PUSH32 0x8BE0079C531659141344CD1FD0A4F28419497F9722A3DAAFE3B4186F6B6457E0 SWAP2 SWAP1 LOG3 POP POP JUMP JUMPDEST DUP3 DUP1 SLOAD PUSH3 0x196 SWAP1 PUSH3 0x30D JUMP JUMPDEST SWAP1 PUSH1 0x0 MSTORE PUSH1 0x20 PUSH1 0x0 KECCAK256 SWAP1 PUSH1 0x1F ADD PUSH1 0x20 SWAP1 DIV DUP2 ADD SWAP3 DUP3 PUSH3 0x1BA JUMPI PUSH1 0x0 DUP6 SSTORE PUSH3 0x205 JUMP JUMPDEST DUP3 PUSH1 0x1F LT PUSH3 0x1D5 JUMPI DUP1 MLOAD PUSH1 0xFF NOT AND DUP4 DUP1 ADD OR DUP6 SSTORE PUSH3 0x205 JUMP JUMPDEST DUP3 DUP1 ADD PUSH1 0x1 ADD DUP6 SSTORE DUP3 ISZERO PUSH3 0x205 JUMPI SWAP2 DUP3 ADD JUMPDEST DUP3 DUP2 GT ISZERO PUSH3 0x205 JUMPI DUP3 MLOAD DUP3 SSTORE SWAP2 PUSH1 0x20 ADD SWAP2 SWAP1 PUSH1 0x1 ADD SWAP1 PUSH3 0x1E8 JUMP JUMPDEST POP PUSH3 0x213 SWAP3 SWAP2 POP PUSH3 0x217 JUMP JUMPDEST POP SWAP1 JUMP JUMPDEST JUMPDEST DUP1 DUP3 GT ISZERO PUSH3 0x213 JUMPI PUSH1 0x0 DUP2 SSTORE PUSH1 0x1 ADD PUSH3 0x218 JUMP JUMPDEST PUSH1 0x0 DUP1 PUSH1 0x40 DUP4 DUP6 SUB SLT ISZERO PUSH3 0x241 JUMPI DUP2 DUP3 REVERT JUMPDEST DUP3 MLOAD PUSH1 0x1 PUSH1 0x1 PUSH1 0x40 SHL SUB DUP1 DUP3 GT ISZERO PUSH3 0x258 JUMPI DUP4 DUP5 REVERT JUMPDEST DUP2 DUP6 ADD SWAP2 POP DUP6 PUSH1 0x1F DUP4 ADD SLT PUSH3 0x26C JUMPI DUP4 DUP5 REVERT JUMPDEST DUP2 MLOAD DUP2 DUP2 GT ISZERO PUSH3 0x281 JUMPI PUSH3 0x281 PUSH3 0x34A JUMP JUMPDEST PUSH1 0x40 MLOAD PUSH1 0x1F DUP3 ADD PUSH1 0x1F NOT SWAP1 DUP2 AND PUSH1 0x3F ADD AND DUP2 ADD SWAP1 DUP4 DUP3 GT DUP2 DUP4 LT OR ISZERO PUSH3 0x2AC JUMPI PUSH3 0x2AC PUSH3 0x34A JUMP JUMPDEST DUP2 PUSH1 0x40 MSTORE DUP3 DUP2 MSTORE PUSH1 0x20 SWAP4 POP DUP9 DUP5 DUP5 DUP8 ADD ADD GT ISZERO PUSH3 0x2C8 JUMPI DUP7 DUP8 REVERT JUMPDEST DUP7 SWAP2 POP JUMPDEST DUP3 DUP3 LT ISZERO PUSH3 0x2EB JUMPI DUP5 DUP3 ADD DUP5 ADD MLOAD DUP2 DUP4 ADD DUP6 ADD MSTORE SWAP1 DUP4 ADD SWAP1 PUSH3 0x2CC JUMP JUMPDEST DUP3 DUP3 GT ISZERO PUSH3 0x2FC JUMPI DUP7 DUP5 DUP5 DUP4 ADD ADD MSTORE JUMPDEST SWAP7 SWAP1 SWAP3 ADD MLOAD SWAP6 SWAP8 SWAP6 SWAP7 POP POP POP POP POP POP JUMP JUMPDEST PUSH1 0x1 DUP2 DUP2 SHR SWAP1 DUP3 AND DUP1 PUSH3 0x322 JUMPI PUSH1 0x7F DUP3 AND SWAP2 POP JUMPDEST PUSH1 0x20 DUP3 LT DUP2 EQ ISZERO PUSH3 0x344 JUMPI PUSH4 0x4E487B71 PUSH1 0xE0 SHL PUSH1 0x0 MSTORE PUSH1 0x22 PUSH1 0x4 MSTORE PUSH1 0x24 PUSH1 0x0 REVERT JUMPDEST POP SWAP2 SWAP1 POP JUMP JUMPDEST PUSH4 0x4E487B71 PUSH1 0xE0 SHL PUSH1 0x0 MSTORE PUSH1 0x41 PUSH1 0x4 MSTORE PUSH1 0x24 PUSH1 0x0 REVERT JUMPDEST PUSH2 0x2859 DUP1 PUSH3 0x370 PUSH1 0x0 CODECOPY PUSH1 0x0 RETURN INVALID PUSH1 0x80 PUSH1 0x40 MSTORE PUSH1 0x4 CALLDATASIZE LT PUSH2 0x20F JUMPI PUSH1 0x0 CALLDATALOAD PUSH1 0xE0 SHR DUP1 PUSH4 0x715018A6 GT PUSH2 0x118 JUMPI DUP1 PUSH4 0xBD32FB66 GT PUSH2 0xA0 JUMPI DUP1 PUSH4 0xE985E9C5 GT PUSH2 0x6F JUMPI DUP1 PUSH4 0xE985E9C5 EQ PUSH2 0x5C7 JUMPI DUP1 PUSH4 0xF2FDE38B EQ PUSH2 0x610 JUMPI DUP1 PUSH4 0xF4A0A528 EQ PUSH2 0x630 JUMPI DUP1 PUSH4 0xF6651CDD EQ PUSH2 0x650 JUMPI DUP1 PUSH4 0xFDD4B0F0 EQ PUSH2 0x670 JUMPI PUSH1 0x0 DUP1 REVERT JUMPDEST DUP1 PUSH4 0xBD32FB66 EQ PUSH2 0x55F JUMPI DUP1 PUSH4 0xC87B56DD EQ PUSH2 0x57F JUMPI DUP1 PUSH4 0xD111515D EQ PUSH2 0x59F JUMPI DUP1 PUSH4 0xD2CAB056 EQ PUSH2 0x5B4 JUMPI PUSH1 0x0 DUP1 REVERT JUMPDEST DUP1 PUSH4 0xA0712D68 GT PUSH2 0xE7 JUMPI DUP1 PUSH4 0xA0712D68 EQ PUSH2 0x4DE JUMPI DUP1 PUSH4 0xA22CB465 EQ PUSH2 0x4F1 JUMPI DUP1 PUSH4 0xA7F93EBD EQ PUSH2 0x511 JUMPI DUP1 PUSH4 0xB61C1A6F EQ PUSH2 0x526 JUMPI DUP1 PUSH4 0xB88D4FDE EQ PUSH2 0x53F JUMPI PUSH1 0x0 DUP1 REVERT JUMPDEST DUP1 PUSH4 0x715018A6 EQ PUSH2 0x468 JUMPI DUP1 PUSH4 0x7630A55A EQ PUSH2 0x47D JUMPI DUP1 PUSH4 0x8DA5CB5B EQ PUSH2 0x4AB JUMPI DUP1 PUSH4 0x95D89B41 EQ PUSH2 0x4C9 JUMPI PUSH1 0x0 DUP1 REVERT JUMPDEST DUP1 PUSH4 0x23B872DD GT PUSH2 0x19B JUMPI DUP1 PUSH4 0x4C0F38C2 GT PUSH2 0x16A JUMPI DUP1 PUSH4 0x4C0F38C2 EQ PUSH2 0x3C5 JUMPI DUP1 PUSH4 0x55F804B3 EQ PUSH2 0x3DA JUMPI DUP1 PUSH4 0x6352211E EQ PUSH2 0x3FA JUMPI DUP1 PUSH4 0x6701CFF7 EQ PUSH2 0x41A JUMPI DUP1 PUSH4 0x70A08231 EQ PUSH2 0x448 JUMPI PUSH1 0x0 DUP1 REVERT JUMPDEST DUP1 PUSH4 0x23B872DD EQ PUSH2 0x35B JUMPI DUP1 PUSH4 0x24600FC3 EQ PUSH2 0x37B JUMPI DUP1 PUSH4 0x26C3F3DA EQ PUSH2 0x390 JUMPI DUP1 PUSH4 0x42842E0E EQ PUSH2 0x3A5 JUMPI PUSH1 0x0 DUP1 REVERT JUMPDEST DUP1 PUSH4 0x95EA7B3 GT PUSH2 0x1E2 JUMPI DUP1 PUSH4 0x95EA7B3 EQ PUSH2 0x2D1 JUMPI DUP1 PUSH4 0xA3ED96E EQ PUSH2 0x2F3 JUMPI DUP1 PUSH4 0x18160DDD EQ PUSH2 0x313 JUMPI DUP1 PUSH4 0x1C8B232D EQ PUSH2 0x32C JUMPI DUP1 PUSH4 0x216A08D4 EQ PUSH2 0x345 JUMPI PUSH1 0x0 DUP1 REVERT JUMPDEST DUP1 PUSH4 0x1FFC9A7 EQ PUSH2 0x214 JUMPI DUP1 PUSH4 0x64A3600 EQ PUSH2 0x249 JUMPI DUP1 PUSH4 0x6FDDE03 EQ PUSH2 0x277 JUMPI DUP1 PUSH4 0x81812FC EQ PUSH2 0x299 JUMPI JUMPDEST PUSH1 0x0 DUP1 REVERT JUMPDEST CALLVALUE DUP1 ISZERO PUSH2 0x220 JUMPI PUSH1 0x0 DUP1 REVERT JUMPDEST POP PUSH2 0x234 PUSH2 0x22F CALLDATASIZE PUSH1 0x4 PUSH2 0x23F9 JUMP JUMPDEST PUSH2 0x68E JUMP JUMPDEST PUSH1 0x40 MLOAD SWAP1 ISZERO ISZERO DUP2 MSTORE PUSH1 0x20 ADD JUMPDEST PUSH1 0x40 MLOAD DUP1 SWAP2 SUB SWAP1 RETURN JUMPDEST CALLVALUE DUP1 ISZERO PUSH2 0x255 JUMPI PUSH1 0x0 DUP1 REVERT JUMPDEST POP PUSH2 0x269 PUSH2 0x264 CALLDATASIZE PUSH1 0x4 PUSH2 0x233A JUMP JUMPDEST PUSH2 0x6E0 JUMP JUMPDEST PUSH1 0x40 MLOAD SWAP1 DUP2 MSTORE PUSH1 0x20 ADD PUSH2 0x240 JUMP JUMPDEST CALLVALUE DUP1 ISZERO PUSH2 0x283 JUMPI PUSH1 0x0 DUP1 REVERT JUMPDEST POP PUSH2 0x28C PUSH2 0x719 JUMP JUMPDEST PUSH1 0x40 MLOAD PUSH2 0x240 SWAP2 SWAP1 PUSH2 0x2587 JUMP JUMPDEST CALLVALUE DUP1 ISZERO PUSH2 0x2A5 JUMPI PUSH1 0x0 DUP1 REVERT JUMPDEST POP PUSH2 0x2B9 PUSH2 0x2B4 CALLDATASIZE PUSH1 0x4 PUSH2 0x23E1 JUMP JUMPDEST PUSH2 0x7AB JUMP JUMPDEST PUSH1 0x40 MLOAD PUSH1 0x1 PUSH1 0x1 PUSH1 0xA0 SHL SUB SWAP1 SWAP2 AND DUP2 MSTORE PUSH1 0x20 ADD PUSH2 0x240 JUMP JUMPDEST CALLVALUE DUP1 ISZERO PUSH2 0x2DD JUMPI PUSH1 0x0 DUP1 REVERT JUMPDEST POP PUSH2 0x2F1 PUSH2 0x2EC CALLDATASIZE PUSH1 0x4 PUSH2 0x2311 JUMP JUMPDEST PUSH2 0x7EF JUMP JUMPDEST STOP JUMPDEST CALLVALUE DUP1 ISZERO PUSH2 0x2FF JUMPI PUSH1 0x0 DUP1 REVERT JUMPDEST POP PUSH2 0x2F1 PUSH2 0x30E CALLDATASIZE PUSH1 0x4 PUSH2 0x23E1 JUMP JUMPDEST PUSH2 0x876 JUMP JUMPDEST CALLVALUE DUP1 ISZERO PUSH2 0x31F JUMPI PUSH1 0x0 DUP1 REVERT JUMPDEST POP PUSH1 0x2 SLOAD PUSH1 0x1 SLOAD SUB PUSH2 0x269 JUMP JUMPDEST CALLVALUE DUP1 ISZERO PUSH2 0x338 JUMPI PUSH1 0x0 DUP1 REVERT JUMPDEST POP PUSH2 0x427 SLOAD PUSH1 0xFF AND PUSH2 0x234 JUMP JUMPDEST CALLVALUE DUP1 ISZERO PUSH2 0x351 JUMPI PUSH1 0x0 DUP1 REVERT JUMPDEST POP PUSH2 0x426 SLOAD PUSH2 0x269 JUMP JUMPDEST CALLVALUE DUP1 ISZERO PUSH2 0x367 JUMPI PUSH1 0x0 DUP1 REVERT JUMPDEST POP PUSH2 0x2F1 PUSH2 0x376 CALLDATASIZE PUSH1 0x4 PUSH2 0x2224 JUMP JUMPDEST PUSH2 0x9A2 JUMP JUMPDEST CALLVALUE DUP1 ISZERO PUSH2 0x387 JUMPI PUSH1 0x0 DUP1 REVERT JUMPDEST POP PUSH2 0x2F1 PUSH2 0x9AD JUMP JUMPDEST CALLVALUE DUP1 ISZERO PUSH2 0x39C JUMPI PUSH1 0x0 DUP1 REVERT JUMPDEST POP PUSH2 0x2F1 PUSH2 0x9EC JUMP JUMPDEST CALLVALUE DUP1 ISZERO PUSH2 0x3B1 JUMPI PUSH1 0x0 DUP1 REVERT JUMPDEST POP PUSH2 0x2F1 PUSH2 0x3C0 CALLDATASIZE PUSH1 0x4 PUSH2 0x2224 JUMP JUMPDEST PUSH2 0xB39 JUMP JUMPDEST CALLVALUE DUP1 ISZERO PUSH2 0x3D1 JUMPI PUSH1 0x0 DUP1 REVERT JUMPDEST POP PUSH2 0x3E8 PUSH2 0x269 JUMP JUMPDEST CALLVALUE DUP1 ISZERO PUSH2 0x3E6 JUMPI PUSH1 0x0 DUP1 REVERT JUMPDEST POP PUSH2 0x2F1 PUSH2 0x3F5 CALLDATASIZE PUSH1 0x4 PUSH2 0x2431 JUMP JUMPDEST PUSH2 0xB54 JUMP JUMPDEST CALLVALUE DUP1 ISZERO PUSH2 0x406 JUMPI PUSH1 0x0 DUP1 REVERT JUMPDEST POP PUSH2 0x2B9 PUSH2 0x415 CALLDATASIZE PUSH1 0x4 PUSH2 0x23E1 JUMP JUMPDEST PUSH2 0xBFF JUMP JUMPDEST CALLVALUE DUP1 ISZERO PUSH2 0x426 JUMPI PUSH1 0x0 DUP1 REVERT JUMPDEST POP PUSH2 0x269 PUSH2 0x435 CALLDATASIZE PUSH1 0x4 PUSH2 0x21D8 JUMP JUMPDEST PUSH2 0x429 PUSH1 0x20 MSTORE PUSH1 0x0 SWAP1 DUP2 MSTORE PUSH1 0x40 SWAP1 KECCAK256 SLOAD DUP2 JUMP JUMPDEST CALLVALUE DUP1 ISZERO PUSH2 0x454 JUMPI PUSH1 0x0 DUP1 REVERT JUMPDEST POP PUSH2 0x269 PUSH2 0x463 CALLDATASIZE PUSH1 0x4 PUSH2 0x21D8 JUMP JUMPDEST PUSH2 0xC11 JUMP JUMPDEST CALLVALUE DUP1 ISZERO PUSH2 0x474 JUMPI PUSH1 0x0 DUP1 REVERT JUMPDEST POP PUSH2 0x2F1 PUSH2 0xC5F JUMP JUMPDEST CALLVALUE DUP1 ISZERO PUSH2 0x489 JUMPI PUSH1 0x0 DUP1 REVERT JUMPDEST POP PUSH2 0x269 PUSH2 0x498 CALLDATASIZE PUSH1 0x4 PUSH2 0x21D8 JUMP JUMPDEST PUSH2 0x428 PUSH1 0x20 MSTORE PUSH1 0x0 SWAP1 DUP2 MSTORE PUSH1 0x40 SWAP1 KECCAK256 SLOAD DUP2 JUMP JUMPDEST CALLVALUE DUP1 ISZERO PUSH2 0x4B7 JUMPI PUSH1 0x0 DUP1 REVERT JUMPDEST POP PUSH1 0x0 SLOAD PUSH1 0x1 PUSH1 0x1 PUSH1 0xA0 SHL SUB AND PUSH2 0x2B9 JUMP JUMPDEST CALLVALUE DUP1 ISZERO PUSH2 0x4D5 JUMPI PUSH1 0x0 DUP1 REVERT JUMPDEST POP PUSH2 0x28C PUSH2 0xC95 JUMP JUMPDEST PUSH2 0x2F1 PUSH2 0x4EC CALLDATASIZE PUSH1 0x4 PUSH2 0x23E1 JUMP JUMPDEST PUSH2 0xCA4 JUMP JUMPDEST CALLVALUE DUP1 ISZERO PUSH2 0x4FD JUMPI PUSH1 0x0 DUP1 REVERT JUMPDEST POP PUSH2 0x2F1 PUSH2 0x50C CALLDATASIZE PUSH1 0x4 PUSH2 0x22D7 JUMP JUMPDEST PUSH2 0xE84 JUMP JUMPDEST CALLVALUE DUP1 ISZERO PUSH2 0x51D JUMPI PUSH1 0x0 DUP1 REVERT JUMPDEST POP PUSH1 0x3C SLOAD PUSH2 0x269 JUMP JUMPDEST CALLVALUE DUP1 ISZERO PUSH2 0x532 JUMPI PUSH1 0x0 DUP1 REVERT JUMPDEST POP PUSH2 0x42C SLOAD PUSH1 0xFF AND PUSH2 0x234 JUMP JUMPDEST CALLVALUE DUP1 ISZERO PUSH2 0x54B JUMPI PUSH1 0x0 DUP1 REVERT JUMPDEST POP PUSH2 0x2F1 PUSH2 0x55A CALLDATASIZE PUSH1 0x4 PUSH2 0x225F JUMP JUMPDEST PUSH2 0xF1A JUMP JUMPDEST CALLVALUE DUP1 ISZERO PUSH2 0x56B JUMPI PUSH1 0x0 DUP1 REVERT JUMPDEST POP PUSH2 0x2F1 PUSH2 0x57A CALLDATASIZE PUSH1 0x4 PUSH2 0x23E1 JUMP JUMPDEST PUSH2 0xF64 JUMP JUMPDEST CALLVALUE DUP1 ISZERO PUSH2 0x58B JUMPI PUSH1 0x0 DUP1 REVERT JUMPDEST POP PUSH2 0x28C PUSH2 0x59A CALLDATASIZE PUSH1 0x4 PUSH2 0x23E1 JUMP JUMPDEST PUSH2 0xF94 JUMP JUMPDEST CALLVALUE DUP1 ISZERO PUSH2 0x5AB JUMPI PUSH1 0x0 DUP1 REVERT JUMPDEST POP PUSH2 0x2F1 PUSH2 0x1019 JUMP JUMPDEST PUSH2 0x2F1 PUSH2 0x5C2 CALLDATASIZE PUSH1 0x4 PUSH2 0x2476 JUMP JUMPDEST PUSH2 0x10B5 JUMP JUMPDEST CALLVALUE DUP1 ISZERO PUSH2 0x5D3 JUMPI PUSH1 0x0 DUP1 REVERT JUMPDEST POP PUSH2 0x234 PUSH2 0x5E2 CALLDATASIZE PUSH1 0x4 PUSH2 0x21F2 JUMP JUMPDEST PUSH1 0x1 PUSH1 0x1 PUSH1 0xA0 SHL SUB SWAP2 DUP3 AND PUSH1 0x0 SWAP1 DUP2 MSTORE PUSH1 0x8 PUSH1 0x20 SWAP1 DUP2 MSTORE PUSH1 0x40 DUP1 DUP4 KECCAK256 SWAP4 SWAP1 SWAP5 AND DUP3 MSTORE SWAP2 SWAP1 SWAP2 MSTORE KECCAK256 SLOAD PUSH1 0xFF AND SWAP1 JUMP JUMPDEST CALLVALUE DUP1 ISZERO PUSH2 0x61C JUMPI PUSH1 0x0 DUP1 REVERT JUMPDEST POP PUSH2 0x2F1 PUSH2 0x62B CALLDATASIZE PUSH1 0x4 PUSH2 0x21D8 JUMP JUMPDEST PUSH2 0x135B JUMP JUMPDEST CALLVALUE DUP1 ISZERO PUSH2 0x63C JUMPI PUSH1 0x0 DUP1 REVERT JUMPDEST POP PUSH2 0x2F1 PUSH2 0x64B CALLDATASIZE PUSH1 0x4 PUSH2 0x23E1 JUMP JUMPDEST PUSH2 0x13F6 JUMP JUMPDEST CALLVALUE DUP1 ISZERO PUSH2 0x65C JUMPI PUSH1 0x0 DUP1 REVERT JUMPDEST POP PUSH2 0x2F1 PUSH2 0x66B CALLDATASIZE PUSH1 0x4 PUSH2 0x23E1 JUMP JUMPDEST PUSH2 0x149C JUMP JUMPDEST CALLVALUE DUP1 ISZERO PUSH2 0x67C JUMPI PUSH1 0x0 DUP1 REVERT JUMPDEST POP PUSH2 0x427 SLOAD PUSH2 0x100 SWAP1 DIV PUSH1 0xFF AND PUSH2 0x234 JUMP JUMPDEST PUSH1 0x0 PUSH1 0x1 PUSH1 0x1 PUSH1 0xE0 SHL SUB NOT DUP3 AND PUSH4 0x80AC58CD PUSH1 0xE0 SHL EQ DUP1 PUSH2 0x6BF JUMPI POP PUSH1 0x1 PUSH1 0x1 PUSH1 0xE0 SHL SUB NOT DUP3 AND PUSH4 0x5B5E139F PUSH1 0xE0 SHL EQ JUMPDEST DUP1 PUSH2 0x6DA JUMPI POP PUSH4 0x1FFC9A7 PUSH1 0xE0 SHL PUSH1 0x1 PUSH1 0x1 PUSH1 0xE0 SHL SUB NOT DUP4 AND EQ JUMPDEST SWAP3 SWAP2 POP POP JUMP JUMPDEST PUSH1 0x0 PUSH2 0x6EB DUP3 PUSH2 0x1564 JUMP JUMPDEST ISZERO PUSH2 0x70C JUMPI CALLER PUSH1 0x0 SWAP1 DUP2 MSTORE PUSH2 0x428 PUSH1 0x20 MSTORE PUSH1 0x40 SWAP1 KECCAK256 SLOAD PUSH2 0x6DA SWAP1 PUSH1 0x2 PUSH2 0x26FE JUMP JUMPDEST POP PUSH1 0x0 SWAP2 SWAP1 POP JUMP JUMPDEST SWAP2 SWAP1 POP JUMP JUMPDEST PUSH1 0x60 PUSH1 0x3 DUP1 SLOAD PUSH2 0x728 SWAP1 PUSH2 0x2741 JUMP JUMPDEST DUP1 PUSH1 0x1F ADD PUSH1 0x20 DUP1 SWAP2 DIV MUL PUSH1 0x20 ADD PUSH1 0x40 MLOAD SWAP1 DUP2 ADD PUSH1 0x40 MSTORE DUP1 SWAP3 SWAP2 SWAP1 DUP2 DUP2 MSTORE PUSH1 0x20 ADD DUP3 DUP1 SLOAD PUSH2 0x754 SWAP1 PUSH2 0x2741 JUMP JUMPDEST DUP1 ISZERO PUSH2 0x7A1 JUMPI DUP1 PUSH1 0x1F LT PUSH2 0x776 JUMPI PUSH2 0x100 DUP1 DUP4 SLOAD DIV MUL DUP4 MSTORE SWAP2 PUSH1 0x20 ADD SWAP2 PUSH2 0x7A1 JUMP JUMPDEST DUP3 ADD SWAP2 SWAP1 PUSH1 0x0 MSTORE PUSH1 0x20 PUSH1 0x0 KECCAK256 SWAP1 JUMPDEST DUP2 SLOAD DUP2 MSTORE SWAP1 PUSH1 0x1 ADD SWAP1 PUSH1 0x20 ADD DUP1 DUP4 GT PUSH2 0x784 JUMPI DUP3 SWAP1 SUB PUSH1 0x1F AND DUP3 ADD SWAP2 JUMPDEST POP POP POP POP POP SWAP1 POP SWAP1 JUMP JUMPDEST PUSH1 0x0 PUSH2 0x7B6 DUP3 PUSH2 0x1574 JUMP JUMPDEST PUSH2 0x7D3 JUMPI PUSH1 0x40 MLOAD PUSH4 0x33D1C039 PUSH1 0xE2 SHL DUP2 MSTORE PUSH1 0x4 ADD PUSH1 0x40 MLOAD DUP1 SWAP2 SUB SWAP1 REVERT JUMPDEST POP PUSH1 0x0 SWAP1 DUP2 MSTORE PUSH1 0x7 PUSH1 0x20 MSTORE PUSH1 0x40 SWAP1 KECCAK256 SLOAD PUSH1 0x1 PUSH1 0x1 PUSH1 0xA0 SHL SUB AND SWAP1 JUMP JUMPDEST PUSH1 0x0 PUSH2 0x7FA DUP3 PUSH2 0xBFF JUMP JUMPDEST SWAP1 POP DUP1 PUSH1 0x1 PUSH1 0x1 PUSH1 0xA0 SHL SUB AND DUP4 PUSH1 0x1 PUSH1 0x1 PUSH1 0xA0 SHL SUB AND EQ ISZERO PUSH2 0x82F JUMPI PUSH1 0x40 MLOAD PUSH4 0x250FDEE3 PUSH1 0xE2 SHL DUP2 MSTORE PUSH1 0x4 ADD PUSH1 0x40 MLOAD DUP1 SWAP2 SUB SWAP1 REVERT JUMPDEST CALLER PUSH1 0x1 PUSH1 0x1 PUSH1 0xA0 SHL SUB DUP3 AND EQ PUSH2 0x866 JUMPI PUSH2 0x849 DUP2 CALLER PUSH2 0x5E2 JUMP JUMPDEST PUSH2 0x866 JUMPI PUSH1 0x40 MLOAD PUSH4 0x67D9DCA1 PUSH1 0xE1 SHL DUP2 MSTORE PUSH1 0x4 ADD PUSH1 0x40 MLOAD DUP1 SWAP2 SUB SWAP1 REVERT JUMPDEST PUSH2 0x871 DUP4 DUP4 DUP4 PUSH2 0x15A0 JUMP JUMPDEST POP POP POP JUMP JUMPDEST PUSH1 0x0 SLOAD PUSH1 0x1 PUSH1 0x1 PUSH1 0xA0 SHL SUB AND CALLER EQ PUSH2 0x8A9 JUMPI PUSH1 0x40 MLOAD PUSH3 0x461BCD PUSH1 0xE5 SHL DUP2 MSTORE PUSH1 0x4 ADD PUSH2 0x8A0 SWAP1 PUSH2 0x264E JUMP JUMPDEST PUSH1 0x40 MLOAD DUP1 SWAP2 SUB SWAP1 REVERT JUMPDEST PUSH2 0x427 SLOAD PUSH2 0x100 SWAP1 DIV PUSH1 0xFF AND ISZERO PUSH2 0x902 JUMPI PUSH1 0x40 MLOAD PUSH3 0x461BCD PUSH1 0xE5 SHL DUP2 MSTORE PUSH1 0x20 PUSH1 0x4 DUP3 ADD MSTORE PUSH1 0x1F PUSH1 0x24 DUP3 ADD MSTORE PUSH32 0x5075626C6963206D696E742068617320616C7265616479207374617274656400 PUSH1 0x44 DUP3 ADD MSTORE PUSH1 0x64 ADD PUSH2 0x8A0 JUMP JUMPDEST PUSH2 0x427 SLOAD PUSH1 0xFF AND PUSH2 0x961 JUMPI PUSH1 0x40 MLOAD PUSH3 0x461BCD PUSH1 0xE5 SHL DUP2 MSTORE PUSH1 0x20 PUSH1 0x4 DUP3 ADD MSTORE PUSH1 0x24 DUP1 DUP3 ADD MSTORE PUSH32 0x57686974656C697374206D696E74206D75737420626520737461727465642066 PUSH1 0x44 DUP3 ADD MSTORE PUSH4 0x1A5C9CDD PUSH1 0xE2 SHL PUSH1 0x64 DUP3 ADD MSTORE PUSH1 0x84 ADD PUSH2 0x8A0 JUMP JUMPDEST PUSH1 0x3C DUP2 SWAP1 SSTORE PUSH2 0x427 DUP1 SLOAD PUSH2 0xFF00 NOT AND PUSH2 0x100 OR SWAP1 SSTORE PUSH1 0x40 MLOAD PUSH32 0xD027BA160F7E3111418D8CAC41DC57DD841A8248C1D30FAE2612F8499979DBB2 SWAP1 PUSH1 0x0 SWAP1 LOG1 POP JUMP JUMPDEST PUSH2 0x871 DUP4 DUP4 DUP4 PUSH2 0x15FC JUMP JUMPDEST PUSH2 0x42E SLOAD PUSH1 0x40 MLOAD SELFBALANCE SWAP2 PUSH1 0x1 PUSH1 0x1 PUSH1 0xA0 SHL SUB AND SWAP1 DUP3 ISZERO PUSH2 0x8FC MUL SWAP1 DUP4 SWAP1 PUSH1 0x0 DUP2 DUP2 DUP2 DUP6 DUP9 DUP9 CALL SWAP4 POP POP POP POP ISZERO DUP1 ISZERO PUSH2 0x9E8 JUMPI RETURNDATASIZE PUSH1 0x0 DUP1 RETURNDATACOPY RETURNDATASIZE PUSH1 0x0 REVERT JUMPDEST POP POP JUMP JUMPDEST PUSH1 0x0 SLOAD PUSH1 0x1 PUSH1 0x1 PUSH1 0xA0 SHL SUB AND CALLER EQ PUSH2 0xA16 JUMPI PUSH1 0x40 MLOAD PUSH3 0x461BCD PUSH1 0xE5 SHL DUP2 MSTORE PUSH1 0x4 ADD PUSH2 0x8A0 SWAP1 PUSH2 0x264E JUMP JUMPDEST PUSH2 0x427 SLOAD PUSH2 0x100 SWAP1 DIV PUSH1 0xFF AND ISZERO PUSH2 0xA6F JUMPI PUSH1 0x40 MLOAD PUSH3 0x461BCD PUSH1 0xE5 SHL DUP2 MSTORE PUSH1 0x20 PUSH1 0x4 DUP3 ADD MSTORE PUSH1 0x18 PUSH1 0x24 DUP3 ADD MSTORE PUSH32 0x53616C652068617320616C726561647920737461727465640000000000000000 PUSH1 0x44 DUP3 ADD MSTORE PUSH1 0x64 ADD PUSH2 0x8A0 JUMP JUMPDEST PUSH1 0x40 PUSH2 0x42D SLOAD LT PUSH2 0xACE JUMPI PUSH1 0x40 MLOAD PUSH3 0x461BCD PUSH1 0xE5 SHL DUP2 MSTORE PUSH1 0x20 PUSH1 0x4 DUP3 ADD MSTORE PUSH1 0x23 PUSH1 0x24 DUP3 ADD MSTORE PUSH32 0x44657620737570706C792068617320616C7265616479206265656E2061776172 PUSH1 0x44 DUP3 ADD MSTORE PUSH3 0x191959 PUSH1 0xEA SHL PUSH1 0x64 DUP3 ADD MSTORE PUSH1 0x84 ADD PUSH2 0x8A0 JUMP JUMPDEST PUSH1 0x0 DUP1 JUMPDEST PUSH1 0x20 DUP3 LT ISZERO PUSH2 0xB22 JUMPI PUSH2 0xAE3 PUSH2 0x17D7 JUMP JUMPDEST PUSH2 0x42E SLOAD SWAP1 SWAP2 POP PUSH2 0xAFD SWAP1 PUSH1 0x1 PUSH1 0x1 PUSH1 0xA0 SHL SUB AND DUP3 PUSH2 0x198A JUMP JUMPDEST PUSH2 0x426 SLOAD PUSH2 0xB0C SWAP1 PUSH1 0x1 PUSH2 0x26B3 JUMP JUMPDEST PUSH2 0x426 SSTORE DUP2 PUSH2 0xB1A DUP2 PUSH2 0x277C JUMP JUMPDEST SWAP3 POP POP PUSH2 0xAD2 JUMP JUMPDEST PUSH2 0x42D SLOAD PUSH2 0xB31 SWAP1 PUSH1 0x1 PUSH2 0x26B3 JUMP JUMPDEST PUSH2 0x42D SSTORE POP POP JUMP JUMPDEST PUSH2 0x871 DUP4 DUP4 DUP4 PUSH1 0x40 MLOAD DUP1 PUSH1 0x20 ADD PUSH1 0x40 MSTORE DUP1 PUSH1 0x0 DUP2 MSTORE POP PUSH2 0xF1A JUMP JUMPDEST PUSH1 0x0 SLOAD PUSH1 0x1 PUSH1 0x1 PUSH1 0xA0 SHL SUB AND CALLER EQ PUSH2 0xB7E JUMPI PUSH1 0x40 MLOAD PUSH3 0x461BCD PUSH1 0xE5 SHL DUP2 MSTORE PUSH1 0x4 ADD PUSH2 0x8A0 SWAP1 PUSH2 0x264E JUMP JUMPDEST PUSH2 0x42C SLOAD PUSH1 0xFF AND ISZERO PUSH2 0xBEB JUMPI PUSH1 0x40 MLOAD PUSH3 0x461BCD PUSH1 0xE5 SHL DUP2 MSTORE PUSH1 0x20 PUSH1 0x4 DUP3 ADD MSTORE PUSH1 0x30 PUSH1 0x24 DUP3 ADD MSTORE PUSH32 0x43616E6E6F74206368616E6765206D6574616461746120616674657220746865 PUSH1 0x44 DUP3 ADD MSTORE PUSH16 0x206D6574616461746120667265657A65 PUSH1 0x80 SHL PUSH1 0x64 DUP3 ADD MSTORE PUSH1 0x84 ADD PUSH2 0x8A0 JUMP JUMPDEST DUP1 MLOAD PUSH2 0x9E8 SWAP1 PUSH2 0x42B SWAP1 PUSH1 0x20 DUP5 ADD SWAP1 PUSH2 0x20D1 JUMP JUMPDEST PUSH1 0x0 PUSH2 0xC0A DUP3 PUSH2 0x1A99 JUMP JUMPDEST MLOAD SWAP3 SWAP2 POP POP JUMP JUMPDEST PUSH1 0x0 PUSH1 0x1 PUSH1 0x1 PUSH1 0xA0 SHL SUB DUP3 AND PUSH2 0xC3A JUMPI PUSH1 0x40 MLOAD PUSH4 0x23D3AD81 PUSH1 0xE2 SHL DUP2 MSTORE PUSH1 0x4 ADD PUSH1 0x40 MLOAD DUP1 SWAP2 SUB SWAP1 REVERT JUMPDEST POP PUSH1 0x1 PUSH1 0x1 PUSH1 0xA0 SHL SUB AND PUSH1 0x0 SWAP1 DUP2 MSTORE PUSH1 0x6 PUSH1 0x20 MSTORE PUSH1 0x40 SWAP1 KECCAK256 SLOAD PUSH1 0x1 PUSH1 0x1 PUSH1 0x40 SHL SUB AND SWAP1 JUMP JUMPDEST PUSH1 0x0 SLOAD PUSH1 0x1 PUSH1 0x1 PUSH1 0xA0 SHL SUB AND CALLER EQ PUSH2 0xC89 JUMPI PUSH1 0x40 MLOAD PUSH3 0x461BCD PUSH1 0xE5 SHL DUP2 MSTORE PUSH1 0x4 ADD PUSH2 0x8A0 SWAP1 PUSH2 0x264E JUMP JUMPDEST PUSH2 0xC93 PUSH1 0x0 PUSH2 0x1BB3 JUMP JUMPDEST JUMP JUMPDEST PUSH1 0x60 PUSH1 0x4 DUP1 SLOAD PUSH2 0x728 SWAP1 PUSH2 0x2741 JUMP JUMPDEST CALLER ORIGIN DUP2 EQ PUSH2 0xCC4 JUMPI PUSH1 0x40 MLOAD PUSH3 0x461BCD PUSH1 0xE5 SHL DUP2 MSTORE PUSH1 0x4 ADD PUSH2 0x8A0 SWAP1 PUSH2 0x2620 JUMP JUMPDEST DUP1 EXTCODESIZE DUP1 ISZERO PUSH2 0xCE4 JUMPI PUSH1 0x40 MLOAD PUSH3 0x461BCD PUSH1 0xE5 SHL DUP2 MSTORE PUSH1 0x4 ADD PUSH2 0x8A0 SWAP1 PUSH2 0x2620 JUMP JUMPDEST PUSH2 0x427 SLOAD PUSH2 0x100 SWAP1 DIV PUSH1 0xFF AND PUSH2 0xD3C JUMPI PUSH1 0x40 MLOAD PUSH3 0x461BCD PUSH1 0xE5 SHL DUP2 MSTORE PUSH1 0x20 PUSH1 0x4 DUP3 ADD MSTORE PUSH1 0x19 PUSH1 0x24 DUP3 ADD MSTORE PUSH32 0x53616C6520686173206E6F742073746172746564207965742E00000000000000 PUSH1 0x44 DUP3 ADD MSTORE PUSH1 0x64 ADD PUSH2 0x8A0 JUMP JUMPDEST PUSH2 0x3E8 PUSH2 0x426 SLOAD LT PUSH2 0xD60 JUMPI PUSH1 0x40 MLOAD PUSH3 0x461BCD PUSH1 0xE5 SHL DUP2 MSTORE PUSH1 0x4 ADD PUSH2 0x8A0 SWAP1 PUSH2 0x25DE JUMP JUMPDEST PUSH1 0x0 DUP4 GT PUSH2 0xDAA JUMPI PUSH1 0x40 MLOAD PUSH3 0x461BCD PUSH1 0xE5 SHL DUP2 MSTORE PUSH1 0x20 PUSH1 0x4 DUP3 ADD MSTORE PUSH1 0x17 PUSH1 0x24 DUP3 ADD MSTORE PUSH23 0x26BAB9BA1036B4B73A1030BA103632B0B9BA1037B73297 PUSH1 0x49 SHL PUSH1 0x44 DUP3 ADD MSTORE PUSH1 0x64 ADD PUSH2 0x8A0 JUMP JUMPDEST PUSH1 0x4 DUP4 GT ISZERO PUSH2 0xDFB JUMPI PUSH1 0x40 MLOAD PUSH3 0x461BCD PUSH1 0xE5 SHL DUP2 MSTORE PUSH1 0x20 PUSH1 0x4 DUP3 ADD MSTORE PUSH1 0x1C PUSH1 0x24 DUP3 ADD MSTORE PUSH32 0x4D696E742065786365656473206C696D6974207065722063616C6C2E00000000 PUSH1 0x44 DUP3 ADD MSTORE PUSH1 0x64 ADD PUSH2 0x8A0 JUMP JUMPDEST PUSH2 0x426 SLOAD PUSH2 0xE0B SWAP1 PUSH2 0x3E8 PUSH2 0x26FE JUMP JUMPDEST DUP4 GT ISZERO PUSH2 0xE2A JUMPI PUSH1 0x40 MLOAD PUSH3 0x461BCD PUSH1 0xE5 SHL DUP2 MSTORE PUSH1 0x4 ADD PUSH2 0x8A0 SWAP1 PUSH2 0x259A JUMP JUMPDEST DUP3 PUSH1 0x3C SLOAD PUSH2 0xE38 SWAP2 SWAP1 PUSH2 0x26DF JUMP JUMPDEST CALLVALUE EQ PUSH2 0xE7A JUMPI PUSH1 0x40 MLOAD PUSH3 0x461BCD PUSH1 0xE5 SHL DUP2 MSTORE PUSH1 0x20 PUSH1 0x4 DUP3 ADD MSTORE PUSH1 0x11 PUSH1 0x24 DUP3 ADD MSTORE PUSH17 0x1B5CD9CB9D985B1D59481A5B9D985B1A59 PUSH1 0x7A SHL PUSH1 0x44 DUP3 ADD MSTORE PUSH1 0x64 ADD PUSH2 0x8A0 JUMP JUMPDEST PUSH2 0x871 CALLER DUP5 PUSH2 0x1C03 JUMP JUMPDEST PUSH1 0x1 PUSH1 0x1 PUSH1 0xA0 SHL SUB DUP3 AND CALLER EQ ISZERO PUSH2 0xEAE JUMPI PUSH1 0x40 MLOAD PUSH4 0xB06307DB PUSH1 0xE0 SHL DUP2 MSTORE PUSH1 0x4 ADD PUSH1 0x40 MLOAD DUP1 SWAP2 SUB SWAP1 REVERT JUMPDEST CALLER PUSH1 0x0 DUP2 DUP2 MSTORE PUSH1 0x8 PUSH1 0x20 SWAP1 DUP2 MSTORE PUSH1 0x40 DUP1 DUP4 KECCAK256 PUSH1 0x1 PUSH1 0x1 PUSH1 0xA0 SHL SUB DUP8 AND DUP1 DUP6 MSTORE SWAP1 DUP4 MSTORE SWAP3 DUP2 SWAP1 KECCAK256 DUP1 SLOAD PUSH1 0xFF NOT AND DUP7 ISZERO ISZERO SWAP1 DUP2 OR SWAP1 SWAP2 SSTORE SWAP1 MLOAD SWAP1 DUP2 MSTORE SWAP2 SWAP3 SWAP2 PUSH32 0x17307EAB39AB6107E8899845AD3D59BD9653F200F220920489CA2B5937696C31 SWAP2 ADD PUSH1 0x40 MLOAD DUP1 SWAP2 SUB SWAP1 LOG3 POP POP JUMP JUMPDEST PUSH2 0xF25 DUP5 DUP5 DUP5 PUSH2 0x15FC JUMP JUMPDEST PUSH1 0x1 PUSH1 0x1 PUSH1 0xA0 SHL SUB DUP4 AND EXTCODESIZE ISZERO PUSH2 0xF5E JUMPI PUSH2 0xF41 DUP5 DUP5 DUP5 DUP5 PUSH2 0x1C1D JUMP JUMPDEST PUSH2 0xF5E JUMPI PUSH1 0x40 MLOAD PUSH4 0x68D2BF6B PUSH1 0xE1 SHL DUP2 MSTORE PUSH1 0x4 ADD PUSH1 0x40 MLOAD DUP1 SWAP2 SUB SWAP1 REVERT JUMPDEST POP POP POP POP JUMP JUMPDEST PUSH1 0x0 SLOAD PUSH1 0x1 PUSH1 0x1 PUSH1 0xA0 SHL SUB AND CALLER EQ PUSH2 0xF8E JUMPI PUSH1 0x40 MLOAD PUSH3 0x461BCD PUSH1 0xE5 SHL DUP2 MSTORE PUSH1 0x4 ADD PUSH2 0x8A0 SWAP1 PUSH2 0x264E JUMP JUMPDEST PUSH2 0x42A SSTORE JUMP JUMPDEST PUSH1 0x60 PUSH2 0xF9F DUP3 PUSH2 0x1574 JUMP JUMPDEST PUSH2 0xFBC JUMPI PUSH1 0x40 MLOAD PUSH4 0xA14C4B5 PUSH1 0xE4 SHL DUP2 MSTORE PUSH1 0x4 ADD PUSH1 0x40 MLOAD DUP1 SWAP2 SUB SWAP1 REVERT JUMPDEST PUSH1 0x0 PUSH2 0xFC6 PUSH2 0x1D15 JUMP JUMPDEST SWAP1 POP DUP1 MLOAD PUSH1 0x0 EQ ISZERO PUSH2 0xFE7 JUMPI PUSH1 0x40 MLOAD DUP1 PUSH1 0x20 ADD PUSH1 0x40 MSTORE DUP1 PUSH1 0x0 DUP2 MSTORE POP PUSH2 0x1012 JUMP JUMPDEST DUP1 PUSH2 0xFF1 DUP5 PUSH2 0x1D25 JUMP JUMPDEST PUSH1 0x40 MLOAD PUSH1 0x20 ADD PUSH2 0x1002 SWAP3 SWAP2 SWAP1 PUSH2 0x251B JUMP JUMPDEST PUSH1 0x40 MLOAD PUSH1 0x20 DUP2 DUP4 SUB SUB DUP2 MSTORE SWAP1 PUSH1 0x40 MSTORE JUMPDEST SWAP4 SWAP3 POP POP POP JUMP JUMPDEST PUSH1 0x0 SLOAD PUSH1 0x1 PUSH1 0x1 PUSH1 0xA0 SHL SUB AND CALLER EQ PUSH2 0x1043 JUMPI PUSH1 0x40 MLOAD PUSH3 0x461BCD PUSH1 0xE5 SHL DUP2 MSTORE PUSH1 0x4 ADD PUSH2 0x8A0 SWAP1 PUSH2 0x264E JUMP JUMPDEST PUSH2 0x427 SLOAD PUSH2 0x100 SWAP1 DIV PUSH1 0xFF AND PUSH2 0x10A5 JUMPI PUSH1 0x40 MLOAD PUSH3 0x461BCD PUSH1 0xE5 SHL DUP2 MSTORE PUSH1 0x20 PUSH1 0x4 DUP3 ADD MSTORE PUSH1 0x21 PUSH1 0x24 DUP3 ADD MSTORE PUSH32 0x7075626C6963206D696E74206D75737420626520737461727465642066697273 PUSH1 0x44 DUP3 ADD MSTORE PUSH1 0x1D PUSH1 0xFA SHL PUSH1 0x64 DUP3 ADD MSTORE PUSH1 0x84 ADD PUSH2 0x8A0 JUMP JUMPDEST PUSH2 0x42C DUP1 SLOAD PUSH1 0xFF NOT AND PUSH1 0x1 OR SWAP1 SSTORE JUMP JUMPDEST CALLER ORIGIN DUP2 EQ PUSH2 0x10D5 JUMPI PUSH1 0x40 MLOAD PUSH3 0x461BCD PUSH1 0xE5 SHL DUP2 MSTORE PUSH1 0x4 ADD PUSH2 0x8A0 SWAP1 PUSH2 0x2620 JUMP JUMPDEST DUP1 EXTCODESIZE DUP1 ISZERO PUSH2 0x10F5 JUMPI PUSH1 0x40 MLOAD PUSH3 0x461BCD PUSH1 0xE5 SHL DUP2 MSTORE PUSH1 0x4 ADD PUSH2 0x8A0 SWAP1 PUSH2 0x2620 JUMP JUMPDEST DUP4 DUP4 DUP1 DUP1 PUSH1 0x20 MUL PUSH1 0x20 ADD PUSH1 0x40 MLOAD SWAP1 DUP2 ADD PUSH1 0x40 MSTORE DUP1 SWAP4 SWAP3 SWAP2 SWAP1 DUP2 DUP2 MSTORE PUSH1 0x20 ADD DUP4 DUP4 PUSH1 0x20 MUL DUP1 DUP3 DUP5 CALLDATACOPY PUSH1 0x0 SWAP3 ADD SWAP2 SWAP1 SWAP2 MSTORE POP PUSH2 0x1134 SWAP3 POP DUP4 SWAP2 POP PUSH2 0x1564 SWAP1 POP JUMP JUMPDEST PUSH2 0x1180 JUMPI PUSH1 0x40 MLOAD PUSH3 0x461BCD PUSH1 0xE5 SHL DUP2 MSTORE PUSH1 0x20 PUSH1 0x4 DUP3 ADD MSTORE PUSH1 0x19 PUSH1 0x24 DUP3 ADD MSTORE PUSH32 0x43616C6C6572206973206E6F742077686974656C697374656400000000000000 PUSH1 0x44 DUP3 ADD MSTORE PUSH1 0x64 ADD PUSH2 0x8A0 JUMP JUMPDEST CALLER PUSH1 0x0 SWAP1 DUP2 MSTORE PUSH2 0x428 PUSH1 0x20 MSTORE PUSH1 0x40 DUP2 KECCAK256 SLOAD SWAP1 PUSH2 0x119C DUP9 DUP4 PUSH2 0x26B3 JUMP JUMPDEST PUSH2 0x427 SLOAD SWAP1 SWAP2 POP PUSH1 0xFF AND PUSH2 0x11F2 JUMPI PUSH1 0x40 MLOAD PUSH3 0x461BCD PUSH1 0xE5 SHL DUP2 MSTORE PUSH1 0x20 PUSH1 0x4 DUP3 ADD MSTORE PUSH1 0x18 PUSH1 0x24 DUP3 ADD MSTORE PUSH32 0x57686974656C697374206D696E74696E6720636C6F7365640000000000000000 PUSH1 0x44 DUP3 ADD MSTORE PUSH1 0x64 ADD PUSH2 0x8A0 JUMP JUMPDEST PUSH2 0x3E8 PUSH2 0x426 SLOAD LT PUSH2 0x1216 JUMPI PUSH1 0x40 MLOAD PUSH3 0x461BCD PUSH1 0xE5 SHL DUP2 MSTORE PUSH1 0x4 ADD PUSH2 0x8A0 SWAP1 PUSH2 0x25DE JUMP JUMPDEST PUSH1 0x0 DUP9 GT PUSH2 0x1260 JUMPI PUSH1 0x40 MLOAD PUSH3 0x461BCD PUSH1 0xE5 SHL DUP2 MSTORE PUSH1 0x20 PUSH1 0x4 DUP3 ADD MSTORE PUSH1 0x17 PUSH1 0x24 DUP3 ADD MSTORE PUSH23 0x26BAB9BA1036B4B73A1030BA103632B0B9BA1037B73297 PUSH1 0x49 SHL PUSH1 0x44 DUP3 ADD MSTORE PUSH1 0x64 ADD PUSH2 0x8A0 JUMP JUMPDEST PUSH1 0x2 DUP2 GT ISZERO PUSH2 0x12B1 JUMPI PUSH1 0x40 MLOAD PUSH3 0x461BCD PUSH1 0xE5 SHL DUP2 MSTORE PUSH1 0x20 PUSH1 0x4 DUP3 ADD MSTORE PUSH1 0x1C PUSH1 0x24 DUP3 ADD MSTORE PUSH32 0x4D696E742065786365656473206C696D6974207065722063616C6C2E00000000 PUSH1 0x44 DUP3 ADD MSTORE PUSH1 0x64 ADD PUSH2 0x8A0 JUMP JUMPDEST PUSH2 0x426 SLOAD PUSH2 0x12C1 SWAP1 PUSH2 0x3E8 PUSH2 0x26FE JUMP JUMPDEST DUP9 GT ISZERO PUSH2 0x12E0 JUMPI PUSH1 0x40 MLOAD PUSH3 0x461BCD PUSH1 0xE5 SHL DUP2 MSTORE PUSH1 0x4 ADD PUSH2 0x8A0 SWAP1 PUSH2 0x259A JUMP JUMPDEST DUP8 PUSH1 0x3C SLOAD PUSH2 0x12EE SWAP2 SWAP1 PUSH2 0x26DF JUMP JUMPDEST CALLVALUE EQ PUSH2 0x1334 JUMPI PUSH1 0x40 MLOAD PUSH3 0x461BCD PUSH1 0xE5 SHL DUP2 MSTORE PUSH1 0x20 PUSH1 0x4 DUP3 ADD MSTORE PUSH1 0x15 PUSH1 0x24 DUP3 ADD MSTORE PUSH21 0xACD2C4CAE4E640E0E4D2C6CA40DAD2E6DAC2E8C6D PUSH1 0x5B SHL PUSH1 0x44 DUP3 ADD MSTORE PUSH1 0x64 ADD PUSH2 0x8A0 JUMP JUMPDEST CALLER PUSH1 0x0 DUP2 DUP2 MSTORE PUSH2 0x428 PUSH1 0x20 MSTORE PUSH1 0x40 SWAP1 KECCAK256 DUP3 SWAP1 SSTORE PUSH2 0x1351 SWAP1 DUP10 PUSH2 0x1C03 JUMP JUMPDEST POP POP POP POP POP POP POP POP JUMP JUMPDEST PUSH1 0x0 SLOAD PUSH1 0x1 PUSH1 0x1 PUSH1 0xA0 SHL SUB AND CALLER EQ PUSH2 0x1385 JUMPI PUSH1 0x40 MLOAD PUSH3 0x461BCD PUSH1 0xE5 SHL DUP2 MSTORE PUSH1 0x4 ADD PUSH2 0x8A0 SWAP1 PUSH2 0x264E JUMP JUMPDEST PUSH1 0x1 PUSH1 0x1 PUSH1 0xA0 SHL SUB DUP2 AND PUSH2 0x13EA JUMPI PUSH1 0x40 MLOAD PUSH3 0x461BCD PUSH1 0xE5 SHL DUP2 MSTORE PUSH1 0x20 PUSH1 0x4 DUP3 ADD MSTORE PUSH1 0x26 PUSH1 0x24 DUP3 ADD MSTORE PUSH32 0x4F776E61626C653A206E6577206F776E657220697320746865207A65726F2061 PUSH1 0x44 DUP3 ADD MSTORE PUSH6 0x646472657373 PUSH1 0xD0 SHL PUSH1 0x64 DUP3 ADD MSTORE PUSH1 0x84 ADD PUSH2 0x8A0 JUMP JUMPDEST PUSH2 0x13F3 DUP2 PUSH2 0x1BB3 JUMP JUMPDEST POP JUMP JUMPDEST PUSH1 0x0 SLOAD PUSH1 0x1 PUSH1 0x1 PUSH1 0xA0 SHL SUB AND CALLER EQ PUSH2 0x1420 JUMPI PUSH1 0x40 MLOAD PUSH3 0x461BCD PUSH1 0xE5 SHL DUP2 MSTORE PUSH1 0x4 ADD PUSH2 0x8A0 SWAP1 PUSH2 0x264E JUMP JUMPDEST PUSH2 0x427 SLOAD PUSH1 0xFF AND ISZERO ISZERO PUSH1 0x1 EQ PUSH2 0x1497 JUMPI PUSH1 0x40 MLOAD PUSH3 0x461BCD PUSH1 0xE5 SHL DUP2 MSTORE PUSH1 0x20 PUSH1 0x4 DUP3 ADD MSTORE PUSH1 0x36 PUSH1 0x24 DUP3 ADD MSTORE PUSH32 0x5468652073616C65206D757374206265207374617274656420746F206368616E PUSH1 0x44 DUP3 ADD MSTORE PUSH22 0x33B2903A34329032BC34B9BA34B73390383934B1B297 PUSH1 0x51 SHL PUSH1 0x64 DUP3 ADD MSTORE PUSH1 0x84 ADD PUSH2 0x8A0 JUMP JUMPDEST PUSH1 0x3C SSTORE JUMP JUMPDEST PUSH1 0x0 SLOAD PUSH1 0x1 PUSH1 0x1 PUSH1 0xA0 SHL SUB AND CALLER EQ PUSH2 0x14C6 JUMPI PUSH1 0x40 MLOAD PUSH3 0x461BCD PUSH1 0xE5 SHL DUP2 MSTORE PUSH1 0x4 ADD PUSH2 0x8A0 SWAP1 PUSH2 0x264E JUMP JUMPDEST PUSH2 0x427 SLOAD PUSH1 0xFF AND ISZERO PUSH2 0x1525 JUMPI PUSH1 0x40 MLOAD PUSH3 0x461BCD PUSH1 0xE5 SHL DUP2 MSTORE PUSH1 0x20 PUSH1 0x4 DUP3 ADD MSTORE PUSH1 0x22 PUSH1 0x24 DUP3 ADD MSTORE PUSH32 0x57686974656C697374206D696E742068617320616C7265616479207374617274 PUSH1 0x44 DUP3 ADD MSTORE PUSH2 0x1959 PUSH1 0xF2 SHL PUSH1 0x64 DUP3 ADD MSTORE PUSH1 0x84 ADD PUSH2 0x8A0 JUMP JUMPDEST PUSH1 0x3C DUP2 SWAP1 SSTORE PUSH2 0x427 DUP1 SLOAD PUSH1 0xFF NOT AND PUSH1 0x1 OR SWAP1 SSTORE PUSH1 0x40 MLOAD PUSH32 0x10B9A8A97646803866F101014FF4637AA691ED9C0FE2260CD669F86D3FD6008 SWAP1 PUSH1 0x0 SWAP1 LOG1 POP JUMP JUMPDEST PUSH1 0x0 PUSH2 0x6DA DUP3 PUSH2 0x42A SLOAD CALLER PUSH2 0x1E3E JUMP JUMPDEST PUSH1 0x0 PUSH1 0x1 SLOAD DUP3 LT DUP1 ISZERO PUSH2 0x6DA JUMPI POP POP PUSH1 0x0 SWAP1 DUP2 MSTORE PUSH1 0x5 PUSH1 0x20 MSTORE PUSH1 0x40 SWAP1 KECCAK256 SLOAD PUSH1 0x1 PUSH1 0xE0 SHL SWAP1 DIV PUSH1 0xFF AND ISZERO SWAP1 JUMP JUMPDEST PUSH1 0x0 DUP3 DUP2 MSTORE PUSH1 0x7 PUSH1 0x20 MSTORE PUSH1 0x40 DUP1 DUP3 KECCAK256 DUP1 SLOAD PUSH1 0x1 PUSH1 0x1 PUSH1 0xA0 SHL SUB NOT AND PUSH1 0x1 PUSH1 0x1 PUSH1 0xA0 SHL SUB DUP8 DUP2 AND SWAP2 DUP3 OR SWAP1 SWAP3 SSTORE SWAP2 MLOAD DUP6 SWAP4 SWAP2 DUP6 AND SWAP2 PUSH32 0x8C5BE1E5EBEC7D5BD14F71427D1E84F3DD0314C0F7B2291E5B200AC8C7C3B925 SWAP2 LOG4 POP POP POP JUMP JUMPDEST PUSH1 0x0 PUSH2 0x1607 DUP3 PUSH2 0x1A99 JUMP JUMPDEST SWAP1 POP DUP4 PUSH1 0x1 PUSH1 0x1 PUSH1 0xA0 SHL SUB AND DUP2 PUSH1 0x0 ADD MLOAD PUSH1 0x1 PUSH1 0x1 PUSH1 0xA0 SHL SUB AND EQ PUSH2 0x163E JUMPI PUSH1 0x40 MLOAD PUSH3 0xA11481 PUSH1 0xE8 SHL DUP2 MSTORE PUSH1 0x4 ADD PUSH1 0x40 MLOAD DUP1 SWAP2 SUB SWAP1 REVERT JUMPDEST PUSH1 0x0 CALLER PUSH1 0x1 PUSH1 0x1 PUSH1 0xA0 SHL SUB DUP7 AND EQ DUP1 PUSH2 0x165C JUMPI POP PUSH2 0x165C DUP6 CALLER PUSH2 0x5E2 JUMP JUMPDEST DUP1 PUSH2 0x1677 JUMPI POP CALLER PUSH2 0x166C DUP5 PUSH2 0x7AB JUMP JUMPDEST PUSH1 0x1 PUSH1 0x1 PUSH1 0xA0 SHL SUB AND EQ JUMPDEST SWAP1 POP DUP1 PUSH2 0x1697 JUMPI PUSH1 0x40 MLOAD PUSH4 0x2CE44B5F PUSH1 0xE1 SHL DUP2 MSTORE PUSH1 0x4 ADD PUSH1 0x40 MLOAD DUP1 SWAP2 SUB SWAP1 REVERT JUMPDEST PUSH1 0x1 PUSH1 0x1 PUSH1 0xA0 SHL SUB DUP5 AND PUSH2 0x16BE JUMPI PUSH1 0x40 MLOAD PUSH4 0x3A954ECD PUSH1 0xE2 SHL DUP2 MSTORE PUSH1 0x4 ADD PUSH1 0x40 MLOAD DUP1 SWAP2 SUB SWAP1 REVERT JUMPDEST PUSH2 0x16CA PUSH1 0x0 DUP5 DUP8 PUSH2 0x15A0 JUMP JUMPDEST PUSH1 0x1 PUSH1 0x1 PUSH1 0xA0 SHL SUB DUP6 DUP2 AND PUSH1 0x0 SWAP1 DUP2 MSTORE PUSH1 0x6 PUSH1 0x20 SWAP1 DUP2 MSTORE PUSH1 0x40 DUP1 DUP4 KECCAK256 DUP1 SLOAD PUSH8 0xFFFFFFFFFFFFFFFF NOT DUP1 DUP3 AND PUSH1 0x1 PUSH1 0x1 PUSH1 0x40 SHL SUB SWAP3 DUP4 AND PUSH1 0x0 NOT ADD DUP4 AND OR SWAP1 SWAP3 SSTORE DUP10 DUP7 AND DUP1 DUP7 MSTORE DUP4 DUP7 KECCAK256 DUP1 SLOAD SWAP4 DUP5 AND SWAP4 DUP4 AND PUSH1 0x1 SWAP1 DUP2 ADD DUP5 AND SWAP5 SWAP1 SWAP5 OR SWAP1 SSTORE DUP10 DUP7 MSTORE PUSH1 0x5 SWAP1 SWAP5 MSTORE DUP3 DUP6 KECCAK256 DUP1 SLOAD PUSH1 0x1 PUSH1 0x1 PUSH1 0xE0 SHL SUB NOT AND SWAP1 SWAP5 OR PUSH1 0x1 PUSH1 0xA0 SHL TIMESTAMP SWAP1 SWAP3 AND SWAP2 SWAP1 SWAP2 MUL OR DUP4 SSTORE DUP8 ADD DUP1 DUP5 MSTORE SWAP3 KECCAK256 DUP1 SLOAD SWAP2 SWAP4 SWAP1 SWAP2 AND PUSH2 0x179E JUMPI PUSH1 0x1 SLOAD DUP3 EQ PUSH2 0x179E JUMPI DUP1 SLOAD PUSH1 0x20 DUP7 ADD MLOAD PUSH1 0x1 PUSH1 0x1 PUSH1 0x40 SHL SUB AND PUSH1 0x1 PUSH1 0xA0 SHL MUL PUSH1 0x1 PUSH1 0x1 PUSH1 0xE0 SHL SUB NOT SWAP1 SWAP2 AND PUSH1 0x1 PUSH1 0x1 PUSH1 0xA0 SHL SUB DUP11 AND OR OR DUP2 SSTORE JUMPDEST POP POP POP DUP3 DUP5 PUSH1 0x1 PUSH1 0x1 PUSH1 0xA0 SHL SUB AND DUP7 PUSH1 0x1 PUSH1 0x1 PUSH1 0xA0 SHL SUB AND PUSH1 0x0 DUP1 MLOAD PUSH1 0x20 PUSH2 0x2804 DUP4 CODECOPY DUP2 MLOAD SWAP2 MSTORE PUSH1 0x40 MLOAD PUSH1 0x40 MLOAD DUP1 SWAP2 SUB SWAP1 LOG4 POP POP POP POP POP JUMP JUMPDEST PUSH1 0x0 DUP1 PUSH2 0x426 SLOAD PUSH2 0x3E8 PUSH2 0x17EB SWAP2 SWAP1 PUSH2 0x26FE JUMP JUMPDEST PUSH2 0x425 SLOAD PUSH1 0x40 DUP1 MLOAD PUSH1 0x20 DUP2 ADD SWAP3 SWAP1 SWAP3 MSTORE PUSH12 0xFFFFFFFFFFFFFFFFFFFFFFFF NOT CALLER PUSH1 0x60 SHL AND SWAP1 DUP3 ADD MSTORE DIFFICULTY PUSH1 0x54 DUP3 ADD MSTORE TIMESTAMP PUSH1 0x74 DUP3 ADD MSTORE SWAP1 SWAP2 POP PUSH1 0x0 SWAP1 DUP3 SWAP1 PUSH1 0x94 ADD PUSH1 0x40 MLOAD PUSH1 0x20 DUP2 DUP4 SUB SUB DUP2 MSTORE SWAP1 PUSH1 0x40 MSTORE DUP1 MLOAD SWAP1 PUSH1 0x20 ADD KECCAK256 PUSH1 0x0 SHR PUSH2 0x184C SWAP2 SWAP1 PUSH2 0x2797 JUMP JUMPDEST SWAP1 POP PUSH1 0x0 PUSH1 0x3D DUP3 PUSH2 0x3E8 DUP2 LT PUSH2 0x1872 JUMPI PUSH4 0x4E487B71 PUSH1 0xE0 SHL PUSH1 0x0 MSTORE PUSH1 0x32 PUSH1 0x4 MSTORE PUSH1 0x24 PUSH1 0x0 REVERT JUMPDEST ADD SLOAD ISZERO PUSH2 0x18A4 JUMPI PUSH1 0x3D DUP3 PUSH2 0x3E8 DUP2 LT PUSH2 0x189B JUMPI PUSH4 0x4E487B71 PUSH1 0xE0 SHL PUSH1 0x0 MSTORE PUSH1 0x32 PUSH1 0x4 MSTORE PUSH1 0x24 PUSH1 0x0 REVERT JUMPDEST ADD SLOAD SWAP1 POP PUSH2 0x18A7 JUMP JUMPDEST POP DUP1 JUMPDEST PUSH1 0x3D PUSH2 0x18B4 PUSH1 0x1 DUP6 PUSH2 0x26FE JUMP JUMPDEST PUSH2 0x3E8 DUP2 LT PUSH2 0x18D3 JUMPI PUSH4 0x4E487B71 PUSH1 0xE0 SHL PUSH1 0x0 MSTORE PUSH1 0x32 PUSH1 0x4 MSTORE PUSH1 0x24 PUSH1 0x0 REVERT JUMPDEST ADD SLOAD PUSH2 0x190D JUMPI PUSH2 0x18E4 PUSH1 0x1 DUP5 PUSH2 0x26FE JUMP JUMPDEST PUSH1 0x3D DUP4 PUSH2 0x3E8 DUP2 LT PUSH2 0x1906 JUMPI PUSH4 0x4E487B71 PUSH1 0xE0 SHL PUSH1 0x0 MSTORE PUSH1 0x32 PUSH1 0x4 MSTORE PUSH1 0x24 PUSH1 0x0 REVERT JUMPDEST ADD SSTORE PUSH2 0x1960 JUMP JUMPDEST PUSH1 0x3D PUSH2 0x191A PUSH1 0x1 DUP6 PUSH2 0x26FE JUMP JUMPDEST PUSH2 0x3E8 DUP2 LT PUSH2 0x1939 JUMPI PUSH4 0x4E487B71 PUSH1 0xE0 SHL PUSH1 0x0 MSTORE PUSH1 0x32 PUSH1 0x4 MSTORE PUSH1 0x24 PUSH1 0x0 REVERT JUMPDEST ADD SLOAD PUSH1 0x3D DUP4 PUSH2 0x3E8 DUP2 LT PUSH2 0x195D JUMPI PUSH4 0x4E487B71 PUSH1 0xE0 SHL PUSH1 0x0 MSTORE PUSH1 0x32 PUSH1 0x4 MSTORE PUSH1 0x24 PUSH1 0x0 REVERT JUMPDEST ADD SSTORE JUMPDEST PUSH2 0x425 DUP1 SLOAD SWAP1 PUSH1 0x0 PUSH2 0x1971 DUP4 PUSH2 0x277C JUMP JUMPDEST SWAP1 SWAP2 SSTORE POP PUSH2 0x1982 SWAP1 POP DUP2 PUSH1 0x1 PUSH2 0x26B3 JUMP JUMPDEST SWAP4 POP POP POP POP SWAP1 JUMP JUMPDEST PUSH1 0x1 SLOAD PUSH1 0x1 PUSH1 0x1 PUSH1 0xA0 SHL SUB DUP4 AND PUSH2 0x19B3 JUMPI PUSH1 0x40 MLOAD PUSH3 0x2E0763 PUSH1 0xE8 SHL DUP2 MSTORE PUSH1 0x4 ADD PUSH1 0x40 MLOAD DUP1 SWAP2 SUB SWAP1 REVERT JUMPDEST DUP2 PUSH2 0x19D1 JUMPI PUSH1 0x40 MLOAD PUSH4 0xB562E8DD PUSH1 0xE0 SHL DUP2 MSTORE PUSH1 0x4 ADD PUSH1 0x40 MLOAD DUP1 SWAP2 SUB SWAP1 REVERT JUMPDEST PUSH1 0x1 PUSH1 0x1 PUSH1 0xA0 SHL SUB DUP4 AND PUSH1 0x0 DUP2 DUP2 MSTORE PUSH1 0x6 PUSH1 0x20 SWAP1 DUP2 MSTORE PUSH1 0x40 DUP1 DUP4 KECCAK256 DUP1 SLOAD PUSH1 0x1 PUSH1 0x1 PUSH1 0x80 SHL SUB NOT DUP2 AND PUSH1 0x1 PUSH1 0x1 PUSH1 0x40 SHL SUB DUP1 DUP4 AND DUP11 ADD DUP2 AND SWAP2 DUP3 OR PUSH1 0x1 PUSH1 0x40 SHL PUSH8 0xFFFFFFFFFFFFFFFF NOT SWAP1 SWAP5 AND SWAP1 SWAP3 OR DUP4 SWAP1 DIV DUP2 AND DUP11 ADD DUP2 AND SWAP1 SWAP3 MUL OR SWAP1 SWAP2 SSTORE DUP6 DUP5 MSTORE PUSH1 0x5 SWAP1 SWAP3 MSTORE SWAP1 SWAP2 KECCAK256 DUP1 SLOAD PUSH1 0x1 PUSH1 0x1 PUSH1 0xE0 SHL SUB NOT AND SWAP1 SWAP3 OR PUSH1 0x1 PUSH1 0xA0 SHL TIMESTAMP SWAP1 SWAP3 AND SWAP2 SWAP1 SWAP2 MUL OR SWAP1 SSTORE DUP1 DUP1 DUP4 ADD JUMPDEST PUSH1 0x40 MLOAD PUSH1 0x1 DUP4 ADD SWAP3 SWAP1 PUSH1 0x1 PUSH1 0x1 PUSH1 0xA0 SHL SUB DUP8 AND SWAP1 PUSH1 0x0 SWAP1 PUSH1 0x0 DUP1 MLOAD PUSH1 0x20 PUSH2 0x2804 DUP4 CODECOPY DUP2 MLOAD SWAP2 MSTORE SWAP1 DUP3 SWAP1 LOG4 DUP1 DUP3 LT PUSH2 0x1A5F JUMPI POP PUSH1 0x1 SSTORE POP POP POP JUMP JUMPDEST PUSH1 0x40 DUP1 MLOAD PUSH1 0x60 DUP2 ADD DUP3 MSTORE PUSH1 0x0 DUP1 DUP3 MSTORE PUSH1 0x20 DUP3 ADD DUP2 SWAP1 MSTORE SWAP2 DUP2 ADD SWAP2 SWAP1 SWAP2 MSTORE DUP2 PUSH1 0x1 SLOAD DUP2 LT ISZERO PUSH2 0x1B9A JUMPI PUSH1 0x0 DUP2 DUP2 MSTORE PUSH1 0x5 PUSH1 0x20 SWAP1 DUP2 MSTORE PUSH1 0x40 SWAP2 DUP3 SWAP1 KECCAK256 DUP3 MLOAD PUSH1 0x60 DUP2 ADD DUP5 MSTORE SWAP1 SLOAD PUSH1 0x1 PUSH1 0x1 PUSH1 0xA0 SHL SUB DUP2 AND DUP3 MSTORE PUSH1 0x1 PUSH1 0xA0 SHL DUP2 DIV PUSH1 0x1 PUSH1 0x1 PUSH1 0x40 SHL SUB AND SWAP3 DUP3 ADD SWAP3 SWAP1 SWAP3 MSTORE PUSH1 0x1 PUSH1 0xE0 SHL SWAP1 SWAP2 DIV PUSH1 0xFF AND ISZERO ISZERO SWAP2 DUP2 ADD DUP3 SWAP1 MSTORE SWAP1 PUSH2 0x1B98 JUMPI DUP1 MLOAD PUSH1 0x1 PUSH1 0x1 PUSH1 0xA0 SHL SUB AND ISZERO PUSH2 0x1B2F JUMPI SWAP4 SWAP3 POP POP POP JUMP JUMPDEST POP PUSH1 0x0 NOT ADD PUSH1 0x0 DUP2 DUP2 MSTORE PUSH1 0x5 PUSH1 0x20 SWAP1 DUP2 MSTORE PUSH1 0x40 SWAP2 DUP3 SWAP1 KECCAK256 DUP3 MLOAD PUSH1 0x60 DUP2 ADD DUP5 MSTORE SWAP1 SLOAD PUSH1 0x1 PUSH1 0x1 PUSH1 0xA0 SHL SUB DUP2 AND DUP1 DUP4 MSTORE PUSH1 0x1 PUSH1 0xA0 SHL DUP3 DIV PUSH1 0x1 PUSH1 0x1 PUSH1 0x40 SHL SUB AND SWAP4 DUP4 ADD SWAP4 SWAP1 SWAP4 MSTORE PUSH1 0x1 PUSH1 0xE0 SHL SWAP1 DIV PUSH1 0xFF AND ISZERO ISZERO SWAP3 DUP2 ADD SWAP3 SWAP1 SWAP3 MSTORE ISZERO PUSH2 0x1B93 JUMPI SWAP4 SWAP3 POP POP POP JUMP JUMPDEST PUSH2 0x1B2F JUMP JUMPDEST POP JUMPDEST PUSH1 0x40 MLOAD PUSH4 0x6F96CDA1 PUSH1 0xE1 SHL DUP2 MSTORE PUSH1 0x4 ADD PUSH1 0x40 MLOAD DUP1 SWAP2 SUB SWAP1 REVERT JUMPDEST PUSH1 0x0 DUP1 SLOAD PUSH1 0x1 PUSH1 0x1 PUSH1 0xA0 SHL SUB DUP4 DUP2 AND PUSH1 0x1 PUSH1 0x1 PUSH1 0xA0 SHL SUB NOT DUP4 AND DUP2 OR DUP5 SSTORE PUSH1 0x40 MLOAD SWAP2 SWAP1 SWAP3 AND SWAP3 DUP4 SWAP2 PUSH32 0x8BE0079C531659141344CD1FD0A4F28419497F9722A3DAAFE3B4186F6B6457E0 SWAP2 SWAP1 LOG3 POP POP JUMP JUMPDEST PUSH2 0x9E8 DUP3 DUP3 PUSH1 0x40 MLOAD DUP1 PUSH1 0x20 ADD PUSH1 0x40 MSTORE DUP1 PUSH1 0x0 DUP2 MSTORE POP PUSH2 0x1E83 JUMP JUMPDEST PUSH1 0x40 MLOAD PUSH4 0xA85BD01 PUSH1 0xE1 SHL DUP2 MSTORE PUSH1 0x0 SWAP1 PUSH1 0x1 PUSH1 0x1 PUSH1 0xA0 SHL SUB DUP6 AND SWAP1 PUSH4 0x150B7A02 SWAP1 PUSH2 0x1C52 SWAP1 CALLER SWAP1 DUP10 SWAP1 DUP9 SWAP1 DUP9 SWAP1 PUSH1 0x4 ADD PUSH2 0x254A JUMP JUMPDEST PUSH1 0x20 PUSH1 0x40 MLOAD DUP1 DUP4 SUB DUP2 PUSH1 0x0 DUP8 DUP1 EXTCODESIZE ISZERO DUP1 ISZERO PUSH2 0x1C6C JUMPI PUSH1 0x0 DUP1 REVERT JUMPDEST POP GAS CALL SWAP3 POP POP POP DUP1 ISZERO PUSH2 0x1C9C JUMPI POP PUSH1 0x40 DUP1 MLOAD PUSH1 0x1F RETURNDATASIZE SWAP1 DUP2 ADD PUSH1 0x1F NOT AND DUP3 ADD SWAP1 SWAP3 MSTORE PUSH2 0x1C99 SWAP2 DUP2 ADD SWAP1 PUSH2 0x2415 JUMP JUMPDEST PUSH1 0x1 JUMPDEST PUSH2 0x1CF7 JUMPI RETURNDATASIZE DUP1 DUP1 ISZERO PUSH2 0x1CCA JUMPI PUSH1 0x40 MLOAD SWAP2 POP PUSH1 0x1F NOT PUSH1 0x3F RETURNDATASIZE ADD AND DUP3 ADD PUSH1 0x40 MSTORE RETURNDATASIZE DUP3 MSTORE RETURNDATASIZE PUSH1 0x0 PUSH1 0x20 DUP5 ADD RETURNDATACOPY PUSH2 0x1CCF JUMP JUMPDEST PUSH1 0x60 SWAP2 POP JUMPDEST POP DUP1 MLOAD PUSH2 0x1CEF JUMPI PUSH1 0x40 MLOAD PUSH4 0x68D2BF6B PUSH1 0xE1 SHL DUP2 MSTORE PUSH1 0x4 ADD PUSH1 0x40 MLOAD DUP1 SWAP2 SUB SWAP1 REVERT JUMPDEST DUP1 MLOAD DUP2 PUSH1 0x20 ADD REVERT JUMPDEST PUSH1 0x1 PUSH1 0x1 PUSH1 0xE0 SHL SUB NOT AND PUSH4 0xA85BD01 PUSH1 0xE1 SHL EQ SWAP1 POP JUMPDEST SWAP5 SWAP4 POP POP POP POP JUMP JUMPDEST PUSH1 0x60 PUSH2 0x42B DUP1 SLOAD PUSH2 0x728 SWAP1 PUSH2 0x2741 JUMP JUMPDEST PUSH1 0x60 DUP2 PUSH2 0x1D49 JUMPI POP POP PUSH1 0x40 DUP1 MLOAD DUP1 DUP3 ADD SWAP1 SWAP2 MSTORE PUSH1 0x1 DUP2 MSTORE PUSH1 0x3 PUSH1 0xFC SHL PUSH1 0x20 DUP3 ADD MSTORE SWAP1 JUMP JUMPDEST DUP2 PUSH1 0x0 JUMPDEST DUP2 ISZERO PUSH2 0x1D73 JUMPI DUP1 PUSH2 0x1D5D DUP2 PUSH2 0x277C JUMP JUMPDEST SWAP2 POP PUSH2 0x1D6C SWAP1 POP PUSH1 0xA DUP4 PUSH2 0x26CB JUMP JUMPDEST SWAP2 POP PUSH2 0x1D4D JUMP JUMPDEST PUSH1 0x0 DUP2 PUSH1 0x1 PUSH1 0x1 PUSH1 0x40 SHL SUB DUP2 GT ISZERO PUSH2 0x1D9B JUMPI PUSH4 0x4E487B71 PUSH1 0xE0 SHL PUSH1 0x0 MSTORE PUSH1 0x41 PUSH1 0x4 MSTORE PUSH1 0x24 PUSH1 0x0 REVERT JUMPDEST PUSH1 0x40 MLOAD SWAP1 DUP1 DUP3 MSTORE DUP1 PUSH1 0x1F ADD PUSH1 0x1F NOT AND PUSH1 0x20 ADD DUP3 ADD PUSH1 0x40 MSTORE DUP1 ISZERO PUSH2 0x1DC5 JUMPI PUSH1 0x20 DUP3 ADD DUP2 DUP1 CALLDATASIZE DUP4 CALLDATACOPY ADD SWAP1 POP JUMPDEST POP SWAP1 POP JUMPDEST DUP5 ISZERO PUSH2 0x1D0D JUMPI PUSH2 0x1DDA PUSH1 0x1 DUP4 PUSH2 0x26FE JUMP JUMPDEST SWAP2 POP PUSH2 0x1DE7 PUSH1 0xA DUP7 PUSH2 0x2797 JUMP JUMPDEST PUSH2 0x1DF2 SWAP1 PUSH1 0x30 PUSH2 0x26B3 JUMP JUMPDEST PUSH1 0xF8 SHL DUP2 DUP4 DUP2 MLOAD DUP2 LT PUSH2 0x1E15 JUMPI PUSH4 0x4E487B71 PUSH1 0xE0 SHL PUSH1 0x0 MSTORE PUSH1 0x32 PUSH1 0x4 MSTORE PUSH1 0x24 PUSH1 0x0 REVERT JUMPDEST PUSH1 0x20 ADD ADD SWAP1 PUSH1 0x1 PUSH1 0x1 PUSH1 0xF8 SHL SUB NOT AND SWAP1 DUP2 PUSH1 0x0 BYTE SWAP1 MSTORE8 POP PUSH2 0x1E37 PUSH1 0xA DUP7 PUSH2 0x26CB JUMP JUMPDEST SWAP5 POP PUSH2 0x1DC9 JUMP JUMPDEST PUSH1 0x40 MLOAD PUSH12 0xFFFFFFFFFFFFFFFFFFFFFFFF NOT PUSH1 0x60 DUP4 SWAP1 SHL AND PUSH1 0x20 DUP3 ADD MSTORE PUSH1 0x0 SWAP1 PUSH2 0x1D0D SWAP1 DUP6 SWAP1 DUP6 SWAP1 PUSH1 0x34 ADD PUSH1 0x40 MLOAD PUSH1 0x20 DUP2 DUP4 SUB SUB DUP2 MSTORE SWAP1 PUSH1 0x40 MSTORE DUP1 MLOAD SWAP1 PUSH1 0x20 ADD KECCAK256 PUSH2 0x2014 JUMP JUMPDEST PUSH1 0x1 SLOAD PUSH1 0x1 PUSH1 0x1 PUSH1 0xA0 SHL SUB DUP5 AND PUSH2 0x1EAC JUMPI PUSH1 0x40 MLOAD PUSH3 0x2E0763 PUSH1 0xE8 SHL DUP2 MSTORE PUSH1 0x4 ADD PUSH1 0x40 MLOAD DUP1 SWAP2 SUB SWAP1 REVERT JUMPDEST DUP3 PUSH2 0x1ECA JUMPI PUSH1 0x40 MLOAD PUSH4 0xB562E8DD PUSH1 0xE0 SHL DUP2 MSTORE PUSH1 0x4 ADD PUSH1 0x40 MLOAD DUP1 SWAP2 SUB SWAP1 REVERT JUMPDEST PUSH1 0x1 PUSH1 0x1 PUSH1 0xA0 SHL SUB DUP5 AND PUSH1 0x0 DUP2 DUP2 MSTORE PUSH1 0x6 PUSH1 0x20 SWAP1 DUP2 MSTORE PUSH1 0x40 DUP1 DUP4 KECCAK256 DUP1 SLOAD PUSH1 0x1 PUSH1 0x1 PUSH1 0x80 SHL SUB NOT DUP2 AND PUSH1 0x1 PUSH1 0x1 PUSH1 0x40 SHL SUB DUP1 DUP4 AND DUP12 ADD DUP2 AND SWAP2 DUP3 OR PUSH1 0x1 PUSH1 0x40 SHL PUSH8 0xFFFFFFFFFFFFFFFF NOT SWAP1 SWAP5 AND SWAP1 SWAP3 OR DUP4 SWAP1 DIV DUP2 AND DUP12 ADD DUP2 AND SWAP1 SWAP3 MUL OR SWAP1 SWAP2 SSTORE DUP6 DUP5 MSTORE PUSH1 0x5 SWAP1 SWAP3 MSTORE SWAP1 SWAP2 KECCAK256 DUP1 SLOAD PUSH1 0x1 PUSH1 0x1 PUSH1 0xE0 SHL SUB NOT AND DUP4 OR PUSH1 0x1 PUSH1 0xA0 SHL TIMESTAMP SWAP1 SWAP4 AND SWAP3 SWAP1 SWAP3 MUL SWAP2 SWAP1 SWAP2 OR SWAP1 SSTORE DUP2 SWAP1 DUP2 DUP6 ADD SWAP1 EXTCODESIZE ISZERO PUSH2 0x1FD2 JUMPI JUMPDEST PUSH1 0x40 MLOAD DUP3 SWAP1 PUSH1 0x1 PUSH1 0x1 PUSH1 0xA0 SHL SUB DUP9 AND SWAP1 PUSH1 0x0 SWAP1 PUSH1 0x0 DUP1 MLOAD PUSH1 0x20 PUSH2 0x2804 DUP4 CODECOPY DUP2 MLOAD SWAP2 MSTORE SWAP1 DUP3 SWAP1 LOG4 PUSH2 0x1F9B PUSH1 0x0 DUP8 DUP5 DUP1 PUSH1 0x1 ADD SWAP6 POP DUP8 PUSH2 0x1C1D JUMP JUMPDEST PUSH2 0x1FB8 JUMPI PUSH1 0x40 MLOAD PUSH4 0x68D2BF6B PUSH1 0xE1 SHL DUP2 MSTORE PUSH1 0x4 ADD PUSH1 0x40 MLOAD DUP1 SWAP2 SUB SWAP1 REVERT JUMPDEST DUP1 DUP3 LT PUSH2 0x1F62 JUMPI DUP3 PUSH1 0x1 SLOAD EQ PUSH2 0x1FCD JUMPI PUSH1 0x0 DUP1 REVERT JUMPDEST PUSH2 0x2005 JUMP JUMPDEST JUMPDEST PUSH1 0x40 MLOAD PUSH1 0x1 DUP4 ADD SWAP3 SWAP1 PUSH1 0x1 PUSH1 0x1 PUSH1 0xA0 SHL SUB DUP9 AND SWAP1 PUSH1 0x0 SWAP1 PUSH1 0x0 DUP1 MLOAD PUSH1 0x20 PUSH2 0x2804 DUP4 CODECOPY DUP2 MLOAD SWAP2 MSTORE SWAP1 DUP3 SWAP1 LOG4 DUP1 DUP3 LT PUSH2 0x1FD3 JUMPI JUMPDEST POP PUSH1 0x1 SSTORE PUSH2 0xF5E PUSH1 0x0 DUP6 DUP4 DUP7 DUP5 JUMP JUMPDEST PUSH1 0x0 DUP2 DUP2 JUMPDEST DUP6 MLOAD DUP2 LT ISZERO PUSH2 0x20C6 JUMPI PUSH1 0x0 DUP7 DUP3 DUP2 MLOAD DUP2 LT PUSH2 0x2044 JUMPI PUSH4 0x4E487B71 PUSH1 0xE0 SHL PUSH1 0x0 MSTORE PUSH1 0x32 PUSH1 0x4 MSTORE PUSH1 0x24 PUSH1 0x0 REVERT JUMPDEST PUSH1 0x20 MUL PUSH1 0x20 ADD ADD MLOAD SWAP1 POP DUP1 DUP4 GT PUSH2 0x2086 JUMPI PUSH1 0x40 DUP1 MLOAD PUSH1 0x20 DUP2 ADD DUP6 SWAP1 MSTORE SWAP1 DUP2 ADD DUP3 SWAP1 MSTORE PUSH1 0x60 ADD PUSH1 0x40 MLOAD PUSH1 0x20 DUP2 DUP4 SUB SUB DUP2 MSTORE SWAP1 PUSH1 0x40 MSTORE DUP1 MLOAD SWAP1 PUSH1 0x20 ADD KECCAK256 SWAP3 POP PUSH2 0x20B3 JUMP JUMPDEST PUSH1 0x40 DUP1 MLOAD PUSH1 0x20 DUP2 ADD DUP4 SWAP1 MSTORE SWAP1 DUP2 ADD DUP5 SWAP1 MSTORE PUSH1 0x60 ADD PUSH1 0x40 MLOAD PUSH1 0x20 DUP2 DUP4 SUB SUB DUP2 MSTORE SWAP1 PUSH1 0x40 MSTORE DUP1 MLOAD SWAP1 PUSH1 0x20 ADD KECCAK256 SWAP3 POP JUMPDEST POP DUP1 PUSH2 0x20BE DUP2 PUSH2 0x277C JUMP JUMPDEST SWAP2 POP POP PUSH2 0x2019 JUMP JUMPDEST POP SWAP1 SWAP3 EQ SWAP4 SWAP3 POP POP POP JUMP JUMPDEST DUP3 DUP1 SLOAD PUSH2 0x20DD SWAP1 PUSH2 0x2741 JUMP JUMPDEST SWAP1 PUSH1 0x0 MSTORE PUSH1 0x20 PUSH1 0x0 KECCAK256 SWAP1 PUSH1 0x1F ADD PUSH1 0x20 SWAP1 DIV DUP2 ADD SWAP3 DUP3 PUSH2 0x20FF JUMPI PUSH1 0x0 DUP6 SSTORE PUSH2 0x2145 JUMP JUMPDEST DUP3 PUSH1 0x1F LT PUSH2 0x2118 JUMPI DUP1 MLOAD PUSH1 0xFF NOT AND DUP4 DUP1 ADD OR DUP6 SSTORE PUSH2 0x2145 JUMP JUMPDEST DUP3 DUP1 ADD PUSH1 0x1 ADD DUP6 SSTORE DUP3 ISZERO PUSH2 0x2145 JUMPI SWAP2 DUP3 ADD JUMPDEST DUP3 DUP2 GT ISZERO PUSH2 0x2145 JUMPI DUP3 MLOAD DUP3 SSTORE SWAP2 PUSH1 0x20 ADD SWAP2 SWAP1 PUSH1 0x1 ADD SWAP1 PUSH2 0x212A JUMP JUMPDEST POP PUSH2 0x2151 SWAP3 SWAP2 POP PUSH2 0x2155 JUMP JUMPDEST POP SWAP1 JUMP JUMPDEST JUMPDEST DUP1 DUP3 GT ISZERO PUSH2 0x2151 JUMPI PUSH1 0x0 DUP2 SSTORE PUSH1 0x1 ADD PUSH2 0x2156 JUMP JUMPDEST PUSH1 0x0 PUSH1 0x1 PUSH1 0x1 PUSH1 0x40 SHL SUB DUP4 GT ISZERO PUSH2 0x2183 JUMPI PUSH2 0x2183 PUSH2 0x27D7 JUMP JUMPDEST PUSH2 0x2196 PUSH1 0x1F DUP5 ADD PUSH1 0x1F NOT AND PUSH1 0x20 ADD PUSH2 0x2683 JUMP JUMPDEST SWAP1 POP DUP3 DUP2 MSTORE DUP4 DUP4 DUP4 ADD GT ISZERO PUSH2 0x21AA JUMPI PUSH1 0x0 DUP1 REVERT JUMPDEST DUP3 DUP3 PUSH1 0x20 DUP4 ADD CALLDATACOPY PUSH1 0x0 PUSH1 0x20 DUP5 DUP4 ADD ADD MSTORE SWAP4 SWAP3 POP POP POP JUMP JUMPDEST DUP1 CALLDATALOAD PUSH1 0x1 PUSH1 0x1 PUSH1 0xA0 SHL SUB DUP2 AND DUP2 EQ PUSH2 0x714 JUMPI PUSH1 0x0 DUP1 REVERT JUMPDEST PUSH1 0x0 PUSH1 0x20 DUP3 DUP5 SUB SLT ISZERO PUSH2 0x21E9 JUMPI DUP1 DUP2 REVERT JUMPDEST PUSH2 0x1012 DUP3 PUSH2 0x21C1 JUMP JUMPDEST PUSH1 0x0 DUP1 PUSH1 0x40 DUP4 DUP6 SUB SLT ISZERO PUSH2 0x2204 JUMPI DUP1 DUP2 REVERT JUMPDEST PUSH2 0x220D DUP4 PUSH2 0x21C1 JUMP JUMPDEST SWAP2 POP PUSH2 0x221B PUSH1 0x20 DUP5 ADD PUSH2 0x21C1 JUMP JUMPDEST SWAP1 POP SWAP3 POP SWAP3 SWAP1 POP JUMP JUMPDEST PUSH1 0x0 DUP1 PUSH1 0x0 PUSH1 0x60 DUP5 DUP7 SUB SLT ISZERO PUSH2 0x2238 JUMPI DUP1 DUP2 REVERT JUMPDEST PUSH2 0x2241 DUP5 PUSH2 0x21C1 JUMP JUMPDEST SWAP3 POP PUSH2 0x224F PUSH1 0x20 DUP6 ADD PUSH2 0x21C1 JUMP JUMPDEST SWAP2 POP PUSH1 0x40 DUP5 ADD CALLDATALOAD SWAP1 POP SWAP3 POP SWAP3 POP SWAP3 JUMP JUMPDEST PUSH1 0x0 DUP1 PUSH1 0x0 DUP1 PUSH1 0x80 DUP6 DUP8 SUB SLT ISZERO PUSH2 0x2274 JUMPI DUP1 DUP2 REVERT JUMPDEST PUSH2 0x227D DUP6 PUSH2 0x21C1 JUMP JUMPDEST SWAP4 POP PUSH2 0x228B PUSH1 0x20 DUP7 ADD PUSH2 0x21C1 JUMP JUMPDEST SWAP3 POP PUSH1 0x40 DUP6 ADD CALLDATALOAD SWAP2 POP PUSH1 0x60 DUP6 ADD CALLDATALOAD PUSH1 0x1 PUSH1 0x1 PUSH1 0x40 SHL SUB DUP2 GT ISZERO PUSH2 0x22AC JUMPI DUP2 DUP3 REVERT JUMPDEST DUP6 ADD PUSH1 0x1F DUP2 ADD DUP8 SGT PUSH2 0x22BC JUMPI DUP2 DUP3 REVERT JUMPDEST PUSH2 0x22CB DUP8 DUP3 CALLDATALOAD PUSH1 0x20 DUP5 ADD PUSH2 0x216A JUMP JUMPDEST SWAP2 POP POP SWAP3 SWAP6 SWAP2 SWAP5 POP SWAP3 POP JUMP JUMPDEST PUSH1 0x0 DUP1 PUSH1 0x40 DUP4 DUP6 SUB SLT ISZERO PUSH2 0x22E9 JUMPI DUP2 DUP3 REVERT JUMPDEST PUSH2 0x22F2 DUP4 PUSH2 0x21C1 JUMP JUMPDEST SWAP2 POP PUSH1 0x20 DUP4 ADD CALLDATALOAD DUP1 ISZERO ISZERO DUP2 EQ PUSH2 0x2306 JUMPI DUP2 DUP3 REVERT JUMPDEST DUP1 SWAP2 POP POP SWAP3 POP SWAP3 SWAP1 POP JUMP JUMPDEST PUSH1 0x0 DUP1 PUSH1 0x40 DUP4 DUP6 SUB SLT ISZERO PUSH2 0x2323 JUMPI DUP2 DUP3 REVERT JUMPDEST PUSH2 0x232C DUP4 PUSH2 0x21C1 JUMP JUMPDEST SWAP5 PUSH1 0x20 SWAP4 SWAP1 SWAP4 ADD CALLDATALOAD SWAP4 POP POP POP JUMP JUMPDEST PUSH1 0x0 PUSH1 0x20 DUP1 DUP4 DUP6 SUB SLT ISZERO PUSH2 0x234C JUMPI DUP2 DUP3 REVERT JUMPDEST DUP3 CALLDATALOAD PUSH1 0x1 PUSH1 0x1 PUSH1 0x40 SHL SUB DUP1 DUP3 GT ISZERO PUSH2 0x2362 JUMPI DUP4 DUP5 REVERT JUMPDEST DUP2 DUP6 ADD SWAP2 POP DUP6 PUSH1 0x1F DUP4 ADD SLT PUSH2 0x2375 JUMPI DUP4 DUP5 REVERT JUMPDEST DUP2 CALLDATALOAD DUP2 DUP2 GT ISZERO PUSH2 0x2387 JUMPI PUSH2 0x2387 PUSH2 0x27D7 JUMP JUMPDEST DUP1 PUSH1 0x5 SHL SWAP2 POP PUSH2 0x2398 DUP5 DUP4 ADD PUSH2 0x2683 JUMP JUMPDEST DUP2 DUP2 MSTORE DUP5 DUP2 ADD SWAP1 DUP5 DUP7 ADD DUP5 DUP7 ADD DUP8 ADD DUP11 LT ISZERO PUSH2 0x23B2 JUMPI DUP8 DUP9 REVERT JUMPDEST DUP8 SWAP6 POP JUMPDEST DUP4 DUP7 LT ISZERO PUSH2 0x23D4 JUMPI DUP1 CALLDATALOAD DUP4 MSTORE PUSH1 0x1 SWAP6 SWAP1 SWAP6 ADD SWAP5 SWAP2 DUP7 ADD SWAP2 DUP7 ADD PUSH2 0x23B6 JUMP JUMPDEST POP SWAP9 SWAP8 POP POP POP POP POP POP POP POP JUMP JUMPDEST PUSH1 0x0 PUSH1 0x20 DUP3 DUP5 SUB SLT ISZERO PUSH2 0x23F2 JUMPI DUP1 DUP2 REVERT JUMPDEST POP CALLDATALOAD SWAP2 SWAP1 POP JUMP JUMPDEST PUSH1 0x0 PUSH1 0x20 DUP3 DUP5 SUB SLT ISZERO PUSH2 0x240A JUMPI DUP1 DUP2 REVERT JUMPDEST DUP2 CALLDATALOAD PUSH2 0x1012 DUP2 PUSH2 0x27ED JUMP JUMPDEST PUSH1 0x0 PUSH1 0x20 DUP3 DUP5 SUB SLT ISZERO PUSH2 0x2426 JUMPI DUP1 DUP2 REVERT JUMPDEST DUP2 MLOAD PUSH2 0x1012 DUP2 PUSH2 0x27ED JUMP JUMPDEST PUSH1 0x0 PUSH1 0x20 DUP3 DUP5 SUB SLT ISZERO PUSH2 0x2442 JUMPI DUP1 DUP2 REVERT JUMPDEST DUP2 CALLDATALOAD PUSH1 0x1 PUSH1 0x1 PUSH1 0x40 SHL SUB DUP2 GT ISZERO PUSH2 0x2457 JUMPI DUP2 DUP3 REVERT JUMPDEST DUP3 ADD PUSH1 0x1F DUP2 ADD DUP5 SGT PUSH2 0x2467 JUMPI DUP2 DUP3 REVERT JUMPDEST PUSH2 0x1D0D DUP5 DUP3 CALLDATALOAD PUSH1 0x20 DUP5 ADD PUSH2 0x216A JUMP JUMPDEST PUSH1 0x0 DUP1 PUSH1 0x0 PUSH1 0x40 DUP5 DUP7 SUB SLT ISZERO PUSH2 0x248A JUMPI DUP1 DUP2 REVERT JUMPDEST DUP4 CALLDATALOAD SWAP3 POP PUSH1 0x20 DUP5 ADD CALLDATALOAD PUSH1 0x1 PUSH1 0x1 PUSH1 0x40 SHL SUB DUP1 DUP3 GT ISZERO PUSH2 0x24A7 JUMPI DUP3 DUP4 REVERT JUMPDEST DUP2 DUP7 ADD SWAP2 POP DUP7 PUSH1 0x1F DUP4 ADD SLT PUSH2 0x24BA JUMPI DUP3 DUP4 REVERT JUMPDEST DUP2 CALLDATALOAD DUP2 DUP2 GT ISZERO PUSH2 0x24C8 JUMPI DUP4 DUP5 REVERT JUMPDEST DUP8 PUSH1 0x20 DUP3 PUSH1 0x5 SHL DUP6 ADD ADD GT ISZERO PUSH2 0x24DC JUMPI DUP4 DUP5 REVERT JUMPDEST PUSH1 0x20 DUP4 ADD SWAP5 POP DUP1 SWAP4 POP POP POP POP SWAP3 POP SWAP3 POP SWAP3 JUMP JUMPDEST PUSH1 0x0 DUP2 MLOAD DUP1 DUP5 MSTORE PUSH2 0x2507 DUP2 PUSH1 0x20 DUP7 ADD PUSH1 0x20 DUP7 ADD PUSH2 0x2715 JUMP JUMPDEST PUSH1 0x1F ADD PUSH1 0x1F NOT AND SWAP3 SWAP1 SWAP3 ADD PUSH1 0x20 ADD SWAP3 SWAP2 POP POP JUMP JUMPDEST PUSH1 0x0 DUP4 MLOAD PUSH2 0x252D DUP2 DUP5 PUSH1 0x20 DUP9 ADD PUSH2 0x2715 JUMP JUMPDEST DUP4 MLOAD SWAP1 DUP4 ADD SWAP1 PUSH2 0x2541 DUP2 DUP4 PUSH1 0x20 DUP9 ADD PUSH2 0x2715 JUMP JUMPDEST ADD SWAP5 SWAP4 POP POP POP POP JUMP JUMPDEST PUSH1 0x1 PUSH1 0x1 PUSH1 0xA0 SHL SUB DUP6 DUP2 AND DUP3 MSTORE DUP5 AND PUSH1 0x20 DUP3 ADD MSTORE PUSH1 0x40 DUP2 ADD DUP4 SWAP1 MSTORE PUSH1 0x80 PUSH1 0x60 DUP3 ADD DUP2 SWAP1 MSTORE PUSH1 0x0 SWAP1 PUSH2 0x257D SWAP1 DUP4 ADD DUP5 PUSH2 0x24EF JUMP JUMPDEST SWAP7 SWAP6 POP POP POP POP POP POP JUMP JUMPDEST PUSH1 0x20 DUP2 MSTORE PUSH1 0x0 PUSH2 0x1012 PUSH1 0x20 DUP4 ADD DUP5 PUSH2 0x24EF JUMP JUMPDEST PUSH1 0x20 DUP1 DUP3 MSTORE PUSH1 0x24 SWAP1 DUP3 ADD MSTORE PUSH32 0x4D696E74207265717565737420657863656564732063757272656E7420737570 PUSH1 0x40 DUP3 ADD MSTORE PUSH4 0x706C7921 PUSH1 0xE0 SHL PUSH1 0x60 DUP3 ADD MSTORE PUSH1 0x80 ADD SWAP1 JUMP JUMPDEST PUSH1 0x20 DUP1 DUP3 MSTORE PUSH1 0x22 SWAP1 DUP3 ADD MSTORE PUSH32 0x4D696E742072657175657374206578636565647320746F74616C20737570706C PUSH1 0x40 DUP3 ADD MSTORE PUSH2 0x7921 PUSH1 0xF0 SHL PUSH1 0x60 DUP3 ADD MSTORE PUSH1 0x80 ADD SWAP1 JUMP JUMPDEST PUSH1 0x20 DUP1 DUP3 MSTORE PUSH1 0x14 SWAP1 DUP3 ADD MSTORE PUSH20 0x10D85B1B195C881A5CC8184818DBDB9D1C9858DD PUSH1 0x62 SHL PUSH1 0x40 DUP3 ADD MSTORE PUSH1 0x60 ADD SWAP1 JUMP JUMPDEST PUSH1 0x20 DUP1 DUP3 MSTORE DUP2 DUP2 ADD MSTORE PUSH32 0x4F776E61626C653A2063616C6C6572206973206E6F7420746865206F776E6572 PUSH1 0x40 DUP3 ADD MSTORE PUSH1 0x60 ADD SWAP1 JUMP JUMPDEST PUSH1 0x40 MLOAD PUSH1 0x1F DUP3 ADD PUSH1 0x1F NOT AND DUP2 ADD PUSH1 0x1 PUSH1 0x1 PUSH1 0x40 SHL SUB DUP2 GT DUP3 DUP3 LT OR ISZERO PUSH2 0x26AB JUMPI PUSH2 0x26AB PUSH2 0x27D7 JUMP JUMPDEST PUSH1 0x40 MSTORE SWAP2 SWAP1 POP JUMP JUMPDEST PUSH1 0x0 DUP3 NOT DUP3 GT ISZERO PUSH2 0x26C6 JUMPI PUSH2 0x26C6 PUSH2 0x27AB JUMP JUMPDEST POP ADD SWAP1 JUMP JUMPDEST PUSH1 0x0 DUP3 PUSH2 0x26DA JUMPI PUSH2 0x26DA PUSH2 0x27C1 JUMP JUMPDEST POP DIV SWAP1 JUMP JUMPDEST PUSH1 0x0 DUP2 PUSH1 0x0 NOT DIV DUP4 GT DUP3 ISZERO ISZERO AND ISZERO PUSH2 0x26F9 JUMPI PUSH2 0x26F9 PUSH2 0x27AB JUMP JUMPDEST POP MUL SWAP1 JUMP JUMPDEST PUSH1 0x0 DUP3 DUP3 LT ISZERO PUSH2 0x2710 JUMPI PUSH2 0x2710 PUSH2 0x27AB JUMP JUMPDEST POP SUB SWAP1 JUMP JUMPDEST PUSH1 0x0 JUMPDEST DUP4 DUP2 LT ISZERO PUSH2 0x2730 JUMPI DUP2 DUP2 ADD MLOAD DUP4 DUP3 ADD MSTORE PUSH1 0x20 ADD PUSH2 0x2718 JUMP JUMPDEST DUP4 DUP2 GT ISZERO PUSH2 0xF5E JUMPI POP POP PUSH1 0x0 SWAP2 ADD MSTORE JUMP JUMPDEST PUSH1 0x1 DUP2 DUP2 SHR SWAP1 DUP3 AND DUP1 PUSH2 0x2755 JUMPI PUSH1 0x7F DUP3 AND SWAP2 POP JUMPDEST PUSH1 0x20 DUP3 LT DUP2 EQ ISZERO PUSH2 0x2776 JUMPI PUSH4 0x4E487B71 PUSH1 0xE0 SHL PUSH1 0x0 MSTORE PUSH1 0x22 PUSH1 0x4 MSTORE PUSH1 0x24 PUSH1 0x0 REVERT JUMPDEST POP SWAP2 SWAP1 POP JUMP JUMPDEST PUSH1 0x0 PUSH1 0x0 NOT DUP3 EQ ISZERO PUSH2 0x2790 JUMPI PUSH2 0x2790 PUSH2 0x27AB JUMP JUMPDEST POP PUSH1 0x1 ADD SWAP1 JUMP JUMPDEST PUSH1 0x0 DUP3 PUSH2 0x27A6 JUMPI PUSH2 0x27A6 PUSH2 0x27C1 JUMP JUMPDEST POP MOD SWAP1 JUMP JUMPDEST PUSH4 0x4E487B71 PUSH1 0xE0 SHL PUSH1 0x0 MSTORE PUSH1 0x11 PUSH1 0x4 MSTORE PUSH1 0x24 PUSH1 0x0 REVERT JUMPDEST PUSH4 0x4E487B71 PUSH1 0xE0 SHL PUSH1 0x0 MSTORE PUSH1 0x12 PUSH1 0x4 MSTORE PUSH1 0x24 PUSH1 0x0 REVERT JUMPDEST PUSH4 0x4E487B71 PUSH1 0xE0 SHL PUSH1 0x0 MSTORE PUSH1 0x41 PUSH1 0x4 MSTORE PUSH1 0x24 PUSH1 0x0 REVERT JUMPDEST PUSH1 0x1 PUSH1 0x1 PUSH1 0xE0 SHL SUB NOT DUP2 AND DUP2 EQ PUSH2 0x13F3 JUMPI PUSH1 0x0 DUP1 REVERT INVALID 0xDD CALLCODE MSTORE 0xAD SHL 0xE2 0xC8 SWAP12 PUSH10 0xC2B068FC378DAA952BA7 CALL PUSH4 0xC4A11628 CREATE2 GAS 0x4D CREATE2 0x23 0xB3 0xEF LOG2 PUSH5 0x6970667358 0x22 SLT KECCAK256 0xFC 0xE7 0xD 0xD1 0xB8 0xC1 0x2D SSTORE NOT 0xDD 0xFC PUSH15 0x1796A71BB11353209E234CEE37327E SELFBALANCE 0x5C SGT 0xBF SWAP6 PUSH5 0x736F6C6343 STOP ADDMOD DIV STOP CALLER "
        },
        "gasEstimates": {
          "creation": {
            "codeDepositCost": "2065800",
            "executionCost": "infinite",
            "totalCost": "infinite"
          },
          "external": {
            "approve(address,uint256)": "infinite",
            "availableWhitelistMint(bytes32[])": "infinite",
            "balanceOf(address)": "1440",
            "freezeMetadata()": "22731",
            "getApproved(uint256)": "3081",
            "getMaxSupply()": "237",
            "getMintPrice()": "1081",
            "getQuantityMinted()": "1126",
            "give32TokensToDevs()": "infinite",
            "hasMetadataFroze()": "1104",
            "hasPublicSaleStarted()": "1136",
            "hasSaleStarted()": "1105",
            "isApprovedForAll(address,address)": "infinite",
            "mint(uint256)": "infinite",
            "name()": "infinite",
            "owner()": "1121",
            "ownerOf(uint256)": "infinite",
            "publicMintedCounts(address)": "1330",
            "renounceOwnership()": "23460",
            "safeTransferFrom(address,address,uint256)": "infinite",
            "safeTransferFrom(address,address,uint256,bytes)": "infinite",
            "setApprovalForAll(address,bool)": "23295",
            "setBaseURI(string)": "infinite",
            "setMintPrice(uint256)": "21987",
            "setPublicMintOpen(uint256)": "44392",
            "setWhitelistMerkleRoot(bytes32)": "21109",
            "setWhitelistMintOpen(uint256)": "43600",
            "supportsInterface(bytes4)": "557",
            "symbol()": "infinite",
            "tokenURI(uint256)": "infinite",
            "totalSupply()": "1888",
            "transferFrom(address,address,uint256)": "infinite",
            "transferOwnership(address)": "23675",
            "whitelistMint(uint256,bytes32[])": "infinite",
            "whitelistMintedCounts(address)": "1287",
            "withdrawFunds()": "infinite"
          },
          "internal": {
            "_baseURI()": "infinite",
            "_inWhitelist(bytes32[] memory)": "infinite",
            "_verify(bytes32[] memory,bytes32,address)": "infinite",
            "randomIndex()": "infinite"
          }
        },
        "methodIdentifiers": {
          "approve(address,uint256)": "095ea7b3",
          "availableWhitelistMint(bytes32[])": "064a3600",
          "balanceOf(address)": "70a08231",
          "freezeMetadata()": "d111515d",
          "getApproved(uint256)": "081812fc",
          "getMaxSupply()": "4c0f38c2",
          "getMintPrice()": "a7f93ebd",
          "getQuantityMinted()": "216a08d4",
          "give32TokensToDevs()": "26c3f3da",
          "hasMetadataFroze()": "b61c1a6f",
          "hasPublicSaleStarted()": "fdd4b0f0",
          "hasSaleStarted()": "1c8b232d",
          "isApprovedForAll(address,address)": "e985e9c5",
          "mint(uint256)": "a0712d68",
          "name()": "06fdde03",
          "owner()": "8da5cb5b",
          "ownerOf(uint256)": "6352211e",
          "publicMintedCounts(address)": "6701cff7",
          "renounceOwnership()": "715018a6",
          "safeTransferFrom(address,address,uint256)": "42842e0e",
          "safeTransferFrom(address,address,uint256,bytes)": "b88d4fde",
          "setApprovalForAll(address,bool)": "a22cb465",
          "setBaseURI(string)": "55f804b3",
          "setMintPrice(uint256)": "f4a0a528",
          "setPublicMintOpen(uint256)": "0a3ed96e",
          "setWhitelistMerkleRoot(bytes32)": "bd32fb66",
          "setWhitelistMintOpen(uint256)": "f6651cdd",
          "supportsInterface(bytes4)": "01ffc9a7",
          "symbol()": "95d89b41",
          "tokenURI(uint256)": "c87b56dd",
          "totalSupply()": "18160ddd",
          "transferFrom(address,address,uint256)": "23b872dd",
          "transferOwnership(address)": "f2fde38b",
          "whitelistMint(uint256,bytes32[])": "d2cab056",
          "whitelistMintedCounts(address)": "7630a55a",
          "withdrawFunds()": "24600fc3"
        }
      },
      "storageLayout": {
        "storage": [
          {
            "astId": 111,
            "contract": "contracts/Vibers.sol:Vibers",
            "label": "_owner",
            "offset": 0,
            "slot": "0",
            "type": "t_address"
          },
          {
            "astId": 1918,
            "contract": "contracts/Vibers.sol:Vibers",
            "label": "_currentIndex",
            "offset": 0,
            "slot": "1",
            "type": "t_uint256"
          },
          {
            "astId": 1920,
            "contract": "contracts/Vibers.sol:Vibers",
            "label": "_burnCounter",
            "offset": 0,
            "slot": "2",
            "type": "t_uint256"
          },
          {
            "astId": 1922,
            "contract": "contracts/Vibers.sol:Vibers",
            "label": "_name",
            "offset": 0,
            "slot": "3",
            "type": "t_string_storage"
          },
          {
            "astId": 1924,
            "contract": "contracts/Vibers.sol:Vibers",
            "label": "_symbol",
            "offset": 0,
            "slot": "4",
            "type": "t_string_storage"
          },
          {
            "astId": 1929,
            "contract": "contracts/Vibers.sol:Vibers",
            "label": "_ownerships",
            "offset": 0,
            "slot": "5",
            "type": "t_mapping(t_uint256,t_struct(TokenOwnership)3324_storage)"
          },
          {
            "astId": 1934,
            "contract": "contracts/Vibers.sol:Vibers",
            "label": "_addressData",
            "offset": 0,
            "slot": "6",
            "type": "t_mapping(t_address,t_struct(AddressData)3333_storage)"
          },
          {
            "astId": 1938,
            "contract": "contracts/Vibers.sol:Vibers",
            "label": "_tokenApprovals",
            "offset": 0,
            "slot": "7",
            "type": "t_mapping(t_uint256,t_address)"
          },
          {
            "astId": 1944,
            "contract": "contracts/Vibers.sol:Vibers",
            "label": "_operatorApprovals",
            "offset": 0,
            "slot": "8",
            "type": "t_mapping(t_address,t_mapping(t_address,t_bool))"
          },
          {
            "astId": 5,
            "contract": "contracts/Vibers.sol:Vibers",
            "label": "_initialized",
            "offset": 0,
            "slot": "9",
            "type": "t_bool"
          },
          {
            "astId": 8,
            "contract": "contracts/Vibers.sol:Vibers",
            "label": "_initializing",
            "offset": 1,
            "slot": "9",
            "type": "t_bool"
          },
          {
            "astId": 59,
            "contract": "contracts/Vibers.sol:Vibers",
            "label": "_status",
            "offset": 0,
            "slot": "10",
            "type": "t_uint256"
          },
          {
            "astId": 102,
            "contract": "contracts/Vibers.sol:Vibers",
            "label": "__gap",
            "offset": 0,
            "slot": "11",
            "type": "t_array(t_uint256)49_storage"
          },
          {
            "astId": 1093,
            "contract": "contracts/Vibers.sol:Vibers",
            "label": "PRICE",
            "offset": 0,
            "slot": "60",
            "type": "t_uint256"
          },
          {
            "astId": 1106,
            "contract": "contracts/Vibers.sol:Vibers",
            "label": "indices",
            "offset": 0,
            "slot": "61",
            "type": "t_array(t_uint256)1000_storage"
          },
          {
            "astId": 1109,
            "contract": "contracts/Vibers.sol:Vibers",
            "label": "nonce",
            "offset": 0,
            "slot": "1061",
            "type": "t_uint256"
          },
          {
            "astId": 1112,
            "contract": "contracts/Vibers.sol:Vibers",
            "label": "numTokens",
            "offset": 0,
            "slot": "1062",
            "type": "t_uint256"
          },
          {
            "astId": 1115,
            "contract": "contracts/Vibers.sol:Vibers",
            "label": "whitelistMintOpen",
            "offset": 0,
            "slot": "1063",
            "type": "t_bool"
          },
          {
            "astId": 1118,
            "contract": "contracts/Vibers.sol:Vibers",
            "label": "publicMintOpen",
            "offset": 1,
            "slot": "1063",
            "type": "t_bool"
          },
          {
            "astId": 1122,
            "contract": "contracts/Vibers.sol:Vibers",
            "label": "whitelistMintedCounts",
            "offset": 0,
            "slot": "1064",
            "type": "t_mapping(t_address,t_uint256)"
          },
          {
            "astId": 1126,
            "contract": "contracts/Vibers.sol:Vibers",
            "label": "publicMintedCounts",
            "offset": 0,
            "slot": "1065",
            "type": "t_mapping(t_address,t_uint256)"
          },
          {
            "astId": 1132,
            "contract": "contracts/Vibers.sol:Vibers",
            "label": "_whitelistMerkleRoot",
            "offset": 0,
            "slot": "1066",
            "type": "t_bytes32"
          },
          {
            "astId": 1134,
            "contract": "contracts/Vibers.sol:Vibers",
            "label": "_baseTokenURI",
            "offset": 0,
            "slot": "1067",
            "type": "t_string_storage"
          },
          {
            "astId": 1137,
            "contract": "contracts/Vibers.sol:Vibers",
            "label": "metadataFrozen",
            "offset": 0,
            "slot": "1068",
            "type": "t_bool"
          },
          {
            "astId": 1140,
            "contract": "contracts/Vibers.sol:Vibers",
            "label": "devSupplyAwarded",
            "offset": 0,
            "slot": "1069",
            "type": "t_uint256"
          },
          {
            "astId": 1146,
            "contract": "contracts/Vibers.sol:Vibers",
            "label": "developers",
            "offset": 0,
            "slot": "1070",
            "type": "t_address_payable"
          }
        ],
        "types": {
          "t_address": {
            "encoding": "inplace",
            "label": "address",
            "numberOfBytes": "20"
          },
          "t_address_payable": {
            "encoding": "inplace",
            "label": "address payable",
            "numberOfBytes": "20"
          },
          "t_array(t_uint256)1000_storage": {
            "base": "t_uint256",
            "encoding": "inplace",
            "label": "uint256[1000]",
            "numberOfBytes": "32000"
          },
          "t_array(t_uint256)49_storage": {
            "base": "t_uint256",
            "encoding": "inplace",
            "label": "uint256[49]",
            "numberOfBytes": "1568"
          },
          "t_bool": {
            "encoding": "inplace",
            "label": "bool",
            "numberOfBytes": "1"
          },
          "t_bytes32": {
            "encoding": "inplace",
            "label": "bytes32",
            "numberOfBytes": "32"
          },
          "t_mapping(t_address,t_bool)": {
            "encoding": "mapping",
            "key": "t_address",
            "label": "mapping(address => bool)",
            "numberOfBytes": "32",
            "value": "t_bool"
          },
          "t_mapping(t_address,t_mapping(t_address,t_bool))": {
            "encoding": "mapping",
            "key": "t_address",
            "label": "mapping(address => mapping(address => bool))",
            "numberOfBytes": "32",
            "value": "t_mapping(t_address,t_bool)"
          },
          "t_mapping(t_address,t_struct(AddressData)3333_storage)": {
            "encoding": "mapping",
            "key": "t_address",
            "label": "mapping(address => struct IERC721A.AddressData)",
            "numberOfBytes": "32",
            "value": "t_struct(AddressData)3333_storage"
          },
          "t_mapping(t_address,t_uint256)": {
            "encoding": "mapping",
            "key": "t_address",
            "label": "mapping(address => uint256)",
            "numberOfBytes": "32",
            "value": "t_uint256"
          },
          "t_mapping(t_uint256,t_address)": {
            "encoding": "mapping",
            "key": "t_uint256",
            "label": "mapping(uint256 => address)",
            "numberOfBytes": "32",
            "value": "t_address"
          },
          "t_mapping(t_uint256,t_struct(TokenOwnership)3324_storage)": {
            "encoding": "mapping",
            "key": "t_uint256",
            "label": "mapping(uint256 => struct IERC721A.TokenOwnership)",
            "numberOfBytes": "32",
            "value": "t_struct(TokenOwnership)3324_storage"
          },
          "t_string_storage": {
            "encoding": "bytes",
            "label": "string",
            "numberOfBytes": "32"
          },
          "t_struct(AddressData)3333_storage": {
            "encoding": "inplace",
            "label": "struct IERC721A.AddressData",
            "members": [
              {
                "astId": 3326,
                "contract": "contracts/Vibers.sol:Vibers",
                "label": "balance",
                "offset": 0,
                "slot": "0",
                "type": "t_uint64"
              },
              {
                "astId": 3328,
                "contract": "contracts/Vibers.sol:Vibers",
                "label": "numberMinted",
                "offset": 8,
                "slot": "0",
                "type": "t_uint64"
              },
              {
                "astId": 3330,
                "contract": "contracts/Vibers.sol:Vibers",
                "label": "numberBurned",
                "offset": 16,
                "slot": "0",
                "type": "t_uint64"
              },
              {
                "astId": 3332,
                "contract": "contracts/Vibers.sol:Vibers",
                "label": "aux",
                "offset": 24,
                "slot": "0",
                "type": "t_uint64"
              }
            ],
            "numberOfBytes": "32"
          },
          "t_struct(TokenOwnership)3324_storage": {
            "encoding": "inplace",
            "label": "struct IERC721A.TokenOwnership",
            "members": [
              {
                "astId": 3319,
                "contract": "contracts/Vibers.sol:Vibers",
                "label": "addr",
                "offset": 0,
                "slot": "0",
                "type": "t_address"
              },
              {
                "astId": 3321,
                "contract": "contracts/Vibers.sol:Vibers",
                "label": "startTimestamp",
                "offset": 20,
                "slot": "0",
                "type": "t_uint64"
              },
              {
                "astId": 3323,
                "contract": "contracts/Vibers.sol:Vibers",
                "label": "burned",
                "offset": 28,
                "slot": "0",
                "type": "t_bool"
              }
            ],
            "numberOfBytes": "32"
          },
          "t_uint256": {
            "encoding": "inplace",
            "label": "uint256",
            "numberOfBytes": "32"
          },
          "t_uint64": {
            "encoding": "inplace",
            "label": "uint64",
            "numberOfBytes": "8"
          }
        }
      },
      "userdoc": {
        "errors": {
          "ApprovalCallerNotOwnerNorApproved()": [
            {
              "notice": "The caller must own the token or be an approved operator."
            }
          ],
          "ApprovalQueryForNonexistentToken()": [
            {
              "notice": "The token does not exist."
            }
          ],
          "ApprovalToCurrentOwner()": [
            {
              "notice": "The caller cannot approve to the current owner."
            }
          ],
          "ApproveToCaller()": [
            {
              "notice": "The caller cannot approve to their own address."
            }
          ],
          "BalanceQueryForZeroAddress()": [
            {
              "notice": "Cannot query the balance for the zero address."
            }
          ],
          "MintToZeroAddress()": [
            {
              "notice": "Cannot mint to the zero address."
            }
          ],
          "MintZeroQuantity()": [
            {
              "notice": "The quantity of tokens minted must be more than zero."
            }
          ],
          "OwnerQueryForNonexistentToken()": [
            {
              "notice": "The token does not exist."
            }
          ],
          "TransferCallerNotOwnerNorApproved()": [
            {
              "notice": "The caller must own the token or be an approved operator."
            }
          ],
          "TransferFromIncorrectOwner()": [
            {
              "notice": "The token must be owned by `from`."
            }
          ],
          "TransferToNonERC721ReceiverImplementer()": [
            {
              "notice": "Cannot safely transfer to a contract that does not implement the ERC721Receiver interface."
            }
          ],
          "TransferToZeroAddress()": [
            {
              "notice": "Cannot transfer to the zero address."
            }
          ],
          "URIQueryForNonexistentToken()": [
            {
              "notice": "The token does not exist."
            }
          ]
        },
        "kind": "user",
        "methods": {
          "constructor": {
            "notice": "Token URIs will be autogenerated based on `baseURI` and their token IDs. See {ERC721-tokenURI}."
          },
          "freezeMetadata()": {
            "notice": "Freeze the metaData"
          },
          "give32TokensToDevs()": {
            "notice": "Can only be called twice. Gives 64 total Shrooms to devs for giveaways, marketing purposes and team members. 28 of these will go to Treasure Chests holders."
          },
          "setBaseURI(string)": {
            "notice": "Devs cant change URI after the sale begins"
          },
          "setPublicMintOpen(uint256)": {
            "notice": "Start public sale (can't be stopped after called)"
          },
          "setWhitelistMintOpen(uint256)": {
            "notice": "Start whitelist sale (can't be stopped after called)"
          }
        },
        "notice": "__     __ ______ _______  ________ _______   ______ |  \\   |  \\      \\       \\|        \\       \\ /      \\ |▓▓   | ▓▓\\▓▓▓▓▓▓ ▓▓▓▓▓▓▓\\ ▓▓▓▓▓▓▓▓ ▓▓▓▓▓▓▓\\  ▓▓▓▓▓▓\\ |▓▓   | ▓▓ | ▓▓ | ▓▓__/ ▓▓ ▓▓__   | ▓▓__| ▓▓ ▓▓___\\▓▓ \\▓▓\\ /  ▓▓ | ▓▓ | ▓▓    ▓▓ ▓▓  \\  | ▓▓    ▓▓\\▓▓    \\ \\▓▓\\  ▓▓  | ▓▓ | ▓▓▓▓▓▓▓\\ ▓▓▓▓▓  | ▓▓▓▓▓▓▓\\_\\▓▓▓▓▓▓\\ \\▓▓ ▓▓  _| ▓▓_| ▓▓__/ ▓▓ ▓▓_____| ▓▓  | ▓▓  \\__| ▓▓ \\▓▓▓  |   ▓▓ \\ ▓▓    ▓▓ ▓▓     \\ ▓▓  | ▓▓\\▓▓    ▓▓ \\▓    \\▓▓▓▓▓▓\\▓▓▓▓▓▓▓ \\▓▓▓▓▓▓▓▓\\▓▓   \\▓▓ \\▓▓▓▓▓▓ credit to DerpyBirbs, Cosmic Caps, and Critterz for their input on this contract !vibe //TODO TODO TODO TODO TODO TODO TODO TODO TODO TODO TODO TODO TODO TODO TODO TODO TODO TODO // Does ERC721A randomize mint? // Audit contract for Reentrancy attacks",
        "version": 1
      }
    }
  }
}