{
  "_format": "hh-sol-artifact-1",
  "contractName": "Vibers",
  "sourceName": "contracts/Vibers.sol",
  "abi": [
    {
      "inputs": [
        {
          "internalType": "string",
          "name": "baseTokenURI",
          "type": "string"
        },
        {
          "internalType": "bytes32",
          "name": "allowlistMerkleRoot",
          "type": "bytes32"
        }
      ],
      "stateMutability": "nonpayable",
      "type": "constructor"
    },
    {
      "inputs": [],
      "name": "ApprovalCallerNotOwnerNorApproved",
      "type": "error"
    },
    {
      "inputs": [],
      "name": "ApprovalQueryForNonexistentToken",
      "type": "error"
    },
    {
      "inputs": [],
      "name": "ApprovalToCurrentOwner",
      "type": "error"
    },
    {
      "inputs": [],
      "name": "ApproveToCaller",
      "type": "error"
    },
    {
      "inputs": [],
      "name": "BalanceQueryForZeroAddress",
      "type": "error"
    },
    {
      "inputs": [],
      "name": "MintToZeroAddress",
      "type": "error"
    },
    {
      "inputs": [],
      "name": "MintZeroQuantity",
      "type": "error"
    },
    {
      "inputs": [],
      "name": "OwnerQueryForNonexistentToken",
      "type": "error"
    },
    {
      "inputs": [],
      "name": "TransferCallerNotOwnerNorApproved",
      "type": "error"
    },
    {
      "inputs": [],
      "name": "TransferFromIncorrectOwner",
      "type": "error"
    },
    {
      "inputs": [],
      "name": "TransferToNonERC721ReceiverImplementer",
      "type": "error"
    },
    {
      "inputs": [],
      "name": "TransferToZeroAddress",
      "type": "error"
    },
    {
      "inputs": [],
      "name": "URIQueryForNonexistentToken",
      "type": "error"
    },
    {
      "anonymous": false,
      "inputs": [
        {
          "indexed": true,
          "internalType": "address",
          "name": "owner",
          "type": "address"
        },
        {
          "indexed": true,
          "internalType": "address",
          "name": "approved",
          "type": "address"
        },
        {
          "indexed": true,
          "internalType": "uint256",
          "name": "tokenId",
          "type": "uint256"
        }
      ],
      "name": "Approval",
      "type": "event"
    },
    {
      "anonymous": false,
      "inputs": [
        {
          "indexed": true,
          "internalType": "address",
          "name": "owner",
          "type": "address"
        },
        {
          "indexed": true,
          "internalType": "address",
          "name": "operator",
          "type": "address"
        },
        {
          "indexed": false,
          "internalType": "bool",
          "name": "approved",
          "type": "bool"
        }
      ],
      "name": "ApprovalForAll",
      "type": "event"
    },
    {
      "anonymous": false,
      "inputs": [
        {
          "indexed": true,
          "internalType": "address",
          "name": "previousOwner",
          "type": "address"
        },
        {
          "indexed": true,
          "internalType": "address",
          "name": "newOwner",
          "type": "address"
        }
      ],
      "name": "OwnershipTransferred",
      "type": "event"
    },
    {
      "anonymous": false,
      "inputs": [
        {
          "indexed": true,
          "internalType": "address",
          "name": "from",
          "type": "address"
        },
        {
          "indexed": true,
          "internalType": "address",
          "name": "to",
          "type": "address"
        },
        {
          "indexed": true,
          "internalType": "uint256",
          "name": "tokenId",
          "type": "uint256"
        }
      ],
      "name": "Transfer",
      "type": "event"
    },
    {
      "anonymous": false,
      "inputs": [],
      "name": "allowlistMintOpened",
      "type": "event"
    },
    {
      "anonymous": false,
      "inputs": [],
      "name": "publicMintOpened",
      "type": "event"
    },
    {
      "inputs": [
        {
          "internalType": "uint256",
          "name": "quantity",
          "type": "uint256"
        },
        {
          "internalType": "bytes32[]",
          "name": "allowlistProof",
          "type": "bytes32[]"
        }
      ],
      "name": "allowlistMint",
      "outputs": [],
      "stateMutability": "payable",
      "type": "function"
    },
    {
      "inputs": [
        {
          "internalType": "address",
          "name": "",
          "type": "address"
        }
      ],
      "name": "allowlistMintedCounts",
      "outputs": [
        {
          "internalType": "uint256",
          "name": "",
          "type": "uint256"
        }
      ],
      "stateMutability": "view",
      "type": "function"
    },
    {
      "inputs": [
        {
          "internalType": "address",
          "name": "to",
          "type": "address"
        },
        {
          "internalType": "uint256",
          "name": "tokenId",
          "type": "uint256"
        }
      ],
      "name": "approve",
      "outputs": [],
      "stateMutability": "nonpayable",
      "type": "function"
    },
    {
      "inputs": [
        {
          "internalType": "bytes32[]",
          "name": "allowlistProof",
          "type": "bytes32[]"
        }
      ],
      "name": "availableAllowlistMint",
      "outputs": [
        {
          "internalType": "uint256",
          "name": "",
          "type": "uint256"
        }
      ],
      "stateMutability": "view",
      "type": "function"
    },
    {
      "inputs": [
        {
          "internalType": "address",
          "name": "owner",
          "type": "address"
        }
      ],
      "name": "balanceOf",
      "outputs": [
        {
          "internalType": "uint256",
          "name": "",
          "type": "uint256"
        }
      ],
      "stateMutability": "view",
      "type": "function"
    },
    {
      "inputs": [
        {
          "internalType": "uint256",
          "name": "tokenId",
          "type": "uint256"
        }
      ],
      "name": "getApproved",
      "outputs": [
        {
          "internalType": "address",
          "name": "",
          "type": "address"
        }
      ],
      "stateMutability": "view",
      "type": "function"
    },
    {
      "inputs": [],
      "name": "getMaxSupply",
      "outputs": [
        {
          "internalType": "uint256",
          "name": "",
          "type": "uint256"
        }
      ],
      "stateMutability": "pure",
      "type": "function"
    },
    {
      "inputs": [],
      "name": "getMintPrice",
      "outputs": [
        {
          "internalType": "uint256",
          "name": "",
          "type": "uint256"
        }
      ],
      "stateMutability": "view",
      "type": "function"
    },
    {
      "inputs": [],
      "name": "getQuantityMinted",
      "outputs": [
        {
          "internalType": "uint256",
          "name": "",
          "type": "uint256"
        }
      ],
      "stateMutability": "view",
      "type": "function"
    },
    {
      "inputs": [],
      "name": "hasMetadataLocked",
      "outputs": [
        {
          "internalType": "bool",
          "name": "",
          "type": "bool"
        }
      ],
      "stateMutability": "view",
      "type": "function"
    },
    {
      "inputs": [],
      "name": "hasPublicSaleStarted",
      "outputs": [
        {
          "internalType": "bool",
          "name": "",
          "type": "bool"
        }
      ],
      "stateMutability": "view",
      "type": "function"
    },
    {
      "inputs": [],
      "name": "hasSaleStarted",
      "outputs": [
        {
          "internalType": "bool",
          "name": "",
          "type": "bool"
        }
      ],
      "stateMutability": "view",
      "type": "function"
    },
    {
      "inputs": [
        {
          "internalType": "address",
          "name": "owner",
          "type": "address"
        },
        {
          "internalType": "address",
          "name": "operator",
          "type": "address"
        }
      ],
      "name": "isApprovedForAll",
      "outputs": [
        {
          "internalType": "bool",
          "name": "",
          "type": "bool"
        }
      ],
      "stateMutability": "view",
      "type": "function"
    },
    {
      "inputs": [],
      "name": "lockMetadata",
      "outputs": [],
      "stateMutability": "nonpayable",
      "type": "function"
    },
    {
      "inputs": [
        {
          "internalType": "uint256",
          "name": "quantity",
          "type": "uint256"
        }
      ],
      "name": "mint",
      "outputs": [],
      "stateMutability": "payable",
      "type": "function"
    },
    {
      "inputs": [],
      "name": "mint64Tokens",
      "outputs": [],
      "stateMutability": "nonpayable",
      "type": "function"
    },
    {
      "inputs": [],
      "name": "name",
      "outputs": [
        {
          "internalType": "string",
          "name": "",
          "type": "string"
        }
      ],
      "stateMutability": "view",
      "type": "function"
    },
    {
      "inputs": [],
      "name": "owner",
      "outputs": [
        {
          "internalType": "address",
          "name": "",
          "type": "address"
        }
      ],
      "stateMutability": "view",
      "type": "function"
    },
    {
      "inputs": [
        {
          "internalType": "uint256",
          "name": "tokenId",
          "type": "uint256"
        }
      ],
      "name": "ownerOf",
      "outputs": [
        {
          "internalType": "address",
          "name": "",
          "type": "address"
        }
      ],
      "stateMutability": "view",
      "type": "function"
    },
    {
      "inputs": [
        {
          "internalType": "address",
          "name": "",
          "type": "address"
        }
      ],
      "name": "publicMintedCounts",
      "outputs": [
        {
          "internalType": "uint256",
          "name": "",
          "type": "uint256"
        }
      ],
      "stateMutability": "view",
      "type": "function"
    },
    {
      "inputs": [],
      "name": "renounceOwnership",
      "outputs": [],
      "stateMutability": "nonpayable",
      "type": "function"
    },
    {
      "inputs": [
        {
          "internalType": "address",
          "name": "from",
          "type": "address"
        },
        {
          "internalType": "address",
          "name": "to",
          "type": "address"
        },
        {
          "internalType": "uint256",
          "name": "tokenId",
          "type": "uint256"
        }
      ],
      "name": "safeTransferFrom",
      "outputs": [],
      "stateMutability": "nonpayable",
      "type": "function"
    },
    {
      "inputs": [
        {
          "internalType": "address",
          "name": "from",
          "type": "address"
        },
        {
          "internalType": "address",
          "name": "to",
          "type": "address"
        },
        {
          "internalType": "uint256",
          "name": "tokenId",
          "type": "uint256"
        },
        {
          "internalType": "bytes",
          "name": "_data",
          "type": "bytes"
        }
      ],
      "name": "safeTransferFrom",
      "outputs": [],
      "stateMutability": "nonpayable",
      "type": "function"
    },
    {
      "inputs": [
        {
          "internalType": "bytes32",
          "name": "allowlistMerkleRoot",
          "type": "bytes32"
        }
      ],
      "name": "setAllowlistMerkleRoot",
      "outputs": [],
      "stateMutability": "nonpayable",
      "type": "function"
    },
    {
      "inputs": [
        {
          "internalType": "uint256",
          "name": "_PRICE",
          "type": "uint256"
        }
      ],
      "name": "setAllowlistMintOpen",
      "outputs": [],
      "stateMutability": "nonpayable",
      "type": "function"
    },
    {
      "inputs": [
        {
          "internalType": "address",
          "name": "operator",
          "type": "address"
        },
        {
          "internalType": "bool",
          "name": "approved",
          "type": "bool"
        }
      ],
      "name": "setApprovalForAll",
      "outputs": [],
      "stateMutability": "nonpayable",
      "type": "function"
    },
    {
      "inputs": [
        {
          "internalType": "string",
          "name": "baseTokenURI",
          "type": "string"
        }
      ],
      "name": "setBaseURI",
      "outputs": [],
      "stateMutability": "nonpayable",
      "type": "function"
    },
    {
      "inputs": [
        {
          "internalType": "uint256",
          "name": "_PRICE",
          "type": "uint256"
        }
      ],
      "name": "setMintPrice",
      "outputs": [],
      "stateMutability": "nonpayable",
      "type": "function"
    },
    {
      "inputs": [
        {
          "internalType": "uint256",
          "name": "_PRICE",
          "type": "uint256"
        }
      ],
      "name": "setPublicMintOpen",
      "outputs": [],
      "stateMutability": "nonpayable",
      "type": "function"
    },
    {
      "inputs": [
        {
          "internalType": "bytes4",
          "name": "interfaceId",
          "type": "bytes4"
        }
      ],
      "name": "supportsInterface",
      "outputs": [
        {
          "internalType": "bool",
          "name": "",
          "type": "bool"
        }
      ],
      "stateMutability": "view",
      "type": "function"
    },
    {
      "inputs": [],
      "name": "symbol",
      "outputs": [
        {
          "internalType": "string",
          "name": "",
          "type": "string"
        }
      ],
      "stateMutability": "view",
      "type": "function"
    },
    {
      "inputs": [
        {
          "internalType": "uint256",
          "name": "tokenId",
          "type": "uint256"
        }
      ],
      "name": "tokenURI",
      "outputs": [
        {
          "internalType": "string",
          "name": "",
          "type": "string"
        }
      ],
      "stateMutability": "view",
      "type": "function"
    },
    {
      "inputs": [],
      "name": "totalSupply",
      "outputs": [
        {
          "internalType": "uint256",
          "name": "",
          "type": "uint256"
        }
      ],
      "stateMutability": "view",
      "type": "function"
    },
    {
      "inputs": [
        {
          "internalType": "address",
          "name": "from",
          "type": "address"
        },
        {
          "internalType": "address",
          "name": "to",
          "type": "address"
        },
        {
          "internalType": "uint256",
          "name": "tokenId",
          "type": "uint256"
        }
      ],
      "name": "transferFrom",
      "outputs": [],
      "stateMutability": "nonpayable",
      "type": "function"
    },
    {
      "inputs": [
        {
          "internalType": "address",
          "name": "newOwner",
          "type": "address"
        }
      ],
      "name": "transferOwnership",
      "outputs": [],
      "stateMutability": "nonpayable",
      "type": "function"
    },
    {
      "inputs": [],
      "name": "withdrawFunds",
      "outputs": [],
      "stateMutability": "nonpayable",
      "type": "function"
    }
  ],
  "bytecode": "0x60806040526000603c819055610425819055610426819055610427805461ffff1916905561042c805460ff1916905561042d5561042e80546001600160a01b03191673f8e807027c4f6d0968c8c4742508d136d926a9811790553480156200006657600080fd5b50604051620028dd380380620028dd83398101604081905262000089916200022e565b6040518060400160405280600681526020016556696265727360d01b815250604051806040016040528060048152602001635649424560e01b815250620000df620000d96200013460201b60201c565b62000138565b8151620000f490600390602085019062000188565b5080516200010a90600490602084019062000188565b50600060015550508151620001289061042b90602085019062000188565b5061042a555062000360565b3390565b600080546001600160a01b038381166001600160a01b0319831681178455604051919092169283917f8be0079c531659141344cd1fd0a4f28419497f9722a3daafe3b4186f6b6457e09190a35050565b82805462000196906200030d565b90600052602060002090601f016020900481019282620001ba576000855562000205565b82601f10620001d557805160ff191683800117855562000205565b8280016001018555821562000205579182015b8281111562000205578251825591602001919060010190620001e8565b506200021392915062000217565b5090565b5b8082111562000213576000815560010162000218565b6000806040838503121562000241578182fd5b82516001600160401b038082111562000258578384fd5b818501915085601f8301126200026c578384fd5b8151818111156200028157620002816200034a565b604051601f8201601f19908116603f01168101908382118183101715620002ac57620002ac6200034a565b81604052828152602093508884848701011115620002c8578687fd5b8691505b82821015620002eb5784820184015181830185015290830190620002cc565b82821115620002fc57868484830101525b969092015195979596505050505050565b600181811c908216806200032257607f821691505b602082108114156200034457634e487b7160e01b600052602260045260246000fd5b50919050565b634e487b7160e01b600052604160045260246000fd5b61256d80620003706000396000f3fe60806040526004361061020f5760003560e01c80636701cff711610118578063a7f93ebd116100a0578063f2fde38b1161006f578063f2fde38b146105f7578063f4a0a52814610617578063f8233d0c14610637578063f95df41414610650578063fdd4b0f01461067057600080fd5b8063a7f93ebd14610559578063b88d4fde1461056e578063c87b56dd1461058e578063e985e9c5146105ae57600080fd5b80638da5cb5b116100e75780638da5cb5b146104de57806395d89b41146104fc578063989bdbb614610511578063a0712d6814610526578063a22cb4651461053957600080fd5b80636701cff71461046857806370a0823114610496578063715018a6146104b65780637bc9200e146104cb57600080fd5b806323b872dd1161019b5780634c0f38c21161016a5780634c0f38c2146103d3578063539715d8146103e857806353a541821461040857806355f804b3146104285780636352211e1461044857600080fd5b806323b872dd1461036957806324600fc31461038957806341af90511461039e57806342842e0e146103b357600080fd5b80630a3ed96e116101e25780630a3ed96e146102c55780630ffb0288146102e557806318160ddd146103215780631c8b232d1461033a578063216a08d41461035357600080fd5b806301ffc9a71461021457806306fdde0314610249578063081812fc1461026b578063095ea7b3146102a3575b600080fd5b34801561022057600080fd5b5061023461022f36600461212d565b61068e565b60405190151581526020015b60405180910390f35b34801561025557600080fd5b5061025e6106e0565b60405161024091906122bb565b34801561027757600080fd5b5061028b610286366004612115565b610772565b6040516001600160a01b039091168152602001610240565b3480156102af57600080fd5b506102c36102be366004612045565b6107b6565b005b3480156102d157600080fd5b506102c36102e0366004612115565b61083d565b3480156102f157600080fd5b50610313610300366004611f0c565b6104286020526000908152604090205481565b604051908152602001610240565b34801561032d57600080fd5b5060025460015403610313565b34801561034657600080fd5b506104275460ff16610234565b34801561035f57600080fd5b5061042654610313565b34801561037557600080fd5b506102c3610384366004611f58565b610969565b34801561039557600080fd5b506102c3610974565b3480156103aa57600080fd5b506102c36109b3565b3480156103bf57600080fd5b506102c36103ce366004611f58565b610ac2565b3480156103df57600080fd5b506103e8610313565b3480156103f457600080fd5b506102c3610403366004612115565b610add565b34801561041457600080fd5b5061031361042336600461206e565b610ba5565b34801561043457600080fd5b506102c3610443366004612165565b610bde565b34801561045457600080fd5b5061028b610463366004612115565b610c8c565b34801561047457600080fd5b50610313610483366004611f0c565b6104296020526000908152604090205481565b3480156104a257600080fd5b506103136104b1366004611f0c565b610c9e565b3480156104c257600080fd5b506102c3610cec565b6102c36104d93660046121aa565b610d22565b3480156104ea57600080fd5b506000546001600160a01b031661028b565b34801561050857600080fd5b5061025e610fc8565b34801561051d57600080fd5b506102c3610fd7565b6102c3610534366004612115565b611065565b34801561054557600080fd5b506102c361055436600461200b565b611245565b34801561056557600080fd5b50603c54610313565b34801561057a57600080fd5b506102c3610589366004611f93565b6112db565b34801561059a57600080fd5b5061025e6105a9366004612115565b611325565b3480156105ba57600080fd5b506102346105c9366004611f26565b6001600160a01b03918216600090815260086020908152604080832093909416825291909152205460ff1690565b34801561060357600080fd5b506102c3610612366004611f0c565b6113aa565b34801561062357600080fd5b506102c3610632366004612115565b611445565b34801561064357600080fd5b5061042c5460ff16610234565b34801561065c57600080fd5b506102c361066b366004612115565b6114eb565b34801561067c57600080fd5b5061042754610100900460ff16610234565b60006001600160e01b031982166380ac58cd60e01b14806106bf57506001600160e01b03198216635b5e139f60e01b145b806106da57506301ffc9a760e01b6001600160e01b03198316145b92915050565b6060600380546106ef90612475565b80601f016020809104026020016040519081016040528092919081815260200182805461071b90612475565b80156107685780601f1061073d57610100808354040283529160200191610768565b820191906000526020600020905b81548152906001019060200180831161074b57829003601f168201915b5050505050905090565b600061077d8261151b565b61079a576040516333d1c03960e21b815260040160405180910390fd5b506000908152600760205260409020546001600160a01b031690565b60006107c182610c8c565b9050806001600160a01b0316836001600160a01b031614156107f65760405163250fdee360e21b815260040160405180910390fd5b336001600160a01b0382161461082d5761081081336105c9565b61082d576040516367d9dca160e11b815260040160405180910390fd5b610838838383611547565b505050565b6000546001600160a01b031633146108705760405162461bcd60e51b815260040161086790612382565b60405180910390fd5b61042754610100900460ff16156108c95760405162461bcd60e51b815260206004820152601f60248201527f5075626c6963206d696e742068617320616c72656164792073746172746564006044820152606401610867565b6104275460ff166109285760405162461bcd60e51b8152602060048201526024808201527f416c6c6f776c697374206d696e74206d757374206265207374617274656420666044820152631a5c9cdd60e21b6064820152608401610867565b603c819055610427805461ff0019166101001790556040517fd027ba160f7e3111418d8cac41dc57dd841a8248c1d30fae2612f8499979dbb290600090a150565b6108388383836115a3565b61042e5460405147916001600160a01b03169082156108fc029083906000818181858888f193505050501580156109af573d6000803e3d6000fd5b5050565b6000546001600160a01b031633146109dd5760405162461bcd60e51b815260040161086790612382565b61042754610100900460ff1615610a365760405162461bcd60e51b815260206004820152601860248201527f53616c652068617320616c7265616479207374617274656400000000000000006044820152606401610867565b604061042d5410610a955760405162461bcd60e51b815260206004820152602360248201527f44657620737570706c792068617320616c7265616479206265656e206177617260448201526219195960ea1b6064820152608401610867565b61042e54610aad906001600160a01b03166040611790565b61042d54610abc9060206123e7565b61042d55565b610838838383604051806020016040528060008152506112db565b6000546001600160a01b03163314610b075760405162461bcd60e51b815260040161086790612382565b6104275460ff1615610b665760405162461bcd60e51b815260206004820152602260248201527f416c6c6f776c697374206d696e742068617320616c7265616479207374617274604482015261195960f21b6064820152608401610867565b603c819055610427805460ff191660011790556040517fef4e7e9fe740cbdbe62d9b3c0b0cd0c03ad3f5217218ca1c1cb6eb2275f1efec90600090a150565b6000610bb0826117aa565b15610bd15733600090815261042860205260409020546106da906002612432565b506000919050565b919050565b6000546001600160a01b03163314610c085760405162461bcd60e51b815260040161086790612382565b61042c5460ff1615610c785760405162461bcd60e51b815260206004820152603360248201527f43616e6e6f74206368616e6765206d6574616461746120616674657220746865604482015272081b595d1859185d18481a5cc81b1bd8dad959606a1b6064820152608401610867565b80516109af9061042b906020840190611e05565b6000610c97826117ba565b5192915050565b60006001600160a01b038216610cc7576040516323d3ad8160e21b815260040160405180910390fd5b506001600160a01b03166000908152600660205260409020546001600160401b031690565b6000546001600160a01b03163314610d165760405162461bcd60e51b815260040161086790612382565b610d2060006118d4565b565b33328114610d425760405162461bcd60e51b815260040161086790612354565b803b8015610d625760405162461bcd60e51b815260040161086790612354565b838380806020026020016040519081016040528093929190818152602001838360200280828437600092019190915250610da192508391506117aa9050565b610ded5760405162461bcd60e51b815260206004820152601960248201527f43616c6c6572206973206e6f7420616c6c6f776c6973746564000000000000006044820152606401610867565b336000908152610428602052604081205490610e0988836123e7565b6104275490915060ff16610e5f5760405162461bcd60e51b815260206004820152601860248201527f416c6c6f776c697374206d696e74696e6720636c6f73656400000000000000006044820152606401610867565b6103e86104265410610e835760405162461bcd60e51b815260040161086790612312565b60008811610ecd5760405162461bcd60e51b815260206004820152601760248201527626bab9ba1036b4b73a1030ba103632b0b9ba1037b7329760491b6044820152606401610867565b6002811115610f1e5760405162461bcd60e51b815260206004820152601c60248201527f4d696e742065786365656473206c696d6974207065722063616c6c2e000000006044820152606401610867565b61042654610f2e906103e8612432565b881115610f4d5760405162461bcd60e51b8152600401610867906122ce565b87603c54610f5b9190612413565b3414610fa15760405162461bcd60e51b81526020600482015260156024820152740acd2c4cae4e640e0e4d2c6ca40dad2e6dac2e8c6d605b1b6044820152606401610867565b33600081815261042860205260409020829055610fbe9089611790565b5050505050505050565b6060600480546106ef90612475565b6000546001600160a01b031633146110015760405162461bcd60e51b815260040161086790612382565b61042c5460ff16156110555760405162461bcd60e51b815260206004820152601a60248201527f4d6574616461746120697320616c7265616479206c6f636b65640000000000006044820152606401610867565b61042c805460ff19166001179055565b333281146110855760405162461bcd60e51b815260040161086790612354565b803b80156110a55760405162461bcd60e51b815260040161086790612354565b61042754610100900460ff166110fd5760405162461bcd60e51b815260206004820152601960248201527f53616c6520686173206e6f742073746172746564207965742e000000000000006044820152606401610867565b6103e861042654106111215760405162461bcd60e51b815260040161086790612312565b6000831161116b5760405162461bcd60e51b815260206004820152601760248201527626bab9ba1036b4b73a1030ba103632b0b9ba1037b7329760491b6044820152606401610867565b60048311156111bc5760405162461bcd60e51b815260206004820152601c60248201527f4d696e742065786365656473206c696d6974207065722063616c6c2e000000006044820152606401610867565b610426546111cc906103e8612432565b8311156111eb5760405162461bcd60e51b8152600401610867906122ce565b82603c546111f99190612413565b341461123b5760405162461bcd60e51b81526020600482015260116024820152701b5cd9cb9d985b1d59481a5b9d985b1a59607a1b6044820152606401610867565b6108383384611790565b6001600160a01b03821633141561126f5760405163b06307db60e01b815260040160405180910390fd5b3360008181526008602090815260408083206001600160a01b03871680855290835292819020805460ff191686151590811790915590519081529192917f17307eab39ab6107e8899845ad3d59bd9653f200f220920489ca2b5937696c31910160405180910390a35050565b6112e68484846115a3565b6001600160a01b0383163b1561131f5761130284848484611924565b61131f576040516368d2bf6b60e11b815260040160405180910390fd5b50505050565b60606113308261151b565b61134d57604051630a14c4b560e41b815260040160405180910390fd5b6000611357611a1c565b905080516000141561137857604051806020016040528060008152506113a3565b8061138284611a2c565b60405160200161139392919061224f565b6040516020818303038152906040525b9392505050565b6000546001600160a01b031633146113d45760405162461bcd60e51b815260040161086790612382565b6001600160a01b0381166114395760405162461bcd60e51b815260206004820152602660248201527f4f776e61626c653a206e6577206f776e657220697320746865207a65726f206160448201526564647265737360d01b6064820152608401610867565b611442816118d4565b50565b6000546001600160a01b0316331461146f5760405162461bcd60e51b815260040161086790612382565b6104275460ff1615156001146114e65760405162461bcd60e51b815260206004820152603660248201527f5468652073616c65206d757374206265207374617274656420746f206368616e60448201527533b2903a34329032bc34b9ba34b73390383934b1b29760511b6064820152608401610867565b603c55565b6000546001600160a01b031633146115155760405162461bcd60e51b815260040161086790612382565b61042a55565b6000600154821080156106da575050600090815260056020526040902054600160e01b900460ff161590565b60008281526007602052604080822080546001600160a01b0319166001600160a01b0387811691821790925591518593918516917f8c5be1e5ebec7d5bd14f71427d1e84f3dd0314c0f7b2291e5b200ac8c7c3b92591a4505050565b60006115ae826117ba565b9050836001600160a01b031681600001516001600160a01b0316146115e55760405162a1148160e81b815260040160405180910390fd5b6000336001600160a01b0386161480611603575061160385336105c9565b8061161e57503361161384610772565b6001600160a01b0316145b90508061163e57604051632ce44b5f60e11b815260040160405180910390fd5b6001600160a01b03841661166557604051633a954ecd60e21b815260040160405180910390fd5b61167160008487611547565b6001600160a01b038581166000908152600660209081526040808320805467ffffffffffffffff198082166001600160401b0392831660001901831617909255898616808652838620805493841693831660019081018416949094179055898652600590945282852080546001600160e01b031916909417600160a01b4290921691909102178355870180845292208054919390911661174557600154821461174557805460208601516001600160401b0316600160a01b026001600160e01b03199091166001600160a01b038a16171781555b50505082846001600160a01b0316866001600160a01b03167fddf252ad1be2c89b69c2b068fc378daa952ba7f163c4a11628f55a4df523b3ef60405160405180910390a45050505050565b6109af828260405180602001604052806000815250611b45565b60006106da8261042a5433611d08565b6040805160608101825260008082526020820181905291810191909152816001548110156118bb57600081815260056020908152604091829020825160608101845290546001600160a01b0381168252600160a01b81046001600160401b031692820192909252600160e01b90910460ff161515918101829052906118b95780516001600160a01b031615611850579392505050565b5060001901600081815260056020908152604091829020825160608101845290546001600160a01b038116808352600160a01b82046001600160401b031693830193909352600160e01b900460ff16151592810192909252156118b4579392505050565b611850565b505b604051636f96cda160e11b815260040160405180910390fd5b600080546001600160a01b038381166001600160a01b0319831681178455604051919092169283917f8be0079c531659141344cd1fd0a4f28419497f9722a3daafe3b4186f6b6457e09190a35050565b604051630a85bd0160e11b81526000906001600160a01b0385169063150b7a029061195990339089908890889060040161227e565b602060405180830381600087803b15801561197357600080fd5b505af19250505080156119a3575060408051601f3d908101601f191682019092526119a091810190612149565b60015b6119fe573d8080156119d1576040519150601f19603f3d011682016040523d82523d6000602084013e6119d6565b606091505b5080516119f6576040516368d2bf6b60e11b815260040160405180910390fd5b805181602001fd5b6001600160e01b031916630a85bd0160e11b1490505b949350505050565b606061042b80546106ef90612475565b606081611a505750506040805180820190915260018152600360fc1b602082015290565b8160005b8115611a7a5780611a64816124b0565b9150611a739050600a836123ff565b9150611a54565b6000816001600160401b03811115611aa257634e487b7160e01b600052604160045260246000fd5b6040519080825280601f01601f191660200182016040528015611acc576020820181803683370190505b5090505b8415611a1457611ae1600183612432565b9150611aee600a866124cb565b611af99060306123e7565b60f81b818381518110611b1c57634e487b7160e01b600052603260045260246000fd5b60200101906001600160f81b031916908160001a905350611b3e600a866123ff565b9450611ad0565b6001546001600160a01b038416611b6e57604051622e076360e81b815260040160405180910390fd5b82611b8c5760405163b562e8dd60e01b815260040160405180910390fd5b6001600160a01b038416600081815260066020908152604080832080546fffffffffffffffffffffffffffffffff1981166001600160401b038083168b0181169182176801000000000000000067ffffffffffffffff1990941690921783900481168b01811690920217909155858452600590925290912080546001600160e01b0319168317600160a01b42909316929092029190911790558190818501903b15611cb4575b60405182906001600160a01b038816906000907fddf252ad1be2c89b69c2b068fc378daa952ba7f163c4a11628f55a4df523b3ef908290a4611c7d6000878480600101955087611924565b611c9a576040516368d2bf6b60e11b815260040160405180910390fd5b808210611c32578260015414611caf57600080fd5b611cf9565b5b6040516001830192906001600160a01b038816906000907fddf252ad1be2c89b69c2b068fc378daa952ba7f163c4a11628f55a4df523b3ef908290a4808210611cb5575b5060015561131f600085838684565b6040516bffffffffffffffffffffffff19606083901b166020820152600090611a14908590859060340160405160208183030381529060405280519060200120600081815b8551811015611dfa576000868281518110611d7857634e487b7160e01b600052603260045260246000fd5b60200260200101519050808311611dba576040805160208101859052908101829052606001604051602081830303815290604052805190602001209250611de7565b60408051602081018390529081018490526060016040516020818303038152906040528051906020012092505b5080611df2816124b0565b915050611d4d565b509092149392505050565b828054611e1190612475565b90600052602060002090601f016020900481019282611e335760008555611e79565b82601f10611e4c57805160ff1916838001178555611e79565b82800160010185558215611e79579182015b82811115611e79578251825591602001919060010190611e5e565b50611e85929150611e89565b5090565b5b80821115611e855760008155600101611e8a565b60006001600160401b03831115611eb757611eb761250b565b611eca601f8401601f19166020016123b7565b9050828152838383011115611ede57600080fd5b828260208301376000602084830101529392505050565b80356001600160a01b0381168114610bd957600080fd5b600060208284031215611f1d578081fd5b6113a382611ef5565b60008060408385031215611f38578081fd5b611f4183611ef5565b9150611f4f60208401611ef5565b90509250929050565b600080600060608486031215611f6c578081fd5b611f7584611ef5565b9250611f8360208501611ef5565b9150604084013590509250925092565b60008060008060808587031215611fa8578081fd5b611fb185611ef5565b9350611fbf60208601611ef5565b92506040850135915060608501356001600160401b03811115611fe0578182fd5b8501601f81018713611ff0578182fd5b611fff87823560208401611e9e565b91505092959194509250565b6000806040838503121561201d578182fd5b61202683611ef5565b91506020830135801515811461203a578182fd5b809150509250929050565b60008060408385031215612057578182fd5b61206083611ef5565b946020939093013593505050565b60006020808385031215612080578182fd5b82356001600160401b0380821115612096578384fd5b818501915085601f8301126120a9578384fd5b8135818111156120bb576120bb61250b565b8060051b91506120cc8483016123b7565b8181528481019084860184860187018a10156120e6578788fd5b8795505b838610156121085780358352600195909501949186019186016120ea565b5098975050505050505050565b600060208284031215612126578081fd5b5035919050565b60006020828403121561213e578081fd5b81356113a381612521565b60006020828403121561215a578081fd5b81516113a381612521565b600060208284031215612176578081fd5b81356001600160401b0381111561218b578182fd5b8201601f8101841361219b578182fd5b611a1484823560208401611e9e565b6000806000604084860312156121be578081fd5b8335925060208401356001600160401b03808211156121db578283fd5b818601915086601f8301126121ee578283fd5b8135818111156121fc578384fd5b8760208260051b8501011115612210578384fd5b6020830194508093505050509250925092565b6000815180845261223b816020860160208601612449565b601f01601f19169290920160200192915050565b60008351612261818460208801612449565b835190830190612275818360208801612449565b01949350505050565b6001600160a01b03858116825284166020820152604081018390526080606082018190526000906122b190830184612223565b9695505050505050565b6020815260006113a36020830184612223565b60208082526024908201527f4d696e74207265717565737420657863656564732063757272656e7420737570604082015263706c792160e01b606082015260800190565b60208082526022908201527f4d696e742072657175657374206578636565647320746f74616c20737570706c604082015261792160f01b606082015260800190565b60208082526014908201527310d85b1b195c881a5cc8184818dbdb9d1c9858dd60621b604082015260600190565b6020808252818101527f4f776e61626c653a2063616c6c6572206973206e6f7420746865206f776e6572604082015260600190565b604051601f8201601f191681016001600160401b03811182821017156123df576123df61250b565b604052919050565b600082198211156123fa576123fa6124df565b500190565b60008261240e5761240e6124f5565b500490565b600081600019048311821515161561242d5761242d6124df565b500290565b600082821015612444576124446124df565b500390565b60005b8381101561246457818101518382015260200161244c565b8381111561131f5750506000910152565b600181811c9082168061248957607f821691505b602082108114156124aa57634e487b7160e01b600052602260045260246000fd5b50919050565b60006000198214156124c4576124c46124df565b5060010190565b6000826124da576124da6124f5565b500690565b634e487b7160e01b600052601160045260246000fd5b634e487b7160e01b600052601260045260246000fd5b634e487b7160e01b600052604160045260246000fd5b6001600160e01b03198116811461144257600080fdfea2646970667358221220a1ede1115958d24e0691cfa7406e8e1fafd250c118d7afcf29e603e92de037e164736f6c63430008040033",
  "linkReferences": {},
  "deployedLinkReferences": {}
}