{
  "_format": "hh-sol-artifact-1",
  "contractName": "Vibers",
  "sourceName": "contracts/Vibers.sol",
  "abi": [
    {
      "inputs": [
        {
          "internalType": "string",
          "name": "baseTokenURI",
          "type": "string"
        },
        {
          "internalType": "bytes32",
          "name": "whitelistMerkleRoot",
          "type": "bytes32"
        }
      ],
      "stateMutability": "nonpayable",
      "type": "constructor"
    },
    {
      "inputs": [],
      "name": "ApprovalCallerNotOwnerNorApproved",
      "type": "error"
    },
    {
      "inputs": [],
      "name": "ApprovalQueryForNonexistentToken",
      "type": "error"
    },
    {
      "inputs": [],
      "name": "ApprovalToCurrentOwner",
      "type": "error"
    },
    {
      "inputs": [],
      "name": "ApproveToCaller",
      "type": "error"
    },
    {
      "inputs": [],
      "name": "BalanceQueryForZeroAddress",
      "type": "error"
    },
    {
      "inputs": [],
      "name": "MintToZeroAddress",
      "type": "error"
    },
    {
      "inputs": [],
      "name": "MintZeroQuantity",
      "type": "error"
    },
    {
      "inputs": [],
      "name": "OwnerQueryForNonexistentToken",
      "type": "error"
    },
    {
      "inputs": [],
      "name": "TransferCallerNotOwnerNorApproved",
      "type": "error"
    },
    {
      "inputs": [],
      "name": "TransferFromIncorrectOwner",
      "type": "error"
    },
    {
      "inputs": [],
      "name": "TransferToNonERC721ReceiverImplementer",
      "type": "error"
    },
    {
      "inputs": [],
      "name": "TransferToZeroAddress",
      "type": "error"
    },
    {
      "inputs": [],
      "name": "URIQueryForNonexistentToken",
      "type": "error"
    },
    {
      "anonymous": false,
      "inputs": [
        {
          "indexed": true,
          "internalType": "address",
          "name": "owner",
          "type": "address"
        },
        {
          "indexed": true,
          "internalType": "address",
          "name": "approved",
          "type": "address"
        },
        {
          "indexed": true,
          "internalType": "uint256",
          "name": "tokenId",
          "type": "uint256"
        }
      ],
      "name": "Approval",
      "type": "event"
    },
    {
      "anonymous": false,
      "inputs": [
        {
          "indexed": true,
          "internalType": "address",
          "name": "owner",
          "type": "address"
        },
        {
          "indexed": true,
          "internalType": "address",
          "name": "operator",
          "type": "address"
        },
        {
          "indexed": false,
          "internalType": "bool",
          "name": "approved",
          "type": "bool"
        }
      ],
      "name": "ApprovalForAll",
      "type": "event"
    },
    {
      "anonymous": false,
      "inputs": [
        {
          "indexed": true,
          "internalType": "address",
          "name": "previousOwner",
          "type": "address"
        },
        {
          "indexed": true,
          "internalType": "address",
          "name": "newOwner",
          "type": "address"
        }
      ],
      "name": "OwnershipTransferred",
      "type": "event"
    },
    {
      "anonymous": false,
      "inputs": [
        {
          "indexed": true,
          "internalType": "address",
          "name": "from",
          "type": "address"
        },
        {
          "indexed": true,
          "internalType": "address",
          "name": "to",
          "type": "address"
        },
        {
          "indexed": true,
          "internalType": "uint256",
          "name": "tokenId",
          "type": "uint256"
        }
      ],
      "name": "Transfer",
      "type": "event"
    },
    {
      "anonymous": false,
      "inputs": [],
      "name": "publicMintOpened",
      "type": "event"
    },
    {
      "anonymous": false,
      "inputs": [],
      "name": "whitelistMintOpened",
      "type": "event"
    },
    {
      "inputs": [
        {
          "internalType": "address",
          "name": "to",
          "type": "address"
        },
        {
          "internalType": "uint256",
          "name": "tokenId",
          "type": "uint256"
        }
      ],
      "name": "approve",
      "outputs": [],
      "stateMutability": "nonpayable",
      "type": "function"
    },
    {
      "inputs": [
        {
          "internalType": "bytes32[]",
          "name": "whitelistProof",
          "type": "bytes32[]"
        }
      ],
      "name": "availableWhitelistMint",
      "outputs": [
        {
          "internalType": "uint256",
          "name": "",
          "type": "uint256"
        }
      ],
      "stateMutability": "view",
      "type": "function"
    },
    {
      "inputs": [
        {
          "internalType": "address",
          "name": "owner",
          "type": "address"
        }
      ],
      "name": "balanceOf",
      "outputs": [
        {
          "internalType": "uint256",
          "name": "",
          "type": "uint256"
        }
      ],
      "stateMutability": "view",
      "type": "function"
    },
    {
      "inputs": [],
      "name": "freezeMetadata",
      "outputs": [],
      "stateMutability": "nonpayable",
      "type": "function"
    },
    {
      "inputs": [
        {
          "internalType": "uint256",
          "name": "tokenId",
          "type": "uint256"
        }
      ],
      "name": "getApproved",
      "outputs": [
        {
          "internalType": "address",
          "name": "",
          "type": "address"
        }
      ],
      "stateMutability": "view",
      "type": "function"
    },
    {
      "inputs": [],
      "name": "getMaxSupply",
      "outputs": [
        {
          "internalType": "uint256",
          "name": "",
          "type": "uint256"
        }
      ],
      "stateMutability": "pure",
      "type": "function"
    },
    {
      "inputs": [],
      "name": "getMintPrice",
      "outputs": [
        {
          "internalType": "uint256",
          "name": "",
          "type": "uint256"
        }
      ],
      "stateMutability": "view",
      "type": "function"
    },
    {
      "inputs": [],
      "name": "getQuantityMinted",
      "outputs": [
        {
          "internalType": "uint256",
          "name": "",
          "type": "uint256"
        }
      ],
      "stateMutability": "view",
      "type": "function"
    },
    {
      "inputs": [],
      "name": "give32TokensToDevs",
      "outputs": [],
      "stateMutability": "nonpayable",
      "type": "function"
    },
    {
      "inputs": [],
      "name": "hasMetadataFroze",
      "outputs": [
        {
          "internalType": "bool",
          "name": "",
          "type": "bool"
        }
      ],
      "stateMutability": "view",
      "type": "function"
    },
    {
      "inputs": [],
      "name": "hasPublicSaleStarted",
      "outputs": [
        {
          "internalType": "bool",
          "name": "",
          "type": "bool"
        }
      ],
      "stateMutability": "view",
      "type": "function"
    },
    {
      "inputs": [],
      "name": "hasSaleStarted",
      "outputs": [
        {
          "internalType": "bool",
          "name": "",
          "type": "bool"
        }
      ],
      "stateMutability": "view",
      "type": "function"
    },
    {
      "inputs": [
        {
          "internalType": "address",
          "name": "owner",
          "type": "address"
        },
        {
          "internalType": "address",
          "name": "operator",
          "type": "address"
        }
      ],
      "name": "isApprovedForAll",
      "outputs": [
        {
          "internalType": "bool",
          "name": "",
          "type": "bool"
        }
      ],
      "stateMutability": "view",
      "type": "function"
    },
    {
      "inputs": [
        {
          "internalType": "uint256",
          "name": "quantity",
          "type": "uint256"
        }
      ],
      "name": "mint",
      "outputs": [],
      "stateMutability": "payable",
      "type": "function"
    },
    {
      "inputs": [],
      "name": "name",
      "outputs": [
        {
          "internalType": "string",
          "name": "",
          "type": "string"
        }
      ],
      "stateMutability": "view",
      "type": "function"
    },
    {
      "inputs": [],
      "name": "owner",
      "outputs": [
        {
          "internalType": "address",
          "name": "",
          "type": "address"
        }
      ],
      "stateMutability": "view",
      "type": "function"
    },
    {
      "inputs": [
        {
          "internalType": "uint256",
          "name": "tokenId",
          "type": "uint256"
        }
      ],
      "name": "ownerOf",
      "outputs": [
        {
          "internalType": "address",
          "name": "",
          "type": "address"
        }
      ],
      "stateMutability": "view",
      "type": "function"
    },
    {
      "inputs": [
        {
          "internalType": "address",
          "name": "",
          "type": "address"
        }
      ],
      "name": "publicMintedCounts",
      "outputs": [
        {
          "internalType": "uint256",
          "name": "",
          "type": "uint256"
        }
      ],
      "stateMutability": "view",
      "type": "function"
    },
    {
      "inputs": [],
      "name": "renounceOwnership",
      "outputs": [],
      "stateMutability": "nonpayable",
      "type": "function"
    },
    {
      "inputs": [
        {
          "internalType": "address",
          "name": "from",
          "type": "address"
        },
        {
          "internalType": "address",
          "name": "to",
          "type": "address"
        },
        {
          "internalType": "uint256",
          "name": "tokenId",
          "type": "uint256"
        }
      ],
      "name": "safeTransferFrom",
      "outputs": [],
      "stateMutability": "nonpayable",
      "type": "function"
    },
    {
      "inputs": [
        {
          "internalType": "address",
          "name": "from",
          "type": "address"
        },
        {
          "internalType": "address",
          "name": "to",
          "type": "address"
        },
        {
          "internalType": "uint256",
          "name": "tokenId",
          "type": "uint256"
        },
        {
          "internalType": "bytes",
          "name": "_data",
          "type": "bytes"
        }
      ],
      "name": "safeTransferFrom",
      "outputs": [],
      "stateMutability": "nonpayable",
      "type": "function"
    },
    {
      "inputs": [
        {
          "internalType": "address",
          "name": "operator",
          "type": "address"
        },
        {
          "internalType": "bool",
          "name": "approved",
          "type": "bool"
        }
      ],
      "name": "setApprovalForAll",
      "outputs": [],
      "stateMutability": "nonpayable",
      "type": "function"
    },
    {
      "inputs": [
        {
          "internalType": "string",
          "name": "baseTokenURI",
          "type": "string"
        }
      ],
      "name": "setBaseURI",
      "outputs": [],
      "stateMutability": "nonpayable",
      "type": "function"
    },
    {
      "inputs": [
        {
          "internalType": "uint256",
          "name": "_PRICE",
          "type": "uint256"
        }
      ],
      "name": "setMintPrice",
      "outputs": [],
      "stateMutability": "nonpayable",
      "type": "function"
    },
    {
      "inputs": [
        {
          "internalType": "uint256",
          "name": "_PRICE",
          "type": "uint256"
        }
      ],
      "name": "setPublicMintOpen",
      "outputs": [],
      "stateMutability": "nonpayable",
      "type": "function"
    },
    {
      "inputs": [
        {
          "internalType": "bytes32",
          "name": "whitelistMerkleRoot",
          "type": "bytes32"
        }
      ],
      "name": "setWhitelistMerkleRoot",
      "outputs": [],
      "stateMutability": "nonpayable",
      "type": "function"
    },
    {
      "inputs": [
        {
          "internalType": "uint256",
          "name": "_PRICE",
          "type": "uint256"
        }
      ],
      "name": "setWhitelistMintOpen",
      "outputs": [],
      "stateMutability": "nonpayable",
      "type": "function"
    },
    {
      "inputs": [
        {
          "internalType": "bytes4",
          "name": "interfaceId",
          "type": "bytes4"
        }
      ],
      "name": "supportsInterface",
      "outputs": [
        {
          "internalType": "bool",
          "name": "",
          "type": "bool"
        }
      ],
      "stateMutability": "view",
      "type": "function"
    },
    {
      "inputs": [],
      "name": "symbol",
      "outputs": [
        {
          "internalType": "string",
          "name": "",
          "type": "string"
        }
      ],
      "stateMutability": "view",
      "type": "function"
    },
    {
      "inputs": [
        {
          "internalType": "uint256",
          "name": "tokenId",
          "type": "uint256"
        }
      ],
      "name": "tokenURI",
      "outputs": [
        {
          "internalType": "string",
          "name": "",
          "type": "string"
        }
      ],
      "stateMutability": "view",
      "type": "function"
    },
    {
      "inputs": [],
      "name": "totalSupply",
      "outputs": [
        {
          "internalType": "uint256",
          "name": "",
          "type": "uint256"
        }
      ],
      "stateMutability": "view",
      "type": "function"
    },
    {
      "inputs": [
        {
          "internalType": "address",
          "name": "from",
          "type": "address"
        },
        {
          "internalType": "address",
          "name": "to",
          "type": "address"
        },
        {
          "internalType": "uint256",
          "name": "tokenId",
          "type": "uint256"
        }
      ],
      "name": "transferFrom",
      "outputs": [],
      "stateMutability": "nonpayable",
      "type": "function"
    },
    {
      "inputs": [
        {
          "internalType": "address",
          "name": "newOwner",
          "type": "address"
        }
      ],
      "name": "transferOwnership",
      "outputs": [],
      "stateMutability": "nonpayable",
      "type": "function"
    },
    {
      "inputs": [
        {
          "internalType": "uint256",
          "name": "quantity",
          "type": "uint256"
        },
        {
          "internalType": "bytes32[]",
          "name": "whitelistProof",
          "type": "bytes32[]"
        }
      ],
      "name": "whitelistMint",
      "outputs": [],
      "stateMutability": "payable",
      "type": "function"
    },
    {
      "inputs": [
        {
          "internalType": "address",
          "name": "",
          "type": "address"
        }
      ],
      "name": "whitelistMintedCounts",
      "outputs": [
        {
          "internalType": "uint256",
          "name": "",
          "type": "uint256"
        }
      ],
      "stateMutability": "view",
      "type": "function"
    },
    {
      "inputs": [],
      "name": "withdrawFunds",
      "outputs": [],
      "stateMutability": "nonpayable",
      "type": "function"
    }
  ],
  "bytecode": "0x60806040526000603c819055610425819055610426819055610427805461ffff1916905561042c805460ff1916905561042d5561042e80546001600160a01b03191673f8e807027c4f6d0968c8c4742508d136d926a9811790553480156200006657600080fd5b5060405162002bc938038062002bc983398101604081905262000089916200022e565b6040518060400160405280600681526020016556696265727360d01b815250604051806040016040528060048152602001635649424560e01b815250620000df620000d96200013460201b60201c565b62000138565b8151620000f490600390602085019062000188565b5080516200010a90600490602084019062000188565b50600060015550508151620001289061042b90602085019062000188565b5061042a555062000360565b3390565b600080546001600160a01b038381166001600160a01b0319831681178455604051919092169283917f8be0079c531659141344cd1fd0a4f28419497f9722a3daafe3b4186f6b6457e09190a35050565b82805462000196906200030d565b90600052602060002090601f016020900481019282620001ba576000855562000205565b82601f10620001d557805160ff191683800117855562000205565b8280016001018555821562000205579182015b8281111562000205578251825591602001919060010190620001e8565b506200021392915062000217565b5090565b5b8082111562000213576000815560010162000218565b6000806040838503121562000241578182fd5b82516001600160401b038082111562000258578384fd5b818501915085601f8301126200026c578384fd5b8151818111156200028157620002816200034a565b604051601f8201601f19908116603f01168101908382118183101715620002ac57620002ac6200034a565b81604052828152602093508884848701011115620002c8578687fd5b8691505b82821015620002eb5784820184015181830185015290830190620002cc565b82821115620002fc57868484830101525b969092015195979596505050505050565b600181811c908216806200032257607f821691505b602082108114156200034457634e487b7160e01b600052602260045260246000fd5b50919050565b634e487b7160e01b600052604160045260246000fd5b61285980620003706000396000f3fe60806040526004361061020f5760003560e01c8063715018a611610118578063bd32fb66116100a0578063e985e9c51161006f578063e985e9c5146105c7578063f2fde38b14610610578063f4a0a52814610630578063f6651cdd14610650578063fdd4b0f01461067057600080fd5b8063bd32fb661461055f578063c87b56dd1461057f578063d111515d1461059f578063d2cab056146105b457600080fd5b8063a0712d68116100e7578063a0712d68146104de578063a22cb465146104f1578063a7f93ebd14610511578063b61c1a6f14610526578063b88d4fde1461053f57600080fd5b8063715018a6146104685780637630a55a1461047d5780638da5cb5b146104ab57806395d89b41146104c957600080fd5b806323b872dd1161019b5780634c0f38c21161016a5780634c0f38c2146103c557806355f804b3146103da5780636352211e146103fa5780636701cff71461041a57806370a082311461044857600080fd5b806323b872dd1461035b57806324600fc31461037b57806326c3f3da1461039057806342842e0e146103a557600080fd5b8063095ea7b3116101e2578063095ea7b3146102d15780630a3ed96e146102f357806318160ddd146103135780631c8b232d1461032c578063216a08d41461034557600080fd5b806301ffc9a714610214578063064a36001461024957806306fdde0314610277578063081812fc14610299575b600080fd5b34801561022057600080fd5b5061023461022f3660046123f9565b61068e565b60405190151581526020015b60405180910390f35b34801561025557600080fd5b5061026961026436600461233a565b6106e0565b604051908152602001610240565b34801561028357600080fd5b5061028c610719565b6040516102409190612587565b3480156102a557600080fd5b506102b96102b43660046123e1565b6107ab565b6040516001600160a01b039091168152602001610240565b3480156102dd57600080fd5b506102f16102ec366004612311565b6107ef565b005b3480156102ff57600080fd5b506102f161030e3660046123e1565b610876565b34801561031f57600080fd5b5060025460015403610269565b34801561033857600080fd5b506104275460ff16610234565b34801561035157600080fd5b5061042654610269565b34801561036757600080fd5b506102f1610376366004612224565b6109a2565b34801561038757600080fd5b506102f16109ad565b34801561039c57600080fd5b506102f16109ec565b3480156103b157600080fd5b506102f16103c0366004612224565b610b39565b3480156103d157600080fd5b506103e8610269565b3480156103e657600080fd5b506102f16103f5366004612431565b610b54565b34801561040657600080fd5b506102b96104153660046123e1565b610bff565b34801561042657600080fd5b506102696104353660046121d8565b6104296020526000908152604090205481565b34801561045457600080fd5b506102696104633660046121d8565b610c11565b34801561047457600080fd5b506102f1610c5f565b34801561048957600080fd5b506102696104983660046121d8565b6104286020526000908152604090205481565b3480156104b757600080fd5b506000546001600160a01b03166102b9565b3480156104d557600080fd5b5061028c610c95565b6102f16104ec3660046123e1565b610ca4565b3480156104fd57600080fd5b506102f161050c3660046122d7565b610e84565b34801561051d57600080fd5b50603c54610269565b34801561053257600080fd5b5061042c5460ff16610234565b34801561054b57600080fd5b506102f161055a36600461225f565b610f1a565b34801561056b57600080fd5b506102f161057a3660046123e1565b610f64565b34801561058b57600080fd5b5061028c61059a3660046123e1565b610f94565b3480156105ab57600080fd5b506102f1611019565b6102f16105c2366004612476565b6110b5565b3480156105d357600080fd5b506102346105e23660046121f2565b6001600160a01b03918216600090815260086020908152604080832093909416825291909152205460ff1690565b34801561061c57600080fd5b506102f161062b3660046121d8565b61135b565b34801561063c57600080fd5b506102f161064b3660046123e1565b6113f6565b34801561065c57600080fd5b506102f161066b3660046123e1565b61149c565b34801561067c57600080fd5b5061042754610100900460ff16610234565b60006001600160e01b031982166380ac58cd60e01b14806106bf57506001600160e01b03198216635b5e139f60e01b145b806106da57506301ffc9a760e01b6001600160e01b03198316145b92915050565b60006106eb82611564565b1561070c5733600090815261042860205260409020546106da9060026126fe565b506000919050565b919050565b60606003805461072890612741565b80601f016020809104026020016040519081016040528092919081815260200182805461075490612741565b80156107a15780601f10610776576101008083540402835291602001916107a1565b820191906000526020600020905b81548152906001019060200180831161078457829003601f168201915b5050505050905090565b60006107b682611574565b6107d3576040516333d1c03960e21b815260040160405180910390fd5b506000908152600760205260409020546001600160a01b031690565b60006107fa82610bff565b9050806001600160a01b0316836001600160a01b0316141561082f5760405163250fdee360e21b815260040160405180910390fd5b336001600160a01b038216146108665761084981336105e2565b610866576040516367d9dca160e11b815260040160405180910390fd5b6108718383836115a0565b505050565b6000546001600160a01b031633146108a95760405162461bcd60e51b81526004016108a09061264e565b60405180910390fd5b61042754610100900460ff16156109025760405162461bcd60e51b815260206004820152601f60248201527f5075626c6963206d696e742068617320616c726561647920737461727465640060448201526064016108a0565b6104275460ff166109615760405162461bcd60e51b8152602060048201526024808201527f57686974656c697374206d696e74206d757374206265207374617274656420666044820152631a5c9cdd60e21b60648201526084016108a0565b603c819055610427805461ff0019166101001790556040517fd027ba160f7e3111418d8cac41dc57dd841a8248c1d30fae2612f8499979dbb290600090a150565b6108718383836115fc565b61042e5460405147916001600160a01b03169082156108fc029083906000818181858888f193505050501580156109e8573d6000803e3d6000fd5b5050565b6000546001600160a01b03163314610a165760405162461bcd60e51b81526004016108a09061264e565b61042754610100900460ff1615610a6f5760405162461bcd60e51b815260206004820152601860248201527f53616c652068617320616c72656164792073746172746564000000000000000060448201526064016108a0565b604061042d5410610ace5760405162461bcd60e51b815260206004820152602360248201527f44657620737570706c792068617320616c7265616479206265656e206177617260448201526219195960ea1b60648201526084016108a0565b6000805b6020821015610b2257610ae36117d7565b61042e54909150610afd906001600160a01b03168261198a565b61042654610b0c9060016126b3565b6104265581610b1a8161277c565b925050610ad2565b61042d54610b319060016126b3565b61042d555050565b61087183838360405180602001604052806000815250610f1a565b6000546001600160a01b03163314610b7e5760405162461bcd60e51b81526004016108a09061264e565b61042c5460ff1615610beb5760405162461bcd60e51b815260206004820152603060248201527f43616e6e6f74206368616e6765206d657461646174612061667465722074686560448201526f206d6574616461746120667265657a6560801b60648201526084016108a0565b80516109e89061042b9060208401906120d1565b6000610c0a82611a99565b5192915050565b60006001600160a01b038216610c3a576040516323d3ad8160e21b815260040160405180910390fd5b506001600160a01b03166000908152600660205260409020546001600160401b031690565b6000546001600160a01b03163314610c895760405162461bcd60e51b81526004016108a09061264e565b610c936000611bb3565b565b60606004805461072890612741565b33328114610cc45760405162461bcd60e51b81526004016108a090612620565b803b8015610ce45760405162461bcd60e51b81526004016108a090612620565b61042754610100900460ff16610d3c5760405162461bcd60e51b815260206004820152601960248201527f53616c6520686173206e6f742073746172746564207965742e0000000000000060448201526064016108a0565b6103e86104265410610d605760405162461bcd60e51b81526004016108a0906125de565b60008311610daa5760405162461bcd60e51b815260206004820152601760248201527626bab9ba1036b4b73a1030ba103632b0b9ba1037b7329760491b60448201526064016108a0565b6004831115610dfb5760405162461bcd60e51b815260206004820152601c60248201527f4d696e742065786365656473206c696d6974207065722063616c6c2e0000000060448201526064016108a0565b61042654610e0b906103e86126fe565b831115610e2a5760405162461bcd60e51b81526004016108a09061259a565b82603c54610e3891906126df565b3414610e7a5760405162461bcd60e51b81526020600482015260116024820152701b5cd9cb9d985b1d59481a5b9d985b1a59607a1b60448201526064016108a0565b6108713384611c03565b6001600160a01b038216331415610eae5760405163b06307db60e01b815260040160405180910390fd5b3360008181526008602090815260408083206001600160a01b03871680855290835292819020805460ff191686151590811790915590519081529192917f17307eab39ab6107e8899845ad3d59bd9653f200f220920489ca2b5937696c31910160405180910390a35050565b610f258484846115fc565b6001600160a01b0383163b15610f5e57610f4184848484611c1d565b610f5e576040516368d2bf6b60e11b815260040160405180910390fd5b50505050565b6000546001600160a01b03163314610f8e5760405162461bcd60e51b81526004016108a09061264e565b61042a55565b6060610f9f82611574565b610fbc57604051630a14c4b560e41b815260040160405180910390fd5b6000610fc6611d15565b9050805160001415610fe75760405180602001604052806000815250611012565b80610ff184611d25565b60405160200161100292919061251b565b6040516020818303038152906040525b9392505050565b6000546001600160a01b031633146110435760405162461bcd60e51b81526004016108a09061264e565b61042754610100900460ff166110a55760405162461bcd60e51b815260206004820152602160248201527f7075626c6963206d696e74206d757374206265207374617274656420666972736044820152601d60fa1b60648201526084016108a0565b61042c805460ff19166001179055565b333281146110d55760405162461bcd60e51b81526004016108a090612620565b803b80156110f55760405162461bcd60e51b81526004016108a090612620565b83838080602002602001604051908101604052809392919081815260200183836020028082843760009201919091525061113492508391506115649050565b6111805760405162461bcd60e51b815260206004820152601960248201527f43616c6c6572206973206e6f742077686974656c69737465640000000000000060448201526064016108a0565b33600090815261042860205260408120549061119c88836126b3565b6104275490915060ff166111f25760405162461bcd60e51b815260206004820152601860248201527f57686974656c697374206d696e74696e6720636c6f736564000000000000000060448201526064016108a0565b6103e861042654106112165760405162461bcd60e51b81526004016108a0906125de565b600088116112605760405162461bcd60e51b815260206004820152601760248201527626bab9ba1036b4b73a1030ba103632b0b9ba1037b7329760491b60448201526064016108a0565b60028111156112b15760405162461bcd60e51b815260206004820152601c60248201527f4d696e742065786365656473206c696d6974207065722063616c6c2e0000000060448201526064016108a0565b610426546112c1906103e86126fe565b8811156112e05760405162461bcd60e51b81526004016108a09061259a565b87603c546112ee91906126df565b34146113345760405162461bcd60e51b81526020600482015260156024820152740acd2c4cae4e640e0e4d2c6ca40dad2e6dac2e8c6d605b1b60448201526064016108a0565b336000818152610428602052604090208290556113519089611c03565b5050505050505050565b6000546001600160a01b031633146113855760405162461bcd60e51b81526004016108a09061264e565b6001600160a01b0381166113ea5760405162461bcd60e51b815260206004820152602660248201527f4f776e61626c653a206e6577206f776e657220697320746865207a65726f206160448201526564647265737360d01b60648201526084016108a0565b6113f381611bb3565b50565b6000546001600160a01b031633146114205760405162461bcd60e51b81526004016108a09061264e565b6104275460ff1615156001146114975760405162461bcd60e51b815260206004820152603660248201527f5468652073616c65206d757374206265207374617274656420746f206368616e60448201527533b2903a34329032bc34b9ba34b73390383934b1b29760511b60648201526084016108a0565b603c55565b6000546001600160a01b031633146114c65760405162461bcd60e51b81526004016108a09061264e565b6104275460ff16156115255760405162461bcd60e51b815260206004820152602260248201527f57686974656c697374206d696e742068617320616c7265616479207374617274604482015261195960f21b60648201526084016108a0565b603c819055610427805460ff191660011790556040517f010b9a8a97646803866f101014ff4637aa691ed9c0fe2260cd669f86d3fd600890600090a150565b60006106da8261042a5433611e3e565b6000600154821080156106da575050600090815260056020526040902054600160e01b900460ff161590565b60008281526007602052604080822080546001600160a01b0319166001600160a01b0387811691821790925591518593918516917f8c5be1e5ebec7d5bd14f71427d1e84f3dd0314c0f7b2291e5b200ac8c7c3b92591a4505050565b600061160782611a99565b9050836001600160a01b031681600001516001600160a01b03161461163e5760405162a1148160e81b815260040160405180910390fd5b6000336001600160a01b038616148061165c575061165c85336105e2565b8061167757503361166c846107ab565b6001600160a01b0316145b90508061169757604051632ce44b5f60e11b815260040160405180910390fd5b6001600160a01b0384166116be57604051633a954ecd60e21b815260040160405180910390fd5b6116ca600084876115a0565b6001600160a01b038581166000908152600660209081526040808320805467ffffffffffffffff198082166001600160401b0392831660001901831617909255898616808652838620805493841693831660019081018416949094179055898652600590945282852080546001600160e01b031916909417600160a01b4290921691909102178355870180845292208054919390911661179e57600154821461179e57805460208601516001600160401b0316600160a01b026001600160e01b03199091166001600160a01b038a16171781555b50505082846001600160a01b0316866001600160a01b031660008051602061280483398151915260405160405180910390a45050505050565b600080610426546103e86117eb91906126fe565b610425546040805160208101929092526bffffffffffffffffffffffff193360601b169082015244605482015242607482015290915060009082906094016040516020818303038152906040528051906020012060001c61184c9190612797565b90506000603d826103e8811061187257634e487b7160e01b600052603260045260246000fd5b0154156118a457603d826103e8811061189b57634e487b7160e01b600052603260045260246000fd5b015490506118a7565b50805b603d6118b46001856126fe565b6103e881106118d357634e487b7160e01b600052603260045260246000fd5b015461190d576118e46001846126fe565b603d836103e8811061190657634e487b7160e01b600052603260045260246000fd5b0155611960565b603d61191a6001856126fe565b6103e8811061193957634e487b7160e01b600052603260045260246000fd5b0154603d836103e8811061195d57634e487b7160e01b600052603260045260246000fd5b01555b61042580549060006119718361277c565b9091555061198290508160016126b3565b935050505090565b6001546001600160a01b0383166119b357604051622e076360e81b815260040160405180910390fd5b816119d15760405163b562e8dd60e01b815260040160405180910390fd5b6001600160a01b038316600081815260066020908152604080832080546001600160801b031981166001600160401b038083168a018116918217600160401b67ffffffffffffffff1990941690921783900481168a01811690920217909155858452600590925290912080546001600160e01b031916909217600160a01b4290921691909102179055808083015b6040516001830192906001600160a01b03871690600090600080516020612804833981519152908290a4808210611a5f5750600155505050565b604080516060810182526000808252602082018190529181019190915281600154811015611b9a57600081815260056020908152604091829020825160608101845290546001600160a01b0381168252600160a01b81046001600160401b031692820192909252600160e01b90910460ff16151591810182905290611b985780516001600160a01b031615611b2f579392505050565b5060001901600081815260056020908152604091829020825160608101845290546001600160a01b038116808352600160a01b82046001600160401b031693830193909352600160e01b900460ff1615159281019290925215611b93579392505050565b611b2f565b505b604051636f96cda160e11b815260040160405180910390fd5b600080546001600160a01b038381166001600160a01b0319831681178455604051919092169283917f8be0079c531659141344cd1fd0a4f28419497f9722a3daafe3b4186f6b6457e09190a35050565b6109e8828260405180602001604052806000815250611e83565b604051630a85bd0160e11b81526000906001600160a01b0385169063150b7a0290611c5290339089908890889060040161254a565b602060405180830381600087803b158015611c6c57600080fd5b505af1925050508015611c9c575060408051601f3d908101601f19168201909252611c9991810190612415565b60015b611cf7573d808015611cca576040519150601f19603f3d011682016040523d82523d6000602084013e611ccf565b606091505b508051611cef576040516368d2bf6b60e11b815260040160405180910390fd5b805181602001fd5b6001600160e01b031916630a85bd0160e11b1490505b949350505050565b606061042b805461072890612741565b606081611d495750506040805180820190915260018152600360fc1b602082015290565b8160005b8115611d735780611d5d8161277c565b9150611d6c9050600a836126cb565b9150611d4d565b6000816001600160401b03811115611d9b57634e487b7160e01b600052604160045260246000fd5b6040519080825280601f01601f191660200182016040528015611dc5576020820181803683370190505b5090505b8415611d0d57611dda6001836126fe565b9150611de7600a86612797565b611df29060306126b3565b60f81b818381518110611e1557634e487b7160e01b600052603260045260246000fd5b60200101906001600160f81b031916908160001a905350611e37600a866126cb565b9450611dc9565b6040516bffffffffffffffffffffffff19606083901b166020820152600090611d0d908590859060340160405160208183030381529060405280519060200120612014565b6001546001600160a01b038416611eac57604051622e076360e81b815260040160405180910390fd5b82611eca5760405163b562e8dd60e01b815260040160405180910390fd5b6001600160a01b038416600081815260066020908152604080832080546001600160801b031981166001600160401b038083168b018116918217600160401b67ffffffffffffffff1990941690921783900481168b01811690920217909155858452600590925290912080546001600160e01b0319168317600160a01b42909316929092029190911790558190818501903b15611fd2575b60405182906001600160a01b03881690600090600080516020612804833981519152908290a4611f9b6000878480600101955087611c1d565b611fb8576040516368d2bf6b60e11b815260040160405180910390fd5b808210611f62578260015414611fcd57600080fd5b612005565b5b6040516001830192906001600160a01b03881690600090600080516020612804833981519152908290a4808210611fd3575b50600155610f5e600085838684565b600081815b85518110156120c657600086828151811061204457634e487b7160e01b600052603260045260246000fd5b602002602001015190508083116120865760408051602081018590529081018290526060016040516020818303038152906040528051906020012092506120b3565b60408051602081018390529081018490526060016040516020818303038152906040528051906020012092505b50806120be8161277c565b915050612019565b509092149392505050565b8280546120dd90612741565b90600052602060002090601f0160209004810192826120ff5760008555612145565b82601f1061211857805160ff1916838001178555612145565b82800160010185558215612145579182015b8281111561214557825182559160200191906001019061212a565b50612151929150612155565b5090565b5b808211156121515760008155600101612156565b60006001600160401b03831115612183576121836127d7565b612196601f8401601f1916602001612683565b90508281528383830111156121aa57600080fd5b828260208301376000602084830101529392505050565b80356001600160a01b038116811461071457600080fd5b6000602082840312156121e9578081fd5b611012826121c1565b60008060408385031215612204578081fd5b61220d836121c1565b915061221b602084016121c1565b90509250929050565b600080600060608486031215612238578081fd5b612241846121c1565b925061224f602085016121c1565b9150604084013590509250925092565b60008060008060808587031215612274578081fd5b61227d856121c1565b935061228b602086016121c1565b92506040850135915060608501356001600160401b038111156122ac578182fd5b8501601f810187136122bc578182fd5b6122cb8782356020840161216a565b91505092959194509250565b600080604083850312156122e9578182fd5b6122f2836121c1565b915060208301358015158114612306578182fd5b809150509250929050565b60008060408385031215612323578182fd5b61232c836121c1565b946020939093013593505050565b6000602080838503121561234c578182fd5b82356001600160401b0380821115612362578384fd5b818501915085601f830112612375578384fd5b813581811115612387576123876127d7565b8060051b9150612398848301612683565b8181528481019084860184860187018a10156123b2578788fd5b8795505b838610156123d45780358352600195909501949186019186016123b6565b5098975050505050505050565b6000602082840312156123f2578081fd5b5035919050565b60006020828403121561240a578081fd5b8135611012816127ed565b600060208284031215612426578081fd5b8151611012816127ed565b600060208284031215612442578081fd5b81356001600160401b03811115612457578182fd5b8201601f81018413612467578182fd5b611d0d8482356020840161216a565b60008060006040848603121561248a578081fd5b8335925060208401356001600160401b03808211156124a7578283fd5b818601915086601f8301126124ba578283fd5b8135818111156124c8578384fd5b8760208260051b85010111156124dc578384fd5b6020830194508093505050509250925092565b60008151808452612507816020860160208601612715565b601f01601f19169290920160200192915050565b6000835161252d818460208801612715565b835190830190612541818360208801612715565b01949350505050565b6001600160a01b038581168252841660208201526040810183905260806060820181905260009061257d908301846124ef565b9695505050505050565b60208152600061101260208301846124ef565b60208082526024908201527f4d696e74207265717565737420657863656564732063757272656e7420737570604082015263706c792160e01b606082015260800190565b60208082526022908201527f4d696e742072657175657374206578636565647320746f74616c20737570706c604082015261792160f01b606082015260800190565b60208082526014908201527310d85b1b195c881a5cc8184818dbdb9d1c9858dd60621b604082015260600190565b6020808252818101527f4f776e61626c653a2063616c6c6572206973206e6f7420746865206f776e6572604082015260600190565b604051601f8201601f191681016001600160401b03811182821017156126ab576126ab6127d7565b604052919050565b600082198211156126c6576126c66127ab565b500190565b6000826126da576126da6127c1565b500490565b60008160001904831182151516156126f9576126f96127ab565b500290565b600082821015612710576127106127ab565b500390565b60005b83811015612730578181015183820152602001612718565b83811115610f5e5750506000910152565b600181811c9082168061275557607f821691505b6020821081141561277657634e487b7160e01b600052602260045260246000fd5b50919050565b6000600019821415612790576127906127ab565b5060010190565b6000826127a6576127a66127c1565b500690565b634e487b7160e01b600052601160045260246000fd5b634e487b7160e01b600052601260045260246000fd5b634e487b7160e01b600052604160045260246000fd5b6001600160e01b0319811681146113f357600080fdfeddf252ad1be2c89b69c2b068fc378daa952ba7f163c4a11628f55a4df523b3efa2646970667358221220fce70dd1b8c12d5519ddfc6e1796a71bb11353209e234cee37327e475c13bf9564736f6c63430008040033",
  "linkReferences": {},
  "deployedLinkReferences": {}
}