{
  "_format": "hh-sol-artifact-1",
  "contractName": "Vibers",
  "sourceName": "contracts/Vibers.sol",
  "abi": [
    {
      "inputs": [
        {
          "internalType": "string",
          "name": "baseTokenURI",
          "type": "string"
        },
        {
          "internalType": "bytes32",
          "name": "allowlistMerkleRoot",
          "type": "bytes32"
        }
      ],
      "stateMutability": "nonpayable",
      "type": "constructor"
    },
    {
      "inputs": [],
      "name": "ApprovalCallerNotOwnerNorApproved",
      "type": "error"
    },
    {
      "inputs": [],
      "name": "ApprovalQueryForNonexistentToken",
      "type": "error"
    },
    {
      "inputs": [],
      "name": "ApprovalToCurrentOwner",
      "type": "error"
    },
    {
      "inputs": [],
      "name": "ApproveToCaller",
      "type": "error"
    },
    {
      "inputs": [],
      "name": "BalanceQueryForZeroAddress",
      "type": "error"
    },
    {
      "inputs": [],
      "name": "MintToZeroAddress",
      "type": "error"
    },
    {
      "inputs": [],
      "name": "MintZeroQuantity",
      "type": "error"
    },
    {
      "inputs": [],
      "name": "OwnerQueryForNonexistentToken",
      "type": "error"
    },
    {
      "inputs": [],
      "name": "TransferCallerNotOwnerNorApproved",
      "type": "error"
    },
    {
      "inputs": [],
      "name": "TransferFromIncorrectOwner",
      "type": "error"
    },
    {
      "inputs": [],
      "name": "TransferToNonERC721ReceiverImplementer",
      "type": "error"
    },
    {
      "inputs": [],
      "name": "TransferToZeroAddress",
      "type": "error"
    },
    {
      "inputs": [],
      "name": "URIQueryForNonexistentToken",
      "type": "error"
    },
    {
      "anonymous": false,
      "inputs": [
        {
          "indexed": true,
          "internalType": "address",
          "name": "owner",
          "type": "address"
        },
        {
          "indexed": true,
          "internalType": "address",
          "name": "approved",
          "type": "address"
        },
        {
          "indexed": true,
          "internalType": "uint256",
          "name": "tokenId",
          "type": "uint256"
        }
      ],
      "name": "Approval",
      "type": "event"
    },
    {
      "anonymous": false,
      "inputs": [
        {
          "indexed": true,
          "internalType": "address",
          "name": "owner",
          "type": "address"
        },
        {
          "indexed": true,
          "internalType": "address",
          "name": "operator",
          "type": "address"
        },
        {
          "indexed": false,
          "internalType": "bool",
          "name": "approved",
          "type": "bool"
        }
      ],
      "name": "ApprovalForAll",
      "type": "event"
    },
    {
      "anonymous": false,
      "inputs": [
        {
          "indexed": true,
          "internalType": "address",
          "name": "previousOwner",
          "type": "address"
        },
        {
          "indexed": true,
          "internalType": "address",
          "name": "newOwner",
          "type": "address"
        }
      ],
      "name": "OwnershipTransferred",
      "type": "event"
    },
    {
      "anonymous": false,
      "inputs": [
        {
          "indexed": true,
          "internalType": "address",
          "name": "from",
          "type": "address"
        },
        {
          "indexed": true,
          "internalType": "address",
          "name": "to",
          "type": "address"
        },
        {
          "indexed": true,
          "internalType": "uint256",
          "name": "tokenId",
          "type": "uint256"
        }
      ],
      "name": "Transfer",
      "type": "event"
    },
    {
      "anonymous": false,
      "inputs": [],
      "name": "allowlistMintOpened",
      "type": "event"
    },
    {
      "anonymous": false,
      "inputs": [],
      "name": "publicMintOpened",
      "type": "event"
    },
    {
      "inputs": [
        {
          "internalType": "uint256",
          "name": "quantity",
          "type": "uint256"
        },
        {
          "internalType": "bytes32[]",
          "name": "allowlistProof",
          "type": "bytes32[]"
        }
      ],
      "name": "allowlistMint",
      "outputs": [],
      "stateMutability": "payable",
      "type": "function"
    },
    {
      "inputs": [
        {
          "internalType": "address",
          "name": "",
          "type": "address"
        }
      ],
      "name": "allowlistMintedCounts",
      "outputs": [
        {
          "internalType": "uint256",
          "name": "",
          "type": "uint256"
        }
      ],
      "stateMutability": "view",
      "type": "function"
    },
    {
      "inputs": [
        {
          "internalType": "address",
          "name": "to",
          "type": "address"
        },
        {
          "internalType": "uint256",
          "name": "tokenId",
          "type": "uint256"
        }
      ],
      "name": "approve",
      "outputs": [],
      "stateMutability": "nonpayable",
      "type": "function"
    },
    {
      "inputs": [
        {
          "internalType": "bytes32[]",
          "name": "allowlistProof",
          "type": "bytes32[]"
        }
      ],
      "name": "availableAllowlistMint",
      "outputs": [
        {
          "internalType": "uint256",
          "name": "",
          "type": "uint256"
        }
      ],
      "stateMutability": "view",
      "type": "function"
    },
    {
      "inputs": [
        {
          "internalType": "address",
          "name": "owner",
          "type": "address"
        }
      ],
      "name": "balanceOf",
      "outputs": [
        {
          "internalType": "uint256",
          "name": "",
          "type": "uint256"
        }
      ],
      "stateMutability": "view",
      "type": "function"
    },
    {
      "inputs": [
        {
          "internalType": "uint256",
          "name": "tokenId",
          "type": "uint256"
        }
      ],
      "name": "getApproved",
      "outputs": [
        {
          "internalType": "address",
          "name": "",
          "type": "address"
        }
      ],
      "stateMutability": "view",
      "type": "function"
    },
    {
      "inputs": [],
      "name": "getMaxSupply",
      "outputs": [
        {
          "internalType": "uint256",
          "name": "",
          "type": "uint256"
        }
      ],
      "stateMutability": "pure",
      "type": "function"
    },
    {
      "inputs": [],
      "name": "getMintPrice",
      "outputs": [
        {
          "internalType": "uint256",
          "name": "",
          "type": "uint256"
        }
      ],
      "stateMutability": "view",
      "type": "function"
    },
    {
      "inputs": [],
      "name": "getQuantityMinted",
      "outputs": [
        {
          "internalType": "uint256",
          "name": "",
          "type": "uint256"
        }
      ],
      "stateMutability": "view",
      "type": "function"
    },
    {
      "inputs": [],
      "name": "give32TokensToDevs",
      "outputs": [],
      "stateMutability": "nonpayable",
      "type": "function"
    },
    {
      "inputs": [],
      "name": "hasMetadataFroze",
      "outputs": [
        {
          "internalType": "bool",
          "name": "",
          "type": "bool"
        }
      ],
      "stateMutability": "view",
      "type": "function"
    },
    {
      "inputs": [],
      "name": "hasPublicSaleStarted",
      "outputs": [
        {
          "internalType": "bool",
          "name": "",
          "type": "bool"
        }
      ],
      "stateMutability": "view",
      "type": "function"
    },
    {
      "inputs": [],
      "name": "hasSaleStarted",
      "outputs": [
        {
          "internalType": "bool",
          "name": "",
          "type": "bool"
        }
      ],
      "stateMutability": "view",
      "type": "function"
    },
    {
      "inputs": [
        {
          "internalType": "address",
          "name": "owner",
          "type": "address"
        },
        {
          "internalType": "address",
          "name": "operator",
          "type": "address"
        }
      ],
      "name": "isApprovedForAll",
      "outputs": [
        {
          "internalType": "bool",
          "name": "",
          "type": "bool"
        }
      ],
      "stateMutability": "view",
      "type": "function"
    },
    {
      "inputs": [],
      "name": "lockMetadata",
      "outputs": [],
      "stateMutability": "nonpayable",
      "type": "function"
    },
    {
      "inputs": [
        {
          "internalType": "uint256",
          "name": "quantity",
          "type": "uint256"
        }
      ],
      "name": "mint",
      "outputs": [],
      "stateMutability": "payable",
      "type": "function"
    },
    {
      "inputs": [],
      "name": "name",
      "outputs": [
        {
          "internalType": "string",
          "name": "",
          "type": "string"
        }
      ],
      "stateMutability": "view",
      "type": "function"
    },
    {
      "inputs": [],
      "name": "owner",
      "outputs": [
        {
          "internalType": "address",
          "name": "",
          "type": "address"
        }
      ],
      "stateMutability": "view",
      "type": "function"
    },
    {
      "inputs": [
        {
          "internalType": "uint256",
          "name": "tokenId",
          "type": "uint256"
        }
      ],
      "name": "ownerOf",
      "outputs": [
        {
          "internalType": "address",
          "name": "",
          "type": "address"
        }
      ],
      "stateMutability": "view",
      "type": "function"
    },
    {
      "inputs": [
        {
          "internalType": "address",
          "name": "",
          "type": "address"
        }
      ],
      "name": "publicMintedCounts",
      "outputs": [
        {
          "internalType": "uint256",
          "name": "",
          "type": "uint256"
        }
      ],
      "stateMutability": "view",
      "type": "function"
    },
    {
      "inputs": [],
      "name": "renounceOwnership",
      "outputs": [],
      "stateMutability": "nonpayable",
      "type": "function"
    },
    {
      "inputs": [
        {
          "internalType": "address",
          "name": "from",
          "type": "address"
        },
        {
          "internalType": "address",
          "name": "to",
          "type": "address"
        },
        {
          "internalType": "uint256",
          "name": "tokenId",
          "type": "uint256"
        }
      ],
      "name": "safeTransferFrom",
      "outputs": [],
      "stateMutability": "nonpayable",
      "type": "function"
    },
    {
      "inputs": [
        {
          "internalType": "address",
          "name": "from",
          "type": "address"
        },
        {
          "internalType": "address",
          "name": "to",
          "type": "address"
        },
        {
          "internalType": "uint256",
          "name": "tokenId",
          "type": "uint256"
        },
        {
          "internalType": "bytes",
          "name": "_data",
          "type": "bytes"
        }
      ],
      "name": "safeTransferFrom",
      "outputs": [],
      "stateMutability": "nonpayable",
      "type": "function"
    },
    {
      "inputs": [
        {
          "internalType": "bytes32",
          "name": "allowlistMerkleRoot",
          "type": "bytes32"
        }
      ],
      "name": "setAllowlistMerkleRoot",
      "outputs": [],
      "stateMutability": "nonpayable",
      "type": "function"
    },
    {
      "inputs": [
        {
          "internalType": "uint256",
          "name": "_PRICE",
          "type": "uint256"
        }
      ],
      "name": "setAllowlistMintOpen",
      "outputs": [],
      "stateMutability": "nonpayable",
      "type": "function"
    },
    {
      "inputs": [
        {
          "internalType": "address",
          "name": "operator",
          "type": "address"
        },
        {
          "internalType": "bool",
          "name": "approved",
          "type": "bool"
        }
      ],
      "name": "setApprovalForAll",
      "outputs": [],
      "stateMutability": "nonpayable",
      "type": "function"
    },
    {
      "inputs": [
        {
          "internalType": "string",
          "name": "baseTokenURI",
          "type": "string"
        }
      ],
      "name": "setBaseURI",
      "outputs": [],
      "stateMutability": "nonpayable",
      "type": "function"
    },
    {
      "inputs": [
        {
          "internalType": "uint256",
          "name": "_PRICE",
          "type": "uint256"
        }
      ],
      "name": "setMintPrice",
      "outputs": [],
      "stateMutability": "nonpayable",
      "type": "function"
    },
    {
      "inputs": [
        {
          "internalType": "uint256",
          "name": "_PRICE",
          "type": "uint256"
        }
      ],
      "name": "setPublicMintOpen",
      "outputs": [],
      "stateMutability": "nonpayable",
      "type": "function"
    },
    {
      "inputs": [
        {
          "internalType": "bytes4",
          "name": "interfaceId",
          "type": "bytes4"
        }
      ],
      "name": "supportsInterface",
      "outputs": [
        {
          "internalType": "bool",
          "name": "",
          "type": "bool"
        }
      ],
      "stateMutability": "view",
      "type": "function"
    },
    {
      "inputs": [],
      "name": "symbol",
      "outputs": [
        {
          "internalType": "string",
          "name": "",
          "type": "string"
        }
      ],
      "stateMutability": "view",
      "type": "function"
    },
    {
      "inputs": [
        {
          "internalType": "uint256",
          "name": "tokenId",
          "type": "uint256"
        }
      ],
      "name": "tokenURI",
      "outputs": [
        {
          "internalType": "string",
          "name": "",
          "type": "string"
        }
      ],
      "stateMutability": "view",
      "type": "function"
    },
    {
      "inputs": [],
      "name": "totalSupply",
      "outputs": [
        {
          "internalType": "uint256",
          "name": "",
          "type": "uint256"
        }
      ],
      "stateMutability": "view",
      "type": "function"
    },
    {
      "inputs": [
        {
          "internalType": "address",
          "name": "from",
          "type": "address"
        },
        {
          "internalType": "address",
          "name": "to",
          "type": "address"
        },
        {
          "internalType": "uint256",
          "name": "tokenId",
          "type": "uint256"
        }
      ],
      "name": "transferFrom",
      "outputs": [],
      "stateMutability": "nonpayable",
      "type": "function"
    },
    {
      "inputs": [
        {
          "internalType": "address",
          "name": "newOwner",
          "type": "address"
        }
      ],
      "name": "transferOwnership",
      "outputs": [],
      "stateMutability": "nonpayable",
      "type": "function"
    },
    {
      "inputs": [],
      "name": "withdrawFunds",
      "outputs": [],
      "stateMutability": "nonpayable",
      "type": "function"
    }
  ],
  "bytecode": "0x60806040526000603c819055610425819055610426819055610427805461ffff1916905561042c805460ff1916905561042d5561042e80546001600160a01b03191673f8e807027c4f6d0968c8c4742508d136d926a9811790553480156200006657600080fd5b5060405162002c2038038062002c2083398101604081905262000089916200022e565b6040518060400160405280600681526020016556696265727360d01b815250604051806040016040528060048152602001635649424560e01b815250620000df620000d96200013460201b60201c565b62000138565b8151620000f490600390602085019062000188565b5080516200010a90600490602084019062000188565b50600060015550508151620001289061042b90602085019062000188565b5061042a555062000360565b3390565b600080546001600160a01b038381166001600160a01b0319831681178455604051919092169283917f8be0079c531659141344cd1fd0a4f28419497f9722a3daafe3b4186f6b6457e09190a35050565b82805462000196906200030d565b90600052602060002090601f016020900481019282620001ba576000855562000205565b82601f10620001d557805160ff191683800117855562000205565b8280016001018555821562000205579182015b8281111562000205578251825591602001919060010190620001e8565b506200021392915062000217565b5090565b5b8082111562000213576000815560010162000218565b6000806040838503121562000241578182fd5b82516001600160401b038082111562000258578384fd5b818501915085601f8301126200026c578384fd5b8151818111156200028157620002816200034a565b604051601f8201601f19908116603f01168101908382118183101715620002ac57620002ac6200034a565b81604052828152602093508884848701011115620002c8578687fd5b8691505b82821015620002eb5784820184015181830185015290830190620002cc565b82821115620002fc57868484830101525b969092015195979596505050505050565b600181811c908216806200032257607f821691505b602082108114156200034457634e487b7160e01b600052602260045260246000fd5b50919050565b634e487b7160e01b600052604160045260246000fd5b6128b080620003706000396000f3fe60806040526004361061020f5760003560e01c80636701cff711610118578063a7f93ebd116100a0578063e985e9c51161006f578063e985e9c5146105c7578063f2fde38b14610610578063f4a0a52814610630578063f95df41414610650578063fdd4b0f01461067057600080fd5b8063a7f93ebd14610559578063b61c1a6f1461056e578063b88d4fde14610587578063c87b56dd146105a757600080fd5b80638da5cb5b116100e75780638da5cb5b146104de57806395d89b41146104fc578063989bdbb614610511578063a0712d6814610526578063a22cb4651461053957600080fd5b80636701cff71461046857806370a0823114610496578063715018a6146104b65780637bc9200e146104cb57600080fd5b806323b872dd1161019b5780634c0f38c21161016a5780634c0f38c2146103d3578063539715d8146103e857806353a541821461040857806355f804b3146104285780636352211e1461044857600080fd5b806323b872dd1461036957806324600fc31461038957806326c3f3da1461039e57806342842e0e146103b357600080fd5b80630a3ed96e116101e25780630a3ed96e146102c55780630ffb0288146102e557806318160ddd146103215780631c8b232d1461033a578063216a08d41461035357600080fd5b806301ffc9a71461021457806306fdde0314610249578063081812fc1461026b578063095ea7b3146102a3575b600080fd5b34801561022057600080fd5b5061023461022f366004612450565b61068e565b60405190151581526020015b60405180910390f35b34801561025557600080fd5b5061025e6106e0565b60405161024091906125de565b34801561027757600080fd5b5061028b610286366004612438565b610772565b6040516001600160a01b039091168152602001610240565b3480156102af57600080fd5b506102c36102be366004612368565b6107b6565b005b3480156102d157600080fd5b506102c36102e0366004612438565b61083d565b3480156102f157600080fd5b5061031361030036600461222f565b6104286020526000908152604090205481565b604051908152602001610240565b34801561032d57600080fd5b5060025460015403610313565b34801561034657600080fd5b506104275460ff16610234565b34801561035f57600080fd5b5061042654610313565b34801561037557600080fd5b506102c361038436600461227b565b610969565b34801561039557600080fd5b506102c3610974565b3480156103aa57600080fd5b506102c36109b3565b3480156103bf57600080fd5b506102c36103ce36600461227b565b610b00565b3480156103df57600080fd5b506103e8610313565b3480156103f457600080fd5b506102c3610403366004612438565b610b1b565b34801561041457600080fd5b50610313610423366004612391565b610be3565b34801561043457600080fd5b506102c3610443366004612488565b610c1c565b34801561045457600080fd5b5061028b610463366004612438565b610cca565b34801561047457600080fd5b5061031361048336600461222f565b6104296020526000908152604090205481565b3480156104a257600080fd5b506103136104b136600461222f565b610cdc565b3480156104c257600080fd5b506102c3610d2a565b6102c36104d93660046124cd565b610d60565b3480156104ea57600080fd5b506000546001600160a01b031661028b565b34801561050857600080fd5b5061025e611006565b34801561051d57600080fd5b506102c3611015565b6102c3610534366004612438565b611105565b34801561054557600080fd5b506102c361055436600461232e565b6112e5565b34801561056557600080fd5b50603c54610313565b34801561057a57600080fd5b5061042c5460ff16610234565b34801561059357600080fd5b506102c36105a23660046122b6565b61137b565b3480156105b357600080fd5b5061025e6105c2366004612438565b6113c5565b3480156105d357600080fd5b506102346105e2366004612249565b6001600160a01b03918216600090815260086020908152604080832093909416825291909152205460ff1690565b34801561061c57600080fd5b506102c361062b36600461222f565b61144a565b34801561063c57600080fd5b506102c361064b366004612438565b6114e5565b34801561065c57600080fd5b506102c361066b366004612438565b61158b565b34801561067c57600080fd5b5061042754610100900460ff16610234565b60006001600160e01b031982166380ac58cd60e01b14806106bf57506001600160e01b03198216635b5e139f60e01b145b806106da57506301ffc9a760e01b6001600160e01b03198316145b92915050565b6060600380546106ef90612798565b80601f016020809104026020016040519081016040528092919081815260200182805461071b90612798565b80156107685780601f1061073d57610100808354040283529160200191610768565b820191906000526020600020905b81548152906001019060200180831161074b57829003601f168201915b5050505050905090565b600061077d826115bb565b61079a576040516333d1c03960e21b815260040160405180910390fd5b506000908152600760205260409020546001600160a01b031690565b60006107c182610cca565b9050806001600160a01b0316836001600160a01b031614156107f65760405163250fdee360e21b815260040160405180910390fd5b336001600160a01b0382161461082d5761081081336105e2565b61082d576040516367d9dca160e11b815260040160405180910390fd5b6108388383836115e7565b505050565b6000546001600160a01b031633146108705760405162461bcd60e51b8152600401610867906126a5565b60405180910390fd5b61042754610100900460ff16156108c95760405162461bcd60e51b815260206004820152601f60248201527f5075626c6963206d696e742068617320616c72656164792073746172746564006044820152606401610867565b6104275460ff166109285760405162461bcd60e51b8152602060048201526024808201527f416c6c6f776c697374206d696e74206d757374206265207374617274656420666044820152631a5c9cdd60e21b6064820152608401610867565b603c819055610427805461ff0019166101001790556040517fd027ba160f7e3111418d8cac41dc57dd841a8248c1d30fae2612f8499979dbb290600090a150565b610838838383611643565b61042e5460405147916001600160a01b03169082156108fc029083906000818181858888f193505050501580156109af573d6000803e3d6000fd5b5050565b6000546001600160a01b031633146109dd5760405162461bcd60e51b8152600401610867906126a5565b61042754610100900460ff1615610a365760405162461bcd60e51b815260206004820152601860248201527f53616c652068617320616c7265616479207374617274656400000000000000006044820152606401610867565b604061042d5410610a955760405162461bcd60e51b815260206004820152602360248201527f44657620737570706c792068617320616c7265616479206265656e206177617260448201526219195960ea1b6064820152608401610867565b6000805b6020821015610ae957610aaa61181e565b61042e54909150610ac4906001600160a01b0316826119d1565b61042654610ad390600161270a565b6104265581610ae1816127d3565b925050610a99565b61042d54610af890600161270a565b61042d555050565b6108388383836040518060200160405280600081525061137b565b6000546001600160a01b03163314610b455760405162461bcd60e51b8152600401610867906126a5565b6104275460ff1615610ba45760405162461bcd60e51b815260206004820152602260248201527f416c6c6f776c697374206d696e742068617320616c7265616479207374617274604482015261195960f21b6064820152608401610867565b603c819055610427805460ff191660011790556040517fef4e7e9fe740cbdbe62d9b3c0b0cd0c03ad3f5217218ca1c1cb6eb2275f1efec90600090a150565b6000610bee82611ae0565b15610c0f5733600090815261042860205260409020546106da906002612755565b506000919050565b919050565b6000546001600160a01b03163314610c465760405162461bcd60e51b8152600401610867906126a5565b61042c5460ff1615610cb65760405162461bcd60e51b815260206004820152603360248201527f43616e6e6f74206368616e6765206d6574616461746120616674657220746865604482015272081b595d1859185d18481a5cc81b1bd8dad959606a1b6064820152608401610867565b80516109af9061042b906020840190612128565b6000610cd582611af0565b5192915050565b60006001600160a01b038216610d05576040516323d3ad8160e21b815260040160405180910390fd5b506001600160a01b03166000908152600660205260409020546001600160401b031690565b6000546001600160a01b03163314610d545760405162461bcd60e51b8152600401610867906126a5565b610d5e6000611c0a565b565b33328114610d805760405162461bcd60e51b815260040161086790612677565b803b8015610da05760405162461bcd60e51b815260040161086790612677565b838380806020026020016040519081016040528093929190818152602001838360200280828437600092019190915250610ddf9250839150611ae09050565b610e2b5760405162461bcd60e51b815260206004820152601960248201527f43616c6c6572206973206e6f7420616c6c6f776c6973746564000000000000006044820152606401610867565b336000908152610428602052604081205490610e47888361270a565b6104275490915060ff16610e9d5760405162461bcd60e51b815260206004820152601860248201527f416c6c6f776c697374206d696e74696e6720636c6f73656400000000000000006044820152606401610867565b6103e86104265410610ec15760405162461bcd60e51b815260040161086790612635565b60008811610f0b5760405162461bcd60e51b815260206004820152601760248201527626bab9ba1036b4b73a1030ba103632b0b9ba1037b7329760491b6044820152606401610867565b6002811115610f5c5760405162461bcd60e51b815260206004820152601c60248201527f4d696e742065786365656473206c696d6974207065722063616c6c2e000000006044820152606401610867565b61042654610f6c906103e8612755565b881115610f8b5760405162461bcd60e51b8152600401610867906125f1565b87603c54610f999190612736565b3414610fdf5760405162461bcd60e51b81526020600482015260156024820152740acd2c4cae4e640e0e4d2c6ca40dad2e6dac2e8c6d605b1b6044820152606401610867565b33600081815261042860205260409020829055610ffc9089611c5a565b5050505050505050565b6060600480546106ef90612798565b6000546001600160a01b0316331461103f5760405162461bcd60e51b8152600401610867906126a5565b61042754610100900460ff166110a15760405162461bcd60e51b815260206004820152602160248201527f5075626c6963206d696e74206d757374206265207374617274656420666972736044820152601d60fa1b6064820152608401610867565b61042c5460ff16156110f55760405162461bcd60e51b815260206004820152601a60248201527f4d6574616461746120697320616c7265616479206c6f636b65640000000000006044820152606401610867565b61042c805460ff19166001179055565b333281146111255760405162461bcd60e51b815260040161086790612677565b803b80156111455760405162461bcd60e51b815260040161086790612677565b61042754610100900460ff1661119d5760405162461bcd60e51b815260206004820152601960248201527f53616c6520686173206e6f742073746172746564207965742e000000000000006044820152606401610867565b6103e861042654106111c15760405162461bcd60e51b815260040161086790612635565b6000831161120b5760405162461bcd60e51b815260206004820152601760248201527626bab9ba1036b4b73a1030ba103632b0b9ba1037b7329760491b6044820152606401610867565b600483111561125c5760405162461bcd60e51b815260206004820152601c60248201527f4d696e742065786365656473206c696d6974207065722063616c6c2e000000006044820152606401610867565b6104265461126c906103e8612755565b83111561128b5760405162461bcd60e51b8152600401610867906125f1565b82603c546112999190612736565b34146112db5760405162461bcd60e51b81526020600482015260116024820152701b5cd9cb9d985b1d59481a5b9d985b1a59607a1b6044820152606401610867565b6108383384611c5a565b6001600160a01b03821633141561130f5760405163b06307db60e01b815260040160405180910390fd5b3360008181526008602090815260408083206001600160a01b03871680855290835292819020805460ff191686151590811790915590519081529192917f17307eab39ab6107e8899845ad3d59bd9653f200f220920489ca2b5937696c31910160405180910390a35050565b611386848484611643565b6001600160a01b0383163b156113bf576113a284848484611c74565b6113bf576040516368d2bf6b60e11b815260040160405180910390fd5b50505050565b60606113d0826115bb565b6113ed57604051630a14c4b560e41b815260040160405180910390fd5b60006113f7611d6c565b90508051600014156114185760405180602001604052806000815250611443565b8061142284611d7c565b604051602001611433929190612572565b6040516020818303038152906040525b9392505050565b6000546001600160a01b031633146114745760405162461bcd60e51b8152600401610867906126a5565b6001600160a01b0381166114d95760405162461bcd60e51b815260206004820152602660248201527f4f776e61626c653a206e6577206f776e657220697320746865207a65726f206160448201526564647265737360d01b6064820152608401610867565b6114e281611c0a565b50565b6000546001600160a01b0316331461150f5760405162461bcd60e51b8152600401610867906126a5565b6104275460ff1615156001146115865760405162461bcd60e51b815260206004820152603660248201527f5468652073616c65206d757374206265207374617274656420746f206368616e60448201527533b2903a34329032bc34b9ba34b73390383934b1b29760511b6064820152608401610867565b603c55565b6000546001600160a01b031633146115b55760405162461bcd60e51b8152600401610867906126a5565b61042a55565b6000600154821080156106da575050600090815260056020526040902054600160e01b900460ff161590565b60008281526007602052604080822080546001600160a01b0319166001600160a01b0387811691821790925591518593918516917f8c5be1e5ebec7d5bd14f71427d1e84f3dd0314c0f7b2291e5b200ac8c7c3b92591a4505050565b600061164e82611af0565b9050836001600160a01b031681600001516001600160a01b0316146116855760405162a1148160e81b815260040160405180910390fd5b6000336001600160a01b03861614806116a357506116a385336105e2565b806116be5750336116b384610772565b6001600160a01b0316145b9050806116de57604051632ce44b5f60e11b815260040160405180910390fd5b6001600160a01b03841661170557604051633a954ecd60e21b815260040160405180910390fd5b611711600084876115e7565b6001600160a01b038581166000908152600660209081526040808320805467ffffffffffffffff198082166001600160401b0392831660001901831617909255898616808652838620805493841693831660019081018416949094179055898652600590945282852080546001600160e01b031916909417600160a01b429092169190910217835587018084529220805491939091166117e55760015482146117e557805460208601516001600160401b0316600160a01b026001600160e01b03199091166001600160a01b038a16171781555b50505082846001600160a01b0316866001600160a01b031660008051602061285b83398151915260405160405180910390a45050505050565b600080610426546103e86118329190612755565b610425546040805160208101929092526bffffffffffffffffffffffff193360601b169082015244605482015242607482015290915060009082906094016040516020818303038152906040528051906020012060001c61189391906127ee565b90506000603d826103e881106118b957634e487b7160e01b600052603260045260246000fd5b0154156118eb57603d826103e881106118e257634e487b7160e01b600052603260045260246000fd5b015490506118ee565b50805b603d6118fb600185612755565b6103e8811061191a57634e487b7160e01b600052603260045260246000fd5b01546119545761192b600184612755565b603d836103e8811061194d57634e487b7160e01b600052603260045260246000fd5b01556119a7565b603d611961600185612755565b6103e8811061198057634e487b7160e01b600052603260045260246000fd5b0154603d836103e881106119a457634e487b7160e01b600052603260045260246000fd5b01555b61042580549060006119b8836127d3565b909155506119c9905081600161270a565b935050505090565b6001546001600160a01b0383166119fa57604051622e076360e81b815260040160405180910390fd5b81611a185760405163b562e8dd60e01b815260040160405180910390fd5b6001600160a01b038316600081815260066020908152604080832080546001600160801b031981166001600160401b038083168a018116918217600160401b67ffffffffffffffff1990941690921783900481168a01811690920217909155858452600590925290912080546001600160e01b031916909217600160a01b4290921691909102179055808083015b6040516001830192906001600160a01b0387169060009060008051602061285b833981519152908290a4808210611aa65750600155505050565b60006106da8261042a5433611e95565b604080516060810182526000808252602082018190529181019190915281600154811015611bf157600081815260056020908152604091829020825160608101845290546001600160a01b0381168252600160a01b81046001600160401b031692820192909252600160e01b90910460ff16151591810182905290611bef5780516001600160a01b031615611b86579392505050565b5060001901600081815260056020908152604091829020825160608101845290546001600160a01b038116808352600160a01b82046001600160401b031693830193909352600160e01b900460ff1615159281019290925215611bea579392505050565b611b86565b505b604051636f96cda160e11b815260040160405180910390fd5b600080546001600160a01b038381166001600160a01b0319831681178455604051919092169283917f8be0079c531659141344cd1fd0a4f28419497f9722a3daafe3b4186f6b6457e09190a35050565b6109af828260405180602001604052806000815250611eda565b604051630a85bd0160e11b81526000906001600160a01b0385169063150b7a0290611ca99033908990889088906004016125a1565b602060405180830381600087803b158015611cc357600080fd5b505af1925050508015611cf3575060408051601f3d908101601f19168201909252611cf09181019061246c565b60015b611d4e573d808015611d21576040519150601f19603f3d011682016040523d82523d6000602084013e611d26565b606091505b508051611d46576040516368d2bf6b60e11b815260040160405180910390fd5b805181602001fd5b6001600160e01b031916630a85bd0160e11b1490505b949350505050565b606061042b80546106ef90612798565b606081611da05750506040805180820190915260018152600360fc1b602082015290565b8160005b8115611dca5780611db4816127d3565b9150611dc39050600a83612722565b9150611da4565b6000816001600160401b03811115611df257634e487b7160e01b600052604160045260246000fd5b6040519080825280601f01601f191660200182016040528015611e1c576020820181803683370190505b5090505b8415611d6457611e31600183612755565b9150611e3e600a866127ee565b611e4990603061270a565b60f81b818381518110611e6c57634e487b7160e01b600052603260045260246000fd5b60200101906001600160f81b031916908160001a905350611e8e600a86612722565b9450611e20565b6040516bffffffffffffffffffffffff19606083901b166020820152600090611d6490859085906034016040516020818303038152906040528051906020012061206b565b6001546001600160a01b038416611f0357604051622e076360e81b815260040160405180910390fd5b82611f215760405163b562e8dd60e01b815260040160405180910390fd5b6001600160a01b038416600081815260066020908152604080832080546001600160801b031981166001600160401b038083168b018116918217600160401b67ffffffffffffffff1990941690921783900481168b01811690920217909155858452600590925290912080546001600160e01b0319168317600160a01b42909316929092029190911790558190818501903b15612029575b60405182906001600160a01b0388169060009060008051602061285b833981519152908290a4611ff26000878480600101955087611c74565b61200f576040516368d2bf6b60e11b815260040160405180910390fd5b808210611fb957826001541461202457600080fd5b61205c565b5b6040516001830192906001600160a01b0388169060009060008051602061285b833981519152908290a480821061202a575b506001556113bf600085838684565b600081815b855181101561211d57600086828151811061209b57634e487b7160e01b600052603260045260246000fd5b602002602001015190508083116120dd57604080516020810185905290810182905260600160405160208183030381529060405280519060200120925061210a565b60408051602081018390529081018490526060016040516020818303038152906040528051906020012092505b5080612115816127d3565b915050612070565b509092149392505050565b82805461213490612798565b90600052602060002090601f016020900481019282612156576000855561219c565b82601f1061216f57805160ff191683800117855561219c565b8280016001018555821561219c579182015b8281111561219c578251825591602001919060010190612181565b506121a89291506121ac565b5090565b5b808211156121a857600081556001016121ad565b60006001600160401b038311156121da576121da61282e565b6121ed601f8401601f19166020016126da565b905082815283838301111561220157600080fd5b828260208301376000602084830101529392505050565b80356001600160a01b0381168114610c1757600080fd5b600060208284031215612240578081fd5b61144382612218565b6000806040838503121561225b578081fd5b61226483612218565b915061227260208401612218565b90509250929050565b60008060006060848603121561228f578081fd5b61229884612218565b92506122a660208501612218565b9150604084013590509250925092565b600080600080608085870312156122cb578081fd5b6122d485612218565b93506122e260208601612218565b92506040850135915060608501356001600160401b03811115612303578182fd5b8501601f81018713612313578182fd5b612322878235602084016121c1565b91505092959194509250565b60008060408385031215612340578182fd5b61234983612218565b91506020830135801515811461235d578182fd5b809150509250929050565b6000806040838503121561237a578182fd5b61238383612218565b946020939093013593505050565b600060208083850312156123a3578182fd5b82356001600160401b03808211156123b9578384fd5b818501915085601f8301126123cc578384fd5b8135818111156123de576123de61282e565b8060051b91506123ef8483016126da565b8181528481019084860184860187018a1015612409578788fd5b8795505b8386101561242b57803583526001959095019491860191860161240d565b5098975050505050505050565b600060208284031215612449578081fd5b5035919050565b600060208284031215612461578081fd5b813561144381612844565b60006020828403121561247d578081fd5b815161144381612844565b600060208284031215612499578081fd5b81356001600160401b038111156124ae578182fd5b8201601f810184136124be578182fd5b611d64848235602084016121c1565b6000806000604084860312156124e1578081fd5b8335925060208401356001600160401b03808211156124fe578283fd5b818601915086601f830112612511578283fd5b81358181111561251f578384fd5b8760208260051b8501011115612533578384fd5b6020830194508093505050509250925092565b6000815180845261255e81602086016020860161276c565b601f01601f19169290920160200192915050565b6000835161258481846020880161276c565b83519083019061259881836020880161276c565b01949350505050565b6001600160a01b03858116825284166020820152604081018390526080606082018190526000906125d490830184612546565b9695505050505050565b6020815260006114436020830184612546565b60208082526024908201527f4d696e74207265717565737420657863656564732063757272656e7420737570604082015263706c792160e01b606082015260800190565b60208082526022908201527f4d696e742072657175657374206578636565647320746f74616c20737570706c604082015261792160f01b606082015260800190565b60208082526014908201527310d85b1b195c881a5cc8184818dbdb9d1c9858dd60621b604082015260600190565b6020808252818101527f4f776e61626c653a2063616c6c6572206973206e6f7420746865206f776e6572604082015260600190565b604051601f8201601f191681016001600160401b03811182821017156127025761270261282e565b604052919050565b6000821982111561271d5761271d612802565b500190565b60008261273157612731612818565b500490565b600081600019048311821515161561275057612750612802565b500290565b60008282101561276757612767612802565b500390565b60005b8381101561278757818101518382015260200161276f565b838111156113bf5750506000910152565b600181811c908216806127ac57607f821691505b602082108114156127cd57634e487b7160e01b600052602260045260246000fd5b50919050565b60006000198214156127e7576127e7612802565b5060010190565b6000826127fd576127fd612818565b500690565b634e487b7160e01b600052601160045260246000fd5b634e487b7160e01b600052601260045260246000fd5b634e487b7160e01b600052604160045260246000fd5b6001600160e01b0319811681146114e257600080fdfeddf252ad1be2c89b69c2b068fc378daa952ba7f163c4a11628f55a4df523b3efa264697066735822122062b2dca4e3609ed3d2d3aed66920b72f70bab544cc90a8f4fcd89482752f3fe664736f6c63430008040033",
  "linkReferences": {},
  "deployedLinkReferences": {}
}